:020000040800F2
:1000000038660020A94A00081D4700081F4700085D
:100010004D4700084F470008514700080000000006
:10002000000000000000000000000000534700082E
:10003000554700080000000057470008A11B0008B2
:10004000194B00081D4B0008214B0008254B0008E8
:10005000294B00082D4B0008314B0008354B000898
:10006000394B00083D4B0008414B0008454B000848
:10007000494B00084D4B0008514B0008554B0008F8
:10008000594B00085D4B0008614B0008654B0008A8
:10009000694B00086D4B0008714B0008754B000858
:1000A000794B00087D4B0008814B0008854B000808
:1000B000894B00088D4B0008914B0008954B0008B8
:1000C000994B00089D4B0008A14B0008A54B000868
:1000D000A94B00085F280008692800087328000859
:1000E000B94B0008BD4B0008C14B0008C54B0008C8
:1000F000C94B0008CD4B0008D14B0008D54B000878
:10010000D94B0008DD4B0008E14B0008E54B000827
:10011000E94B0008ED4B0008F14B0008F54B0008D7
:10012000F94B0008FD4B0008014C0008054C000885
:10013000094C00080D4C0008114C0008154C000833
:10014000194C00081D4C0008214C0008254C0008E3
:10015000294C00082D4C0008314C00087D2800086F
:10016000394C00083D4C0008414C0008454C000843
:10017000494C00084D4C0008514C0008554C0008F3
:10018000594C00085D4C0008000000000000000011
:10019000000000000000000000007E81A58181BDFC
:1001A0009981817E0000000000007EFFDBFFFFC31D
:1001B000E7FFFF7E00000000000000006CFEFEFE76
:1001C000FE7C3810000000000000000010387CFEAB
:1001D0007C38100000000000000000183C3CE7E7FD
:1001E000E718183C00000000000000183C7EFFFFEC
:1001F0007E18183C00000000000000000000183CC1
:100200003C18000000000000FFFFFFFFFFFFE7C3F6
:10021000C3E7FFFFFFFFFFFF00000000003C664256
:1002200042663C0000000000FFFFFFFFFFC399BDD6
:10023000BD99C3FFFFFFFFFF00001E0E1A3278CCEE
:10024000CCCCCC780000000000003C666666663CC2
:10025000187E18180000000000003F333F30303097
:100260003070F0E00000000000007F637F63636394
:100270006367E7E6C00000000000001818DB3CE7F9
:100280003CDB1818000000000080C0E0F0F8FEF829
:10029000F0E0C080000000000002060E1E3EFE3EA0
:1002A0001E0E0602000000000000183C7E18181800
:1002B0007E3C180000000000000066666666666608
:1002C000660066660000000000007FDBDBDB7B1B56
:1002D0001B1B1B1B00000000007CC660386CC6C6E0
:1002E0006C380CC67C00000000000000000000001C
:1002F000FEFEFEFE000000000000183C7E181818EC
:100300007E3C187E000000000000183C7E18181883
:1003100018181818000000000000181818181818ED
:10032000187E3C18000000000000000000180CFEC1
:100330000C1800000000000000000000003060FE0B
:100340006030000000000000000000000000C0C09D
:10035000C0FE0000000000000000000000286CFE4D
:100360006C28000000000000000000001038387CFD
:100370007CFEFE000000000000000000FEFE7C7C11
:1003800038381000000000000000000000000000ED
:1003900000000000000000000000183C3C3C181861
:1003A00018001818000000000066666624000000AF
:1003B00000000000000000000000006C6CFE6C6C8F
:1003C0006CFE6C6C0000000018187CC6C2C07C0675
:1003D0000686C67C1818000000000000C2C60C1873
:1003E0003060C686000000000000386C6C3876DC97
:1003F000CCCCCC7600000000003030306000000033
:10040000000000000000000000000C183030303008
:100410003030180C00000000000030180C0C0C0CE0
:100420000C0C1830000000000000000000663CFFCB
:100430003C66000000000000000000000018187E6C
:10044000181800000000000000000000000000007C
:10045000001818183000000000000000000000FE26
:10046000000000000000000000000000000000008C
:1004700000001818000000000000000002060C1820
:100480003060C080000000000000386CC6C6D6D6C0
:10049000C6C66C380000000000001838781818181C
:1004A0001818187E0000000000007CC6060C1830EA
:1004B00060C0C6FE0000000000007CC606063C06C8
:1004C0000606C67C0000000000000C1C3C6CCCFE44
:1004D0000C0C0C1E000000000000FEC0C0C0FC069A
:1004E0000606C67C0000000000003860C0C0FCC6E4
:1004F000C6C6C67C000000000000FEC606060C183A
:10050000303030300000000000007CC6C6C67CC61B
:10051000C6C6C67C0000000000007CC6C6C67E06BB
:1005200006060C780000000000000000181800000B
:10053000001818000000000000000000181800005B
:100540000018183000000000000000060C18306091
:1005500030180C060000000000000000007E0000C3
:100560007E000000000000000000006030180C0653
:100570000C1830600000000000007CC6C60C181883
:1005800018001818000000000000007CC6C6DEDE5F
:10059000DEDCC07C00000000000010386CC6C6FE27
:1005A000C6C6C6C6000000000000FC6666667C6623
:1005B000666666FC0000000000003C66C2C0C0C069
:1005C000C0C2663C000000000000F86C666666660B
:1005D00066666CF8000000000000FE6662687868DD
:1005E000606266FE000000000000FE6662687868D7
:1005F000606060F00000000000003C66C2C0C0DE29
:10060000C6C6663A000000000000C6C6C6C6FEC6E2
:10061000C6C6C6C60000000000003C18181818180E
:100620001818183C0000000000001E0C0C0C0C0CEC
:10063000CCCCCC78000000000000E666666C7878D0
:100640006C6666E6000000000000F06060606060BC
:10065000606266FE000000000000C6EEFEFED6C628
:10066000C6C6C6C6000000000000C6E6F6FEDECE26
:10067000C6C6C6C60000000000007CC6C6C6C6C608
:10068000C6C6C67C000000000000FC6666667C6092
:10069000606060F00000000000007CC6C6C6C6C6F0
:1006A000C6D6DE7C0C0E00000000FC6666667C6C24
:1006B000666666E60000000000007CC6C660380C76
:1006C00006C6C67C0000000000007E7E5A1818187E
:1006D0001818183C000000000000C6C6C6C6C6C6F2
:1006E000C6C6C67C000000000000C6C6C6C6C6C698
:1006F000C66C3810000000000000C6C6C6C6D6D6BC
:10070000D6FEEE6C000000000000C6C66C7C3838D7
:100710007C6CC6C6000000000000666666663C1879
:100720001818183C000000000000FEC6860C1830A7
:1007300060C2C6FE0000000000003C3030303030A7
:100740003030303C0000000000000080C0E0703815
:100750001C0E06020000000000003C0C0C0C0C0CEF
:100760000C0C0C3C0000000010386CC600000000AF
:100770000000000000000000000000000000000079
:100780000000000000FF00003030180000000000F2
:1007900000000000000000000000000000780C7C59
:1007A000CCCCCC76000000000000E06060786C6685
:1007B0006666667C0000000000000000007CC6C089
:1007C000C0C0C67C0000000000001C0C0C3C6CCCBF
:1007D000CCCCCC760000000000000000007CC6FEFF
:1007E000C0C0C67C000000000000386C6460F0608F
:1007F000606060F000000000000000000076CCCCDB
:10080000CCCCCC7C0CCC78000000E060606C7666D0
:10081000666666E600000000000018180038181828
:100820001818183C0000000000000606000E06061E
:100830000606060666663C000000E06060666C78AE
:10084000786C66E6000000000000381818181818C8
:100850001818183C000000000000000000ECFED654
:10086000D6D6D6C6000000000000000000DC666698
:10087000666666660000000000000000007CC6C6D8
:10088000C6C6C67C000000000000000000DC6666F2
:100890006666667C6060F000000000000076CCCCEC
:1008A000CCCCCC7C0C0C1E000000000000DC76667A
:1008B000606060F00000000000000000007CC66086
:1008C000380CC67C000000000000103030FC3030D6
:1008D0003030361C000000000000000000CCCCCC02
:1008E000CCCCCC76000000000000000000666666FC
:1008F00066663C18000000000000000000C6C6D676
:10090000D6D6FE6C000000000000000000C66C3867
:1009100038386CC6000000000000000000C6C6C6E3
:10092000C6C6C67E060CF8000000000000FECC180B
:100930003060C6FE0000000000000E181818701885
:100940001818180E000000000000181818180018D9
:1009500018181818000000000000701818180E1859
:100960001818187000000000000076DC000000007D
:1009700000000000000000000000000010386CC6FD
:10098000C6C6FE000000000000003C66C2C0C0C039
:10099000C2663C0C067C00000000CC0000CCCCCC35
:1009A000CCCCCC7600000000000C1830007CC6FED9
:1009B000C0C0C67C000000000010386C00780C7CC1
:1009C000CCCCCC76000000000000CC0000780C7C81
:1009D000CCCCCC76000000000060301800780C7C95
:1009E000CCCCCC760000000000386C3800780C7C51
:1009F000CCCCCC7600000000000000003C666060BB
:100A0000663C0C063C0000000010386C007CC6FE02
:100A1000C0C0C67C000000000000C600007CC6FE0E
:100A2000C0C0C67C0000000000603018007CC6FE1C
:100A3000C0C0C67C00000000000066000038181826
:100A40001818183C0000000000183C660038181800
:100A50001818183C00000000006030180038181802
:100A60001818183C0000000000C60010386CC6C6FC
:100A7000FEC6C6C600000000386C3800386CC6C61A
:100A8000FEC6C6C60000000018306000FE66607C2E
:100A9000606066FE000000000000000000CC7636BA
:100AA0007ED8D86E0000000000003E6CCCCCFECC9E
:100AB000CCCCCCCE000000000010386C007CC6C648
:100AC000C6C6C67C000000000000C600007CC6C68A
:100AD000C6C6C67C0000000000603018007CC6C698
:100AE000C6C6C67C00000000003078CC00CCCCCC60
:100AF000CCCCCC76000000000060301800CCCCCC10
:100B0000CCCCCC76000000000000C60000C6C6C6F3
:100B1000C6C6C67E060C780000C6007CC6C6C6C621
:100B2000C6C6C67C0000000000C600C6C6C6C6C653
:100B3000C6C6C67C000000000018183C66606060F5
:100B4000663C18180000000000386C6460F06060BB
:100B50006060E6FC00000000000066663C187E183D
:100B60007E1818180000000000F8CCCCF8C4CCDEC9
:100B7000CCCCCCC600000000000E1B1818187E1844
:100B800018181818D87000000018306000780C7C15
:100B9000CCCCCC7600000000000C183000381818BF
:100BA0001818183C0000000000183060007CC6C611
:100BB000C6C6C67C000000000018306000CCCCCC5B
:100BC000CCCCCC7600000000000076DC00DC666651
:100BD000666666660000000076DC00C6E6F6FEDEAD
:100BE000CEC6C6C600000000003C6C6C3E007E0015
:100BF000000000000000000000386C6C38007C0031
:100C000000000000000000000000303000303060C4
:100C1000C0C6C67C00000000000000000000FEC04E
:100C2000C0C0C00000000000000000000000FE0680
:100C3000060606000000000000C0C0C2C6CC183086
:100C400060DC860C183E000000C0C0C2C6CC183064
:100C500066CE9E3E06060000000018180018181800
:100C60003C3C3C18000000000000000000366CD83E
:100C70006C360000000000000000000000D86C3658
:100C80006CD80000000000001144114411441144CC
:100C9000114411441144114455AA55AA55AA55AA04
:100CA00055AA55AA55AA55AADD77DD77DD77DD77F8
:100CB000DD77DD77DD77DD77181818181818181824
:100CC000181818181818181818181818181818F8C4
:100CD00018181818181818181818181818F818F8D4
:100CE000181818181818181836363636363636F6D4
:100CF000363636363636363600000000000000FE46
:100D000036363636363636360000000000F818F82B
:100D100018181818181818183636363636F606F613
:100D20003636363636363636363636363636363663
:100D300036363636363636360000000000FE06F609
:100D400036363636363636363636363636F606FEEB
:100D5000000000000000000036363636363636FE1B
:100D600000000000000000001818181818F818F803
:100D7000000000000000000000000000000000F87B
:100D80001818181818181818181818181818181FDC
:100D9000000000000000000018181818181818FFAC
:100DA000000000000000000000000000000000FF44
:100DB0001818181818181818181818181818181FAC
:100DC000181818181818181800000000000000FF64
:100DD000000000000000000018181818181818FF6C
:100DE000181818181818181818181818181F181F75
:100DF0001818181818181818363636363636363782
:100E00003636363636363636363636363637303F7E
:100E1000000000000000000000000000003F30372C
:100E200036363636363636363636363636F700FF0E
:100E300000000000000000000000000000FF00F7BC
:100E40003636363636363636363636363637303746
:100E500036363636363636360000000000FF00FFE4
:100E600000000000000000003636363636F700F786
:100E700036363636363636361818181818FF00FF4C
:100E8000000000000000000036363636363636FFE9
:100E900000000000000000000000000000FF00FF54
:100EA000181818181818181800000000000000FF83
:100EB0003636363636363636363636363636363FC9
:100EC000000000000000000018181818181F181F54
:100ED000000000000000000000000000001F181FBC
:100EE0001818181818181818000000000000003F03
:100EF000363636363636363636363636363636FFC9
:100F000036363636363636361818181818FF18FFA3
:100F1000181818181818181818181818181818F871
:100F20000000000000000000000000000000001FA2
:100F30001818181818181818FFFFFFFFFFFFFFFFF9
:100F4000FFFFFFFFFFFFFFFF00000000000000FFAA
:100F5000FFFFFFFFFFFFFFFFF0F0F0F0F0F0F0F019
:100F6000F0F0F0F0F0F0F0F00F0F0F0F0F0F0F0F89
:100F70000F0F0F0F0F0F0F0FFFFFFFFFFFFFFF0000
:100F80000000000000000000000000000076DCD837
:100F9000D8D8DC7600000000000078CCCCCCD8CCCF
:100FA000C6C6C6CC000000000000FEC6C6C0C0C059
:100FB000C0C0C0C00000000000000000FE6C6C6CEF
:100FC0006C6C6C6C00000000000000FEC660301805
:100FD0003060C6FE0000000000000000007ED8D88F
:100FE000D8D8D87000000000000000006666666671
:100FF000667C6060C00000000000000076DC18180D
:1010000018181818000000000000007E183C6666E2
:10101000663C187E00000000000000386CC6C6FE6A
:10102000C6C66C38000000000000386CC6C6C66C2E
:101030006C6C6CEE0000000000001E30180C3E6668
:101040006666663C0000000000000000007EDBDBFE
:10105000DB7E00000000000000000003067EDBDBFA
:10106000F37E60C00000000000001C3060607C6007
:101070006060301C000000000000007CC6C6C6C6D0
:10108000C6C6C6C60000000000000000FE0000FE4C
:101090000000FE00000000000000000018187E188C
:1010A000180000FF0000000000000030180C060CC3
:1010B0001830007E000000000000000C1830603086
:1010C000180C007E0000000000000E1B1B181818F2
:1010D0001818181818181818181818181818181890
:1010E000D8D8D87000000000000000001818007E5A
:1010F0000018180000000000000000000076DC006E
:1011000076DC00000000000000386C6C3800000045
:1011100000000000000000000000000000000018B7
:1011200018000000000000000000000000000000A7
:101130001800000000000000000F0C0C0C0C0CEC60
:101140006C6C3C1C0000000000D86C6C6C6C6C007B
:1011500000000000000000000070D83060C8F800F7
:101160000000000000000000000000007C7C7C7C8F
:101170007C7C7C00000000000000000000000000FB
:10118000000000000000000080B500F03EFB3220AF
:1011900000F0D5FCAE2000F00EFC002000F00BFCAF
:1011A000102000F008FC402000F005FC812000F039
:1011B00002FCCF2000F0FFFBA02000F0FCFBC020D1
:1011C00000F0F9FBA62000F0F6FBA82000F0F3FBEE
:1011D0003F2000F0F0FBD32000F0EDFB002000F0FA
:1011E000EAFBD52000F0E7FB802000F0E4FBD920EB
:1011F00000F0E1FBF12000F0DEFBDA2000F0DBFB89
:10120000122000F0D8FBDB2000F0D5FB402000F0DE
:10121000D2FB8D2000F0CFFB142000F0CCFBAF20E0
:1012200000F0C9FB01BD10B50400E4B2002C06D1EA
:10123000A02000F0C0FBC02000F0BDFB05E0A12015
:1012400000F0B9FBC82000F0B6FB10BD10B50400DB
:10125000812000F0B0FB2000C0B200F0ACFB10BD5C
:1012600070B5040000200600F6B2082E10D200204F
:101270000500EDB2802D09D2EDB2F6B28020DFF884
:101280004C1700FB06102C546D1CF2E7761CEBE7A4
:10129000DFF834070078012801D100F001F870BDB3
:1012A00038B500200400E4B2082C1DD2B4F150007F
:1012B000C0B200F080FB002000F07DFB102000F0A9
:1012C0007AFB00200500EDB2802D0BD2EDB2E4B226
:1012D0008020DFF8F81600FB0410285C00F06FFB9C
:1012E0006D1CF0E7641CDEE731BD2DE9FA4F97B0C5
:1012F000040015001898008801280FD10C208DF8E3
:1013000003000C208DF8010018208DF80000DFF894
:10131000C0060290DFF8BC0601900EE010208DF8A8
:10132000030010208DF8010020208DF80000DFF868
:10133000A8060290DFF8A40601902878002800F0A3
:10134000AA8028788DF802009DF80200802818D223
:101350009DF80000022190FBF1F29DF802009DF83B
:101360000010022391FBF3F1029B01FB003104A862
:1013700000F01AFC9DF80100022190FBF1F0834679
:101380003CE06D1C28788DF80C009DF80C000028BE
:1013900000F08180002080465FFA88F89DF8000008
:1013A000801C00FB08F0070018F101089DF80200FE
:1013B0000199795C88420FD19DF80C000199791848
:1013C0004978884208D1BF1C9DF80020019839183F
:1013D00004A800F0E9FB0EE00198385CFF28DBD19F
:1013E000019838184078FF28D6D19DF80020FF21B9
:1013F00004A800F0E4FB9DF801008346BDF85C0002
:101400008246002080469DF803005FFA88F88045F8
:101410003AD2A146002006005FFA8BFB5E452ED231
:101420005FFA88F85FFA8BFB5FEA4B009DF80110CA
:1014300090FBF1F0F10800FB081004A9405C80214A
:101440000822B6FBF2F303FB12631941084209D0EC
:1014500018984288D2B2514689B2484680B200F00C
:101460001DF808E018988288D2B2514689B24846E1
:1014700080B200F013F819F10109761CCCE71AF1DB
:10148000010A18F10108BEE71898C08850FA8BF0DD
:1014900004196D1C51E719B0BDE8F08F2DE9F04338
:1014A00085B004000D00160002A8DFF834150CC941
:1014B0000CC00839083800A8DFF828150CC90CC082
:1014C00008390838ADB2082095FBF0F080462000BE
:1014D00081465FFA89F95FFA88F88020DFF8EC141A
:1014E00000FB081019F800000700F6B2002E09D121
:1014F000ADB2082095FBF0F101FB105100A8085C8B
:10150000074008E0ADB2082095FBF0F101FB105157
:1015100002A8085C07435FFA89F95FFA88F880201F
:10152000DFF8A81400FB081009F80070DFF8980431
:101530000078012814D1B8F15000C0B200F03BFA95
:1015400019F00F0000F037FA5FFA89F95FEA191015
:101550001030C0B200F02FFA3800C0B200F02FFAFD
:1015600005B0BDE8F0832DE9F04F87B004000D0011
:1015700016001F009DF84020290089B2200080B28B
:10158000FFF78CFFA4B2B6B2B44203D1ADB2BFB282
:10159000BD4278D000200190B6B2A4B2A64204D3D6
:1015A000B6B2A4B2301B009003E0A4B2B6B2A01B46
:1015B0000090BFB2ADB2AF4204D3BFB2ADB2781BA0
:1015C000804603E0ADB2BFB2E81B804600984045BC
:1015D0000DDA0121019120002C00050030003E00B1
:1015E000070000990800CDF8008080B28046A4B2C0
:1015F000B6B2B44202D20120049002E05FF0FF30A4
:101600000490ADB2BFB2BD4202D20120039002E00D
:101610005FF0FF300390A4B2A246ADB2AB465FEAE2
:10162000480002900098B8EB000040000590029836
:101630000099401A8146B6B2B24524D0B9F1000FE4
:1016400003D5029810EB090905E0039810EB0B0B8A
:10165000059810EB09090198002808D09DF8402052
:10166000514689B2584680B2FFF718FF07E09DF84F
:101670004020594689B2504680B2FFF70FFF0498C8
:1016800010EB0A0AD7E707B0BDE8F08F2DE9F0416B
:1016900082B005000E0017009846089CE4B2009442
:1016A00033009BB218EB0500421E92B2310089B2A2
:1016B000280080B2FFF757FFE4B2009456FA87F093
:1016C000431E9BB218EB0500421E92B256FA87F0F9
:1016D000411E89B2280080B2FFF745FFE4B20094B2
:1016E00056FA87F0431E9BB22A0092B2310089B2AB
:1016F000280080B2FFF737FFE4B2009456FA87F370
:101700009BB218EB0500421E92B2310089B218EB71
:101710000500401E80B2FFF726FFBDE8F3812DE9EA
:10172000F04704000D0016001F00B6B27000D0F1A3
:101730000300804600208146B6B2B246CA4562D355
:101740003A00D2B21AEB050189B219EB040080B25B
:10175000FFF7A4FE3A00D2B2B5EB0A0189B219EB49
:10176000040080B2FFF79AFE3A00D2B21AEB0501EC
:1017700089B2B4EB090080B2FFF790FE3A00D2B212
:10178000B5EB0A0189B2B4EB090080B2FFF786FE1F
:101790003A00D2B219EB050189B21AEB040080B20B
:1017A000FFF77CFE3A00D2B2B5EB090189B21AEB21
:1017B000040080B2FFF772FE3A00D2B219EB0501C5
:1017C00089B2B4EB0A0080B2FFF768FE3A00D2B2E9
:1017D000B5EB090189B2B4EB0A0080B2FFF75EFEF7
:1017E000B8F1000F04D518EB890010F1060807E0E6
:1017F000B9EB0A0018EB800010F10A08BAF1010AEF
:1018000019F101099AE7BDE8F08700B599B0012107
:10181000012000F06FFA0121582000F05CFA0C2240
:101820000021714800F0FBFA0C2201216E4800F003
:10183000F6FA0C2204216C4800F0F1FA0C22052182
:10184000694800F0ECFA0C220821674800F0E7FA3A
:101850000C220921644800F0E2FA0C220A216248B5
:1018600000F0DDFA0C220E215F4800F0D8FA0C22BD
:101870000F215D4800F0D3FA4CF233700090022043
:101880008DF8040003208DF8050000208DF8060077
:1018900000208DF8070000A9534800F06BFA0C22D5
:1018A0000421524800F0BBFA0C2205214F4800F0F9
:1018B000B6FA0C2207214D4800F0B1FA0C2208219B
:1018C0004A4800F0ACFA0C220921484800F0A7FA77
:1018D0000C220A21454800F0A2FA0C220B214348B1
:1018E00000F09DFA0C220C21404800F098FA0C22DE
:1018F0000D213E4800F093FA0C220E213B4800F0E7
:101900008EFA0C220F21394800F089FA4FF6B07098
:10191000009000A9354800F02DFA0C220D21324824
:1019200000F07DFA4FF40050009000A92E4800F01E
:1019300021FA0C220C212E4800F071FA4FF480504D
:10194000009000A92A4800F015FA03200290002018
:1019500003900620049001200590002006900020AE
:101960000790002008900620099000200A9000208F
:101970000B9010200C9000200D9000200E90002065
:101980000F9000201090002011904FF48050129082
:1019900000201390002014900020159002A81690AB
:1019A00002A8179009A800F067FA0121062000F0AC
:1019B000D3FA19B000BD0F49C0B2088070470E4974
:1019C000C0B2088070470000540000205808002072
:1019D0006C2F00086035000888010008C43A000830
:1019E000DC4A0008E44A0008000C024000100240F3
:1019F000001802400000206C0000286C40B2002853
:101A000008D540B210F00F025A4BD2180B0102F861
:101A1000043C03E040B2584A0B018354704710B5B0
:101A20000400601EB0F1807F01D301200EE0601E33
:101A3000524908600F215FF0FF30FFF7DFFF504889
:101A4000002101604F4807210160002010BD10B542
:101A500000200400E4B2042C1DD2E4B20C204A4958
:101A600000FB041000214160E4B20C20464900FB59
:101A7000041000218160E4B20C20434900FB0410F3
:101A800000214170E4B20C203F4900FB041000210A
:101A90000170641CDEE73D4800684FF47A71B0FBCA
:101AA000F1F0FFF7BCFF10BD10B539480068002801
:101AB00009D037480068401E35490860002802D127
:101AC00034480121017000200400E4B2042C08D243
:101AD000E4B20C202C4900FB041000F020F8641C38
:101AE000F3E72D480068401C2B4908602A4800682D
:101AF0007FF00041884202D127480021016000F0B8
:101B000055FA26480078401C24490870C0B20A28BB
:101B100004D322480021017000F044FA10BD41684E
:101B200000290BD04168491E4160002906D10121DE
:101B300041700178012901D181684160704710B579
:101B40000400002C14D0012C01D10220040001203B
:101B500080F310880E4804600E48002101700020B8
:101B600080F3108800F023FA0A4800780128F9D1A0
:101B700010BD000018ED00E000E400E014E000E01B
:101B800018E000E010E000E04825002050000020B0
:101B900028260020302600202C2600203126002078
:101BA00080B5FFF781FF01BD70B504000D00160080
:101BB00032002900200000F0FBF9200070BD70B554
:101BC00004000D0016002A003100200000F042FA47
:101BD000200070BDF0B40021002200230224002563
:101BE0000226DFF86C713F6817F00C0739000F0010
:101BF000002F04D0042F06D0082F08D03CE0DFF8D7
:101C0000587107603BE0DFF85471076037E0DFF898
:101C100044713F68C7F380573D00DFF838713F6873
:101C200017F03F073E00002D0DD0DFF83071B7FBF5
:101C3000F6F7DFF820C1DCF800C0CCF3881C0CFB01
:101C400007F73B000CE0DFF81071B7FBF6F7DFF8A1
:101C500004C1DCF800C0CCF3881C0CFB07F73B0088
:101C6000DFF8F0703F68C7F301477F1C7F003C003E
:101C7000B3FBF4F7076002E0DFF8DC700760DFF821
:101C8000D0703F6817F0F00739000909DFF8D0700D
:101C9000CF5D3A000768D7404760DFF8B4703F680F
:101CA00017F4E0573900890ADFF8B470CF5D3A00C5
:101CB0004768D7408760DFF898703F6817F460473F
:101CC0003900490BDFF89870CF5D3A004768D7407C
:101CD000C760F0BC7047C9B2002905D0214A12681C
:101CE0000243204B1A6004E01E4A126882431D4BD7
:101CF0001A607047C9B2002905D01B4A1268024316
:101D0000194B1A6004E0184A12688243164B1A6095
:101D10007047C9B2002905D0144A12680243134B18
:101D20001A6004E0114A12688243104B1A6070472F
:101D3000C9B2002905D00E4A126802430C4B1A6042
:101D400004E00B4A12688243094B1A607047000096
:101D500008380240043802400024F40040787D0135
:101D600040000020303802403838024040380240FD
:101D700044380240F0B400220023002400252A0049
:101D8000102A4AD2012595402B000D681D402C00D9
:101D90009C4240D1056803261700FFB27F00BE4079
:101DA000B543056005680E791700FFB27F00BE409D
:101DB000354305600D79012D02D00D79022D1AD120
:101DC000856803261700FFB27F00BE40B5438560DB
:101DD00085684E791700FFB27F00BE4035438560AD
:101DE000456801269640B543456045688E79964022
:101DF000B6B235434560C56803261700FFB27F00C1
:101E0000BE40B543C560C568CE791700FFB27F00FC
:101E1000BE403543C560521CB2E7F0BC7047F0B419
:101E200000230024D2B211F00705EDB2AD0012FA82
:101E300005F52B0089B2CD1010EB850589B2CE10C7
:101E400010EB8606366A0F2711F0070C5FFA8CFC40
:101E50005FEA8C0C17FA0CF7BE432E6289B2CD10E4
:101E600010EB85052D6A1D432C0089B2CD1010EBB7
:101E700085052C62F0BC7047416882681143C268D6
:101E80001143026911434269114382691143C269D6
:101E90001143026A1143426A1143826A1143C26AC2
:101EA0001143026B114302689200B2F1C04211600B
:101EB000816808290BD101688900B1F1C041096826
:101EC00051F0400102689200B2F1C0421160416BD2
:101ED0000968426B526851EA0211426B926851EAFA
:101EE0000221426BD26851EA0241426B126951EA07
:101EF0000251426B526951EA0261426B926911438D
:101F000002689200B2F1C0425160C16AB1F5804FDF
:101F10001AD1816B0968826B526851EA0211826B97
:101F2000926851EA0221826B126951EA0251826B76
:101F3000526951EA0261826B926911430268DFF8CB
:101F40004C3043F8221006E00168DFF840207FF0B3
:101F5000704342F821307047C9B200290AD082008C
:101F6000B2F1C042126852F001028300B3F1C043E3
:101F70001A600AE08200B2F1C0421268DFF8103045
:101F80001A408300B3F1C0431A607047040100A0F7
:101F9000FEFF0F0080B500F0A1F800F011FDFFF783
:101FA00056FD01BD80B500F093FE01BD704770473E
:101FB00062B38B0708D0521E11F8013B00F8013BB9
:101FC00000F024808B07F6D1830740F0208000BF0B
:101FD000103A07D330B4B1E83810103AA0E83810FE
:101FE000F9D230BC530724BFB1E80810A0E80810AC
:101FF00044BF51F8043B40F8043BD20724BF31F8FA
:10200000022B20F8022B44BF0B7803707047083A6C
:1020100007D3B1E80810083A40F8043B40F804CB75
:10202000F7D25307E4E710B450F8041B81B10268FB
:102030001218001D50F8043BDC0744BFA9F101044D
:10204000E31852F8044B43F8044B091FF9D1EBE7AE
:1020500010BC704762F30F2262F31F42401810F069
:10206000030308D0C91A1FD3DB0748BF00F8012DAE
:1020700028BF20F8022D130030B41446154610393D
:1020800028BF20E93C00FAD8490728BF20E90C0006
:1020900048BF40F8042D890028BF20F8022D48BF12
:1020A00000F8012D30BC7047C91818BF00F8012D89
:1020B000CB0728BF00F8012D704750F8041B61B111
:1020C00050F8042BD30744BFA9F101039A18002349
:1020D00042F8043B091FFAD1EFE7704780B500F0E2
:1020E00054F800F048F900F0D2FA01BD0100C9B27D
:1020F000002902D1DFF890071CE0C9B2012902D102
:10210000DFF8880716E0C9B2022902D1DFF880079C
:1021100010E0C9B2032901D100200BE0C9B20429A3
:1021200001D1002006E0C9B2052902D1DFF8640719
:1021300000E000207047F8B504000D0016002000F4
:10214000C0B2FFF7D3FF0700002F0AD0F8690028BC
:1021500001D0F8698047320092B22900380000F0BF
:10216000CCFAF1BD13B50400012201A92000C0B2D0
:10217000FFF7E1FF13BDDFF820070421018070475E
:10218000DFF81807042101807047DFF8FC06DFF84C
:1021900010170160DFF8F006DFF808174160DFF87C
:1021A000E806DFF804178160DFF8DC064FF4806191
:1021B0008181DFF8D4064FF48061C181DFF8C80661
:1021C00000210182DFF8C00600214182DFF8B80655
:1021D0000021C182DFF8B00600210183DFF8A806E4
:1021E00000214183DFF8A00600218182DFF89806F4
:1021F0000021C161DFF8900600210162DFF8880646
:1022000000214162DFF88406DFF8A0160160DFF8E4
:102210007C06DFF89C164160DFF87006DFF8941644
:102220008160DFF8680601218181DFF860064FF4E4
:102230000061C181DFF8540600210182DFF84C06FD
:1022400000214182DFF844060021C182DFF83C060C
:1022500000210183DFF8340600214183DFF82C06DA
:1022600000218182DFF824060021C161DFF81C060D
:1022700000210162DFF8140600214162DFF8100638
:10228000DFF834160160DFF80806DFF83016416029
:10229000DFF8FC05DFF828168160DFF8F4054FF45D
:1022A00080618181DFF8E8054FF48061C181DFF84A
:1022B000E00500210182DFF8D80500214182DFF826
:1022C000D0050021C182DFF8C80500210183DFF8B5
:1022D000C00500214183DFF8B80500218182DFF8C5
:1022E000B005DFF8E015C161DFF8A405DFF8D81507
:1022F0000162DFF89C0500214162DFF89805DFF8F4
:10230000CC150160DFF88C05DFF8C4154160DFF8FB
:102310008405DFF8C0158160DFF878054FF480612F
:102320008181DFF870054FF48061C181DFF86405B9
:1023300000210182DFF85C0500214182DFF85405AD
:102340000021C182DFF84C0500210183DFF844053C
:1023500000214183DFF83C0500218182DFF834054C
:102360000021C161DFF82C0500210162DFF824059E
:1023700000214162704700B587B001210120FFF7BD
:10238000AAFC01211020FFF7D3FC07220921DFF866
:102390004805FFF744FD07220A21DFF83C05FFF757
:1023A0003EFD00208DF8060001208DF80700022078
:1023B0008DF804004FF40070009002208DF80500A5
:1023C00000A9DFF81405FFF7D5FC02208DF8040002
:1023D0004FF48060009000A9DFF8FC04FFF7CAFC0E
:1023E0005FF4E13002900020ADF80C000020ADF861
:1023F0000E000020ADF810000020ADF814000C20F5
:10240000ADF8120002A9DFF8980400F06FFC012279
:1024100040F22551DFF8880400F0FCFC0121DFF8D0
:10242000800400F0E1FC4021DFF8740400F01DFDA1
:1024300001210120FFF74FFC01215FF40030FFF77D
:1024400068FC07220321DFF89004FFF7E8FC002076
:102450008DF8060001208DF8070002208DF8040099
:1024600002208DF804000820009002208DF805005D
:1024700000A9DFF86404FFF77DFC4FF416500290CA
:102480000020ADF80C000020ADF80E000020ADF8E3
:1024900010000020ADF814000420ADF8120002A9CD
:1024A000DFF8080400F022FC012240F22551DFF899
:1024B000FC0300F0AFFC0121DFF8F00300F094FC16
:1024C0004021DFF8E80300F0D0FC01210220FFF7F3
:1024D00002FC01208DF8040000208DF80600002089
:1024E0008DF8070003208DF805000420009000A956
:1024F000DFF8E803FFF73EFC01210220FFF7EBFBCA
:1025000001215FF48020FFF704FC07220A21DFF895
:10251000CC03FFF784FC07220B21DFF8C003FFF791
:102520007EFC00208DF8060001208DF807000220B7
:102530008DF804004FF48060009002208DF80500B3
:1025400000A9DFF89803FFF715FC02208DF80400BE
:102550004FF40060009000A9DFF88003FFF70AFC49
:102560004FF4165002900020ADF80C000020ADF89A
:102570000E000020ADF810000020ADF814000C2073
:10258000ADF8120002A9CC4800F0B0FB012240F2E5
:102590002551C94800F03EFC0121C74800F024FC49
:1025A0004021C54800F061FC01214420FFF793FB66
:1025B00001212020FFF7BCFB08220E21C848FFF7AD
:1025C0002EFC08220721C748FFF729FC0822082112
:1025D000C348FFF724FC08220F21C148FFF71FFC66
:1025E00000208DF8060001208DF8070002208DF8EC
:1025F00004004FF48040009002208DF8050000A9EF
:10260000B748FFF7B7FB02208DF804008020009048
:1026100000A9B448FFF7AEFB02208DF804004FF488
:102620008070009000A9AE48FFF7A4FB02208DF84F
:1026300004004FF40040009000A9A948FFF79AFB5E
:102640005FF4E13002900020ADF80C000020ADF8FE
:102650000E000020ADF810004FF44070ADF81400EB
:102660000C20ADF8120002A9984800F03FFB0122AF
:1026700040F22551954800F0CDFB0121934800F030
:10268000B3FB4021914800F0F0FB07B000BD80B5DE
:102690004FF4E06000F026FC25208DF800000020BB
:1026A0008DF8020001208DF8030000A800F01FFC47
:1026B00026208DF8000001208DF8020001208DF801
:1026C000030000A800F013FC27208DF80000022072
:1026D0008DF8020001208DF8030000A800F007FC2F
:1026E00047208DF8000005208DF8020001208DF8AC
:1026F000030000A800F0FBFB01BDF8B504000D00CD
:10270000160000200700BFB2B6B2B74224D20121A2
:1027100081F31088A18A0800002181F31088A18923
:1027200080B28842F3D2218A6268BFB27B5D8B544B
:10273000012181F31088218A491C2182A28989B252
:10274000914201D300202082A08A401CA082002058
:1027500080F310887F1CD6E7012240F227712068A1
:1027600000F058FBF1BD10B5040040F2255120687F
:1027700000F081FB00281DD0206800F047FBE18AB3
:10278000A2688854E08A401CE082E18980B28842D5
:1027900001D30020E082608BE189884202D2608B05
:1027A000401C6083608B012804D1606A002801D03E
:1027B000606A804740F22771206800F05CFB0028C7
:1027C00023D0A08A00280CD1002240F22771206873
:1027D00000F020FB012240F22661206800F01AFB85
:1027E0003CE0608A6168415C89B2206800F00AFBC5
:1027F000608A401C6082A18980B2884201D3002097
:102800006082A08A401EA08228E040F226612068F3
:1028100000F031FB002821D0A08A00280BD1002233
:1028200040F22661206800F0F5FA206A002815D0F1
:10283000206A804712E0608A6168415C89B2206842
:1028400000F0E0FA608A401C6082A18980B2884270
:1028500001D300206082A08A401EA08210BD80B5F6
:102860000948FFF780FF01BD80B50848FFF77BFFEF
:1028700001BD80B50648FFF776FF01BD80B505486C
:10288000FFF771FF01BD000078250020A025002082
:10289000C8250020F0250020180402401A04024038
:1028A00000100140580C0020581000200044004047
:1028B0003226002058000020004800405814002014
:1028C00058180020772100088121000800140140D9
:1028D000581C002058200020000002400004024044
:1028E000001802400008024038B504000D00210025
:1028F000C9B20020FFF736FC200032BDDFF87803B4
:102900000068C00501D4012000E000207047DFF816
:102910006C030068800401D4012000E000207047AF
:10292000DFF854030068000501D4012000E0002016
:102930007047DFF84C030068400701D4012000E035
:1029400000207047DFF838030068000701D4012039
:1029500000E000207047DFF82C030068000501D478
:10296000012000E000207047DFF81C03006800062B
:1029700001D4012000E000207047DFF80403006864
:10298000000401D4012000E00020704780B5FFF76B
:10299000B5FF002805D0FFF7BAFF002801D00120BD
:1029A00000E0002002BD80B5FFF7A8FF002805D099
:1029B000FFF7ADFF002801D0012000E0002002BD9C
:1029C00080B500F079F800F02EF801BDDFF8BC12F8
:1029D000C97ADFF8B8228854AC49C97A491CAB4A95
:1029E000D172C9B20A2902D3A8490022CA7270471B
:1029F000A648807AA54AD27A904201D1002011E0FF
:102A0000A248807AA14A805C0100A048807A401CDC
:102A10009E4A9072C0B20A2802D39C480022827259
:102A20000800C0B2704700B583B001214FF4F270C6
:102A3000FFF751F900208DF8040000208DF8060002
:102A400000208DF8070002208DF805004FF48070FB
:102A5000009000A98F48FFF78DF94FF400500090C7
:102A600000A98D48FFF786F94FF40060009000A997
:102A70008848FFF77FF90420009000A98748FFF7F6
:102A800079F90820009000A98448FFF773F94FF402
:102A90000060009000A98248FFF76CF98020009048
:102AA00000A98048FFF766F94FF40040009000A9A4
:102AB0007A48FFF75FF907BD744900228A727349AB
:102AC0000022CA72714900220A7300210800C0B2B4
:102AD0000A281FD2C0B26E4911EB001164220A818C
:102AE000C0B26B4911EB001102220A71C0B26849F1
:102AF00011EB001100228A72C0B2654911EB00117E
:102B00000022CA72C0B2624911EB001100220A739E
:102B1000401CDCE75E4964220A875D49052281F892
:102B20003B205B496422A1F848205949052281F8DD
:102B30004B2057496422A1F858205549052281F8B5
:102B40005B2053496422A1F868205149052281F88D
:102B50006B204F49544A0A604D49544A0A614C4916
:102B6000534A0A624A49534A0A634949524A0A6423
:102B70004749524A0A654649514A0A664449514AF8
:102B80000A674349504AC1F8802041494F4AC1F879
:102B90009020704738B50400E4B23D4810EB0410B3
:102BA000050028688047002845D02879052802D2EA
:102BB000052028715DE028790A2803D22879401C75
:102BC000287156E0A87A002809D10120A872E4B241
:102BD000032000FB04F0401CC0B2FFF7F7FE288979
:102BE000012846D3E888298988420FD2E888401C0A
:102BF000E880298980B288423BD1E4B2032000FBFF
:102C000004F0C01CC0B2FFF7E1FE32E0E87A012810
:102C10002FD3287B401C2873E97AC0B2884228D37E
:102C200000202873E4B2032000FB04F0401CC0B273
:102C3000FFF7CCFE1DE02879062802D30520287175
:102C400013E02879002803D02879401E28710CE071
:102C5000A87A012809D10020A872E4B2032000FB61
:102C600004F0801CC0B2FFF7B1FE0020E880002015
:102C7000287331BD000000001020024010080240FF
:102C8000101C0240101402401018024018260020A8
:102C9000582400200020024000080240001C02408E
:102CA0000014024000180240FD2800080F29000807
:102CB0002129000833290008452900085729000860
:102CC000692900087B2900088D290008A729000828
:102CD00010B500200400E4B20A2C05D22000C0B2D6
:102CE000FFF758FF641CF6E710BD00002DE9F04324
:102CF00085B004000D005FF00009002600275FF09A
:102D00000008A8890028208A814639F44059E888BB
:102D100050EA0909A4F81090A0898146314810EAC8
:102D20000909A888298908436989084350EA0909DB
:102D3000A4F80C90A08A814639F44079A88950EA19
:102D40000909A4F8149000A8FEF744FF2348844220
:102D500002D02348844202D10398060001E0029881
:102D60000600A089000408D5192000FB06F0296898
:102D70004900B0FBF1F0070007E0192000FB06F066
:102D800029688900B0FBF1F007006420B7FBF0F080
:102D9000000181465FEA1910642101FB1070804632
:102DA000A08900040AD55FEAC80032306421B0FB74
:102DB000F1F010F0070050EA090909E05FEA081095
:102DC00032306421B0FBF1F010F00F0050EA090935
:102DD000A4F8089005B0BDE8F083000000100140A1
:102DE00000140140F3E9FFFFC9B2002904D0828931
:102DF00052F40052828104E082894DF6FF731A403A
:102E000082817047CA05D20D828070478088C005D4
:102E1000C00D7047F0B4002300240025002640F6C2
:102E20006A1789B2B94206000F00FFB27F09FFB2EC
:102E30003B0089B211F01F073C000127A7403D006D
:102E4000012B01D10C3604E0022B01D1103600E039
:102E50001436D2B2002A03D037682F43376002E01D
:102E60003768AF433760F0BC704789B28A0589B2D2
:102E7000CA430280704770B402000023002500247A
:102E8000002040F66A1689B2B1420E00F6B2760909
:102E9000F6B2340089B211F01F063500012616FA89
:102EA00005F5012C02D19689354006E0022C02D1AD
:102EB000168A354001E0968A354089B20E0AB6B2CC
:102EC0003300012616FA03F316883340002D04D090
:102ED000002B02D00126300001E000263000C0B2F5
:102EE00070BC70471C4901431C4A11607047F0B424
:102EF000002300210F22C478002C21D0174C246815
:102F000014F4E064D4F5E064240A2300D3F104044B
:102F10002100D2B21A4144788C40230084781440B6
:102F200023431B0104780E4D6355047864110D4D45
:102F30000126077817F01F07BE4045F8246009E016
:102F400004786411084D0126077817F01F07BE406A
:102F500045F82460F0BC70470000FA050CED00E075
:102F600000E400E000E100E080E100E0000000009B
:102F70000000000000000000000000000000000051
:102F80000000000000000000000000000000000041
:102F90000000000000000000000000000000000031
:102FA0000000000000000000000000000000000021
:102FB0000000000000000000000000000000000011
:102FC0000000000000000000000000000000000001
:102FD00000000000000000000000000000000000F1
:102FE00000000000000000000000000000000000E1
:102FF00000000000000000000000000000000000D1
:1030000000000000000000000000000000000000C0
:1030100000000000000000000000000000000000B0
:1030200000000000000000000000000000000000A0
:103030000000000000000000000000000000000090
:103040000000000000000000000000000000000080
:103050000000000000000000000000000000000070
:103060000000000000000000000000000000000060
:103070000000000000000000000000000000000050
:103080000000000000000000000000000000000040
:103090000000000000000000000000000000000030
:1030A0000000000000000000000000000000000020
:1030B0000000000000000000000000000000000010
:1030C0000000000000000000000000000000000000
:1030D00000000000000000000000000000000000F0
:1030E00000000000000000000000000000000000E0
:1030F0000000000000000000001010101010000080
:1031000010000000006C48480000000000000000B3
:10311000001414287C287C285050000000103840EF
:103120004038487010100000002050200C70081427
:10313000080000000000001820205448340000005F
:10314000001010101000000000000000000808101F
:10315000101010101008080000202010101010107F
:103160001020200000107C10282800000000000023
:103170000000101010FC10101000000000000000F3
:10318000000000181030200000000000007C00004B
:1031900000000000000000000000003030000000CF
:1031A00000040408081010202040000000384444A7
:1031B0004444444438000000003010101010101037
:1031C0007C00000000384404081020447C0000000B
:1031D000003844041804044438000000000C14149F
:1031E00024447C040C000000003C202038040444EB
:1031F00038000000001C204078444444380000009F
:10320000007C440408080810100000000038444402
:10321000384444443800000000384444443C040826
:10322000700000000000003030000030300000006E
:1032300000000018180000183020000000000C10DA
:10324000608060100C000000000000007C007C002A
:10325000000000000000C02018041820C00000007A
:103260000000182404081000300000003844444CCA
:1032700054544C40443800000030102828287C4426
:10328000EC00000000F8444478444444F800000096
:10329000003C4440404040443800000000F04844B6
:1032A00044444448F000000000FC44507050404446
:1032B000FC000000007C202838282020700000003E
:1032C000003C4440404C44443800000000EC44447E
:1032D0007C444444EC000000007C101010101010DE
:1032E0007C000000003C0808084848483000000006
:1032F00000EC444850704844E40000000070202076
:10330000202024247C00000000EC6C6C54544444C5
:10331000EC00000000EC64645454544CEC000000D9
:1033200000384444444444443800000000782424D5
:1033300024382020700000000038444444444444B1
:10334000381C000000F8444444784844E000000081
:1033500000344C40380404645800000000FC901015
:10336000101010103800000000EC44444444444461
:103370003800000000EC4444282828101000000009
:1033800000EC4444545454542800000000C4442821
:1033900010102844C400000000EC4428281010102D
:1033A00038000000007C4408101020447C0000001D
:1033B000003820202020202020203800004020201D
:1033C000201010080808000000380808080808083D
:1033D0000808380000101028440000000000000019
:1033E0000000000000000000000000FC00100800C9
:1033F000000000000000000000000038443C44448D
:103400003C00000000C0405864444444F800000000
:103410000000003C4440404438000000000C0434EC
:103420004C4444443C00000000000038447C4040D0
:103430003C000000001C207C202020207C0000009C
:10344000000000344C4444443C04380000C0405860
:1034500064444444EC000000001000701010101090
:103460007C000000001000780808080808087000B8
:1034700000C0405C48705048DC0000000030101074
:10348000101010107C000000000000E85454545448
:10349000FC000000000000D864444444EC0000003C
:1034A000000000384444444438000000000000D8C4
:1034B000644444447840E000000000344C444444F8
:1034C0003C040C000000006C302020207C00000038
:1034D0000000003C44380444780000000000207CD8
:1034E000202020201C000000000000CC4444444C5C
:1034F00034000000000000EC4444282810000000C4
:10350000000000EC4454545428000000000000CC9B
:1035100048303048CC000000000000EC442428185B
:10352000101078000000007C481020447C0000004F
:1035300000081010101020101010080000101010BB
:1035400010101010101000000020101010100810A3
:1035500010102000000000000024580000000000AF
:10356000A1A3000000000000000000000000000017
:1035700060009000900060000000A1B60000009084
:103580000090012001200240024001200120009013
:1035900000900000A1B70000900090004800480093
:1035A0002400240048004800900090000000A3ACD4
:1035B00000000000000000000000000000001800F3
:1035C0001800180030000000A3BA0000000030000E
:1035D000300000000000000030003000000000005B
:1035E0000000B0B204007FF0401084200400FFF01F
:1035F000088010801900070018C0E020B0D7040030
:1036000008407FE04040404040407FC04040404054
:1036100040407FC04040B1CC1080FBE02220FBE066
:103620002220FBE00000FFF010003FC050409FC090
:10363000B2D927C02440F7C020003EE06AA0AEE027
:1036400021003FF02540A9205110B3A41040108064
:10365000110016001820FFF0140012001100108055
:103660001C701000B3CC1BE0E2202220FBE0200005
:1036700067F07080A880A3E0208020A02FF0B4C75E
:10368000188077F01120FD40108017F07880488076
:103690004FF0788048800080B7AB204023E0FA40AC
:1036A000AA40AA40AB40AAC0BA40AA502450245015
:1036B0002830B8BB02007FF04010BFC000001F8060
:1036C00010803FC024403FC024403FC0B8CB2040C2
:1036D00023E0F880208060A077F0A880A080208080
:1036E000208020802080B9C20060F78015402540EE
:1036F00025403540E540254029202960B1D04000D3
:10370000B9CA210021002920FDF02240254079403E
:1037100048804880794042200C10B9E30400022020
:103720003FF020002000200020002000200040006A
:1037300040008000BAC60100450027E0890049200A
:103740003FF02000CFE0482048204FE04820BAD783
:10375000208021E0FD20A5A05160FD0051F07C10EB
:1037600051D07C1050507C20BBA8088008A0FFF0EE
:103770000880110011603180530095101110111054
:1037800010F0BBC608807FE00880FFF002003FC059
:1037900022403FC022403FC008807060BCCA100079
:1037A000FBF09000A020CFF0A08092A0D2A0A49027
:1037B000889082808100BCFB00803FC020802480F4
:1037C00024802480248024800A000A101210E1F052
:1037D000BDAD400020400FF08100510011002100DC
:1037E0002100C10041205FF04000BEA13FC0204049
:1037F00020403FC0220021002C80424040309800F1
:1038000006000100BFD5040002007FF08010118087
:103810002060C0203FC0040004000420FFF0C0B3BB
:103820000880FFF00A807FE022401280FFF00B004A
:1038300012802240C2300200C0EE02207FF00B0056
:1038400012802270DFA001000220FFF002000A00B7
:103850000400C0FD10101F90245027506950A9503B
:10386000355022502210241028503020C1EA010087
:10387000F7E09100AFF0C280A4409A2097C0EA80A0
:10388000910086C09830C1F701004FF021008240BE
:103890004FE0202025402540C5504550495051302B
:1038A000C2A5210029202540FFE023407530A20059
:1038B000AFE02480230026C03820C3CF3FC00100E2
:1038C0000200FFF00200060000003FC0294029402E
:1038D000FFF00000C7EB01204FF0210007E0E100FE
:1038E0002FF0242027E02C2037E024200460C8BBE0
:1038F000210021403D2047F04900A98012402420AA
:10390000D810024049208920C8CB040004000400DC
:103910000400040006000A00090010802040403026
:103920008020C8FD00407FE00000000000803FC014
:103930000000000000000020FFF00000CBCD084098
:10394000448021000FE00100EFE02100228024608C
:10395000282050008FF0CCEC00407FE004000400F1
:10396000FFF0040004000600090010802070C02051
:10397000CEA80280F24097F094809C8097F09480CB
:10398000F7F0848004A007F00400CEF70020FFF0D9
:1039900009007FE049204920492051E06020402073
:1039A0007FE04020CFC20020FFF0040004000600AA
:1039B000050004C004400400040004000400D1CC4D
:1039C000200027F02490A490B7F0A49024902550D4
:1039D0002630541097F00410D1EF200027C0F88053
:1039E0002100222037F062A0A2A024A02920A2A0BA
:1039F0006440D2A120C02700F12024A0204037E05D
:103A0000E5002FF021002920AFE06820D3B07C2012
:103A100044407C804500FE2000407C8045107C2096
:103A2000504094803100D4B600404FE020001FF099
:103A30000480E480248024902890207050008FF02F
:103A4000D4C21FC0104010401FC0104010401FC003
:103A500010401040204042408180D5DF04203F408C
:103A600004800520FFF004001FC03040DFC010407C
:103A70001FC01040D6AE0400020002007FC00080CC
:103A800001000200040008003000580087F0D6DD75
:103A900010201220122012205B2056A092A012208B
:103AA0001220222022204020D7F71200122027F0D7
:103AB00025006900B1F02100210021F02100210042
:103AC0002100FFFFA1A30000000000000000000093
:103AD000000000000000000000003C0066006600DE
:103AE00066003C000000A3AC0000000000000000E5
:103AF00000000000000000000C001E001E000C0072
:103B00000400080010000000B0B2020001007FFEB7
:103B10004002820402000204FFFE04200820182054
:103B20000640018002400C303010B1CC0440FE88C9
:103B300011FC7D0811F81F08F1F800087FFC040053
:103B400008101FF82810C8100FF00810B2D9101074
:103B500011F8111011F0FC0417BE14A41FBC304062
:103B6000D0441FFE10E01150124E54442040B3A424
:103B70000800081008300840088009000804FFFE0B
:103B800009000900088008400820091C0E080800E8
:103B9000B3CC08041DFEF10411041104FF0411FC50
:103BA000380037FE5420502891FC1020102417FEB6
:103BB0001000B4C708401C20F02811FC1000148825
:103BC000FE50100415FE7E20442845FC442044206D
:103BD0007C204420B7AB100810FC14887E885488E1
:103BE00054C854A854A8548854885C885488110A2E
:103BF000110A12061400B8BB020001007FFE402229
:103C00009FF400001FF010101FF000083FFC210877
:103C10003FF821083FF82008B8CB1000100811FC2D
:103C20001020FC20102030243BFE542050209020F7
:103C300010201020102010201020B9C200087C3C59
:103C400007C00A101290129016901A903290D290DB
:103C50001290129014A815EE58242000B9CA1040F2
:103C6000104010401444FEFE1108128810887C8811
:103C700044884450442044207C50448E0304BAD7E6
:103C8000082008487FFC528890A828887EA8A89021
:103C90003E8428FE3E04282429F43E0420142008F3
:103CA000BBA808200824FFFE0820082008801088F0
:103CB000109830A050C09080118012821482107E23
:103CC0001000BBC6044004503FF804400444FFFE0B
:103CD00001101FF811101FF011101FF010000460E8
:103CE00018186004BCCA00087DFC44004800480065
:103CF00050044BFE4820442044A844A46922522288
:103D0000402040A04040BCFB00101FF810101110D4
:103D100011101110111011101110121012900480B6
:103D200004820882307EC000BDAD4000300817FC20
:103D30000040804060402040084010402040E0406B
:103D4000204020442FFE20002000BEA100081FFCC0
:103D5000100810081FF8110810801080104016205D
:103D60002190400E8604018000C00040BFD50200B3
:103D700001007FFE400284440C301018200800002F
:103D80003FF80100010001000104FFFE0000C0B384
:103D900008200824FFFE092001087FFC01000920FB
:103DA0000544FFFE038005400930310EC1040100C7
:103DB000C0FD100410441FE42204221467D4A4544C
:103DC0002854349422942114220424042804201416
:103DD0002008C1F70080404837FC104080906108FF
:103DE00027FC080411502150E1502150215221524A
:103DF000224E2440C2A51040124811501044FFFE2C
:103E000011503A4C344450805FFE9108120811B0B2
:103E1000104011B01608C7EB004847FC204023F8BB
:103E20000040EFFE200823FC220823F8220823F894
:103E30002A08320822280210C8CB01000100010024
:103E400001000100010001000280028002800440A4
:103E5000044008201010200E4004C8FD0000000897
:103E60007FFC00000000000000103FF80000000090
:103E7000000000000004FFFE00000000CCEC000881
:103E80007FFC0100010001000104FFFE010002802F
:103E900002800440044008201010200EC004CEA868
:103EA000008008A07C9449FE49104B104DFC49103D
:103EB000491049FC49107910491401FE0100010024
:103EC000CEF700000004FFFE0440044004447FFEDF
:103ED00044444444444444444834500440047FFC33
:103EE0004004CFC20004FFFE020002000200028074
:103EF0000240023002100200020002000200020032
:103F000002000200D1CC200427FE240424442C44C7
:103F1000B444A7FCA444244424A42494250C560CA3
:103F20004C0487FC0404D1EF100013F8101010208B
:103F3000FC40108417FE18A430A4D0A4112411440E
:103F40001244148451282010D2A11008103C17C02C
:103F50001248FD48115016001BFC3440D0441FFE8F
:103F600010401248124853F82208D3B000843FC4CE
:103F700020883F9020A03F840404FFE800103FA267
:103F800020823F841508249054A00840D4B6001025
:103F900043F830001000000807FCF1201120112028
:103FA00011241224121C1400280647FC0000D4C25D
:103FB00000100FF80810081008100FF00810081073
:103FC00008100FF00810081010101010205040209A
:103FD000D6DD100410841084108454A4529452949A
:103FE00090841084108410841084208420844004E1
:103FF0000004D7F709000900090411FE128032807D
:10400000549098F810801080108810FC1080108058
:1040100010801080FFFF00002DE9F04186B080275E
:104020005FF00008FDF7B6FF00F084F900F071F9C9
:10403000FDF7AAF80020FDF713F90020ADF80C00F9
:104040000120ADF80E000020ADF810000020ADF802
:1040500012000120ADF804000120ADF80600002098
:10406000ADF808000120ADF80A000020050001208D
:104070000600FDF79CFFF6B2012E40F0F98000200B
:104080000600EDB2002D0CD0022D44D027D3042D14
:1040900000F0C5807BD3062D00F0E780C0F0E18002
:1040A000E6E00020FDF7DCF80120009080234022AC
:1040B00000210020FDF7EAFA03ABBB4A03210820E8
:1040C000FDF713F903ABB94A16210A20FDF70DF9E4
:1040D00003ABB74A2A210520FDF707F9C8E0002005
:1040E000FDF7BEF803ABB34A00210020FDF7FDF851
:1040F00003ABB14A10210020FDF7F7F803ABAF4A3C
:1041000020210020FDF7F1F803ABAD4A302100205B
:10411000FDF7EBF8ACE00020FDF7A2F801ABA94AEF
:1041200000210520FDF7E1F801ABA24A0D21002096
:10413000FDF7DBF801ABA04A1A210020FDF7D5F806
:1041400001AB9E4A27210020FDF7CFF801AB9C4A26
:1041500034210020FDF7C9F803AB8EA20E216E209A
:10416000FDF7C3F803AB8CA21E216E20FDF7BDF84E
:1041700003AB8AA22E216E20FDF7B7F80120009034
:10418000112332220D216D20FDF780FA70E000200E
:10419000ADF806000120ADF80800FF20FDF760F83B
:1041A00001AB884A00210520FDF79FF801AB814A49
:1041B0000D210020FDF799F801AB7F4A1A2100205C
:1041C000FDF793F801AB7D4A27210020FDF78DF81C
:1041D00001AB7B4A34210020FDF787F803AB6DA2C9
:1041E0000E216E20FDF781F803AB6BA21E216E201D
:1041F000FDF77BF803AB69A22E216E20FDF775F861
:1042000000200090112332220D216D20FDF73EFA8F
:104210000120ADF806000020ADF8080028E00020DD
:10422000FDF71EF8012000900A230A220021002039
:10423000FDF72CFA012000901E2314220A210A20E7
:10424000FDF724FA01231E2220214020FDF767FA02
:10425000012000903F23002200217F20FDF783F9F9
:1042600006E00020FCF7FCFF02E0FF20FCF7F8FF6F
:10427000FEF7BEFB0400E4B2002C3FF4FAAEE4B259
:1042800020000A2808D00D2811D010281AD0132891
:1042900022D016282AD0ECE6FFB2FF2F00D27F1CD6
:1042A0003800C0B2FCF7D2FF01200600E1E6FFB201
:1042B000012F00D37F1E3800C0B2FCF7C7FF0120DA
:1042C0000600D6E6EDB2012D01D36D1E01E00620F9
:1042D000050001200600CCE6EDB2062D01D26D1CD2
:1042E00001E00020050001200600C2E65FFA88F820
:1042F000B8F1000F05D1012080460120FCF793FFA3
:1043000004E0002080460020FCF78DFF012006001D
:10431000AFE680B52C4800F07BF82C4800F078F828
:104320002B4800F075F82B4800F072F82A4800F08E
:104330006FF801BD80B51AA000F06AF8274800F0B8
:1043400067F82749274800F063F816A1264800F0CF
:104350005FF82649264800F05BF80023032201217C
:10436000244800F055F8244800F052F8234800F0A3
:104370004FF8234800F04CF8224800F049F8224852
:1043800000F046F8214800F043F8144800F040F8E7
:1043900001BD0000B0B20000B8BB0000C0B3000017
:1043A0000A0D0000312E3200784A0008B84A000891
:1043B000884A0008C4490008D8490008EC490008A8
:1043C000004A0008144A0008C4470008984A000838
:1043D000F44800089448000890470008DC460008AC
:1043E000B4480008284A00083C4A0008C44A0008AB
:1043F000504A000858470008EC4A0008484900089D
:10440000644A000810490008D448000848480008D9
:104410000EB400B582B003A9009100AB02460121A1
:10442000034878440A3000F005F806BC5DF810FB3C
:10443000710500002DE9F04784B081468846144696
:104440001E460DF1000A04E014F8011B4046C8475F
:104450008046207810B904B0BDE8F0872528F3D154
:10446000641C14F8015B252D6FD0582D51D0632D9D
:104470000ED0642D18BF692D10D06F2D49D0702D2E
:104480004CD0732D50D0752D18BF782D41D0E0E75A
:104490003068011D31600168C9B2D7E73068011D7D
:1044A00031600768002F03D52D214046C84780465C
:1044B0006F2D08BF082105D045F02000782814BFD3
:1044C0000A2110210B203A46642D02D1002F48BF4B
:1044D0005242431E1846B2FBF1FC01FB1C22303253
:1044E000D2B23A2A24BFA5F1510E724403F80A2031
:1044F00062460AB10128ECDAC0F10B0500A94718A1
:104500004046002DA4D017F8011BC8476D1EFAD1F4
:104510009EE73068011D31600768C9E73068011DFA
:10452000316007687825C3E73068011D3160056890
:10453000284600F00DF807464046002F88D015F8B1
:10454000011BC8477F1EFAD182E725217EE70000C4
:1045500000F10103810704D010F8011B89B1810724
:10456000FAD10268B2F10131914311F0803F04BFEA
:1045700050F8042FF6E710F8011B11B110F8011BD9
:10458000FBE7C01A7047000080B54848006850F447
:104590007000464908604648006850F001004449F0
:1045A00008604448002101604148006842490840D1
:1045B0003F4908604148424901603D48006830F485
:1045C00080203B4908603F480021016000F005F869
:1045D0003D485FF00061016001BD82B000200190A4
:1045E000002000903248006850F480303049086064
:1045F0002F48006810F4003000900198401C019092
:104600000098002803D10198B0F5A04FF0D12848B8
:104610000068800302D50120009001E00020009096
:10462000009801283ED12948006850F08050274961
:1046300008602748006850F44040254908601D483C
:104640001C49096801601B48006850F40040194982
:1046500008601848006850F4A050164908601748D0
:104660001C4901601248006850F0807010490860D1
:104670000F4800688001FBD5174840F205710160C2
:104680000C480068800880000A49086009480068F2
:1046900050F00200074908600648006810F00C005E
:1046A0000828F9D102B070470000000088ED00E052
:1046B0000038024008380240FFFFF6FE043802408E
:1046C000103000240C38024008ED00E04038024071
:1046D0000070004019544007003C02402A2A2A2A50
:1046E0002A2A2A2A2A2A2A2A2A2A2A2A2A2A2A2A2A
:1046F0002A2A2A2A2A2A2A2A2A2A2A2A2A2A2A2A1A
:104700002A2A2A2A2A2A2A2A2A2A2A2A2A2A2A2A09
:104710002A2A2A2A2A2A2A2A2A0A0D007047084801
:1047200000221100C9B22A2909D2C9B20A5C054B7C
:104730001A80054A12885206FBD5491CF2E7FEE7AB
:10474000F04700080410014000100140FEE7FEE7BA
:10475000FEE77047704770472A20B9CCBCFEBFE225
:10476000B0E6B1BE203A205625642E25642E25647D
:10477000202853544D3332463478785F5374645054
:1047800065726970685F447269766572290D0A0006
:10479000D2A1B8CB4F4BBCFC202020A3BA20C7D05D
:1047A000BBBBCFD4CABEB7BDCFF2A3A8CFD4CABEBD
:1047B000C4DAC8DDB7ADD7AA313830B6C8A3A90D61
:1047C0000A0000000D0AB1BEC0FDB3CCD0E8D2AAE9
:1047D000B2E5C9CF4F4C4544CFD4CABEC4A3BFE94C
:1047E000B2C5C4DCD4CBD0D0A3A10D0A0000000018
:1047F0000D0A456E74657220486172644661756C7D
:10480000745F48616E646C65722C205379737465B3
:104810006D2048616C742E0D0A00000010B5084927
:1048200079441C31074C7C441A34A14206D0081D3F
:104830000A68511888470146A142F8D110BD00BF4F
:1048400030000000500000002A20436F7079726928
:10485000676874207777772E61726D666C792E6346
:104860006F6D20B0B2B8BBC0B3B5E7D7D30D0A00A7
:104870004BD8FFFFDC25000058000020000000009E
:10488000A7D7FFFF58000000D80300000000002059
:1048900000000000D2A1B8CBD7F3D3D2BCFC20A338
:1048A000BA20C7D0BBBBCFD4CABEBDE7C3E60D0A92
:1048B0000000000056352D3131385F4F4C4544A380
:1048C000A8313238783634A3A9CFD4CABEC6F7C0CF
:1048D000FDB3CC002A20CCD4B1A6B5EA3A2061724F
:1048E0006D666C792E74616F62616F2E636F6D0DF2
:1048F0000A000000D2A1B8CBC9CFCFC2BCFC20A314
:10490000BA20B5F7BDDAB6D4B1C8B6C80D0A0000F2
:104910002A20456D61696C203A2061726D666C7960
:104920004071712E636F6D200D0A00004EF68851A4
:10493000CEF20001086840F4700008604FF000708B
:10494000E1EE100A704700002A205151202020205B
:104950003A2031323935373434363330200D0A00BD
:1049600000F009F8002801D0FFF758FF0020FFF7FA
:1049700053FB00F002F80120704700F001B800007E
:104980000746384600F002F8FBE7000080B5C04655
:10499000C046024A11001820ABBEFBE72600020009
:1049A00038B504460D46284600F006F8A84218BF60
:1049B0000024204632BD00000149FDF795BF00BF2D
:1049C00000000020B9CAC8CBCEF7B4C7BBC6BAD75F
:1049D000C2A5A3AC00000000D1CCBBA8C8FDD4C2C6
:1049E000CFC2D1EFD6DDA1A300000000B9C2B7ABA2
:1049F000D4B6D3B0B1CCBFD5BEA1A3AC00000000EB
:104A0000CEA8BCFBB3A4BDADCCECBCCAC1F7A1A37E
:104A100000000000A1B6CBCDC3CFBAC6C8BBD6AE8E
:104A2000B9E3C1EAA1B700002A20C0FDB3CCC3FBA3
:104A3000B3C62020203A2025730D0A002A20C0FD8D
:104A4000B3CCB0E6B1BE2020203A2025730D0A0079
:104A50002A20B7A2B2BCC8D5C6DA2020203A202529
:104A6000730D0A002A20CDFACDFA20203A20617277
:104A70006D666C790D0A0000B0B2B8BBC0B34F4C84
:104A80004544C0FDB3CC00007777772E41524D6688
:104A90006C792E636F6D0000C7EBB2D9D7F7D2A146
:104AA000B8CB3A0D0A000000014880470148004792
:104AB00089450008D14A0008C7EBB2D9D7F7D2A17F
:104AC000B8CB2100323031342D30322D3238000055
:104AD000C046C046FFF72AFFFFF742FF0102040865
:104AE00010204080FEFDFBF7EFDFBF7F2A200A0D7C
:104AF00000000000FFF712BEFFF711BEFFF726BE51
:104B0000FFF725BEFFF724BEFFF723BEFFF722BE47
:104B1000FFF721BEFDF744B8FFF7FEBFFFF7FEBF6A
:104B2000FFF7FEBFFFF7FEBFFFF7FEBFFFF7FEBFB9
:104B3000FFF7FEBFFFF7FEBFFFF7FEBFFFF7FEBFA9
:104B4000FFF7FEBFFFF7FEBFFFF7FEBFFFF7FEBF99
:104B5000FFF7FEBFFFF7FEBFFFF7FEBFFFF7FEBF89
:104B6000FFF7FEBFFFF7FEBFFFF7FEBFFFF7FEBF79
:104B7000FFF7FEBFFFF7FEBFFFF7FEBFFFF7FEBF69
:104B8000FFF7FEBFFFF7FEBFFFF7FEBFFFF7FEBF59
:104B9000FFF7FEBFFFF7FEBFFFF7FEBFFFF7FEBF49
:104BA000FFF7FEBFFFF7FEBFFFF7FEBFFDF757BEE3
:104BB000FDF75ABEFDF75DBEFFF7FEBFFFF7FEBF74
:104BC000FFF7FEBFFFF7FEBFFFF7FEBFFFF7FEBF19
:104BD000FFF7FEBFFFF7FEBFFFF7FEBFFFF7FEBF09
:104BE000FFF7FEBFFFF7FEBFFFF7FEBFFFF7FEBFF9
:104BF000FFF7FEBFFFF7FEBFFFF7FEBFFFF7FEBFE9
:104C0000FFF7FEBFFFF7FEBFFFF7FEBFFFF7FEBFD8
:104C1000FFF7FEBFFFF7FEBFFFF7FEBFFFF7FEBFC8
:104C2000FFF7FEBFFFF7FEBFFFF7FEBFFFF7FEBFB8
:104C3000FFF7FEBFFDF722BEFFF7FEBFFFF7FEBF87
:104C4000FFF7FEBFFFF7FEBFFFF7FEBFFFF7FEBF98
:104C5000FFF7FEBFFFF7FEBFFFF7FEBFFFF7FEBF88
:104C600002040101F824002048250020F824002037
:104C7000F8240020F82400203D000020240000201B
:104C80000000000000000000000000000000000024
:104C90000000000000000000000000000000000014
:104CA00000000000010203040102030406070809D2
:084CB000007A030A0100000074
:0400000508004AD1D4
:00000001FF
