:020000040800F2
:10000000B86500209D010008FB090008CD05000827
:10001000F70900085D020008451B00080000000009
:10002000000000000000000000000000191500089A
:100030000F03000800000000D5110008F5150008A6
:10004000B7010008B7010008B7010008B7010008B0
:10005000B7010008B7010008B7010008B7010008A0
:10006000B7010008B7010008B7010008B701000890
:10007000B7010008B7010008B7010008B701000880
:10008000B7010008B7010008B7010008B701000870
:10009000B7010008B7010008B7010008B701000860
:1000A000B7010008B7010008B7010008B701000850
:1000B000B7010008B7010008B7010008B701000840
:1000C000B7010008B7010008B7010008B701000830
:1000D000B7010008E9160008F9160008091700081A
:1000E000B7010008B7010008B7010008B701000810
:1000F000B7010008B7010008B7010008B701000800
:10010000B7010008B7010008B7010008B7010008EF
:10011000B7010008B7010008B7010008B7010008DF
:10012000B7010008B7010008B7010008B7010008CF
:10013000B7010008B7010008B7010008B7010008BF
:10014000B7010008B7010008B7010008B7010008AF
:10015000B7010008B7010008B7010008311700080F
:10016000B7010008B7010008B7010008B70100088F
:10017000B7010008B7010008B7010008B70100087F
:10018000B7010008B7010008DFF80CD000F054F800
:100190000048004779210008B865002006488047DC
:1001A00006480047FEE7FEE7FEE7FEE7FEE7FEE75C
:1001B000FEE7FEE7FEE7FEE781160008890100087A
:1001C00040EA01039B0703D009E008C9121F08C0D9
:1001D000042AFAD203E011F8013B00F8013B521E59
:1001E000F9D27047D2B201E000F8012B491EFBD2D0
:1001F00070470022F6E710B504460846114602464D
:100200002046FFF7EFFF204610BD30B50B460146F4
:1002100000202022012409E021FA02F59D4205D3A5
:1002200003FA02F5491B04FA02F52844151EA2F14F
:100230000102F1DC30BD0000064C074D06E0E0682D
:1002400040F0010394E8070098471034AC42F6D31D
:10025000FFF79EFF8C450008AC45000800BFFEE795
:10026000014609B90B487047012901D10A48FAE74C
:10027000022901D10948F6E7032901D10020F2E75C
:10028000042901D10020EEE7052901D10448EAE75D
:100290000020E8E718010020400900206811002034
:1002A0009019002008B54FF4E06000F0E3FB252032
:1002B0008DF8000000208DF8020001208DF8030069
:1002C000684600F09BFB26208DF8000001208DF889
:1002D00002008DF80300684600F090FB27208DF89F
:1002E000000002208DF8020001208DF8030068460E
:1002F00000F084FB47208DF8000005208DF80200F7
:1003000001208DF80300684600F078FB08BD7047B7
:1003100010B508A001F018FC11A001F015FC14A004
:1003200001F012FC19A001F00FFC20A001F00CFC60
:1003300010BD00000D0AB1BEC0FDB3CCD0E8D2AAFA
:10034000B2E5C9CF4F4C4544CFD4CABEC4A3BFE920
:10035000B2C5C4DCD4CBD0D0A3A10D0A00000000EC
:10036000C7EBB2D9D7F7D2A1B8CB3A0D0A0000003B
:10037000D2A1B8CBC9CFCFC2BCFC20A3BA20B5F75D
:10038000BDDAB6D4B1C8B6C80D0A0000D2A1B8CB48
:10039000D7F3D3D2BCFC20A3BA20C7D0BBBBCFD4E9
:1003A000CABEBDE7C3E60D0A00000000D2A1B8CB6B
:1003B0004F4BBCFC202020A3BA20C7D0BBBBCFD45E
:1003C000CABEB7BDCFF2A3A8CFD4CABEC4DAC8DDB7
:1003D000B7ADD7AA313830B6C8A3A90D0A000000BE
:1003E00051B14FF0204252F8202042F001024FF06C
:1003F000204343F8202009E04FF0204252F820200B
:10040000034B1A404FF0204343F820207047000070
:10041000FEFF0F00D0E901121143C26811430269C7
:1004200011434269114382691143C2691143026A4F
:100430001143426A1143826A1143C26A1143026B3B
:1004400011434FF02043026843F8221081680829C5
:1004500008D11A46016852F8211041F040010268A3
:1004600043F82210416B0968426B526841EA02115D
:10047000426B926841EA0221426BD26841EA024132
:10048000426B126941EA0251426B526941EA0261D0
:10049000426B926911430268521C4FF0204343F8AB
:1004A0002210C16AB1F5804F1AD1816B0968826B45
:1004B000526841EA0211826B926841EA0221826B22
:1004C000126941EA0251826B526941EA0261826B10
:1004D00092691143026803EB8202C2F8041108E03A
:1004E0006FF070414FF02043026803EB8202C2F8C4
:1004F0000411704770B50A46002100238C4600BFE6
:100500003DE0012404FA01F3146804EA030C9C455D
:1005100034D104684E000325B540AC43046014791F
:100520004D00AC4005682C4304601479012C02D0C6
:100530001479022C16D184684E000325B540AC43D3
:10054000846054794D00AC4085682C4384604468D5
:1005500001258D40AC434460446895798D40ADB22F
:100560002C434460C4684E000325B540AC43C460CE
:10057000D4794D00AC40C5682C43C460491C102997
:10058000BFD370BD70B500239C464C07E40E02FA41
:1005900004F3CD1000F1200454F825404D07EE0E71
:1005A0000F25B540AC43CE1000F1200545F826409C
:1005B000CD1000F1200454F8254044EA030CCD107E
:1005C00000F1200444F825C070BD000008A10020FF
:1005D0000AE00A5C114B9A8000BF104A128812F0A0
:1005E000400FFAD0421CD0B22A28F2D300BFFEE757
:1005F0000D0A456E74657220486172644661756CBF
:10060000745F48616E646C65722C205379737465F5
:100610006D2048616C742E0D0A000000001001402E
:1006200000B587B00121084600F0C6FE0121102068
:1006300000F0F2FE07220921AB48FFF7A3FF0722D3
:100640000A21A948FFF79EFF00208DF81A0001201B
:100650008DF81B0002208DF8180000020590022082
:100660008DF8190005A9A048FFF744FF02208DF876
:1006700018004002059005A99B48FFF73BFF4FF487
:10068000E13001900020ADF80800ADF80A00ADF8A7
:100690000C00ADF810000C20ADF80E0001A9934835
:1006A00001F0B4F8012240F22551904801F089F898
:1006B00001218E4801F04DF840218C4801F040F8AE
:1006C0000121084600F078FE0121480400F094FE64
:1006D000072203218448FFF755FF00208DF81A00F8
:1006E00001208DF81B0002208DF818008DF81800ED
:1006F0000820059002208DF8190005A97A48FFF717
:10070000F9FE4FF4165001900020ADF80800ADF846
:100710000A00ADF80C00ADF810000420ADF80E0092
:1007200001A9734801F072F8012240F22551704886
:1007300001F047F801216E4801F00BF840216C48A8
:1007400000F0FEFF0121022000F036FE01208DF8AE
:10075000180000208DF81A008DF81B0003208DF87A
:1007600019000420059005A96248FFF7C3FE012186
:10077000022000F021FE0121880400F03DFE072246
:100780000A215C48FFF7FEFE07220B215948FFF7BC
:10079000F9FE00208DF81A0001208DF81B000220C0
:1007A0008DF818004002059002208DF8190005A967
:1007B0005048FFF79FFE02208DF818008002059038
:1007C00005A94C48FFF796FE4FF416500190002003
:1007D000ADF80800ADF80A00ADF80C00ADF8100057
:1007E0000C20ADF80E0001A9434801F00FF80122DA
:1007F00040F22551404800F0E4FF01213E4800F05E
:10080000A8FF40213C4800F09BFF0121442000F05C
:10081000D3FD0121202000F0FFFD08220E213748E2
:10082000FFF7B0FE082207213548FFF7ABFE08228C
:1008300011463248FFF7A6FE08220F212F48FFF786
:10084000A1FE00208DF81A0001208DF81B00022067
:100850008DF818004003059002208DF8190005A9B5
:100860002648FFF747FE02208DF8180080200590EB
:1008700005A92348FFF73EFE02208DF81800C001AD
:10088000059005A91D48FFF735FE02208DF81800D8
:100890008003059005A91948FFF72CFE4FF4E130BD
:1008A00001900020ADF80800ADF80A00ADF80C008A
:1008B0004FF44070ADF810000C20ADF80E0001A907
:1008C000104800F0A3FF012240F225510D4800F02E
:1008D00078FF01210B4800F03CFF4021094800F05F
:1008E0002FFF07B000BD00000000024000100140D3
:1008F000004400400004024000480040001802404C
:1009000000080240001401400448006910F4807F90
:1009100001D1012070470020FCE7000000200240C8
:1009200010B5FFF7F1FF20B100F006F808B1012083
:1009300010BD0020FCE700000448006810F4005FD0
:1009400001D1012070470020FCE7000010080240A0
:100950000448006910F4006F01D1012070470020A5
:10096000FCE70000002002400448006810F0040F7B
:1009700001D1012070470020FCE70000101C02405C
:100980000448006810F0080F01D1012070470020D2
:10099000FCE70000101C02400448006810F4006FDF
:1009A00001D1012070470020FCE700001014024034
:1009B0000448006810F0800F01D10120704700202A
:1009C000FCE70000101802400448006810F4004FD3
:1009D00001D1012070470020FCE70000101C0240FC
:1009E00010B5FFF791FF20B1FFF7A6FF08B1012076
:1009F00010BD0020FCE700BFFEE7704770B5002186
:100A000000230F22C47824B3174C246804F4E06454
:100A1000C4F5E064C4F30721C1F10404E3B20A4160
:100A200044789C40E1B28478144021430C07210EA5
:100A30000E4C05786155047804F01F050124AC4084
:100A400005786D114FF0E02606EB8505C5F80041ED
:100A500009E0047804F01F050124AC40044D067839
:100A6000761145F8264070BD0CED00E000E400E092
:100A700080E100E002490143024A11607047000032
:100A80000000FA050CED00E070B5002418E004F158
:100A9000B001C8B200F092FB002000F08FFB1020E4
:100AA00000F08CFB002507E0074901EBC411485D0D
:100AB00000F08AFB681CC5B2802DF5DB601CC4B257
:100AC000082CE4DB70BD0000B821002070B506469C
:100AD00000240BE0002505E0094800EBC410465552
:100AE000681CC5B2802DF7DB601CC4B2082CF1DB9A
:100AF00004480078012801D1FFF7C6FF70BD00004F
:100B0000B82100200E00002000B597B00121084652
:100B100000F062FC0121582000F04EFC0C22002164
:100B20005F48FFF72FFD0C2201215D48FFF72AFDEA
:100B30000C2204215A48FFF725FD0C2205215848B4
:100B4000FFF720FD0C2208215548FFF71BFD0C2262
:100B500009215348FFF716FD0C220A215048FFF7E0
:100B600011FD0C220E214E48FFF70CFD0C220F2127
:100B70004B48FFF707FD4CF23370159002208DF8BB
:100B8000580003208DF8590000208DF85A008DF888
:100B90005B0015A94248FFF7ADFC0C220421414837
:100BA000FFF7F0FC0C2205213E48FFF7EBFC0C227E
:100BB00007213C48FFF7E6FC0C2208213948FFF7E3
:100BC000E1FC0C2209213748FFF7DCFC0C220A214A
:100BD0003448FFF7D7FC0C220B213248FFF7D2FC38
:100BE0000C2211462F48FFF7CDFC0C220D212D4879
:100BF000FFF7C8FC0C220E212A48FFF7C3FC0C2289
:100C00000F212848FFF7BEFC4FF6B070159015A9CC
:100C10002448FFF76FFC0C220D212148FFF7B2FC9E
:100C20004FF40050159015A91D48FFF763FC0C22E6
:100C300011461D48FFF7A6FC4FF48050159015A9EA
:100C40001948FFF757FC032001900020029006206E
:100C50000390012004900020059006900790062044
:100C60000890002009900A9010200B9000200C9012
:100C70000D900E900F9010904FF480501190002026
:100C800012901390149001A81590169008A8FFF7E1
:100C9000C1FB01210620FFF7A3FB17B000BD000038
:100CA000000C024000100240001802402DE9FF4FE6
:100CB0009BB090469946B9F80000012807D10C2056
:100CC00005900C27182455480290554E06E0102038
:100CD00005901027202453480290534E95E098F831
:100CE00000001A901A98802816DA019404EBD47048
:100CF000411000941A9A029812FB010C04EBD47074
:100D000043101A46614607A8FFF75AFA394607EB1F
:100D1000D7704010069031E008F10100804600785D
:100D20001990199800B975E04FF0000A23E0A01C53
:100D30001AFB00F50AF1010000F0FF0A705D1A9934
:100D400088420BD1681C305C1999884206D1AD1CD1
:100D50007119224607A8FFF733FA0DE0705DFF28EE
:100D600009D1681C305CFF2805D1FF22214607A865
:100D7000FFF738FA00E0DAE700BF06971C98039007
:100D80004FF0000A34E01B9804904FF0000B24E071
:100D90000698400090FBF7F000FB0AF000EBDB0048
:100DA00007A9085C0BF0070280211141084207D017
:100DB000B9F80200C2B2DDE9031000F08DF906E0D7
:100DC000B9F80400C2B2DDE9031000F085F9049817
:100DD000401C80B204900BF1010B06988345D7D3D9
:100DE0000398401C80B203900AF1010000F0FF0A52
:100DF00005988245C7DBB9F80600069908441B9997
:100E0000084480B21B9008F1010898F800000028FF
:100E10007FF465AF00BF1FB0BDE8F08FE02400088D
:100E2000D43A0008D42A0008384000082DE9F047D9
:100E300006460F4690469A460320A0EB4809002438
:100E4000454646E07A1991B2321990B2524600F006
:100E500043F97A1B91B2321990B2524600F03CF934
:100E60007A1991B2321B90B2524600F035F97A1BD2
:100E700091B2321B90B2524600F02EF93A1991B25B
:100E8000721990B2524600F027F93A1B91B27219CA
:100E900090B2524600F020F93A1991B2721B90B20A
:100EA000524600F019F93A1B91B2721B90B25246A9
:100EB00000F012F9B9F1000F04DA062000EB84000B
:100EC000814405E0601B0A2101EB800081446D1E16
:100ED000641CAC42B6D9BDE8F0872DE9F04F87B06D
:100EE00004460D4616461F4629462046109A00F035
:100EF000F3F8B44204D1BD4202D107B0BDE8F08F8F
:100F000000200190A64202DBA6EB040801E0A4EB5E
:100F10000608AF4202DBA7EB050901E0A5EB0709D4
:100F2000C8450CDA0120019021462C460D46314679
:100F30003E460F461FFA88F1C846894600BFA642C2
:100F400001DD012001E04FF0FF300690AF4201DDEE
:100F5000012001E04FF0FF300590A246AB464FEA7A
:100F600049000490A9EB0800400003900498A0EB0E
:100F70000800029020E00298002804DA0499029800
:100F80000844029005E005988344DDE90201084425
:100F90000290019838B11FFA8AF11FFA8BF0109A6B
:100FA00000F09AF806E01FFA8BF11FFA8AF0109A07
:100FB00000F092F806988244B245DCD100BF9CE76D
:100FC000F0B52DED028B81B004460D4616461F4646
:100FD0009DED088A8DED008AE019401E82B22B46F5
:100FE00029462046FFF779FF8DED008AA819401E9B
:100FF00083B2E019401E82B2A819401E81B2204679
:10100000FFF76BFF8DED008AA819401E83B22246C0
:1010100029462046FFF761FF8DED008AA9198BB2A2
:10102000E119491E8AB2E119491E88B22946FFF723
:1010300054FF01B0BDEC028BF0BD10B5FFF764FDAD
:10104000322000F081FEAE2000F0B8F8002000F061
:10105000B5F8102000F0B2F8402000F0AFF8812081
:1010600000F0ACF8CF2000F0A9F8A02000F0A6F81E
:10107000C02000F0A3F8A62000F0A0F8A82000F0FF
:101080009DF83F2000F09AF8D32000F097F8002058
:1010900000F094F8D52000F091F8802000F08EF850
:1010A000D92000F08BF8F12000F088F8DA2000F069
:1010B00085F8122000F082F8DB2000F07FF8402055
:1010C00000F07CF88D2000F079F8142000F076F81C
:1010D000AF2000F073F810BD2DE9FF4780460C46A5
:1010E000914623A103C9CDE9020123A103C9CDE99A
:1010F00000012046E11704EB5171C1F3C70708F066
:10110000FF061F4800EBC710855DB9F1000F0AD13B
:101110002046E11704EB5171C910A4EBC1011DF881
:1011200001100D4009E02046E11704EB5171C91090
:10113000A4EBC10102AA515C0D43114800EBC7109A
:10114000855510480078012810D107F1B001C8B2C8
:1011500000F034F806F00F0000F030F8102101EB39
:10116000161000F02BF8284600F02EF8BDE8FF8797
:101170000102040810204080FEFDFBF7EFDFBF7F77
:10118000B82100200E00002010B50446812000F098
:1011900015F8204600F012F810BD10B5044634B919
:1011A000A02000F00BF8C02000F008F805E0A12016
:1011B00000F004F8C82000F001F810BD01490880D3
:1011C000704700000000206C014908807047000053
:1011D0000000286C7047000010B517A000F0B4FCA8
:1011E00016A000F0B1FC25A12CA000F0ADFC30A1B0
:1011F00030A000F0A9FC34A136A000F0A5FC00232B
:101200000322012138A000F09FFC45A000F09CFCC7
:1012100045A000F099FC4AA000F096FC4DA000F01B
:1012200093FC53A000F090FC59A000F08DFC03A0AB
:1012300000F08AFC10BD00000A0D00002A2A2A2AAC
:101240002A2A2A2A2A2A2A2A2A2A2A2A2A2A2A2AFE
:101250002A2A2A2A2A2A2A2A2A2A2A2A2A2A2A2AEE
:101260002A2A2A2A2A2A2A2A2A2A2A2A2A2A2A2ADE
:101270002A2A2A2A2A2A2A2A2A0A0D0056352D31F4
:1012800031385F4F4C4544A3A8313238783634A307
:10129000A9CFD4CABEC6F7C0FDB3CC002A20C0FD7A
:1012A000B3CCC3FBB3C62020203A2025730D0A001F
:1012B000312E32002A20C0FDB3CCB0E6B1BE2020D2
:1012C000203A2025730D0A00323031342D30322D72
:1012D000323800002A20B7A2B2BCC8D5C6DA202016
:1012E000203A2025730D0A002A20B9CCBCFEBFE2AB
:1012F000B0E6B1BE203A205625642E25642E256422
:10130000202853544D3332463478785F53746450F8
:1013100065726970685F447269766572290D0A00AA
:101320002A200A0D000000002A20515120202020F0
:101330003A2031323935373434363330200D0A0013
:101340002A20CDFACDFA20203A2061726D666C79A0
:101350000D0A00002A20456D61696C203A206172F7
:101360006D666C794071712E636F6D200D0A0000FF
:101370002A20CCD4B1A6B5EA3A2061726D666C79A8
:101380002E74616F62616F2E636F6D0D0A00000035
:101390002A20436F70797269676874207777772E97
:1013A00061726D666C792E636F6D20B0B2B8BBC090
:1013B000B3B5E7D7D30D0A0029B1064A1268024334
:1013C000044B1A6004E0034A12688243014B1A601E
:1013D000704700003038024029B1064A12680243C3
:1013E000044B1A6004E0034A12688243014B1A60FE
:1013F000704700003838024029B1064A126802439B
:10140000044B1A6004E0034A12688243014B1A60DD
:10141000704700004038024029B1064A1268024372
:10142000044B1A6004E0034A12688243014B1A60BD
:101430007047000044380240F0B50021002200242B
:1014400002258C460223304E366806F00C0121B18D
:10145000042905D0082933D105E02C4E066032E07E
:101460002B4E06602FE0284E361F3668C6F3805C90
:10147000254E361F366806F03F03BCF1000F0AD038
:10148000234EB6FBF3F6204F3F1F3F68C7F3881784
:1014900006FB07F409E01D4EB6FBF3F61A4F3F1F9B
:1014A0003F68C7F3881706FB07F4174E361F3668E8
:1014B000C6F30146761C7500B4FBF5F6066002E043
:1014C000124E066000BF00BF0F4E366806F0F001F6
:1014D0000909104E725C0668D64046600A4E3668AE
:1014E00006F4E051890A0B4E725C4668D64086606D
:1014F000054E366806F46041490B064E725C46683C
:10150000D640C660F0BD0000083802400024F40058
:1015100040787D010F00002070470000002100206E
:10152000304A126842F480322E4B1A6000BF2D4AB6
:10153000126802F40030491C10B9B1F5A04FF6D181
:10154000284A126812F4003F01D0012000E0002078
:10155000012845D1234A4032126842F08052214B83
:1015600040331A60204A126842F440421E4B1A600F
:101570001C4A083212681B4B08331A601A4612685C
:1015800042F400421A601A46126842F4A0521A60ED
:10159000164A1B1F1A601A1F126842F080721B1F26
:1015A0001A6000BF0F4A126812F0007FFAD040F2B2
:1015B00005720F4B1A600B4A0832126822F00302C0
:1015C000084B08331A601A46126842F002021A6089
:1015D00000BF044A0832126802F00C02082AF8D14F
:1015E0007047000000380240007000401954400766
:1015F000003C024010B500F001F810BD10B51B48CA
:10160000006840B119480068401E1849086002D1BE
:10161000012017490870002408E004EB4401154A32
:1016200002EB810000F071FD601CC4B2042CF4DBFD
:1016300011480068401C10490860084600686FF0B7
:101640000041884202D100200B49086000F05CFD97
:101650000A480078401CC0B2084908700A2803DB19
:101660000020087000F04CFD10BD000000000020BC
:1016700004000020E8000020080000200C000020EA
:1016800010B51548006840F470001349086013480D
:10169000006840F001001149086000200F4908313E
:1016A00008600E4800680E4908400C4908600D4863
:1016B000091D0860081F006820F48020091F0860C9
:1016C000002006490C310860FFF728FF4FF000604A
:1016D00001498039086010BD88ED00E00038024003
:1016E000FFFFF6FE1030002410B5024800F001F9AB
:1016F00010BD00001801002010B5024800F0F9F8F4
:1017000010BD00004009002010B5024800F0F1F8BB
:1017100010BD0000681100200420014908807047B6
:101720001804024004200149088070471A0402404E
:1017300010B5024800F0DDF810BD0000901900203F
:1017400001F40072B2F5007F00D100BFCA430280ED
:10175000704721B1828942F40052828104E082897B
:101760004DF6FF731A408281704730B5024600245F
:1017700000239C460020A1F510656A3D00D100BF02
:10178000C1F3421C01F01F03012505FA03F3BCF16C
:10179000010F02D195892B4007E0BCF1020F02D165
:1017A000158A2B4001E0958A2B400C12012505FA81
:1017B00004F415882C4013B10CB1012000E0002086
:1017C00030BD70B503460024A44600250020A1F5D5
:1017D00010666A3E00D100BF1846C1F3421401F002
:1017E0001F0C012606FA0CF5012C01D10C3004E087
:1017F000022C01D1103000E014301AB106682E43DB
:10180000066002E00668AE43066070BD2DE9FF4742
:1018100005460E460024A14600BFA046B08900B18F
:1018200000BF2C8A24F44054F08804432C82AC89F5
:1018300041F20C608443B0883189084371890843C0
:101840000443AC81AC8A24F44074B0890443AC8274
:101850006846FFF7F1FD2048854202D01F488542C7
:1018600002D1DDF80C9001E0DDF80890A88910F4B1
:10187000004F08D009EBC90000EB0910316849009E
:10188000B0FBF1F707E009EBC90000EB0910316884
:101890008900B0FBF1F76420B7FBF0F004012009E8
:1018A000642101FB1078A88910F4004F08D0322081
:1018B00000EBC800B0FBF1F000F00700044308E0C3
:1018C000322000EB08106421B0FBF1F000F00F00B3
:1018D00004432C81BDE8FF87001001400014014043
:1018E00001468888C0F308007047C1F3080282806F
:1018F000704710B5044640F225512068FFF735FFC8
:10190000E0B12068FFF7ECFFE28AA1688854E08A22
:10191000401C80B2E082E189884201DB0020E08245
:10192000608BE189884202DA608B401C6083608BA7
:10193000012803D1606A08B1606A804740F22771CC
:101940002068FFF712FF08B3A08A60B9002240F2B6
:1019500027712068FFF735FF012240F226612068D9
:10196000FFF72FFF37E0638A6268D15C2068FFF7DA
:10197000BCFF608A401C80B26082A189884201DB82
:1019800000206082A08A401EA08224E040F22661EE
:101990002068FFF7EAFEF0B1A08A50B9002240F2B9
:1019A00026612068FFF70DFF206AA0B1206A8047FA
:1019B00011E0638A6268D15C2068FFF796FF608A55
:1019C000401C80B26082A189884201DB00206082D5
:1019D000A08A401EA08210BD2DE9F04104460E46AB
:1019E0001746002527E00CE0012000F0CFF8B4F8FE
:1019F0001480002000F0CAF8A089404500DD01E015
:101A000000BFF1E700BF705D228A61688854012041
:101A100000F0BCF8208A401C80B22082A189884254
:101A200001DB00202082A08A401CA082002000F060
:101A3000ADF8681C85B2BD42D5DB012240F22771AA
:101A40002068FFF7BEFEBDE8F08100002B482C495E
:101A500008602C4848602C4888604FF4806088817A
:101A6000C881002008824882C8820883488388820F
:101A7000C8610862486225482549086025484860D1
:101A80002548886001208881C002C8810020088222
:101A90004882C882088348838882C8610862486295
:101AA0001E481F4908601F4848601F4888604FF45F
:101AB00080608881C881002008824882C8820883AB
:101AC000488388821948C861194808620020486222
:101AD00018481949086019484860194888604FF447
:101AE00080608881C881002008824882C88208837B
:101AF00048838882C86108624862704700100140CC
:101B00001801002040010020400500200044004052
:101B1000400900200D000020680900200048004016
:101B2000681100209011002090150020191700085E
:101B3000251700080014014090190020B819002052
:101B4000B81D002000BFFEE70FB4054B10B503A978
:101B5000044A029800F01EF810BC5DF814FB000067
:101B6000652100083400002002E008C8121F08C1E7
:101B7000002AFAD170477047002001E001C1121F0E
:101B8000002AFBD1704780F31088704780F31088DB
:101B9000704700002DE9FF4F8BB005469A460F466F
:101BA0000026C7E0252837D100246D1C654AA146D0
:101BB00001212B78203B01FA03F0104202D00443AC
:101BC0006D1CF6E728782E2817D115F8010F44F080
:101BD00004042A280ED06FF02F022878A0F13001DB
:101BE00009290AD809EB890102EB410100EB01093F
:101BF0006D1CF2E757F8049B6D1C287869283ED0CD
:101C000006DC00286FD063280CD0642804D136E0AD
:101C1000732810D075284CD052460D99904706F184
:101C2000010686E001CF8DF8000000208DF801004C
:101C3000E846012003E057F8048B4FF0FF306107BE
:101C40004FF0000401D40AE0641C4C450DDA8442D4
:101C5000FADB18F804100029F6D106E0641C84426F
:101C6000FCDB18F804100029F8D1264404E018F829
:101C7000010B52460D999047641EF8D259E001CFEE
:101C80004FF00A0B002804DAC0F100004FF02D01DC
:101C900002E0210504D52B218DF82410012104E058
:101CA000E10701D02021F7E700210DF1200808917C
:101CB0000AE001CF4FF00A0BF6E75946FEF7A5FA06
:101CC00001F1300208F8012D0028F6D1ADEB080033
:101CD00000F1200B600701D44FF00109D94503DD65
:101CE000A9EB0B0001E029E000208146002406E07A
:101CF00009A85246005D0D999047761C641C08980F
:101D00008442F5DB04E0302052460D999047761C62
:101D1000B9F10001A9F10109F5DC05E018F8010BA2
:101D200052460D999047761CBBF10001ABF1010BB7
:101D3000F4DC6D1C287800287FF434AF0FB03046F7
:101D4000BDE8F08F0928010010B5044604B910BDA4
:101D5000012C00D102240120FFF715FF094804607F
:101D6000002009490870FFF70EFF06E000F08EF82A
:101D700005480078012800D100E0F7E700BF00BF68
:101D8000E5E70000000000200400002070B50546D3
:101D9000304800EB05142068804700283ED02079A9
:101DA000052802DA0520207152E020790A2803DA9A
:101DB0002079401C20714BE0A07A38B90120A07234
:101DC00005EB4501491CC8B200F08AF920890028BA
:101DD0003EDDE088218988420DDAE088401C80B22F
:101DE000E0802189884233D105EB4501C91CC8B286
:101DF00000F076F92CE0E07A002829DD207B401CF9
:101E0000C0B22073E17A884222DB0020207305EB08
:101E10004501491CC8B200F063F919E02079052892
:101E200002DD0520207110E0207918B12079401ED4
:101E300020710AE0A07A012807D10020A07205EBEA
:101E40004501891CC8B200F04BF90020E0802073E6
:101E500070BD0000380000200B48807A0A4AD27A10
:101E6000904201D1002070470748807A064A115CF1
:101E70001046807A401CC0B290720A2801DB002014
:101E800090720846EFE70000D8000020704710B5B8
:101E900000F012F900F003F800F0C2F810BD10B520
:101EA00000F054F800F002F810BD00001CB501214C
:101EB0004FF4F270FFF780FA00208DF804008DF8DF
:101EC00006008DF8070002208DF80500C001009083
:101ED00069461948FEF70EFB4FF400500090694622
:101EE0001648FEF707FB4FF4006000906946124861
:101EF000FEF700FB0420009069461148FEF7FAFA4D
:101F00000820009069460E48FEF7F4FA4FF400608E
:101F1000009069460B48FEF7EDFA80200090694674
:101F20000948FEF7E7FA4FF400400090694604487C
:101F3000FEF7E0FA1CBD000000200240000802404D
:101F4000001C024000140240001802400021284AF0
:101F50009172D1721173002018E06421254A02EBBE
:101F6000001211810221234A02EB0012117100219B
:101F7000204A02EB001291721E4A02EB0012D1724B
:101F80001C4A02EB00121173411CC8B20A28E4DBA0
:101F9000642218490A87052281F83B206422A1F8AF
:101FA0004820052281F84B206422A1F85820052200
:101FB00081F85B206422A1F86820052281F86B205B
:101FC0000D490C4A11600D4911610D4911620D490D
:101FD00011630D4911640D4911650D4911660D49D3
:101FE00011670D49C2F880100C49C2F89010704773
:101FF000D80000203800002009090008390900082D
:1020000051090008690900088109000899090008B8
:10201000B1090008C9090008E10900082109000800
:1020200070B5002016E0002100EB40021E4B03EBD0
:102030008202516000EB400203EB8202916000EBF0
:10204000400203EB8202517000EB400203F82210C1
:10205000411CC8B20428E6DB144909684FF47A73BE
:10206000B1FBF3F2511EB1F1807F00D31BE0511E92
:102070004FF0E023596159170F23002907DA1C0795
:10208000260E0B4C01F00F052D1F665503E01C07B3
:10209000250E084C655400BF00214FF0E0239961E4
:1020A0000721196100BF70BDE8000020200000205A
:1020B00018ED00E000E400E010B5FFF7C7FCFEF704
:1020C000AFFAFEF7EFF810BD10B5002404E020468B
:1020D000FFF75CFE601CC4B20A2CF8DB10BD0000E8
:1020E0000649C97A054A50541146C97A491CC9B2F1
:1020F000D1720A2901DB0021D1727047D80000207B
:1021000010B5FFF7E1FF10BD7047416851B141685C
:10211000491E416006D1012141700178012901D198
:102120008168416070472DE9F04105460E4617462B
:102130002846FEF795F804460CB9BDE8F081E06941
:1021400008B1E06980473A4631462046FFF744FC33
:1021500000BFF2E713B50446012201A92046FFF7AC
:10216000E2FF1CBD70B504460D46E1B20020FFF74A
:10217000F1FF204670BD000086B080254FF00008BA
:10218000FFF785FEFFF728F8FEF7C2F8FEF755FFC8
:102190000020FEF79BFC0020ADF808000120ADF800
:1021A0000A000020ADF80C00ADF80E000120ADF8DB
:1021B0001000ADF812000020ADF814000120ADF8B9
:1021C0001600002401273CE1FFF760FE012F7CD1BF
:1021D0000027072C22D2DFE804F004223E7CC4E66C
:1021E000EA000020FEF772FC01208023402200213B
:1021F00000900846FEF7E4FE02AB92A203210820FD
:10220000FEF754FD02AB93A216210A20FEF74EFD05
:1022100002AB93A22A210520FEF748FDCBE0002067
:10222000FEF754FC02AB92A200210846FEF73EFDE9
:1022300002AB94A210210020FEF738FD02AB96A25B
:1022400020210020FEF732FD02AB98A230210020B1
:10225000FEF72CFDAFE00020FEF738FC04AB98A29F
:1022600000210520FEF722FD04AB81A20D210020F4
:10227000FEF71CFD04AB83A21A210020FEF716FD19
:1022800004AB85A227210020FEF710FD04AB87A236
:1022900034210020FEF70AFD02AB8EA20E216E2033
:1022A000FEF704FD02AB8CA21E216E20FEF7FEFCA1
:1022B00002AB8AA22E216E20FEF7F8FC012011232A
:1022C00032220D2100906D2000E075E0FEF778FECF
:1022D00071E00020ADF812000120ADF81400FF20DD
:1022E000FEF7F4FB04AB76A200210520FEF7DEFC2E
:1022F00004AB5FA20D210020FEF7D8FC04AB61A265
:102300001A210020FEF7D2FC04AB63A22721002093
:10231000FEF7CCFC04AB65A234210020FEF7C6FC1E
:1023200002AB6CA20E216E20FEF7C0FC02AB6AA2CB
:102330001E216E20FEF7BAFC02AB68A22E216E2091
:10234000FEF7B4FC0020112332220D2100906D20F5
:10235000FEF736FE0120ADF812000020ADF81400A3
:1023600029E00020FEF7B2FB01200A231A460021D3
:1023700000900846FEF724FE01201E2314220A21A5
:1023800000900846FEF71CFE01231E22202140205B
:10239000FEF74CFD01203F230022114600907F20D4
:1023A000FEF79BFD07E00020FEF790FB03E0FF2017
:1023B000FEF78CFB00BF00BFFFF74EFD0646002E68
:1023C0003FD0102E1CD004DC0A2E07D00D2E37D1A2
:1023D0000DE0132E1CD0162E32D121E0FF2D01DA94
:1023E000681CC5B22846FEF7CFFE012728E0002D65
:1023F00001DD681EC5B22846FEF7C6FE01271FE0B4
:10240000002C02DD601EC4B200E00624012717E0A4
:10241000062C02DA601CC4B200E0002401270FE0A1
:10242000B8F1000F05D14FF001080120FEF7B5FE0D
:1024300004E04FF000080020FEF7AFFE012700BFC8
:1024400000BFC1E6B0B2B8BBC0B34F4C4544C0FDFD
:10245000B3CC0000C7EBB2D9D7F7D2A1B8CB2100DB
:102460007777772E41524D666C792E636F6D000041
:10247000B9CAC8CBCEF7B4C7BBC6BAD7C2A5A3AC3E
:1024800000000000D1CCBBA8C8FDD4C2CFC2D1EFA0
:10249000D6DDA1A300000000B9C2B7ABD4B6D3B05B
:1024A000B1CCBFD5BEA1A3AC00000000CEA8BCFB40
:1024B000B3A4BDADCCECBCCAC1F7A1A30000000021
:1024C000A1B6CBCDC3CFBAC6C8BBD6AEB9E3C1EABD
:1024D000A1B70000B0B20000B8BB0000C0B300005C
:1024E00000000000000000000000000000000000EC
:1024F00000000000000000000000000000000000DC
:1025000000000000000000000000000000000000CB
:1025100000000000000000000000000000000000BB
:1025200000000000000000000000000000000000AB
:10253000000000000000000000000000000000009B
:10254000000000000000000000000000000000008B
:10255000000000000000000000000000000000007B
:10256000000000000000000000000000000000006B
:10257000000000000000000000000000000000005B
:10258000000000000000000000000000000000004B
:10259000000000000000000000000000000000003B
:1025A000000000000000000000000000000000002B
:1025B000000000000000000000000000000000001B
:1025C000000000000000000000000000000000000B
:1025D00000000000000000000000000000000000FB
:1025E00000000000000000000000000000000000EB
:1025F00000000000000000000000000000000000DB
:1026000000000000000000000000000000000000CA
:1026100000000000000000000000000000000000BA
:1026200000000000000000000000000000000000AA
:10263000000000000000000000000000000000009A
:10264000000000000000000000000000000000008A
:10265000000000000000000000000000000000007A
:10266000000000000000000000000000001010103A
:102670001010000010000000006C4848000000002E
:1026800000000000001414287C287C285050000012
:1026900000103840403848701010000000205020D2
:1026A0000C70081408000000000000182020544896
:1026B00034000000001010101000000000000000A6
:1026C000000808101010101010080800002020103A
:1026D000101010101020200000107C10282800007E
:1026E000000000000000101010FC1010100000008E
:1026F0000000000000000018103020000000000062
:10270000007C00000000000000000000000000301D
:1027100030000000000404080810102020400000D1
:102720000038444444444444380000000030101051
:10273000101010107C0000000038440408102044E1
:102740007C000000003844041804044438000000F1
:10275000000C141424447C040C000000003C2020D5
:102760003804044438000000001C204078444444ED
:1027700038000000007C4404080808101000000025
:10278000003844443844444438000000003844448D
:10279000443C0408700000000000003030000030AD
:1027A0003000000000000018180000183020000061
:1027B00000000C10608060100C00000000000000A1
:1027C0007C007C00000000000000C02018041820DD
:1027D000C0000000000018240408100030000000B1
:1027E0003844444C54544C404438000000301028C5
:1027F00028287C44EC00000000F844447844444419
:10280000F8000000003C44404040404438000000D4
:1028100000F0484444444448F000000000FC4450A8
:1028200070504044FC000000007C20283828202004
:1028300070000000003C4440404C4444380000001C
:1028400000EC44447C444444EC000000007C101044
:10285000101010107C000000003C08080848484890
:102860003000000000EC444850704844E400000090
:1028700000702020202024247C00000000EC6C6CE0
:1028800054544444EC00000000EC64645454544C30
:10289000EC00000000384444444444443800000044
:1028A000007824242438202070000000003844449C
:1028B00044444444381C000000F8444444784844EC
:1028C000E000000000344C4038040464580000006C
:1028D00000FC9010101010103800000000EC444470
:1028E000444444443800000000EC444428282810A4
:1028F0001000000000EC44445454545428000000DC
:1029000000C4442810102844C400000000EC4428EF
:102910002810101038000000007C440810102044DB
:102920007C000000003820202020202020203800BB
:102930000040202020101008080800000038080877
:102940000808080808083800001010284400000093
:10295000000000000000000000000000000000FC7B
:102960000010080000000000000000000000003817
:10297000443C44443C00000000C04058644444448B
:10298000F80000000000003C4440404438000000D3
:10299000000C04344C4444443C0000000000003867
:1029A000447C40403C000000001C207C2020202073
:1029B0007C000000000000344C4444443C043800D7
:1029C00000C0405864444444EC0000000010007013
:1029D000101010107C000000001000780808080893
:1029E0000808700000C0405C48705048DC000000DF
:1029F00000301010101010107C000000000000E8E3
:102A000054545454FC000000000000D86444444472
:102A1000EC0000000000003844444444380000004A
:102A2000000000D8644444447840E00000000034D2
:102A30004C4444443C040C000000006C3020202036
:102A40007C0000000000003C443804447800000092
:102A50000000207C202020201C000000000000CC72
:102A60004444444C34000000000000EC4444282856
:102A700010000000000000EC4454545428000000F2
:102A8000000000CC48303048CC000000000000ECD2
:102A900044242818101078000000007C48102044BE
:102AA0007C0000000008101010102010101008000A
:102AB0000010101010101010101000000020101046
:102AC0001010081010102000000000000024580012
:102AD00000000000000000000000000000000000F6
:102AE0000000000000007E81A58181BD9981817E6A
:102AF0000000000000007EFFDBFFFFC3E7FFFF7E5A
:102B000000000000000000006CFEFEFEFE7C38109D
:102B1000000000000000000010387CFE7C3810002F
:102B200000000000000000183C3CE7E7E718183CF4
:102B300000000000000000183C7EFFFF7E18183CDB
:102B400000000000000000000000183C3C180000DD
:102B500000000000FFFFFFFFFFFFE7C3C3E7FFFF29
:102B6000FFFFFFFF00000000003C664242663C00A1
:102B700000000000FFFFFFFFFFC399BDBD99C3FF29
:102B8000FFFFFFFF00001E0E1A3278CCCCCCCC78B1
:102B90000000000000003C666666663C187E18185F
:102BA0000000000000003F333F3030303070F0E074
:102BB0000000000000007F637F6363636367E7E6F4
:102BC000C00000000000001818DB3CE73CDB1818D0
:102BD000000000000080C0E0F0F8FEF8F0E0C080E7
:102BE000000000000002060E1E3EFE3E1E0E060203
:102BF000000000000000183C7E1818187E3C1800E9
:102C0000000000000000666666666666660066662E
:102C10000000000000007FDBDBDB7B1B1B1B1B1BA2
:102C200000000000007CC660386CC6C66C380CC65C
:102C30007C0000000000000000000000FEFEFEFE20
:102C4000000000000000183C7E1818187E3C187E1A
:102C5000000000000000183C7E18181818181818FA
:102C6000000000000000181818181818187E3C18EA
:102C7000000000000000000000180CFE0C1800000E
:102C80000000000000000000003060FE6030000026
:102C900000000000000000000000C0C0C0FE0000F6
:102CA000000000000000000000286CFE6C280000FE
:102CB00000000000000000001038387C7CFEFE00A0
:102CC0000000000000000000FEFE7C7C3838100090
:102CD00000000000000000000000000000000000F4
:102CE000000000000000183C3C3C181818001818A0
:102CF000000000000066666624000000000000007E
:102D0000000000000000006C6CFE6C6C6CFE6C6CD3
:102D10000000000018187CC6C2C07C060686C67C6F
:102D20001818000000000000C2C60C183060C686EB
:102D3000000000000000386C6C3876DCCCCCCC761F
:102D40000000000000303030600000000000000093
:102D50000000000000000C18303030303030180C0B
:102D600000000000000030180C0C0C0C0C0C18308B
:102D7000000000000000000000663CFF3C66000010
:102D800000000000000000000018187E1818000065
:102D900000000000000000000000000000181818EB
:102DA0003000000000000000000000FE00000000F5
:102DB00000000000000000000000000000001818E3
:102DC000000000000000000002060C183060C08007
:102DD000000000000000386CC6C6D6D6C6C66C38E7
:102DE0000000000000001838781818181818187E0D
:102DF0000000000000007CC6060C183060C0C6FE53
:102E00000000000000007CC606063C060606C67CE4
:102E10000000000000000C1C3C6CCCFE0C0C0C1ED6
:102E2000000000000000FEC0C0C0FC060606C67C14
:102E30000000000000003860C0C0FCC6C6C6C67CEA
:102E4000000000000000FEC606060C1830303030CE
:102E50000000000000007CC6C6C67CC6C6C6C67C94
:102E60000000000000007CC6C6C67E0606060C7880
:102E700000000000000000001818000000181800F2
:102E800000000000000000001818000000181830B2
:102E900000000000000000060C18306030180C061E
:102EA0000000000000000000007E00007E00000026
:102EB000000000000000006030180C060C183060A4
:102EC0000000000000007CC6C60C18181800181876
:102ED000000000000000007CC6C6DEDEDEDCC07C38
:102EE00000000000000010386CC6C6FEC6C6C6C68C
:102EF000000000000000FC6666667C66666666FC94
:102F00000000000000003C66C2C0C0C0C0C2663CF9
:102F1000000000000000F86C6666666666666CF885
:102F2000000000000000FE6662687868606266FE6D
:102F3000000000000000FE6662687868606060F073
:102F40000000000000003C66C2C0C0DEC6C6663A93
:102F5000000000000000C6C6C6C6FEC6C6C6C6C67D
:102F60000000000000003C18181818181818183C29
:102F70000000000000001E0C0C0C0C0CCCCCCC781B
:102F8000000000000000E666666C78786C6666E615
:102F9000000000000000F06060606060606266FE3B
:102FA000000000000000C6EEFEFED6C6C6C6C6C6BD
:102FB000000000000000C6E6F6FEDECEC6C6C6C6AD
:102FC0000000000000007CC6C6C6C6C6C6C6C67CD9
:102FD000000000000000FC6666667C60606060F0D7
:102FE0000000000000007CC6C6C6C6C6C6D6DE7C91
:102FF0000C0E00000000FC6666667C6C666666E689
:103000000000000000007CC6C660380C06C6C67C06
:103010000000000000007E7E5A1818181818183C8E
:10302000000000000000C6C6C6C6C6C6C6C6C67C2E
:10303000000000000000C6C6C6C6C6C6C66C381072
:10304000000000000000C6C6C6C6D6D6D6FEEE6C8E
:10305000000000000000C6C66C7C38387C6CC6C618
:10306000000000000000666666663C181818183CF0
:10307000000000000000FEC6860C183060C2C6FECC
:103080000000000000003C30303030303030303C48
:103090000000000000000080C0E070381C0E060236
:1030A0000000000000003C0C0C0C0C0C0C0C0C3C48
:1030B0000000000010386CC6000000000000000096
:1030C0000000000000000000000000000000000000
:1030D00000FF000030301800000000000000000079
:1030E000000000000000000000780C7CCCCCCC7606
:1030F000000000000000E06060786C666666667C38
:103100000000000000000000007CC6C0C0C0C67CFB
:103110000000000000001C0C0C3C6CCCCCCCCC762D
:103120000000000000000000007CC6FEC0C0C67C9D
:10313000000000000000386C6460F060606060F0C7
:1031400000000000000000000076CCCCCCCCCC7C91
:103150000CCC78000000E060606C7666666666E61F
:103160000000000000001818003818181818183C43
:103170000000000000000606000E06060606060611
:1031800066663C000000E06060666C78786C66E61D
:103190000000000000003818181818181818183CFB
:1031A000000000000000000000ECFED6D6D6D6C617
:1031B000000000000000000000DC666666666666CF
:1031C0000000000000000000007CC6C6C6C6C67C29
:1031D000000000000000000000DC66666666667C99
:1031E0006060F000000000000076CCCCCCCCCC7C41
:1031F0000C0C1E000000000000DC7666606060F0D1
:103200000000000000000000007CC660380CC67C96
:10321000000000000000103030FC30303030361C30
:10322000000000000000000000CCCCCCCCCCCC7660
:1032300000000000000000000066666666663C183C
:10324000000000000000000000C6C6D6D6D6FE6C06
:10325000000000000000000000C66C3838386CC662
:10326000000000000000000000C6C6C6C6C6C67E3C
:10327000060CF8000000000000FECC183060C6FE0E
:103280000000000000000E18181870181818180E0A
:103290000000000000001818181800181818181856
:1032A000000000000000701818180E181818187088
:1032B00000000000000076DC0000000000000000BC
:1032C000000000000000000010386CC6C6C6FE00FA
:1032D0000000000000003C66C2C0C0C0C2663C0CDA
:1032E000067C00000000CC0000CCCCCCCCCCCC7652
:1032F00000000000000C1830007CC6FEC0C0C67C78
:10330000000000000010386C00780C7CCCCCCC762F
:10331000000000000000CC0000780C7CCCCCCC7607
:10332000000000000060301800780C7CCCCCCC761B
:103330000000000000386C3800780C7CCCCCCC76D7
:1033400000000000000000003C666060663C0C0667
:103350003C0000000010386C007CC6FEC0C0C67C7B
:10336000000000000000C600007CC6FEC0C0C67C95
:103370000000000000603018007CC6FEC0C0C67CA3
:103380000000000000006600003818181818183CEB
:103390000000000000183C66003818181818183C87
:1033A0000000000000603018003818181818183C89
:1033B0000000000000C60010386CC6C6FEC6C6C6B7
:1033C00000000000386C3800386CC6C6FEC6C6C6A1
:1033D0000000000018306000FE66607C606066FEE1
:1033E000000000000000000000CC76367ED8D86EC9
:1033F0000000000000003E6CCCCCFECCCCCCCCCE8F
:10340000000000000010386C007CC6C6C6C6C67C32
:10341000000000000000C600007CC6C6C6C6C67C10
:103420000000000000603018007CC6C6C6C6C67C1E
:1034300000000000003078CC00CCCCCCCCCCCC76DA
:10344000000000000060301800CCCCCCCCCCCC7696
:10345000000000000000C60000C6C6C6C6C6C67E84
:10346000060C780000C6007CC6C6C6C6C6C6C67CAA
:103470000000000000C600C6C6C6C6C6C6C6C67CDA
:10348000000000000018183C66606060663C181878
:103490000000000000386C6460F060606060E6FC72
:1034A00000000000000066663C187E187E181818A0
:1034B0000000000000F8CCCCF8C4CCDECCCCCCC6EC
:1034C00000000000000E1B1818187E181818181895
:1034D000D87000000018306000780C7CCCCCCC7622
:1034E00000000000000C1830003818181818183C9C
:1034F0000000000000183060007CC6C6C6C6C67C4E
:10350000000000000018306000CCCCCCCCCCCC76D5
:1035100000000000000076DC00DC66666666666619
:103520000000000076DC00C6E6F6FEDECEC6C6C6AB
:1035300000000000003C6C6C3E007E0000000000BB
:103540000000000000386C6C38007C0000000000B7
:10355000000000000000303000303060C0C6C67C83
:1035600000000000000000000000FEC0C0C0C0005D
:1035700000000000000000000000FE060606060035
:103580000000000000C0C0C2C6CC183060DC860C51
:10359000183E000000C0C0C2C6CC183066CE9E3EA9
:1035A0000606000000001818001818183C3C3C18CB
:1035B000000000000000000000366CD86C360000EF
:1035C000000000000000000000D86C366CD800003D
:1035D00000000000114411441144114411441144ED
:1035E0001144114455AA55AA55AA55AA55AA55AA37
:1035F00055AA55AADD77DD77DD77DD77DD77DD77D5
:10360000DD77DD77181818181818181818181818F2
:103610001818181818181818181818F8181818184A
:10362000181818181818181818F818F8181818185A
:103630001818181836363636363636F636363636E2
:103640003636363600000000000000FE36363636CC
:10365000363636360000000000F818F8181818182A
:10366000181818183636363636F606F63636363622
:1036700036363636363636363636363636363636EA
:10368000363636360000000000FE06F63636363690
:10369000363636363636363636F606FE000000004A
:1036A0000000000036363636363636FE00000000A2
:1036B000000000001818181818F818F8000000008A
:1036C0000000000000000000000000F818181818A2
:1036D00018181818181818181818181F00000000C3
:1036E0000000000018181818181818FF0000000033
:1036F0000000000000000000000000FF181818186B
:1037000018181818181818181818181F1818181832
:103710001818181800000000000000FF000000004A
:103720000000000018181818181818FF1818181892
:103730001818181818181818181F181F18181818FB
:103740001818181836363636363636373636363690
:1037500036363636363636363637303F00000000DD
:103760000000000000000000003F303736363636DB
:10377000363636363636363636F700FF000000006D
:10378000000000000000000000FF00F7363636366B
:1037900036363636363636363637303736363636CD
:1037A000363636360000000000FF00FF0000000043
:1037B000000000003636363636F700F73636363635
:1037C000363636361818181818FF00FF00000000AB
:1037D0000000000036363636363636FF0000000070
:1037E000000000000000000000FF00FF181818187B
:1037F0001818181800000000000000FF3636363692
:1038000036363636363636363636363F0000000027
:103810000000000018181818181F181F00000000DA
:103820000000000000000000001F181F18181818E2
:1038300018181818000000000000003F3636363611
:103840003636363636363636363636FF363636364F
:10385000363636361818181818FF18FF18181818A2
:103860001818181818181818181818F80000000058
:1038700000000000000000000000001F18181818C9
:1038800018181818FFFFFFFFFFFFFFFFFFFFFFFFE4
:10389000FFFFFFFF00000000000000FFFFFFFFFF31
:1038A000FFFFFFFFF0F0F0F0F0F0F0F0F0F0F0F0DC
:1038B000F0F0F0F00F0F0F0F0F0F0F0F0F0F0F0F94
:1038C0000F0F0F0FFFFFFFFFFFFFFF0000000000C3
:1038D00000000000000000000076DCD8D8D8DC76BC
:1038E00000000000000078CCCCCCD8CCC6C6C6CC3A
:1038F000000000000000FEC6C6C0C0C0C0C0C0C0FE
:103900000000000000000000FE6C6C6C6C6C6C6CC5
:1039100000000000000000FEC66030183060C6FEE7
:103920000000000000000000007ED8D8D8D8D87071
:10393000000000000000000066666666667C60604D
:10394000C00000000000000076DC181818181818D5
:10395000000000000000007E183C6666663C187E91
:1039600000000000000000386CC6C6FEC6C66C38F9
:10397000000000000000386CC6C6C66C6C6C6CEEB3
:103980000000000000001E30180C3E666666663CB3
:103990000000000000000000007EDBDBDB7E00009A
:1039A0000000000000000003067EDBDBF37E60C049
:1039B0000000000000001C3060607C606060301C13
:1039C000000000000000007CC6C6C6C6C6C6C6C64B
:1039D0000000000000000000FE0000FE0000FE00ED
:1039E000000000000000000018187E18180000FFFA
:1039F0000000000000000030180C060C1830007E9B
:103A0000000000000000000C18306030180C007E30
:103A10000000000000000E1B1B18181818181818BA
:103A2000181818181818181818181818D8D8D8707E
:103A300000000000000000001818007E00181800A8
:103A400000000000000000000076DC0076DC0000D2
:103A50000000000000386C6C38000000000000001E
:103A60000000000000000000000000181800000026
:103A7000000000000000000000000000180000002E
:103A800000000000000F0C0C0C0C0CEC6C6C3C1CCF
:103A90000000000000D86C6C6C6C6C000000000032
:103AA000000000000070D83060C8F800000000007E
:103AB00000000000000000007C7C7C7C7C7C7C00A2
:103AC00000000000000000000000000000000000F6
:103AD00000000000A1A300000000000000000000A2
:103AE0000000000060009000900060000000A1B69F
:103AF00000000090009001200120024002400120BF
:103B00000120009000900000A1B7000090009000FC
:103B1000480048002400240048004800900090001D
:103B20000000A3AC00000000000000000000000046
:103B3000000018001800180030000000A3BA0000B0
:103B400000003000300000000000000030003000B5
:103B5000000000000000B0B204007FF0401084209C
:103B60000400FFF0088010801900070018C0E02052
:103B7000B0D7040008407FE04040404040407FC054
:103B80004040404040407FC04040B1CC1080FBE00E
:103B90002220FBE02220FBE00000FFF010003FC0ED
:103BA00050409FC0B2D927C02440F7C020003EE05B
:103BB0006AA0AEE021003FF02540A9205110B3A437
:103BC00010401080110016001820FFF014001200A1
:103BD000110010801C701000B3CC1BE0E2202220EA
:103BE000FBE0200067F07080A880A3E0208020A088
:103BF0002FF0B4C7188077F01120FD40108017F027
:103C0000788048804FF0788048800080B7AB2040B3
:103C100023E0FA40AA40AA40AB40AAC0BA40AA504A
:103C2000245024502830B8BB02007FF04010BFC0A1
:103C300000001F8010803FC024403FC024403FC090
:103C4000B8CB204023E0F880208060A077F0A880E7
:103C5000A0802080208020802080B9C20060F78072
:103C60001540254025403540E54025402920296064
:103C7000B1D04000B9CA210021002920FDF0224026
:103C80002540794048804880794042200C10B9E3B3
:103C9000040002203FF0200020002000200020002F
:103CA0002000400040008000BAC60100450027E027
:103CB000890049203FF02000CFE0482048204FE015
:103CC0004820BAD7208021E0FD20A5A05160FD004A
:103CD00051F07C1051D07C1050507C20BBA8088043
:103CE00008A0FFF00880110011603180530095108A
:103CF0001110111010F0BBC608807FE00880FFF0A3
:103D000002003FC022403FC022403FC00880706098
:103D1000BCCA1000FBF09000A020CFF0A08092A0C1
:103D2000D2A0A490889082808100BCFB00803FC01C
:103D30002080248024802480248024800A000A108B
:103D40001210E1F0BDAD400020400FF081005100A5
:103D5000110021002100C10041205FF04000BEA100
:103D60003FC0204020403FC0220021002C80424024
:103D70004030980006000100BFD5040002007FF02B
:103D8000801011802060C0203FC004000400042087
:103D9000FFF0C0B30880FFF00A807FE0224012806D
:103DA000FFF00B0012802240C2300200C0EE022061
:103DB0007FF00B0012802270DFA001000220FFF0D4
:103DC00002000A000400C0FD10101F90245027506C
:103DD0006950A9503550225022102410285030200C
:103DE000C1EA0100F7E09100AFF0C280A4409A2040
:103DF00097C0EA80910086C09830C1F701004FF06B
:103E0000210082404FE0202025402540C5504550EC
:103E100049505130C2A5210029202540FFE0234010
:103E20007530A200AFE02480230026C03820C3CF25
:103E30003FC001000200FFF00200060000003FC08A
:103E400029402940FFF00000C7EB01204FF021007E
:103E500007E0E1002FF0242027E02C2037E0242089
:103E60000460C8BB210021403D2047F04900A980E3
:103E700012402420D810024049208920C8CB0400D9
:103E8000040004000400040006000A000900108079
:103E9000204040308020C8FD00407FE0000000004E
:103EA00000803FC00000000000000020FFF0000084
:103EB000CBCD0840448021000FE00100EFE021005D
:103EC00022802460282050008FF0CCEC00407FE05E
:103ED00004000400FFF00400040006000900108044
:103EE0002070C020CEA80280F24097F094809C8081
:103EF00097F09480F7F0848004A007F00400CEF7D8
:103F00000020FFF009007FE049204920492051E0CE
:103F1000602040207FE04020CFC20020FFF004005E
:103F200004000600050004C004400400040004006E
:103F30000400D1CC200027F02490A490B7F0A490E6
:103F4000249025502630541097F00410D1EF200013
:103F500027C0F8802100222037F062A0A2A024A070
:103F60002920A2A06440D2A120C02700F12024A0D3
:103F7000204037E0E5002FF021002920AFE0682045
:103F8000D3B07C2044407C804500FE2000407C80F3
:103F900045107C20504094803100D4B600404FE062
:103FA00020001FF00480E48024802490289020705A
:103FB00050008FF0D4C21FC0104010401FC01040EE
:103FC00010401FC010401040204042408180D5DF8B
:103FD00004203F4004800520FFF004001FC0304053
:103FE000DFC010401FC01040D6AE04000200020027
:103FF0007FC000800100020004000800300058006B
:1040000087F0D6DD10201220122012205B2056A04F
:1040100092A012201220222022204020D7F7120046
:10402000122027F025006900B1F02100210021F0C5
:10403000210021002100FFFFA1A3000000000000DB
:1040400000000000000000000000000000003C0034
:104050006600660066003C000000A3AC00000000A3
:104060000000000000000000000000000C001E0026
:104070001E000C000400080010000000B0B2020096
:1040800001007FFE4002820402000204FFFE0420C1
:10409000082018200640018002400C303010B1CCBE
:1040A0000440FE8811FC7D0811F81F08F1F8000893
:1040B0007FFC040008101FF82810C8100FF008102B
:1040C000B2D9101011F8111011F0FC0417BE14A48D
:1040D0001FBC3040D0441FFE10E01150124E54441B
:1040E0002040B3A4080008100830084008800900E8
:1040F0000804FFFE09000900088008400820091C88
:104100000E080800B3CC08041DFEF10411041104CC
:10411000FF0411FC380037FE5420502891FC102079
:10412000102417FE1000B4C708401C20F02811FC12
:1041300010001488FE50100415FE7E20442845FC13
:10414000442044207C204420B7AB100810FC148885
:104150007E88548854C854A854A8548854885C88CD
:104160005488110A110A12061400B8BB020001009B
:104170007FFE40229FF400001FF010101FF0000887
:104180003FFC21083FF821083FF82008B8CB100079
:10419000100811FC1020FC20102030243BFE54207D
:1041A0005020902010201020102010201020B9C284
:1041B00000087C3C07C00A101290129016901A90CA
:1041C0003290D2901290129014A815EE582420002C
:1041D000B9CA1040104010401444FEFE1108128865
:1041E00010887C8844884450442044207C50448E6D
:1041F0000304BAD7082008487FFC528890A8288872
:104200007EA8A8903E8428FE3E04282429F43E047B
:1042100020142008BBA808200824FFFE082008203E
:1042200008801088109830A050C0908011801282B1
:104230001482107E1000BBC6044004503FF80440B6
:104240000444FFFE01101FF811101FF011101FF0A1
:104250001000046018186004BCCA00087DFC44000B
:104260004800480050044BFE4820442044A844A481
:1042700069225222402040A04040BCFB00101FF8A1
:104280001010111011101110111011101110121026
:104290001290048004820882307EC000BDAD4000D0
:1042A000300817FC0040804060402040084010402B
:1042B0002040E040204020442FFE20002000BEA1EE
:1042C00000081FFC100810081FF81108108010804B
:1042D000104016202190400E8604018000C000404E
:1042E000BFD5020001007FFE400284440C3010184C
:1042F000200800003FF80100010001000104FFFE5A
:104300000000C0B308200824FFFE092001087FFC3C
:10431000010009200544FFFE038005400930310EED
:10432000C1040100C0FD100410441FE42204221443
:1043300067D4A454285434942294211422042404CD
:10434000280420142008C1F70080404837FC1040A2
:104350008090610827FC080411502150E150215041
:1043600021522152224E2440C2A510401248115021
:104370001044FFFE11503A4C344450805FFE9108C7
:10438000120811B0104011B01608C7EB004847FCE6
:10439000204023F80040EFFE200823FC220823F8E9
:1043A000220823F82A08320822280210C8CB01006C
:1043B00001000100010001000100010002800280F3
:1043C00002800440044008201010200E4004C8FD64
:1043D000000000087FFC00000000000000103FF813
:1043E00000000000000000000004FFFE00000000CC
:1043F000CCEC00087FFC0100010001000104FFFE7D
:104400000100028002800440044008201010200EA9
:10441000C004CEA8008008A07C9449FE49104B102F
:104420004DFC4910491049FC49107910491401FE0E
:1044300001000100CEF700000004FFFE044004402C
:1044400004447FFE444444444444444448345004B7
:1044500040047FFC4004CFC20004FFFE02000200C3
:10446000020002800240023002100200020002003C
:104470000200020002000200D1CC200427FE240426
:1044800024442C44B444A7FCA444244424A42494E9
:10449000250C560C4C0487FC0404D1EF100013F8D3
:1044A00010101020FC40108417FE18A430A4D0A4D3
:1044B000112411441244148451282010D2A1100850
:1044C000103C17C01248FD48115016001BFC344028
:1044D000D0441FFE10401248124853F82208D3B0AF
:1044E00000843FC420883F9020A03F840404FFE85C
:1044F00000103FA220823F841508249054A0084059
:10450000D4B6001043F830001000000807FCF1207A
:104510001120112011241224121C1400280647FC1B
:104520000000D4C200100FF80810081008100FF097
:104530000810081008100FF00810081010101010C4
:1045400020504020D6DD100410841084108454A420
:104550005294529490841084108410841084208487
:10456000208440040004D7F709000900090411FE63
:1045700012803280549098F810801080108810FCBF
:104580001080108010801080FFFF0000AC450008F4
:104590000000002038000000681B0008E445000807
:1045A0003800002080650000781B00080000000033
:1045B00000000000000000000000010000000001F9
:1045C000020304010203040607080900007A030A33
:1045D00000000000000000000102030406070809B3
:0445E00000000000D7
:040000050800018965
:00000001FF
