:020000040800F2
:1000000030620020412400080D2000080F20000865
:100010003D2000083F2000084120000800000000AB
:100020000000000000000000000000004320000865
:10003000452000080000000047200008991C000827
:1000400095240008992400089D240008A124000894
:10005000A5240008A9240008AD240008B124000844
:10006000B5240008B9240008BD240008C1240008F4
:10007000C5240008C9240008CD240008D1240008A4
:10008000D5240008D9240008DD240008E124000854
:10009000E5240008E9240008ED240008F124000804
:1000A000F5240008F9240008FD24000801250008B3
:1000B00005250008092500080D2500081125000860
:1000C00015250008192500081D2500082125000810
:1000D000252500080B090008150900081F0900085C
:1000E00035250008392500083D2500084125000870
:1000F00045250008492500084D2500085125000820
:1001000055250008592500085D25000861250008CF
:1001100065250008692500086D250008712500087F
:1001200075250008792500087D250008812500082F
:1001300085250008892500088D25000891250008DF
:1001400095250008992500089D250008A12500088F
:10015000A5250008A9250008AD25000829090008E3
:10016000B5250008B9250008BD250008C1250008EF
:10017000C5250008C9250008CD250008D12500089F
:10018000D5250008D925000880B500F054F800F006
:1001900048F900F0D2FA01BD0100C9B2002902D12C
:1001A000DFF890071CE0C9B2012902D1DFF8880707
:1001B00016E0C9B2022902D1DFF8800710E0C9B207
:1001C000032901D100200BE0C9B2042901D100208C
:1001D00006E0C9B2052902D1DFF8640700E000207B
:1001E0007047F8B504000D0016002000C0B2FFF7FC
:1001F000D3FF0700002F0AD0F869002801D0F86962
:100200008047320092B22900380000F0CCFAF1BDEC
:1002100013B50400012201A92000C0B2FFF7E1FFDD
:1002200013BDDFF82007042101807047DFF81807AD
:10023000042101807047DFF8FC06DFF81017016029
:10024000DFF8F006DFF808174160DFF8E806DFF8AE
:1002500004178160DFF8DC064FF480618181DFF8EC
:10026000D4064FF48061C181DFF8C8060021018205
:10027000DFF8C00600214182DFF8B8060021C18204
:10028000DFF8B00600210183DFF8A80600214183D2
:10029000DFF8A00600218182DFF898060021C16105
:1002A000DFF8900600210162DFF888060021416234
:1002B000DFF88406DFF8A0160160DFF87C06DFF8BF
:1002C0009C164160DFF87006DFF894168160DFF855
:1002D000680601218181DFF860064FF40061C18169
:1002E000DFF8540600210182DFF84C06002141822C
:1002F000DFF844060021C182DFF83C0600210183BB
:10030000DFF8340600214183DFF82C0600218182CA
:10031000DFF824060021C161DFF81C06002101621C
:10032000DFF8140600214162DFF81006DFF834160A
:100330000160DFF80806DFF830164160DFF8FC05E1
:10034000DFF828168160DFF8F4054FF480618181C1
:10035000DFF8E8054FF48061C181DFF8E005002196
:100360000182DFF8D80500214182DFF8D0050021A5
:10037000C182DFF8C80500210183DFF8C005002134
:100380004183DFF8B80500218182DFF8B005DFF88E
:10039000E015C161DFF8A405DFF8D8150162DFF8C8
:1003A0009C0500214162DFF89805DFF8CC1501605B
:1003B000DFF88C05DFF8C4154160DFF88405DFF84D
:1003C000C0158160DFF878054FF480618181DFF826
:1003D00070054FF48061C181DFF86405002101825E
:1003E000DFF85C0500214182DFF854050021C1825D
:1003F000DFF84C0500210183DFF84405002141832B
:10040000DFF83C0500218182DFF834050021C1615D
:10041000DFF82C0500210162DFF82405002141628C
:10042000704700B587B00121012000F03EFB01219B
:10043000102000F058FB07220921DFF8480500F0E2
:10044000C6FB07220A21DFF83C0500F0C0FB0020B4
:100450008DF8060001208DF8070002208DF80400B9
:100460004FF40070009002208DF8050000A9DFF81D
:10047000140500F057FB02208DF804004FF4806053
:10048000009000A9DFF8FC0400F04CFB5FF4E130C1
:1004900002900020ADF80C000020ADF80E00002006
:1004A000ADF810000020ADF814000C20ADF81200DB
:1004B00002A9DFF8980400F0B7FB012240F22551B1
:1004C000DFF8880400F044FC0121DFF8800400F02C
:1004D00029FC4021DFF8740400F065FC01210120B3
:1004E00000F0E3FA01215FF4003000F0EDFA07229A
:1004F0000321DFF8900400F06AFB00208DF806006D
:1005000001208DF8070002208DF8040002208DF8EC
:1005100004000820009002208DF8050000A9DFF8F3
:10052000640400F0FFFA4FF4165002900020ADF87A
:100530000C000020ADF80E000020ADF810000020E7
:10054000ADF814000420ADF8120002A9DFF8080489
:1005500000F06AFB012240F22551DFF8FC0300F0B5
:10056000F7FB0121DFF8F00300F0DCFB4021DFF8AE
:10057000E80300F018FC0121022000F096FA0120A7
:100580008DF8040000208DF8060000208DF807008B
:1005900003208DF805000420009000A9DFF8E8038F
:1005A00000F0C0FA0121022000F07FFA01215FF47F
:1005B000802000F089FA07220A21DFF8CC0300F03E
:1005C00006FB07220B21DFF8C00300F000FB002030
:1005D0008DF8060001208DF8070002208DF8040038
:1005E0004FF48060009002208DF8050000A9DFF82C
:1005F000980300F097FA02208DF804004FF4006091
:10060000009000A9DFF8800300F08CFA4FF4165038
:1006100002900020ADF80C000020ADF80E00002084
:10062000ADF810000020ADF814000C20ADF8120059
:1006300002A9CC4800F0F8FA012240F22551C9483D
:1006400000F086FB0121C74800F06CFB4021C54843
:1006500000F0A9FB0121442000F027FA012120200D
:1006600000F041FA08220E21C84800F0B0FA082232
:100670000721C74800F0ABFA08220821C34800F060
:10068000A6FA08220F21C14800F0A1FA00208DF837
:10069000060001208DF8070002208DF804004FF4B9
:1006A0008040009002208DF8050000A9B74800F0B6
:1006B00039FA02208DF804008020009000A9B44887
:1006C00000F030FA02208DF804004FF480700090A2
:1006D00000A9AE4800F026FA02208DF804004FF47D
:1006E0000040009000A9A94800F01CFA5FF4E13036
:1006F00002900020ADF80C000020ADF80E000020A4
:10070000ADF810004FF44070ADF814000C20ADF8B7
:10071000120002A9984800F087FA012240F2255100
:10072000954800F015FB0121934800F0FBFA4021A9
:10073000914800F038FB07B000BD80B54FF4E06091
:1007400000F06EFB25208DF8000000208DF80200DF
:1007500001208DF8030000A800F067FB26208DF82B
:10076000000001208DF8020001208DF8030000A890
:1007700000F05BFB27208DF8000002208DF80200BE
:1007800001208DF8030000A800F04FFB47208DF8F2
:10079000000005208DF8020001208DF8030000A85C
:1007A00000F043FB01BDF8B504000D001600002069
:1007B0000700BFB2B6B2B74224D2012181F310883C
:1007C000A18A0800002181F31088A18980B28842A3
:1007D000F3D2218A6268BFB27B5D8B54012181F321
:1007E0001088218A491C2182A28989B2914201D3B1
:1007F00000202082A08A401CA082002080F3108864
:100800007F1CD6E7012240F22771206800F0A0FA91
:10081000F1BD10B5040040F22551206800F0C9FA7E
:1008200000281DD0206800F08FFAE18AA268885461
:10083000E08A401CE082E18980B2884201D3002036
:10084000E082608BE189884202D2608B401C608329
:10085000608B012804D1606A002801D0606A80475B
:1008600040F22771206800F0A4FA002823D0A08A63
:1008700000280CD1002240F22771206800F068FAAD
:10088000012240F22661206800F062FA3CE0608AB2
:100890006168415C89B2206800F052FA608A401CAD
:1008A0006082A18980B2884201D300206082A08A40
:1008B000401EA08228E040F22661206800F079FA0C
:1008C000002821D0A08A00280BD1002240F2266106
:1008D000206800F03DFA206A002815D0206A804781
:1008E00012E0608A6168415C89B2206800F028FAF1
:1008F000608A401C6082A18980B2884201D30020B6
:100900006082A08A401EA08210BD80B50948FFF712
:1009100080FF01BD80B50848FFF77BFF01BD80B5B2
:100920000648FFF776FF01BD80B50548FFF771FF68
:1009300001BD0000742100209C210020C421002062
:10094000EC210020180402401A040240001001406B
:1009500054080020540C0020004400402E220020A7
:10096000540000200048004054100020541400207F
:10097000230200082D020008001401405418002032
:10098000541C0020000002400004024000180240F5
:100990000008024038B504000D002100C9B2002053
:1009A000FFF736FC200032BDF0B400210022002306
:1009B000022400250226DFF84C713F6817F00C076F
:1009C00039000F00002F04D0042F06D0082F08D0C4
:1009D0003CE0DFF8387107603BE0DFF83471076016
:1009E00037E0DFF824713F68C7F380573D00DFF838
:1009F00018713F6817F03F073E00002D0DD0DFF85B
:100A00001071B7FBF6F7DFF800C1DCF800C0CCF3DB
:100A1000881C0CFB07F73B000CE0DFF8F070B7FB1D
:100A2000F6F7DFF8E4C0DCF800C0CCF3881C0CFB60
:100A300007F73B00DFF8D0703F68C7F301477F1C22
:100A40007F003C00B3FBF4F7076002E0DFF8BC7006
:100A50000760DFF8B0703F6817F0F0073900090948
:100A6000DFF8B070CF5D3A000768D7404760DFF825
:100A700094703F6817F4E0573900890ADFF89470E2
:100A8000CF5D3A004768D7408760DFF878703F68ED
:100A900017F460473900490BDFF87870CF5D3A00F2
:100AA0004768D740C760F0BC7047C9B2002905D07D
:100AB000194A12680243184B1A6004E0164A126879
:100AC0008243154B1A607047C9B2002905D0134AFA
:100AD00012680243114B1A6004E0104A1268824304
:100AE0000E4B1A607047C9B2002905D00C4A126833
:100AF00002430B4B1A6004E0094A12688243084B18
:100B00001A60704708380240043802400024F4009C
:100B100040787D01400000203038024040380240DB
:100B200044380240F0B400220023002400252A00AB
:100B3000102A4AD2012595402B000D681D402C003B
:100B40009C4240D1056803261700FFB27F00BE40DB
:100B5000B543056005680E791700FFB27F00BE40FF
:100B6000354305600D79012D02D00D79022D1AD182
:100B7000856803261700FFB27F00BE40B54385603D
:100B800085684E791700FFB27F00BE40354385600F
:100B9000456801269640B543456045688E79964084
:100BA000B6B235434560C56803261700FFB27F0023
:100BB000BE40B543C560C568CE791700FFB27F005F
:100BC000BE403543C560521CB2E7F0BC7047F0B47C
:100BD00000230024D2B211F00705EDB2AD0012FAE5
:100BE00005F52B0089B2CD1010EB850589B2CE102A
:100BF00010EB8606366A0F2711F0070C5FFA8CFCA3
:100C00005FEA8C0C17FA0CF7BE432E6289B2CD1046
:100C100010EB85052D6A1D432C0089B2CD1010EB19
:100C200085052C62F0BC70472DE9F04385B00400C7
:100C30000D005FF00009002600275FF00008A8897A
:100C40000028208A814639F44059E88850EA090989
:100C5000A4F81090A0898146314810EA0909A888B3
:100C6000298908436989084350EA0909A4F80C90C6
:100C7000A08A814639F44079A88950EA0909A4F884
:100C8000149000A8FFF790FE2348844202D0234826
:100C9000844202D10398060001E002980600A08970
:100CA000000408D5192000FB06F029684900B0FBB4
:100CB000F1F0070007E0192000FB06F02968890021
:100CC000B0FBF1F007006420B7FBF0F000018146B3
:100CD0005FEA1910642101FB10708046A0890004AE
:100CE0000AD55FEAC80032306421B0FBF1F010F0A1
:100CF000070050EA090909E05FEA08103230642170
:100D0000B0FBF1F010F00F0050EA0909A4F80890C8
:100D100005B0BDE8F0830000001001400014014060
:100D2000F3E9FFFFC9B2002904D0828952F40052CE
:100D3000828104E082894DF6FF731A4082817047F8
:100D4000CA05D20D828070478088C005C00D7047EB
:100D5000F0B4002300240025002640F66A1789B26B
:100D6000B94206000F00FFB27F09FFB23B0089B213
:100D700011F01F073C000127A7403D00012B01D1C6
:100D80000C3604E0022B01D1103600E01436D2B24A
:100D9000002A03D037682F43376002E03768AF433B
:100DA0003760F0BC704789B28A0589B2CA430280B5
:100DB000704770B40200002300250024002040F694
:100DC0006A1689B2B1420E00F6B27609F6B2340064
:100DD00089B211F01F063500012616FA05F5012C1F
:100DE00002D19689354006E0022C02D1168A3540A0
:100DF00001E0968A354089B20E0AB6B23300012668
:100E000016FA03F316883340002D04D0002B02D0CD
:100E10000126300001E000263000C0B270BC7047EF
:100E20001C4901431C4A11607047F0B400230021A3
:100E30000F22C478002C21D0174C246814F4E064ED
:100E4000D4F5E064240A2300D3F104042100D2B2D3
:100E50001A4144788C4023008478144023431B01BA
:100E600004780E4D6355047864110D4D0126077802
:100E700017F01F07BE4045F8246009E004786411AC
:100E8000084D0126077817F01F07BE4045F824607B
:100E9000F0BC70470000FA050CED00E000E400E053
:100EA00000E100E080E100E02DE9F04F93B08146E1
:100EB00017461D46029102AE002009E017F8011BFB
:100EC0000298C8470290002800F0CF81B069401C0A
:100ED000B061387808B9B069C9E12528EED10020A1
:100EE000F0603061706101E040F0010017F8011F0F
:100EF0002029F9D023290ED02B2904D02D2906D062
:100F000030290CD00FE040F0020080B2EEE740F054
:100F1000040080B2EAE740F0080080B2E6E740F063
:100F2000100080B2E2E72A290DD129680A1D2A6043
:100F300009683162002904D54942316240F0040059
:100F400080B27F1C13E0002131620BE0316A6FF048
:100F50000043994205D001EB810302EB4301303994
:100F600031627F1C3A78A2F130010A29EED3397838
:100F70002E291CBF4FF0FF31F1611ED117F8011F60
:100F80002A2906D129680A1D2A600968F1617F1C97
:100F900013E00021F1610BE0F1696FF00043994229
:100FA00005D001EB810302EB43013039F1617F1C75
:100FB0003A78A2F130010A29EED3B08439780FF2E1
:100FC000843000F0C3F908B117F8010B8DF82E003A
:100FD0009DF82E00682804BF3878682803D1622065
:100FE0008DF82E007F1C0CA8B0603A78252A00F0FE
:100FF000B980582A30D0632A00F0A380642A18BF31
:10100000692A64D06F2A27D0702A1CD0732A04D092
:10101000752A18BF782A1FD09DE02868011D296015
:1010200000687060F269002A03D500F0B1F9306100
:101030009DE0002100F0D8F900281ABF7168401A1D
:10104000F069306193E02868011D29600068019013
:101050000CA87060782170E09DF82E306C2B08BFD2
:10106000286811D0712B08BF286802D06A2B286825
:101070000AD1C01D20F007002860014601F10800D8
:101080002860D1E9000102E0011D2960006801909B
:10109000682B04BF01A8008803D0622B02D101A8ED
:1010A0000078019096F82400000741D501980028A7
:1010B0003ED042F0200078283AD1F0680CA93023C5
:1010C0004354401C411CF1600CA9425430E09DF88F
:1010D0002E00622802D0682806D00BE02868011D87
:1010E000296090F9000009E02868011D2960B0F925
:1010F000000003E02868011D2960006801900028B5
:1011000005D5F068411CF1600CA92D230FE0B08CCF
:10111000810705D5F068411CF1600CA92B2306E07E
:10112000C00705D5F068411CF1600CA92023435489
:10113000F0680CA940187060114601A800F09AF8F8
:1011400015E0F068411CF16029680A1D2A600CAAAC
:10115000096881540BE0F068411CF1600CA925235B
:10116000435422B1F068411CF1600CA942547F1C29
:10117000306AF168401A7169401A3169A0EB0108C0
:1011800096F82400400719D420208DF80000B8F10B
:10119000010F13DB44464FF0010A0DF1000B1BF861
:1011A000011B0298C847029000285ED0B069401C1D
:1011B000B061BAF1010AF2D1641EECD1F4680DF10C
:1011C000300A5CB11AF8011B0298C8470290002847
:1011D0004BD0B069401CB061641EF3D130208DF853
:1011E0000000D6F814B0BBF1010F10DB01240DF1A3
:1011F000000A1AF8011B0298C8470290A8B3B06908
:10120000401CB061641EF4D1BBF1010BEED1346916
:10121000D6F804A054B11AF8011B0298C8470290EE
:1012200018B3B069401CB061641EF4D196F8240074
:1012300040077FF54EAE20208DF80000B8F1010F79
:10124000FFF647AE01240DF1000A1AF8011B0298BF
:10125000C847029048B1B069401CB061641EF4D127
:10126000B8F101083FF435AEECE74FF0FF3013B0B2
:10127000BDE8F08FF0B4C2686F2908BF082405D01C
:1012800041F02003782B14BF0A241024182305688A
:101290002E46642918BF692902D1002D48BF764225
:1012A000002E04BF056A002D09D1082C27D190F823
:1012B0002810090723D517233021D1751FE05D1EA3
:1012C0002B46B6FBF4F704FB17663036F6B23A2E1F
:1012D00024BFA1F1510C6644AE543E0003D0856892
:1012E0009F18BD42EBD3082C09D190F828100907AC
:1012F00005D5995C302902D05B1E30219954C3F189
:10130000180141619A188260026A914207DA511A03
:101310008161018D4FF6EF721140018510E0002AC6
:101320000ED590F8282002F01402102A08D1426A43
:101330000369D21A8369D21A531A012BA8BF836199
:10134000F0BC7047686C747A4C0000000278C9B237
:101350008A421AB11CBF10F8012FF9E718BF00200C
:10136000704710B450F8041B81B102681218001DB8
:1013700050F8043BDC0744BFA9F10104E31852F81C
:10138000044B43F8044B091FF9D1EBE710BC70473D
:1013900000F10103810704D010F8011B89B1810716
:1013A000FAD10268B2F10131914311F0803F04BFDC
:1013B00050F8042FF6E710F8011B11B110F8011BCB
:1013C000FBE7C01A704750F8041B61B150F8042BBA
:1013D000D30744BFA9F101039A18002342F8043B44
:1013E000091FFAD1EFE77047C9B2830706D0521E32
:1013F00022D310F8013B9942F7D11FE0083A13D3EA
:1014000002F1040241EA012141EA014150F8043BA2
:10141000121F21BF4B40A3F1013C2CEA030C1CF02E
:10142000803FF3D0C9B2001F083210F8013B521EB2
:1014300028BF91EA030FF8D818BF0120401E70475B
:10144000DFF878030068C00501D4012000E0002027
:101450007047DFF86C030068800401D4012000E0CD
:1014600000207047DFF854030068000501D4012014
:1014700000E000207047DFF84C030068400701D40B
:10148000012000E000207047DFF838030068000703
:1014900001D4012000E000207047DFF82C03006831
:1014A000000501D4012000E000207047DFF81C0394
:1014B0000068000601D4012000E000207047DFF83A
:1014C00004030068000401D4012000E000207047FC
:1014D00080B5FFF7B5FF002805D0FFF7BAFF002859
:1014E00001D0012000E0002002BD80B5FFF7A8FF79
:1014F000002805D0FFF7ADFF002801D0012000E053
:10150000002002BD80B500F079F800F02EF801BD92
:10151000DFF8BC12C97ADFF8B8228854AC49C97A1E
:10152000491CAB4AD172C9B20A2902D3A849002288
:10153000CA727047A648807AA54AD27A904201D1F1
:10154000002011E0A248807AA14A805C0100A048F6
:10155000807A401C9E4A9072C0B20A2802D39C48EE
:10156000002282720800C0B2704700B583B001212A
:101570004FF4F270FFF799FA00208DF80400002074
:101580008DF8060000208DF8070002208DF8050078
:101590004FF48070009000A98F48FFF7C3FA4FF412
:1015A0000050009000A98D48FFF7BCFA4FF400608E
:1015B000009000A98848FFF7B5FA0420009000A920
:1015C0008748FFF7AFFA0820009000A98448FFF78A
:1015D000A9FA4FF40060009000A98248FFF7A2FA30
:1015E0008020009000A98048FFF79CFA4FF400404B
:1015F000009000A97A48FFF795FA07BD74490022C8
:101600008A7273490022CA72714900220A7300214A
:101610000800C0B20A281FD2C0B26E4911EB0011F7
:1016200064220A81C0B26B4911EB001102220A71D7
:10163000C0B2684911EB001100228A72C0B265493C
:1016400011EB00110022CA72C0B2624911EB001105
:1016500000220A73401CDCE75E4964220A875D4968
:10166000052281F83B205B496422A1F848205949B2
:10167000052281F84B2057496422A1F8582055498A
:10168000052281F85B2053496422A1F86820514962
:10169000052281F86B204F49544A0A604D49544A4B
:1016A0000A614C49534A0A624A49534A0A63494902
:1016B000524A0A644749524A0A654649514A0A66EB
:1016C0004449514A0A674349504AC1F88020414978
:1016D0004F4AC1F89020704738B50400E4B23D4845
:1016E00010EB0410050028688047002845D02879B1
:1016F000052802D2052028715DE028790A2803D246
:101700002879401C287156E0A87A002809D10120C8
:10171000A872E4B2032000FB04F0401CC0B2FFF743
:10172000F7FE2889012846D3E888298988420FD204
:10173000E888401CE880298980B288423BD1E4B225
:10174000032000FB04F0C01CC0B2FFF7E1FE32E052
:10175000E87A01282FD3287B401C2873E97AC0B28D
:10176000884228D300202873E4B2032000FB04F051
:10177000401CC0B2FFF7CCFE1DE02879062802D33A
:101780000520287113E02879002803D02879401E0D
:1017900028710CE0A87A012809D10020A872E4B2CF
:1017A000032000FB04F0801CC0B2FFF7B1FE002054
:1017B000E8800020287331BD0000000010200240A6
:1017C00010080240101C0240101402401018024081
:1017D0001422002054200020002002400008024073
:1017E000001C02400014024000180240411400088E
:1017F00053140008651400087714000889140008C1
:101800009B140008AD140008BF140008D114000890
:10181000EB14000810B500200400E4B20A2C05D235
:101820002000C0B2FFF758FF641CF6E710BD0000AF
:1018300010B500F00BF900F082F8624800F016F9DC
:10184000614800F013F9614800F010F9604800F0B9
:101850000DF9604800F00AF94FF4FA71002000F029
:10186000B8F900F002F9002000F0E0F9002802D0F9
:10187000042000F08DFAFFF75DFE0400E4B2002CB6
:10188000EFD0E4B22000012816D002281BD0042893
:1018900020D0052825D007282AD008282FD00A28AC
:1018A00034D00D2836D0102838D013283AD0162836
:1018B0003CD017283ED041E0012000F02BFA4648EA
:1018C00000F0D4F8CDE7012000F043FA434800F0DF
:1018D000CDF8C6E7022000F01DFA414800F0C6F836
:1018E000BFE7022000F035FA3E4800F0BFF8B8E745
:1018F000032000F00FFA3C4800F0B8F8B1E70320ED
:1019000000F027FA394800F0B1F8AAE7384800F0AB
:10191000ADF8A6E7374800F0A9F8A2E7364800F08E
:10192000A5F89EE7354800F0A1F89AE7344800F0A2
:101930009DF896E7334800F099F892E791E770B583
:1019400031480068040031480068050030480068EC
:10195000060023002A0031002E4800F087F817A067
:1019600000F084F82C4800F081F82C492C4800F055
:101970007DF813A12B4800F079F82B492B4800F093
:1019800075F8002303220121294800F06FF8294847
:1019900000F06CF8284800F069F8284800F066F874
:1019A000274800F063F8274800F060F8264800F068
:1019B0005DF8194800F05AF870BD00000A0D0000EB
:1019C000312E32007C2100085423000868230008CF
:1019D0007C2300089C210008342200084C220008C7
:1019E000642200087C22000894220008AC2200082F
:1019F000E0230008F0230008002400081024000859
:101A00002024000830240008107AFF1F147AFF1FDA
:101A1000187AFF1F48200008CC1F0008BC210008CE
:101A200090230008A423000850240008B8230008CD
:101A30008020000868240008C4220008CC23000885
:101A4000FC210008DC2100081021000880B5FEF709
:101A50009BFBFFF757FD00F044F800F021F901BDB2
:101A600080B5FFF7D7FE01BD704770470EB400B5D3
:101A700082B003A9009100AB0246012103487844DB
:101A80000A30FFF711FA06BC5DF810FB9108000060
:101A900040B2002808D540B210F00F02704BD218A7
:101AA0000B0102F8043C03E040B26E4A0B01835480
:101AB000704710B50400601EB0F1807F01D3012093
:101AC0000EE0601E684908600F215FF0FF30FFF7ED
:101AD000DFFF6648002101606548072101600020A2
:101AE00010BD10B500200400E4B2042C1DD2E4B2F5
:101AF0000C20604900FB041000214160E4B20C207E
:101B00005C4900FB041000218160E4B20C205949BB
:101B100000FB041000214170E4B20C20554900FB89
:101B2000041000210170641CDEE7534800684FF484
:101B30007A71B0FBF1F0FFF7BCFF10BD10B54F4854
:101B40000068002809D04D480068401E4B490860D5
:101B5000002802D14A480121017000200400E4B2AB
:101B6000042C08D2E4B20C20424900FB041000F01F
:101B700020F8641CF3E743480068401C41490860B2
:101B8000404800687FF00041884202D13D48002172
:101B90000160FFF769FF3C480078401C3A49087033
:101BA000C0B20A2804D3384800210170FFF758FF5B
:101BB00010BD416800290BD04168491E41600029D1
:101BC00006D1012141700178012901D1816841606C
:101BD000704738B504000D00E4B2042C05D32D4A3B
:101BE0002A492B48FFF742FFFEE7012080F31088C7
:101BF000E4B20C201F4900FB04104560E4B20C2045
:101C00001C4900FB04108560E4B20C20194900FB5C
:101C1000041000214170E4B20C20164900FB0410AE
:101C200001210170002080F3108831BD0100C9B28C
:101C3000042901D3002011E0C9B20C200D4A00FB99
:101C400001204078012808D1C9B20C20094A00FBC4
:101C5000012000224270012000E0002070470000B7
:101C600018ED00E000E400E014E000E018E000E01F
:101C700010E000E044210020500000202422002039
:101C80002C220020282200202D220020681F00087E
:101C90005C2100084023000880B5FFF74FFF01BD1D
:101CA00000B583B001214FF49270FEF7FEFE0120D3
:101CB00000F04FF8022000F04CF8032000F049F843
:101CC000042000F046F801208DF8040000208DF873
:101CD000060000208DF8070003208DF805004FF462
:101CE0008060009000A93F48FEF71CFF8020009014
:101CF00000A93D48FEF716FF4FF48070009000A940
:101D00003948FEF70FFF0420009000A93748FEF77E
:101D100009FF07BD401EC0B2002804D134494FF46A
:101D200080620A8014E0C0B2012803D131498022C8
:101D30000A800DE0C0B2022804D12E494FF480720F
:101D40000A8005E0C0B2032802D12B4904220A8090
:101D50007047401EC0B2002804D128494FF4806269
:101D60000A8014E0C0B2012803D1254980220A80EC
:101D70000DE0C0B2022804D121494FF480720A80DC
:101D800005E0C0B2032802D11E4904220A80704730
:101D9000C0B2012806D11C49096891F480611A4A31
:101DA00011601DE0C0B2022806D11849096891F0FF
:101DB0008001164A116013E0C0B2032807D113490D
:101DC00009684FF480725140104A116008E0C0B2B7
:101DD000042805D10E49096891F004010C4A1160EC
:101DE000704700000020024000140240000802403A
:101DF0001A2002401A1402401A0802401820024019
:101E00001814024018080240142002401414024022
:101E10001408024080B54848006850F470004649F4
:101E200008604648006850F0010044490860444892
:101E30000021016041480068424908403F4908606C
:101E40004148424901603D48006830F480203B49E8
:101E500008603F480021016000F005F83D485FF050
:101E60000061016001BD82B000200190002000905F
:101E70003248006850F48030304908602F480068CC
:101E800010F4003000900198401C01900098002848
:101E900003D10198B0F5A04FF0D128480068800325
:101EA00002D50120009001E0002000900098012858
:101EB0003ED12948006850F08050274908602748E3
:101EC000006850F44040254908601D481C490968D5
:101ED00001601B48006850F4004019490860184828
:101EE000006850F4A0501649086017481C4901606A
:101EF0001248006850F08070104908600F48006870
:101F00008001FBD5174840F2057101600C4800685C
:101F1000800880000A4908600948006850F0020003
:101F2000074908600648006810F00C000828F9D13D
:101F300002B070470000000088ED00E00038024069
:101F400008380240FFFFF6FE04380240103000243B
:101F50000C38024008ED00E04038024000700040BC
:101F600019544007003C0240453A5C4D7944617485
:101F7000615C53544D33322D46342D415CC8EDBC69
:101F8000FE5C7372635C56312E325C56352D3130F7
:101F9000315FB0B4BCFCBCECB2E2BACD4C4544BF3E
:101FA000D8D6C6C0FDB3CC5C557365725C627370E5
:101FB0005F73746D3332663478785C7372635C621D
:101FC00073705F74696D65722E6300002A2A2A2A75
:101FD0002A2A2A2A2A2A2A2A2A2A2A2A2A2A2A2A61
:101FE0002A2A2A2A2A2A2A2A2A2A2A2A2A2A2A2A51
:101FF0002A2A2A2A2A2A2A2A2A2A2A2A2A2A2A2A41
:102000002A2A2A2A2A2A2A2A2A0A0D007047084838
:1020100000221100C9B22A2909D2C9B20A5C054BB3
:102020001A80054A12885206FBD5491CF2E7FEE7E2
:10203000B82000080410014000100140FEE7FEE750
:10204000FEE77047704770470D0A435055203A200D
:1020500053544D333246343037494754362C204C94
:102060005146503137362C20554944203D202530EB
:102070003858202530385820253038580A0D0000AF
:102080002A20B9CCBCFEBFE2B0E6B1BE203A205651
:1020900025642E25642E2564202853544D33324662
:1020A0003478785F5374645065726970685F447205
:1020B00069766572290D0A000D0A456E74657220F5
:1020C000486172644661756C745F48616E646C65EA
:1020D000722C2053797374656D2048616C742E0DD9
:1020E0000A00000010B5084979441C31074C7C44B3
:1020F0001A34A14206D0081D0A68511888470146C3
:10210000A142F8D110BD00BF300000005000000017
:102110002A20436F70797269676874207777772E09
:1021200061726D666C792E636F6D20B0B2B8BBC002
:10213000B3B5E7D7D30D0A008FF2FFFFDC21000013
:1021400054000020000000001BF2FFFF54000000BC
:102150008C04000000000020000000004572726F37
:10216000723A2066696C652025732C2066756E6353
:1021700074696F6E20257328290D0A004C4544347C
:10218000D5FDD4DAC9C1CBB828C9C1CBB8C6B5C250
:10219000CA203D2031487A290D0A0000B2D9D7F76C
:1021A000B0B4BCFCBACDD2A1B8CBBBE1B4F2D3A1E0
:1021B000B0B4BCFCCAC2BCFE0D0A000056352D31BD
:1021C00030315FB0B4BCFCBCECB2E2BACD4C45449B
:1021D000BFD8D6C6C0FDB3CC000000002A20CCD4A6
:1021E000B1A6B5EA3A2061726D666C792E74616FA2
:1021F00062616F2E636F6D0D0A0000002A20456D2D
:1022000061696C203A2061726D666C794071712E43
:10221000636F6D200D0A00004EF68851CEF200016A
:10222000086840F4700008604FF00070E1EE100A9A
:10223000704700004B31BCFCB0B4CFC22C204C45E1
:102240004431B5E3C1C10D0A000000004B31BCFCB4
:10225000B5AFC6F02C204C454431CFA8C3F00D0AD1
:10226000000000004B32BCFCB0B4CFC22C204C4567
:102270004432B5E3C1C10D0A000000004B32BCFC82
:10228000B5AFC6F02C204C454432CFA8C3F00D0AA0
:10229000000000004B33BCFCB0B4CFC22C204C4536
:1022A0004433B5E3C1C10D0A000000004B33BCFC50
:1022B000B5AFC6F02C204C454433CFA8C3F00D0A6F
:1022C000000000002A205151202020203A203132E5
:1022D0003935373434363330200D0A0000F009F830
:1022E000002801D0FFF7FEFE0020FFF7A1FA00F062
:1022F00002F80120704700F001B800000746384698
:1023000000F002F8FBE7000080B5C046C046024A74
:1023100011001820ABBEFBE72600020038B50446CA
:102320000D46284600F006F8A84218BF00242046B3
:1023300032BD00000149FEF72DBB00BF00000020A8
:102340006273705F53746172744175746F54696D18
:1023500065720000B0B4CFC24B31BCFCB5E3C1C163
:102360004C4544310D0A0000B0B4CFC24B32BCFC26
:10237000B5E3C1C14C4544320D0A0000B0B4CFC230
:102380004B33BCFCB5E3C1C14C4544330D0A0000DE
:102390002A20C0FDB3CCC3FBB3C62020203A2025A1
:1023A000730D0A002A20C0FDB3CCB0E6B1BE2020D8
:1023B000203A2025730D0A002A20B7A2B2BCC8D546
:1023C000C6DA2020203A2025730D0A002A20CDFAF3
:1023D000CDFA20203A2061726D666C790D0A0000FA
:1023E000D2A1B8CBC9CFBCFCB0B4CFC20D0A00009B
:1023F000D2A1B8CBCFC2BCFCB0B4CFC20D0A000092
:10240000D2A1B8CBD7F3BCFCB0B4CFC20D0A000048
:10241000D2A1B8CBD3D2BCFCB0B4CFC20D0A00005D
:10242000D2A1B8CB4F4BBCFCB0B4CFC20D0A000058
:10243000D2A1B8CB4F4BBCFCB5AFC6F00D0A000023
:102440000148804701480047151E00085D24000828
:10245000323031342D30322D32380000C046C04683
:10246000FFF7DAFEFFF73AFF2A200D0A000000000E
:10247000FFF7CCBDFFF7CBBDFFF7E0BDFFF7DFBD3A
:10248000FFF7DEBDFFF7DDBDFFF7DCBDFFF7DBBD0E
:10249000FFF702BCFFF7FEBFFFF7FEBFFFF7FEBF6F
:1024A000FFF7FEBFFFF7FEBFFFF7FEBFFFF7FEBF60
:1024B000FFF7FEBFFFF7FEBFFFF7FEBFFFF7FEBF50
:1024C000FFF7FEBFFFF7FEBFFFF7FEBFFFF7FEBF40
:1024D000FFF7FEBFFFF7FEBFFFF7FEBFFFF7FEBF30
:1024E000FFF7FEBFFFF7FEBFFFF7FEBFFFF7FEBF20
:1024F000FFF7FEBFFFF7FEBFFFF7FEBFFFF7FEBF10
:10250000FFF7FEBFFFF7FEBFFFF7FEBFFFF7FEBFFF
:10251000FFF7FEBFFFF7FEBFFFF7FEBFFFF7FEBFEF
:10252000FFF7FEBFFFF7FEBFFEF7EFB9FEF7F2B908
:10253000FEF7F5B9FFF7FEBFFFF7FEBFFFF7FEBFDF
:10254000FFF7FEBFFFF7FEBFFFF7FEBFFFF7FEBFBF
:10255000FFF7FEBFFFF7FEBFFFF7FEBFFFF7FEBFAF
:10256000FFF7FEBFFFF7FEBFFFF7FEBFFFF7FEBF9F
:10257000FFF7FEBFFFF7FEBFFFF7FEBFFFF7FEBF8F
:10258000FFF7FEBFFFF7FEBFFFF7FEBFFFF7FEBF7F
:10259000FFF7FEBFFFF7FEBFFFF7FEBFFFF7FEBF6F
:1025A000FFF7FEBFFFF7FEBFFFF7FEBFFFF7FEBF5F
:1025B000FEF7BAB9FFF7FEBFFFF7FEBFFFF7FEBF9A
:1025C000FFF7FEBFFFF7FEBFFFF7FEBFFFF7FEBF3F
:1025D000FFF7FEBFFFF7FEBFFFF7FEBF02040101DA
:1025E000F420002044210020F4200020F4200020CA
:1025F000F42000203D000020240000200000000006
:1026000000000000000000000000000000000000CA
:1026100000000000000000000000000000000000BA
:10262000010203040102030406070809007A030AF1
:040000050800245D6E
:00000001FF
