:020000040800F2
:10000000289F002005670008316400083364000859
:10001000596400085B6400085D640008000000008B
:100020000000000000000000000000005F64000805
:10003000616400080000000063640008D73900080C
:1000400075670008796700087D6700088167000808
:1000500085670008896700088D67000891670008B8
:1000600095670008996700089D670008A167000868
:10007000A5670008A9670008AD670008B167000818
:10008000B5670008B9670008BD670008C1670008C8
:10009000C5670008C9670008CD670008D167000878
:1000A000D5670008D9670008DD670008E167000828
:1000B000493A0008E9670008ED670008F1670008A1
:1000C000F5670008F9670008FD6700080168000887
:1000D00005680008DB460008E5460008EF46000812
:1000E00015680008196800081D68000821680008E4
:1000F00025680008296800082D6800083168000894
:1001000035680008396800083D6800084168000843
:1001100045680008496800084D68000851680008F3
:1001200055680008596800085D68000861680008A3
:100130002DE9F04FA5B0804615461E460FF2D85067
:10014000D0E90023CDE91223049104AF00207862A6
:1001500014AC6FF0004900E055440020ADF80200F7
:1001600012AB4FF0FF3229460DF1020001F035F8D5
:100170008246BAF1010F08DA2878B0F1010A6AEB79
:100180000A0A6FEA0A004FEAD07ABDF80200252871
:100190000CBFAAF101035346012B07DB2A4602A933
:1001A000404600F0F5FF002800F1EB80BDF80200AA
:1001B000252807D10020F86038617861B861F861BE
:1001C000386205E00028C7D1786ADCE040F0010021
:1001D00015F8011F2029F9D023290ED02B2904D08E
:1001E0002D2906D030290CD00FE040F0020080B25B
:1001F000EEE740F0040080B2EAE740F0080080B289
:10020000E6E740F0100080B2E2E72A290DD131681C
:100210000A1D32600968F962002904D54942F96271
:1002200040F0040080B26D1C11E00021F96209E089
:10023000F96A494505D001EB810302EB43013039EE
:10024000F9626D1C2A78A2F130010A29F0D32978CD
:100250002E291CBF4FF0FF31B9621CD115F8011FC8
:100260002A2906D131680A1D32600968B9626D1CFD
:1002700011E00021B96209E0B96A494505D001EBF6
:10028000810302EB43013039B9626D1C2A78A2F177
:1002900030010A29F0D3388629780FF2844000F023
:1002A000C3FF08B115F8010B8DF842009DF842001C
:1002B000682804D1287868280AD1622005E06C28D3
:1002C00004BF28786C2803D171208DF842006D1C82
:1002D00014A8B8602A781046253828D01C3800F0B9
:1002E0008B80001F022840F28780133800F0B08016
:1002F000093800F08180801E00F04A81401E00F025
:10030000F080401E022877D9001F00F0EA80401FCD
:1003100047D0401E00F09C80401E37D0C01E0CD03D
:10032000801E00F09580C01E00F0928051E1F868B8
:10033000411CF9602521015555E19DF842006C28CA
:10034000306814D0011D316000687860BA6A002AF4
:1003500003D500F085FF386145E1002100F09CFFE6
:1003600000281ABF7968401AB86A38613BE1011D5C
:100370003160026802A9404600F0D6F9002840F139
:1003800032814FF0FF3025B0BDE8F08F3068011D9D
:10039000316000680021CDE9020114A8786078215D
:1003A000F2E09DF84200622818D0682806D06A283A
:1003B0000BD06C2819D0712807D016E03068011DC9
:1003C0003160796A006801800DE13268101D30608B
:1003D000786AC1171268C2E9000104E13068011DA2
:1003E0003160796A00680170FDE03068011D31609C
:1003F000796A00680160F6E03068C01D20F00700EF
:100400003060034603F108003060D3E90001CDE914
:100410000201002904D5F868411CF9602D210DE086
:10042000388E810704D5F868411CF9602B2105E05E
:10043000C00704D5F868411CF96020210155F8680F
:1004400014A940187860114602A800F06DFBCAE0BC
:100450009DF842306C2B08BF306811D0712B08BF5B
:10046000306802D06A2B30680AD1C01D20F0070026
:10047000306084460CF108003060DCE9000103E0E4
:10048000011D316000680021CDE90201682B04BF25
:10049000DDE9020180B20BD0622B04BFDDE902016D
:1004A000C0B205D0742B18BF7A2B04D1DDE902014C
:1004B0000021CDE9020197F8300000075FD5DDE9A2
:1004C0000201002908BF002859D042F020007828F6
:1004D00055D1F86830210155401C411CF960025586
:1004E0004DE09DF8420062280CD0682810D06A28A0
:1004F0001AD06C2824D0712816D0742820D07A28DD
:100500000CD01DE03068011D316090F900001BE047
:100510003068011D3160B0F9000015E03068011D40
:1005200031600068002110E03068C01D20F0070035
:100530003060034603F108003060D3E9000104E0B5
:100540003068011D31600068C117CDE90201DDE9A5
:100550000201002904DAF868411CF9602D210DE040
:10056000388E810704D5F868411CF9602B2105E01D
:10057000C00704D5F868411CF96020210155F868CE
:1005800014A940187860114602A800F03AFA2AE04F
:100590009DF842006C2808D0F868411CF960316869
:1005A0000A1D3260096801551DE03068011D316087
:1005B0000068ADF804000020ADF806004FF0FF30F1
:1005C000B86201AA02A9404600F0AEF800280AD598
:1005D000D7E6F868411CF960252101551AB1F86881
:1005E000411CF96002556D1CF86AF968401AB96936
:1005F000401A3969401AF969401A7969401A396A0A
:10060000A0EB010A97F83000400712D420208DF8A3
:100610000000BAF1010F0CDBD346012300AA02A9A6
:10062000404600F0B5FD00287FF4ABAEBBF1010BF6
:10063000F3D1FB6814AA02A9404600F0A9FD0028E6
:100640007FF49FAE30208DF80000D7F818B0BBF1D2
:10065000010F0BDB012300AA02A9404600F098FD20
:1006600000287FF48EAEBBF1010BF3D13B697A68B1
:1006700002A9404600F08CFD00287FF482AE3020B5
:100680008DF80000D7F81CB0BBF1010F0BDB012384
:1006900000AA02A9404600F07BFD00287FF471AE5D
:1006A000BBF1010BF3D17B6938697968421802A963
:1006B000404600F06DFD00287FF463AE30208DF8D9
:1006C0000000D7F820B0BBF1010F0BDB012300AA1B
:1006D00002A9404600F05CFD00287FF452AEBBF159
:1006E000010BF3D197F8300040077FF536AD20209D
:1006F0008DF80000BAF1010FFFF62FAD012300AA1B
:1007000002A9404600F044FD00287FF43AAEBAF159
:10071000010AF3D121E50000000000000000000004
:10072000686A6C747A4C00002DE9F04F95B08346EE
:100730000F461446D7F830A0BAF1000F48BF6FF04B
:10074000004A00F0D5FD796B401801900FF6702239
:10075000D2E90001CDE9020197F83800400702D440
:100760000198412805D20DF1100940200190002583
:100770000AE000F0C3FD8146B9F1000FF7D14FF058
:10078000FF303BE1AAEB080ABAF1010FC0F2A980E1
:1007900002AA21880DF1010000F00EFE5FEA0008B8
:1007A00000F1BF80208818B9B8F1010800F1B980C4
:1007B000C245C0F296807869019908EB0002914227
:1007C00080F080807D634042396A401AB969401ADE
:1007D000796A401AF969401AB96A451A97F83800D7
:1007E000400710D420208DF80000012D0BDB2E4691
:1007F000012300AA3946584600F0CAFC002840F000
:100800009080761EF4D17B694A463946584600F0FE
:10081000BFFC002840F0858030208DF800003E6A43
:10082000012E09DB012300AA3946584600F0B0FC2E
:10083000002876D1761EF5D1BB69FA68394658464C
:1008400000F0A6FC00286CD130208DF800007E6AF4
:10085000012E09DB012300AA3946584600F098FC16
:1008600000285ED1761EF5D1FB69B869F968421897
:100870003946584600F08CFC002852D130208DF8C3
:100880000000BE6A012E09DB012300AA3946584642
:1008900000F07EFC002844D1761EF5D197F8380090
:1008A00040070DD520208DF80000012D08DB012325
:1008B00000AA3946584600F06BFC90BB6D1EF6D17D
:1008C00000257D6142460DF101017869484400F040
:1008D00081FD78694044786134F8020B00287FF488
:1008E00051AF786B7969401A396A401AB969401A70
:1008F000796A401AF969401AB96AA0EB010897F8B9
:100900003800400712D420208DF80000B8F1010F04
:100910000CDB4446012300AA3946584600F038FC57
:1009200010B14FF0FF3562E0641EF3D17B694A4697
:100930003946584600F02CFC0028F2D130208DF8C2
:1009400000003C6A012C09DB012300AA3946584605
:1009500000F01EFC0028E4D1641EF5D1BB69FA68E2
:100960003946584600F014FC0028DAD130208DF8C2
:1009700000007C6A012C09DB012300AA3946584695
:1009800000F006FC0028CCD1641EF5D1FB69B869E3
:10099000F96842183946584600F0FAFB0028C0D1E1
:1009A00030208DF80000BC6A012C09DB012300AA6D
:1009B0003946584600F0ECFB0028B2D1641EF5D150
:1009C00097F83800400710D520208DF80000B8F1C6
:1009D000010F0ADB012300AA3946584600F0D8FB74
:1009E00000289ED1B8F10108F4D17D617D6304A88F
:1009F00081451CBF484600F029FD284615B0BDE8DA
:100A0000F08F2DE9FA4B86B005462F696F2908BF94
:100A1000082605D041F02000782814BF0A261026A9
:100A20003C24D5E9000181468B469DF81820642AB4
:100A300018BF692A05D1002903DAD9F100096BEB47
:100A40004B0BBBF1000F08BFB9F1000F0CD1286BA5
:100A500050B9082E44D195F83800000740D53B2402
:100A6000302087F83B003BE0A4F101084446F01732
:100A7000CDE9046048465946DDE9042300F02AFD2B
:100A8000CDE90201CDE9009BDDE90223DDE90401A6
:100A9000A0FB029BDDE90001A0EB09003030C0B2F1
:100AA0003A2803D39DF818105139081808F80700A0
:100AB000DDE9029BBBF1000F08BFB9F1000F03D0C5
:100AC000E868E1198842CFD3082E09D195F838009B
:100AD000000705D5E05D302802D0641E3020E055C7
:100AE000C4F13C00A861E119E960296B884207DA8A
:100AF000081A2862288F4FF6EF710840288710E007
:100B000000290ED595F8381001F01401102908D1EC
:100B1000696B6A69891A2A6A891A0C1A012CA8BF9A
:100B20002C6208B0BDE8F08B2DE9F24F8EB005467F
:100B300004AFD5E90001CDE902019DF8380040F08D
:100B400020008DF8000061280BD0286B002848BFDA
:100B5000062005D404BF9DF80000672801D10120BC
:100B600028636968C1F30A5040F2FF7398421CD1B0
:100B7000080304BF2868002809D10320A8619DF854
:100B8000380061381A2837D30FF2486108E0032093
:100B9000A8619DF8380061381A282AD30FF22C6119
:100BA0000322E86800F016FCBBE1010017D12846DB
:100BB00000F007FD012812DB002400209DF8001042
:100BC000612920D1E968302201F8012B4A1CEA6032
:100BD0009DF83820612A0CBF782258220FE040F29D
:100BE000FE316A6861F31E526A60441A4FF0FF30AA
:100BF000E4E70FF2D451D3E70FF2D451D0E70A70F3
:100C00006969891C696110B90026B0467FE19DF8C9
:100C10000000612840F09780286B00284CBF2126F7
:100C2000461C36B2771CD5E900ABDDE90201002293
:100C3000002300F0E9FC3ABF8BF00040CDE902A0B0
:100C4000CDE902ABA4F104088DF810200DF11109D3
:100C5000012F33DBDDE902010022002300F0ECFC70
:100C60002CD21C2102A800F0FFFCDDE9020100F0FB
:100C700089FD0446FF1F012F09DB00F0AFFD02468E
:100C80000B46DDE9020100F0C1FDCDE9020109F2E8
:100C90000700072104E004F00F0200F8012D2411E1
:100CA000012C01DB491EF6D5491E5CBF002200F86D
:100CB000012DF9D500F20709012FCBDA0DF1110052
:100CC000A9EB00010DF11107B142B8BF0E4636B2D3
:100CD000002E31D43046884206DA04A941184978FA
:100CE000082928BF0F2100D2002104AA821800E0A1
:100CF000761E401E12F801398B42F9D00F2904D11B
:100D000004A941184A78521C4A70002803D504AF40
:100D1000761C08F1040836B2701E0DD4C1190A7889
:100D20003032D2B23A2A03D39DF838303A3B9A187F
:100D300001F80129401EF2D5286B002840F1E78018
:100D4000701E2863E3E0DDE902010022002300F0C9
:100D50005BFC05D2DDE9020181F00041CDE9020131
:100D600024B247F2975060436F4990FBF1F80FFAB5
:100D700088F8C8F107040027DFF8B091012C19DBCF
:100D8000DDE902ABE00707D5504659463A464B46E7
:100D900000F0FCFD82468B466410384649463A46D0
:100DA0004B4600F0F3FD07468946002CEAD1CDE919
:100DB00002AB21E064429246DFF874B114D0E00740
:100DC00007D5504659463A464B4600F0DFFD82466D
:100DD0008B466410384649463A464B4600F0D6FDED
:100DE00007468946002CEAD1DDE9020152465B46FE
:100DF00000F09EFECDE902019DF8000066280CBFC0
:100E000008F10A000620296B4618142EA8BF1326E5
:100E100030208DF810000DF11104464F012E33DB08
:100E2000DDE9020100F0C4FC04F1080104220A24F7
:100E3000B0FBF4F303EB830EA0EB4E00303001F86F
:100E4000010DB3FBF4F000EB8004A3EB440330335B
:100E500001F8013D521EEAD101F10804083E012EBD
:100E6000DCDBDDE9020100F0A3FC00F0C1FC02467E
:100E70000B46DDE9020100F0C9FC00223B4600F010
:100E800085FDCDE90201CBE70DF11100201A0DF12E
:100E900011079DF81110302906D1401EA8F1010854
:100EA00017F8011F3029F8D09DF80010662904BFFB
:100EB0000FFA88F808F1010103D065290CBF012160
:100EC00000212A6B8E1836B2B042B8BF064636B241
:100ED000002E1CD43146814204DAC85D352828BF73
:100EE000392000D23020CA19521E00E0761E491E59
:100EF00012F801398342F9D0392802D1C85D401C6B
:100F0000C855002903D57F1E761C08F101080FFA89
:100F100088F0009033B23A469DF83810284600F029
:100F20000BF80FB0BDE8F08FA08601000000244050
:100F30000000F03F84D797412DE9F04786B0064680
:100F40008A4690461C46BDF9385000F032FF406A90
:100F500090F80090376B012C02DA01240FF2782808
:100F60004AF02000662807D067287AD16FF0030185
:100F70008D427CDBBD427ADA6D1C66280AD096F879
:100F80003800000702D4BC42B8BF27462DB27F1BF1
:100F900048BF0027F068B1692DB2012D21DA4A1C43
:100FA00030230B54012F03DA96F83810090702D5C5
:100FB00002F80090521CB261EF42B8BF7D422DB2E0
:100FC00069427162EF19A742B8BF3C4624B2F4618E
:100FD00022464146B369181800F0FCF9381BB0628C
:100FE000BFE00818AC4216DA2246414600F0F2F99A
:100FF000B1696118B161281B7062012F03DA96F89C
:101000003800000705D5F06801F80090F069401C31
:10101000F061B762A5E02A46414600F0DBF9B0690D
:101020002818B061641B012F03DA96F838100907FD
:1010300004D5411CB161F16800F8019024B2A742C7
:10104000B8BF3C4624B2224605EB0801B069F368FC
:10105000C01800F0BFF9B0692018B061381B706289
:101060007FE0BAF1610F14D14FF0700A16E0BC4274
:1010700004DA96F83810090758BF27467F1E48BF84
:101080000027BAF1670F14BF4FF0450A4FF0650A09
:1010900004E0BAF1410F08BF4FF0500AB1694A1C91
:1010A000F06818F8013B0B54012F03DA96F838105A
:1010B000090702D502F80090521CB261012F10DB23
:1010C000641E24B2A742B8BF3C4624B22246414621
:1010D000B369181800F07EF9B0692018B061381BA8
:1010E0007062B069F16800EB010808F801AB002DEF
:1010F0005CBF2B2008F8010B03D52D2008F8010B4D
:101100006D42002402AF2DB2012D0EDB0A222946CA
:1011100000A800F067FE019807F8010B009D641C11
:101120002DB2012DF2DA022C06DA4AF020006528F1
:1011300004BF302008F8010B1CB9302008F8010B5F
:1011400009E0012C07DB641E02A8205C303008F89F
:10115000010B012CF7DAB069F1684018A8EB000028
:10116000F06196F8380000F0140010280DD1706975
:10117000B1690818716A0818F1690818B16A081885
:10118000716B8842BCBF081A306206B0BDE8F087B8
:10119000F8B504460D4616461F46002077B116F8EE
:1011A000011BA868A047A86030B1E86A401CE8624B
:1011B00000207F1EF3D1F2BD4FF0FF30F2BD0000E2
:1011C00000000000000000006E616E004E414E0005
:1011D000696E6600494E46003000F8B504460D467B
:1011E00016461F4600F006FE3B463246294620467C
:1011F00001B0BDE8F04000F015BE10B450F8041B7B
:1012000081B102681218001D50F8043BDC0744BF8E
:10121000A9F10104E31852F8044B43F8044B091FE9
:10122000F9D1EBE710BC70470278C9B28A421AB113
:101230001CBF10F8012FF9E718BF0020704750F8C5
:10124000041B61B150F8042BD30744BFA9F101037B
:101250009A18002342F8043B091FFAD1EFE77047C0
:1012600000F10103810704D010F8011B89B1810747
:10127000FAD10268B2F10131914311F0803F04BF0D
:1012800050F8042FF6E710F8011B11B110F8011BFC
:10129000FBE7C01A70470000C9B2830706D0521E90
:1012A00022D310F8013B9942F7D11FE0083A13D33B
:1012B00002F1040241EA012141EA014150F8043BF4
:1012C000121F21BF4B40A3F1013C2CEA030C1CF080
:1012D000803FF3D0C9B2001F083210F8013B521E04
:1012E00028BF91EA030FF8D818BF0120401E7047AD
:1012F00080B500F07FFD012002BD000070B50546FD
:1013000005F10F00C408E400012000F0E5FDA5424E
:101310002BD2082C04D2082402E0083000F096F802
:10132000244D286801000CD1291D0868B8B1026855
:10133000A24238BF011DF8D316E01368A34213D2AE
:10134000111D0A68002AF8D10068291D00E0111D4E
:101350000A68824203D01368A342F8D304E000F085
:101360000BFE0028D9D1002121B9012000F0F8FDA1
:10137000002070BD0E683068A0F10802A2423CBF98
:101380007068086007D3A2190A6073685360001B75
:101390000A6810603460086800281DBF4168002991
:1013A000001D00202860012000F0DAFD06F1080091
:1013B00070BD0000001F002070B504460D461646A3
:1013C00000F018FD324629462046BDE8704000F086
:1013D0001BBD000062B38B0708D0521E11F8013B01
:1013E00000F8013B00F024808B07F6D1830740F022
:1013F000208000BF103A07D330B4B1E83810103A5B
:10140000A0E83810F9D230BC530724BFB1E8081067
:10141000A0E8081044BF51F8043B40F8043BD20751
:1014200024BF31F8022B20F8022B44BF0B78037045
:101430007047083A07D3B1E80810083A40F8043B6F
:1014400040F804CBF7D25307E4E7000000B9704737
:1014500010B5A0F108042068082837D310F0070061
:1014600034D1012000F038FD1948416809B18C429F
:1014700003D26160446017E019464B680BB1A34288
:10148000FAD30A6853189C421BD3A34204D12368A1
:101490009A180A600C4607E04A681AB123681B19BB
:1014A0009A420ED362604C60616851B12268131990
:1014B0008B4206D1002303600868801820604868CA
:1014C00060600120BDE8104000F04ABD10BD000082
:1014D000001F00201B4213D1094236D12AB1844695
:1014E000B0FBF2F002FB10C2704700F059BDFCD314
:1014F0000022002370470B000200002100207047EB
:10150000904271EB030CF6D370B5B1FA81F4B3FAE3
:1015100083F52C1BA340C4F1200532FA05F63343B2
:10152000A2405FF00046E64002E05B085FEA32025C
:10153000841A71EB030524BF204629467641F4D373
:1015400002000B003000002170BD012ACFD970B518
:10155000140C20D0B1FA81F4B2FA82F5C4F120045F
:101560006419B4F12006D6D3B2405FF00044F440D1
:10157000002502E052085FEA3303C61A71EB020E3F
:1015800024BF3046714664416D41F3D302000B0025
:101590002000290070BD0C46B1FBF2F102FB1145A1
:1015A0002D0445EA1045B5FBF2F402FB145580B258
:1015B00040EA0545B5FBF2F002FB105240EA044058
:1015C00070BD30B4416801F00042012143681B0343
:1015D0001B0B436004BF0368002B0ED003684468F4
:1015E000DD0F45EA440444605B000360491EE302EA
:1015F000F4D543681B031B0B436043681A434260E6
:10160000084630BC704700004FF4001C1CEB410F33
:1016100094BF1CEB430F09E041EA030C50EA4C0C69
:1016200052EA0C0C03D2994208BF9042704714BF93
:101630008B428242704700004FF4001C1CEB410FAC
:1016400094BF1CEB430F09E041EA030C50EA4C0C39
:1016500052EA0C0C03D28B4208BF8242704714BF7F
:10166000994290427047000070B504460D4660688C
:10167000C0F30A5040F2FF72904207D16068000345
:1016800004BF2068002818D0022070BD010004D1DA
:101690002046FFF796FF012867DA012D0FDB40F2A5
:1016A000FF71091A8D420AD36068002847BF0020E5
:1016B0002F4900202F49C4E90001012070BD41429B
:1016C000A942616806DA2C4A1140401941EA0050EB
:1016D000606053E001F0004162681203120B42F4B3
:1016E00080126260401E451905F13500352803D38C
:1016F00061600020206070BD002215F11F0F05DA27
:10170000203522686068206000206060684213D045
:10171000521E9241D243C0F1200325689D4055EAF4
:10172000D2722568C540666806FA03F32B4323602E
:10173000636823FA00F06060606808436060B2F19B
:10174000004F03D80BD12078C00708D52068401C73
:101750002060206818B96068401C60600EE0606816
:10176000884204BF20680028F8D1002070BD000026
:101770000000F0FF0000F07FFFFF0F804FF0FF3010
:1017800070BD0000F446400D40EAC120490006D279
:1017900000F014F8004248BF6FF00040604700F0CE
:1017A0000DF84FF0004188428CBF08464042604728
:1017B000400D40EAC120490080F00D8040F000401B
:1017C000490DA1F58061491C05D4D1F11F0154BF19
:1017D000C840C01770474FF000007047010040F14B
:1017E0000980F446404200F005F851F0004160479E
:1017F000010000BF09D0B0FA80F18840C91CC1F5D2
:101800008461090501EBD0214005704770B44FF0A9
:10181000004591EA030F44BF6B4000F0C3BB00BF1B
:10182000841A71EB030604D26E40001BB1411219F9
:1018300073414FF4001C1CEB410F34BF7CEB43069B
:1018400084E00C0DA4EB1356362E7DDC012E43DC18
:1018500045EAC32343EA525312BFD20292025B0805
:10186000240545EAC12141EA5051D2EBC0209941FB
:1018700025D407D1B0FA80F610FA06F164D0002022
:10188000203608E0B1FA81F6B140C6F1200220FA14
:1018900002F21143B0404FEAF474B4EB465434F012
:1018A00001064FEA74040AD8D6F50016760D04F046
:1018B0000044F04061FA06F25040F1404840C00A4E
:1018C00040EA415021F0004128BF5FEA500550F145
:1018D000000044EBD12137E045EAC323DB0A45EAA7
:1018E000C121C90AB6F120050EDD42EA0242120CFE
:1018F000C5F1200603FA06F6EB4042EA06056D4202
:10190000984161F100010DE062FA06F5F2405540A0
:1019100063FA06FC82EA0C02F3405A406D429041A1
:1019200061EB030111F4801F05D1641E620502D032
:101930006D004041494121F48011430875F1004395
:1019400050F1000041EB045170BC70471CEB410F9B
:1019500015D223F0004352EA43060BD04FEA4C0C59
:10196000BCEB410F04D80C0D661E342EB7DDEBE73F
:10197000801A994150EA410608BF0021E4E708BFF8
:101980001CEB430F28BF6FF00001DDE7B0B581EA23
:10199000030C0CF0004C40F2FF7515EA11541DBF0A
:1019A00015EA1357AC42AF4239E0E41923EA455334
:1019B00043F48013C90241F0004141EA505EC7027E
:1019C0001100A7FB020200284FF00000EEFB0120EF
:1019D0004FF00001E3FB072118BF42F0010240185D
:1019E00000214941E3FB0E01A4F580640F0302D2FC
:1019F00052004041494154F101046CDD470872F145
:101A0000004250F1000051EB0451A1F580115CBF80
:101A100041EA0C01B0BD4CEA05510020B0BD05EA19
:101A20001357AC4214BFAF4241E050EA410E1CBF15
:101A300052EA430E02E061460020B0BD24423C441D
:101A40001BD15FEA070EF6D0090302BF0146002052
:101A5000AEF1140EB1FA81F7AEEB070401FA07FEFE
:101A60000C37C7F1200100FA07F7C8404EEA000E14
:101A700023EA455343F48013A2E733F00043B3FA5B
:101A800083F704BFB2FA82FE77440B3FE41BB7F141
:101A9000200E2FBF02FA0EF3BB40C7F1200E22FA30
:101AA0000EFE38BF43EA0E03BA40641C82E750EAD8
:101AB000410E14BF52EA430E6FF000014FF40017BD
:101AC00017EB430F8ABF194617EB410FB5E74CEAF6
:101AD00005510020B0BDD4F10104B4F120070FDAA4
:101AE000C4F12007520828BF42F0010210FA07F59E
:101AF00001FA07F7E1BF2A43E0403843E1400FE035
:101B0000352C98DCC7F1200452EA400220FA07F293
:101B100018BF42F0010231FA07F0A1400A43002148
:101B200072F1004250F1000051EB0C01B0BD000019
:101B3000F0B540F2FF7581EA030C0CF0004C15EA99
:101B400011541DBF15EA1357AC42AF42E5E0BC414A
:101B5000C1F31301C3F31303801A994143F48013B3
:101B600004D2641E4000494180185941C90241EA2B
:101B70005051B1FBF3F603FB1611A2FB0675D7EB30
:101B8000C020A94102D2761E80185941C90241EAFB
:101B90005051B1FBF3FE03FB1E11A2FB0E75D7EBF8
:101BA000C020A94103D2AEF1010E8018594189022B
:101BB00041EA9051760546EA8E2EB1FBF3F603FB1F
:101BC0001611A2FB0675D7EB8020A94102D2761E22
:101BD00080185941C90241EA50514EEA060EB1FB44
:101BE000F3F603FB1611A2FB0675D7EBC020A94143
:101BF00002D2761E80185941C90241EA5051B1FB08
:101C0000F3F703FB1711A2FB0735D3EBC020A94163
:101C100067F100070CBF004247F0010766F3D527C4
:101C20004FEA1E31B80814F5806412DDBD0775F166
:101C3000004250EB0E5051EB045111F5801F5CBF78
:101C400041EA0C01F0BD4CF07F6141F0E041002021
:101C5000F0BDBD076D0840EA0E5041F48011D4F18B
:101C60000104B4F120060ADAC4F120060200E040C3
:101C700001FA06F3E1401843B24015430EE0342C5C
:101C800013DCC6F1200445EA40056D0820FA06F28F
:101C9000154321FA06F0A1400D43002175F10042E1
:101CA00050F1000051EB0C01F0BD00205FEA0C0187
:101CB000F0BDCFB992185B41B3FA83F704BFB2FA13
:101CC00082F6BF190B3FB7F120062FBF02FA06F3C9
:101CD000BB40C7F1200622FA06F638BF3343BA40AC
:101CE0001CB1E419641E33E77F4231F00041B1FAC0
:101CF00081F404BFB0FA80F6A4190B3CB4F12006BD
:101D00002FBF00FA06F1A140C4F1200620FA06F622
:101D100038BF3143A0403C1B1AE7AC421ABF05EA6A
:101D20001357AF4212E050EA41061CBF52EA430685
:101D3000BFE750EA4107304661461CBF41EA055102
:101D4000F0BD52EA430C08BFC143F0BD00204FF480
:101D5000001616EB410F98BF16EB430F08BF16EBAA
:101D6000410F24BFC14305E016EB430F0CBF614692
:101D70004CEA0551F0BD000080B5134800F07CF935
:101D80000FF24801016041608160C1600161416101
:101D900081610FF23C0242628162C1620163416370
:101DA0000FF2300282630FF23402C26301644164B5
:101DB00001BD10B5044800F05FF90446206808B979
:101DC000FFF7DAFF204610BD0000002000000000F1
:101DD0002E00000066616C7365000000747275650A
:101DE0000000000091FBF2F303FB1211C0E9003187
:101DF0007047000080B5DFF80C0000F03DF9806905
:101E000002BD0000541D002030B438B90FF2440068
:101E1000D0E90045C2E90045002001E00170012041
:101E200030BC704730B439B90FF23000D0E900450A
:101E3000C3E9004500200BE012B96FF0010007E094
:101E400008B10A7802800978481E8041C043C00F5B
:101E500030BC7047000000000000000000000000DF
:101E60000000000010B5434C2068A0B3201D00F016
:101E700005F904F1080000F001F904F10C0000F08C
:101E8000FDF804F1100000F0F9F804F1140000F07E
:101E9000F5F804F1180000F0F1F804F11C0000F06E
:101EA000EDF804F1200000F0E9F804F1240000F05E
:101EB000E7F804F1280000F0E3F804F12C0000F04A
:101EC000DFF804F1300000F0DBF804F13400BDE885
:101ED000104000F0D5B810BD38B50446254D28682F
:101EE00090BB281D00F0C9F805F1080000F0C5F806
:101EF00005F10C0000F0C1F805F1100000F0BDF88C
:101F000005F1140000F0B9F805F1180000F0B5F87B
:101F100005F11C0000F0B1F805F1200000F0ADF86B
:101F200005F1240000F0ABF805F1280000F0A7F857
:101F300005F12C0000F0A3F805F1300000F09FF847
:101F400005F1340000F09BF801202860052C06D232
:101F500005EB84002430BDE8324000F092B831BD7A
:101F6000052805D2034901EB8000243000F08AB82F
:101F700070470000101E00200649086808B10020C4
:101F80007047054808600549C908C900091A016079
:101F9000704700BF201F0020289F002028A300209A
:101FA00070470000841A71EB030603D2001BB14195
:101FB000121973414FF4001C1CEB410F34BF7CEB32
:101FC000430443E00C0DA4EB1356352E50DC45EAD8
:101FD000C323DB0A45EAC121C912B6F120050DDD94
:101FE00063FA05F6EB4086EA0305124218BF45F096
:101FF0000105C01851F100010CD213E062FA06F598
:10200000F2405540F3415A40B340F3405A408018E3
:10201000594107D349085FEA30005FEA350528BF18
:1020200045F0010501F58011420875F1004250F1BB
:10203000000041EB045170BC4FF4001C1CEB410F3D
:1020400038BF70470020090D090570471CEB410F90
:1020500010D252EA43060BD0BCEB410F05D80C0D51
:10206000AB43661E342EB5DD02E0AB438018594108
:1020700070BC704770BC70477047704770477047BE
:10208000704770477047000000000000000000002B
:10209000000000000000000000007E81A58181BDDD
:1020A0009981817E0000000000007EFFDBFFFFC3FE
:1020B000E7FFFF7E00000000000000006CFEFEFE57
:1020C000FE7C3810000000000000000010387CFE8C
:1020D0007C38100000000000000000183C3CE7E7DE
:1020E000E718183C00000000000000183C7EFFFFCD
:1020F0007E18183C00000000000000000000183CA2
:102100003C18000000000000FFFFFFFFFFFFE7C3D7
:10211000C3E7FFFFFFFFFFFF00000000003C664237
:1021200042663C0000000000FFFFFFFFFFC399BDB7
:10213000BD99C3FFFFFFFFFF00001E0E1A3278CCCF
:10214000CCCCCC780000000000003C666666663CA3
:10215000187E18180000000000003F333F30303078
:102160003070F0E00000000000007F637F63636375
:102170006367E7E6C00000000000001818DB3CE7DA
:102180003CDB1818000000000080C0E0F0F8FEF80A
:10219000F0E0C080000000000002060E1E3EFE3E81
:1021A0001E0E0602000000000000183C7E181818E1
:1021B0007E3C1800000000000000666666666666E9
:1021C000660066660000000000007FDBDBDB7B1B37
:1021D0001B1B1B1B00000000007CC660386CC6C6C1
:1021E0006C380CC67C0000000000000000000000FD
:1021F000FEFEFEFE000000000000183C7E181818CD
:102200007E3C187E000000000000183C7E18181864
:1022100018181818000000000000181818181818CE
:10222000187E3C18000000000000000000180CFEA2
:102230000C1800000000000000000000003060FEEC
:102240006030000000000000000000000000C0C07E
:10225000C0FE0000000000000000000000286CFE2E
:102260006C28000000000000000000001038387CDE
:102270007CFEFE000000000000000000FEFE7C7CF2
:1022800038381000000000000000000000000000CE
:1022900000000000000000000000183C3C3C181842
:1022A0001800181800000000006666662400000090
:1022B00000000000000000000000006C6CFE6C6C70
:1022C0006CFE6C6C0000000018187CC6C2C07C0656
:1022D0000686C67C1818000000000000C2C60C1854
:1022E0003060C686000000000000386C6C3876DC78
:1022F000CCCCCC7600000000003030306000000014
:10230000000000000000000000000C1830303030E9
:102310003030180C00000000000030180C0C0C0CC1
:102320000C0C1830000000000000000000663CFFAC
:102330003C66000000000000000000000018187E4D
:10234000181800000000000000000000000000005D
:10235000001818183000000000000000000000FE07
:10236000000000000000000000000000000000006D
:1023700000001818000000000000000002060C1801
:102380003060C080000000000000386CC6C6D6D6A1
:10239000C6C66C38000000000000183878181818FD
:1023A0001818187E0000000000007CC6060C1830CB
:1023B00060C0C6FE0000000000007CC606063C06A9
:1023C0000606C67C0000000000000C1C3C6CCCFE25
:1023D0000C0C0C1E000000000000FEC0C0C0FC067B
:1023E0000606C67C0000000000003860C0C0FCC6C5
:1023F000C6C6C67C000000000000FEC606060C181B
:10240000303030300000000000007CC6C6C67CC6FC
:10241000C6C6C67C0000000000007CC6C6C67E069C
:1024200006060C78000000000000000018180000EC
:10243000001818000000000000000000181800003C
:102440000018183000000000000000060C18306072
:1024500030180C060000000000000000007E0000A4
:102460007E000000000000000000006030180C0634
:102470000C1830600000000000007CC6C60C181864
:1024800018001818000000000000007CC6C6DEDE40
:10249000DEDCC07C00000000000010386CC6C6FE08
:1024A000C6C6C6C6000000000000FC6666667C6604
:1024B000666666FC0000000000003C66C2C0C0C04A
:1024C000C0C2663C000000000000F86C66666666EC
:1024D00066666CF8000000000000FE6662687868BE
:1024E000606266FE000000000000FE6662687868B8
:1024F000606060F00000000000003C66C2C0C0DE0A
:10250000C6C6663A000000000000C6C6C6C6FEC6C3
:10251000C6C6C6C60000000000003C1818181818EF
:102520001818183C0000000000001E0C0C0C0C0CCD
:10253000CCCCCC78000000000000E666666C7878B1
:102540006C6666E6000000000000F060606060609D
:10255000606266FE000000000000C6EEFEFED6C609
:10256000C6C6C6C6000000000000C6E6F6FEDECE07
:10257000C6C6C6C60000000000007CC6C6C6C6C6E9
:10258000C6C6C67C000000000000FC6666667C6073
:10259000606060F00000000000007CC6C6C6C6C6D1
:1025A000C6D6DE7C0C0E00000000FC6666667C6C05
:1025B000666666E60000000000007CC6C660380C57
:1025C00006C6C67C0000000000007E7E5A1818185F
:1025D0001818183C000000000000C6C6C6C6C6C6D3
:1025E000C6C6C67C000000000000C6C6C6C6C6C679
:1025F000C66C3810000000000000C6C6C6C6D6D69D
:10260000D6FEEE6C000000000000C6C66C7C3838B8
:102610007C6CC6C6000000000000666666663C185A
:102620001818183C000000000000FEC6860C183088
:1026300060C2C6FE0000000000003C303030303088
:102640003030303C0000000000000080C0E07038F6
:102650001C0E06020000000000003C0C0C0C0C0CD0
:102660000C0C0C3C0000000010386CC60000000090
:10267000000000000000000000000000000000005A
:102680000000000000FF00003030180000000000D3
:1026900000000000000000000000000000780C7C3A
:1026A000CCCCCC76000000000000E06060786C6666
:1026B0006666667C0000000000000000007CC6C06A
:1026C000C0C0C67C0000000000001C0C0C3C6CCCA0
:1026D000CCCCCC760000000000000000007CC6FEE0
:1026E000C0C0C67C000000000000386C6460F06070
:1026F000606060F000000000000000000076CCCCBC
:10270000CCCCCC7C0CCC78000000E060606C7666B1
:10271000666666E600000000000018180038181809
:102720001818183C0000000000000606000E0606FF
:102730000606060666663C000000E06060666C788F
:10274000786C66E6000000000000381818181818A9
:102750001818183C000000000000000000ECFED635
:10276000D6D6D6C6000000000000000000DC666679
:10277000666666660000000000000000007CC6C6B9
:10278000C6C6C67C000000000000000000DC6666D3
:102790006666667C6060F000000000000076CCCCCD
:1027A000CCCCCC7C0C0C1E000000000000DC76665B
:1027B000606060F00000000000000000007CC66067
:1027C000380CC67C000000000000103030FC3030B7
:1027D0003030361C000000000000000000CCCCCCE3
:1027E000CCCCCC76000000000000000000666666DD
:1027F00066663C18000000000000000000C6C6D657
:10280000D6D6FE6C000000000000000000C66C3848
:1028100038386CC6000000000000000000C6C6C6C4
:10282000C6C6C67E060CF8000000000000FECC18EC
:102830003060C6FE0000000000000E181818701866
:102840001818180E000000000000181818180018BA
:1028500018181818000000000000701818180E183A
:102860001818187000000000000076DC000000005E
:1028700000000000000000000000000010386CC6DE
:10288000C6C6FE000000000000003C66C2C0C0C01A
:10289000C2663C0C067C00000000CC0000CCCCCC16
:1028A000CCCCCC7600000000000C1830007CC6FEBA
:1028B000C0C0C67C000000000010386C00780C7CA2
:1028C000CCCCCC76000000000000CC0000780C7C62
:1028D000CCCCCC76000000000060301800780C7C76
:1028E000CCCCCC760000000000386C3800780C7C32
:1028F000CCCCCC7600000000000000003C6660609C
:10290000663C0C063C0000000010386C007CC6FEE3
:10291000C0C0C67C000000000000C600007CC6FEEF
:10292000C0C0C67C0000000000603018007CC6FEFD
:10293000C0C0C67C00000000000066000038181807
:102940001818183C0000000000183C6600381818E1
:102950001818183C000000000060301800381818E3
:102960001818183C0000000000C60010386CC6C6DD
:10297000FEC6C6C600000000386C3800386CC6C6FB
:10298000FEC6C6C60000000018306000FE66607C0F
:10299000606066FE000000000000000000CC76369B
:1029A0007ED8D86E0000000000003E6CCCCCFECC7F
:1029B000CCCCCCCE000000000010386C007CC6C629
:1029C000C6C6C67C000000000000C600007CC6C66B
:1029D000C6C6C67C0000000000603018007CC6C679
:1029E000C6C6C67C00000000003078CC00CCCCCC41
:1029F000CCCCCC76000000000060301800CCCCCCF1
:102A0000CCCCCC76000000000000C60000C6C6C6D4
:102A1000C6C6C67E060C780000C6007CC6C6C6C602
:102A2000C6C6C67C0000000000C600C6C6C6C6C634
:102A3000C6C6C67C000000000018183C66606060D6
:102A4000663C18180000000000386C6460F060609C
:102A50006060E6FC00000000000066663C187E181E
:102A60007E1818180000000000F8CCCCF8C4CCDEAA
:102A7000CCCCCCC600000000000E1B1818187E1825
:102A800018181818D87000000018306000780C7CF6
:102A9000CCCCCC7600000000000C183000381818A0
:102AA0001818183C0000000000183060007CC6C6F2
:102AB000C6C6C67C000000000018306000CCCCCC3C
:102AC000CCCCCC7600000000000076DC00DC666632
:102AD000666666660000000076DC00C6E6F6FEDE8E
:102AE000CEC6C6C600000000003C6C6C3E007E00F6
:102AF000000000000000000000386C6C38007C0012
:102B000000000000000000000000303000303060A5
:102B1000C0C6C67C00000000000000000000FEC02F
:102B2000C0C0C00000000000000000000000FE0661
:102B3000060606000000000000C0C0C2C6CC183067
:102B400060DC860C183E000000C0C0C2C6CC183045
:102B500066CE9E3E060600000000181800181818E1
:102B60003C3C3C18000000000000000000366CD81F
:102B70006C360000000000000000000000D86C3639
:102B80006CD80000000000001144114411441144AD
:102B9000114411441144114455AA55AA55AA55AAE5
:102BA00055AA55AA55AA55AADD77DD77DD77DD77D9
:102BB000DD77DD77DD77DD77181818181818181805
:102BC000181818181818181818181818181818F8A5
:102BD00018181818181818181818181818F818F8B5
:102BE000181818181818181836363636363636F6B5
:102BF000363636363636363600000000000000FE27
:102C000036363636363636360000000000F818F80C
:102C100018181818181818183636363636F606F6F4
:102C20003636363636363636363636363636363644
:102C300036363636363636360000000000FE06F6EA
:102C400036363636363636363636363636F606FECC
:102C5000000000000000000036363636363636FEFC
:102C600000000000000000001818181818F818F8E4
:102C7000000000000000000000000000000000F85C
:102C80001818181818181818181818181818181FBD
:102C9000000000000000000018181818181818FF8D
:102CA000000000000000000000000000000000FF25
:102CB0001818181818181818181818181818181F8D
:102CC000181818181818181800000000000000FF45
:102CD000000000000000000018181818181818FF4D
:102CE000181818181818181818181818181F181F56
:102CF0001818181818181818363636363636363763
:102D00003636363636363636363636363637303F5F
:102D1000000000000000000000000000003F30370D
:102D200036363636363636363636363636F700FFEF
:102D300000000000000000000000000000FF00F79D
:102D40003636363636363636363636363637303727
:102D500036363636363636360000000000FF00FFC5
:102D600000000000000000003636363636F700F767
:102D700036363636363636361818181818FF00FF2D
:102D8000000000000000000036363636363636FFCA
:102D900000000000000000000000000000FF00FF35
:102DA000181818181818181800000000000000FF64
:102DB0003636363636363636363636363636363FAA
:102DC000000000000000000018181818181F181F35
:102DD000000000000000000000000000001F181F9D
:102DE0001818181818181818000000000000003FE4
:102DF000363636363636363636363636363636FFAA
:102E000036363636363636361818181818FF18FF84
:102E1000181818181818181818181818181818F852
:102E20000000000000000000000000000000001F83
:102E30001818181818181818FFFFFFFFFFFFFFFFDA
:102E4000FFFFFFFFFFFFFFFF00000000000000FF8B
:102E5000FFFFFFFFFFFFFFFFF0F0F0F0F0F0F0F0FA
:102E6000F0F0F0F0F0F0F0F00F0F0F0F0F0F0F0F6A
:102E70000F0F0F0F0F0F0F0FFFFFFFFFFFFFFF00E1
:102E80000000000000000000000000000076DCD818
:102E9000D8D8DC7600000000000078CCCCCCD8CCB0
:102EA000C6C6C6CC000000000000FEC6C6C0C0C03A
:102EB000C0C0C0C00000000000000000FE6C6C6CD0
:102EC0006C6C6C6C00000000000000FEC6603018E6
:102ED0003060C6FE0000000000000000007ED8D870
:102EE000D8D8D87000000000000000006666666652
:102EF000667C6060C00000000000000076DC1818EE
:102F000018181818000000000000007E183C6666C3
:102F1000663C187E00000000000000386CC6C6FE4B
:102F2000C6C66C38000000000000386CC6C6C66C0F
:102F30006C6C6CEE0000000000001E30180C3E6649
:102F40006666663C0000000000000000007EDBDBDF
:102F5000DB7E00000000000000000003067EDBDBDB
:102F6000F37E60C00000000000001C3060607C60E8
:102F70006060301C000000000000007CC6C6C6C6B1
:102F8000C6C6C6C60000000000000000FE0000FE2D
:102F90000000FE00000000000000000018187E186D
:102FA000180000FF0000000000000030180C060CA4
:102FB0001830007E000000000000000C1830603067
:102FC000180C007E0000000000000E1B1B181818D3
:102FD0001818181818181818181818181818181871
:102FE000D8D8D87000000000000000001818007E3B
:102FF0000018180000000000000000000076DC004F
:1030000076DC00000000000000386C6C3800000026
:103010000000000000000000000000000000001898
:103020001800000000000000000000000000000088
:103030001800000000000000000F0C0C0C0C0CEC41
:103040006C6C3C1C0000000000D86C6C6C6C6C005C
:1030500000000000000000000070D83060C8F800D8
:103060000000000000000000000000007C7C7C7C70
:103070007C7C7C00000000000000000000000000DC
:10308000000000000000000080B500F041FB32208D
:1030900000F084FCAE2000F0A2FB002000F09FFBBB
:1030A000102000F09CFB402000F099FB812000F0F4
:1030B00096FBCF2000F093FBA02000F090FBC020F7
:1030C00000F08DFBA62000F08AFBA82000F087FB13
:1030D0003F2000F084FBD32000F081FB002000F0B3
:1030E0007EFBD52000F07BFB802000F078FBD92010
:1030F00000F075FBF12000F072FBDA2000F06FFBAE
:10310000122000F06CFBDB2000F069FB402000F097
:1031100066FB8D2000F063FB142000F060FBAF2005
:1031200000F05DFB01BD10B50400E4B2002C06D137
:10313000A02000F054FBC02000F051FB05E0A120CE
:1031400000F04DFBC82000F04AFB10BD10B5040094
:10315000812000F044FB2000C0B200F040FB10BD15
:1031600070B5040000200600F6B2082E10D2002030
:103170000500EDB2802D09D2EDB2F6B28020DFF865
:10318000741600FB06102C546D1CF2E7761CEBE75E
:10319000DFF85C060078012801D100F001F870BD6D
:1031A00038B500200400E4B2082C1DD2B4F1500060
:1031B000C0B200F014FB002000F011FB102000F062
:1031C0000EFB00200500EDB2802D0BD2EDB2E4B273
:1031D0008020DFF8201600FB0410285C00F003FBC1
:1031E0006D1CF0E7641CDEE731BD2DE9FA4FA5B098
:1031F0000400150000272698007800280FD10C2025
:103200008DF803000C208DF8010018208DF80000C7
:10321000DFF8E4050290DFF8E40501900EE01020ED
:103220008DF8030010208DF8010020208DF800009B
:10323000DFF8CC050290DFF8CC0501902878002853
:1032400000F0AC8028788DF802009DF802008028FC
:1032500018D29DF80000022190FBF1F29DF80200C7
:103260009DF80010022391FBF3F1029B01FB00315A
:1032700004A800F05FFC9DF80100022190FBF1F032
:1032800083463CE06D1C28788DF80C009DF80C00FE
:10329000002800F08380002080465FFA88F89DF8BF
:1032A0000000801C00FB08F0070018F101089DF8E1
:1032B00002000199795C88420FD19DF80C000199B8
:1032C00079184978884208D1BF1C9DF800200198E0
:1032D000391804A800F02EFC0EE00198385CFF2895
:1032E000DBD1019838184078FF28D6D19DF800200E
:1032F000FF2104A800F029FC9DF801008346BDF8D9
:1033000094008246002080469DF803005FFA88F80A
:1033100080453AD2A146002006005FFA8BFB5E454D
:103320002ED25FFA88F85FFA8BFB5FEA4B009DF8BC
:10333000011090FBF1F0F10800FB081004A9405CBB
:1033400080210822B6FBF2F303FB12631941084205
:1033500009D026984288D2B2514689B2484680B2F6
:1033600000F01FF808E026988288D2B2514689B250
:10337000484680B200F015F819F10109761CCCE737
:103380001AF1010A18F10108BEE75FFA8BFB2698D3
:10339000C08810EB0B0004196D1C4FE727B0BDE887
:1033A000F08F2DE9F04385B004000D00160002A84F
:1033B000DFF854140CC90CC00839083800A8DFF82D
:1033C0004C140CC90CC008390838ADB2082095FB64
:1033D000F0F08046200081465FFA89F95FFA88F8AC
:1033E0008020DFF8101400FB081019F80000070017
:1033F000F6B2002E09D1ADB2082095FBF0F101FB29
:10340000105100A8085C074008E0ADB2082095FB09
:10341000F0F101FB105102A8085C07435FFA89F93B
:103420005FFA88F88020DFF8CC1300FB081009F859
:103430000070DFF8BC030078012814D1B8F1500007
:10344000C0B200F0CCF919F00F0000F0C8F95FFA33
:1034500089F95FEA19101030C0B200F0C0F93800E5
:10346000C0B200F0C0F905B0BDE8F0832DE9F04F1F
:1034700087B004000D0016001F009DF840202900B1
:1034800089B2200080B2FFF78CFFA4B2B6B2B4427A
:1034900003D1ADB2BFB2BD4278D000200190B6B228
:1034A000A4B2A64204D3B6B2A4B2301B009003E08B
:1034B000A4B2B6B2A01B0090BFB2ADB2AF4204D36B
:1034C000BFB2ADB2781B804603E0ADB2BFB2E81B1D
:1034D0008046009840450DDA0121019120002C0022
:1034E000050030003E00070000990800CDF800807C
:1034F00080B28046A4B2B6B2B44202D20120049097
:1035000002E05FF0FF300490ADB2BFB2BD4202D224
:103510000120039002E05FF0FF300390A4B2A246C6
:10352000ADB2AB465FEA480002900098B8EB0000ED
:103530004000059002980099401A8146B6B2B24503
:1035400024D0B9F1000F03D5029810EB090905E06A
:10355000039810EB0B0B059810EB09090198002854
:1035600008D09DF84020514689B2584680B2FFF7F6
:1035700018FF07E09DF84020594689B2504680B2B6
:10358000FFF70FFF049810EB0A0AD7E707B0BDE872
:10359000F08F2DE9F04182B005000E00170098462B
:1035A000089CE4B2009433009BB218EB0500421E65
:1035B00092B2310089B2280080B2FFF757FFE4B21F
:1035C0000094FFB2B819431E9BB218EB0500421ECF
:1035D00092B2FFB2B819411E89B2280080B2FFF73B
:1035E00045FFE4B20094FFB2B819431E9BB22A0013
:1035F00092B2310089B2280080B2FFF737FFE4B2FF
:103600000094FFB2BB199BB218EB0500421E92B2A8
:10361000310089B218EB0500401E80B2FFF726FF8B
:10362000BDE8F3812DE9F04704000D0016001F00EE
:10363000B6B27000D0F10300804600208146B6B2D9
:10364000B246CA4562D33A00D2B21AEB050189B23A
:1036500019EB040080B2FFF7A4FE3A00D2B2B5EB3A
:103660000A0189B219EB040080B2FFF79AFE3A0012
:10367000D2B21AEB050189B2B4EB090080B2FFF7B0
:1036800090FE3A00D2B2B5EB0A0189B2B4EB090060
:1036900080B2FFF786FE3A00D2B219EB050189B27B
:1036A0001AEB040080B2FFF77CFE3A00D2B2B5EB11
:1036B000090189B21AEB040080B2FFF772FE3A00EA
:1036C000D2B219EB050189B2B4EB0A0080B2FFF760
:1036D00068FE3A00D2B2B5EB090189B2B4EB0A0038
:1036E00080B2FFF75EFEB8F1000F04D518EB890039
:1036F00010F1060807E0B9EB0A0018EB800010F1A2
:103700000A08BAF1010A19F101099AE7BDE8F08740
:1037100000B597B001214FF4807000F08FFA0121BD
:1037200040F2E11000F099FA4CF23370ADF800006D
:1037300003208DF8020018208DF8030000A93448FA
:1037400000F0BAFA4FF69870ADF8000000A93148C1
:1037500000F0B2FA0120ADF8000000A92E4800F0F8
:10376000ABFA4FF48050ADF8000000A92B4800F0F0
:10377000A3FA012001900020029002200390002073
:10378000049000200590002006900020079006205D
:1037900008900020099000200A9010200B90002033
:1037A0000C9000200D9000200E9000200F90002023
:1037B00010904FF480501190002012900020139030
:1037C0000020149001A8159001A8169008A800F0F8
:1037D0000FFB0121062000F07BFB17B000BD104954
:1037E000C0B2088070470F49C0B20880704700001F
:1037F000A8000020AC000020644D000858530008C9
:1038000088200008BC580008386700084067000896
:103810000014014000180140001C0140002001403C
:103820000000206C0200206C40B2002809D540B294
:1038300010F00F02DFF8BC32D2180B0102F8043C82
:1038400004E040B2DFF8B0220B018354704710B59A
:103850000400B4F1807F01D3012013E02002000AAC
:10386000401EDFF8981208600F215FF0FF30FFF76D
:10387000DBFFDFF88C0200210160DFF888020721FE
:103880000160002010BD10B500200400E4B2042C3B
:1038900021D2E4B20C20DFF8701200FB04100021EA
:1038A0004160E4B20C20DFF8601200FB041000213C
:1038B0008160E4B20C20DFF8501200FB04100021FC
:1038C0004170E4B20C20DFF8401200FB041000212C
:1038D0000170641CDAE7DFF8340200684FF47A7193
:1038E000B0FBF1F0FFF7B3FF00F079F810BD10B5B1
:1038F000DFF81C02006800280CD0DFF81402006812
:10390000401EDFF80C120860002803D1DFF8040223
:103910000121017000200400E4B2042C09D2E4B2B9
:103920000C20DFF8E41100FB041000F027F8641C01
:10393000F2E7DFF8E4010068401CDFF8DC11086002
:10394000DFF8D40100687FF00041884203D1DFF83E
:10395000C8010021016000F0E9FADFF8C001007839
:10396000401CDFF8B8110870C0B20A2805D3DFF890
:10397000AC010021017000F0D5FA10BD41680029AA
:103980000BD04168491E4160002906D101214170D8
:103990000178012901D181684160704710B50400A8
:1039A000002C17D0012C01D102200400012080F34B
:1039B0001088DFF85C010460DFF858010021017015
:1039C000002080F3108800F0B2FADFF84801007898
:1039D0000128F8D110BD80B5FFF789FF01BD7FB583
:1039E0000121012000F048F948480068400806001D
:1039F0004B48B6FBF0F005004FF6FF7004002000C6
:103A0000ADF80800ADF804500020ADF80A00002021
:103A1000ADF8060001A95FF0804000F089FA0121AD
:103A20005FF0804000F0CEFA1C208DF800000420EA
:103A30008DF8010000208DF8020001208DF80300B0
:103A400000A800F00EFB7FBD80B502215FF0804032
:103A500000F0D1FA00280DD002215FF0804000F084
:103A6000E3FA002202215FF0804000F0B9FA2D480D
:103A70000068804704215FF0804000F0BCFA002815
:103A80000DD004215FF0804000F0CEFA0022042126
:103A90005FF0804000F0A4FA2348006880470821C6
:103AA0005FF0804000F0A7FA00280DD008215FF0F9
:103AB000804000F0B9FA002208215FF0804000F059
:103AC0008FFA1A480068804710215FF0804000F0AC
:103AD00092FA00280DD010215FF0804000F0A4FA87
:103AE000002210215FF0804000F07AFA1048006850
:103AF000804701BD18ED00E000E400E014E000E0C4
:103B000018E000E010E000E0481E0020A4000020C3
:103B1000081F0020241F00200C1F0020251F00204C
:103B200040420F00101F0020141F0020181F00200B
:103B30001C1F002070B504000D0016003200290083
:103B40002000FDF747FC200070BD70B504000D009B
:103B500016002A003100200000F0C2FA200070BDDB
:103B600030B400210022002300244B4D2D6815F0B5
:103B70000C0529000D00002D04D0042D05D0082DC2
:103B800006D026E0454D056025E0444D056022E065
:103B9000414D2D6815F470152A003F4D2D6815F420
:103BA00080352B00920C921C002B04D13C4D05FB60
:103BB00002F505600CE0384D2D68AD0304D5384D95
:103BC00005FB02F5056003E0344D05FB02F50560D9
:103BD00001E0324D0560304D2D6815F0F0052900EB
:103BE0000909304D4D5D2C000568E54045602A4DC2
:103BF0002D6815F4E0652900090A2A4D4D5D2C0059
:103C00004568E5408560244D2D6815F46055290010
:103C1000C90A244D4D5D2C004568E540C5601E4D28
:103C20002D6815F440452900890B1F4D4D5D2C0072
:103C3000C568B5FBF4F5056130BC7047C9B2002911
:103C400005D01A4A12680243184B1A6004E0174A5A
:103C500012688243154B1A607047C9B2002905D01B
:103C6000134A12680243124B1A6004E0104A1268A9
:103C700082430F4B1A607047C9B2002905D00D4A24
:103C8000126802430B4B1A6004E00A4A126882432E
:103C9000084B1A60704700000410024000127A00BE
:103CA00000093D0090000020A000002014100240F8
:103CB000181002401C100240F0B50027002200231B
:103CC00000240025002691F803C01CF00F0C674665
:103CD00091F803C05FEACC6C03D591F802C05CEAAE
:103CE000070791F800C05FEA0C6C3AD0D0F800C02A
:103CF00065465FF0000C6346082B31D25FF0010C83
:103D00001CFA03FC6446B1F800C014EA0C0C6246CD
:103D1000A24223D15FEA830C64465FF00F0C1CFAC9
:103D200004FC6646B54317FA04FC5CEA050591F805
:103D300003C0BCF1280F06D15FF0010C1CFA03FC94
:103D4000C0F814C00AE091F803C0BCF1480F05D1D7
:103D50005FF0010C1CFA03FCC0F810C05B1CCBE741
:103D60000560B1F800C04FF4807EF4453FD3D0F831
:103D700004C065465FF0000C6346082B36D25FF046
:103D8000010C13F1080E1CFA0EFC6446B1F800C0D9
:103D900014EA0C0C6246A24226D15FEA830C644608
:103DA0005FF00F0C1CFA04FC6646B54317FA04FCDE
:103DB0005CEA050591F803C0BCF1280F07D15FF05C
:103DC000010C13F1080E1CFA0EFCC0F814C091F897
:103DD00003C0BCF1480F07D15FF0010C13F1080ECE
:103DE0001CFA0EFCC0F810C05B1CC6E74560F0BDB5
:103DF000416882681143C2681143026911434269F4
:103E0000114382691143C2691143026A1143426A34
:103E10001143826A1143C26A1143026B1143026863
:103E20009200B2F1C0421160816808290BD101688B
:103E30008900B1F1C041096851F040010268920067
:103E4000B2F1C0421160416B0968426B526851EA9D
:103E50000211426B926851EA0221426BD26851EA28
:103E60000241426B126951EA0251426B526951EAB6
:103E70000261426B9269114302689200B2F1C04242
:103E80005160C16AB1F5804F1AD1816B0968826BAC
:103E9000526851EA0211826B926851EA0221826BE8
:103EA000126951EA0251826B526951EA0261826BD6
:103EB000926911430268DFF84C3043F8221006E0A3
:103EC0000168DFF840207FF0704342F821307047EE
:103ED000C9B200290AD08200B2F1C042126852F081
:103EE00001028300B3F1C0431A6009E08200B2F11D
:103EF000C0421268044B1A408300B3F1C0431A60F9
:103F000070470000040100A0FEFF0F0080B54FF4D1
:103F1000407000F0A1F800F017F900F0A1FCFFF7E5
:103F2000B2FC01BD80B500F01FFE01BD70477047B7
:103F3000002203881A00DFF8F830984212D0DFF828
:103F4000083198420ED0B0F1804F0BD0DFF8E4304A
:103F5000984207D0DFF8E030984203D0DFF8DC3039
:103F6000984204D14FF68F731A404B881A43DFF8FA
:103F7000D030984208D0DFF8CC30984204D04FF6C9
:103F8000FF431A40CB881A4302808B8883850B88B5
:103F90000385DFF89C3098420FD0DFF8AC309842B0
:103FA0000BD0DFF8A830984207D0DFF8A430984251
:103FB00003D0DFF8A030984201D10B7A03860123A9
:103FC00083827047C9B2002904D0028852F00102EE
:103FD000028004E002884FF6FE731A4002807047A8
:103FE000D2B2002A03D083890B43838102E0838904
:103FF0008B438381704730B40200002000230024EB
:10400000158A0D402B0095890D402C009BB2002B8A
:1040100005D0A4B2002C02D00125280001E0002523
:104020002800C0B230BC704789B2CA4302827047D0
:10403000002C01400004004000080040000C00403B
:1040400000100040001400400034014000400140D6
:1040500000440140004801401C4901431C4A1160D2
:104060007047F0B4002300210F22C478002C20D028
:10407000174C246814F4E064D4F5E064240A2300A7
:10408000D3F104042100DA4044788C402300847882
:10409000144023431B0104780E4D635504786411CA
:1040A0000D4D0126077817F01F07BE4045F8246024
:1040B00009E004786411094D0126077817F01F07FD
:1040C000BE4045F82460F0BC704700000000FA05CF
:1040D0000CED00E000E400E000E100E080E100E041
:1040E00062F30F2262F31F42401810F0030308D05E
:1040F000C91A1FD3DB0748BF00F8012D28BF20F8DD
:10410000022D130030B414461546103928BF20E99B
:104110003C00FAD8490728BF20E90C0048BF40F806
:10412000042D890028BF20F8022D48BF00F8012D7A
:1041300030BC7047C91818BF00F8012DCB0728BF45
:1041400000F8012D7047000080B500F044F800F041
:10415000FAF800F0E8F901BD0100C9B2002902D166
:10416000DFF8980516E0C9B2012902D1DFF8900501
:1041700010E0C9B2022902D1DFF888050AE0C9B20D
:10418000032901D1002005E0C9B2042901D1002092
:1041900000E000207047F8B504000D001600200074
:1041A000C0B2FFF7D9FF0700002F0AD0F869002836
:1041B00001D0F8698047320092B22900380000F03F
:1041C000D8F9F1BD13B50400012201A92000C0B245
:1041D000FFF7E1FF13BDDFF82405DFF82C150160C0
:1041E000DFF81805DFF824154160DFF81005DFF867
:1041F00020158160DFF804054FF480618181DFF8CC
:10420000FC044FF48061C181DFF8F00400210182D9
:10421000DFF8E80400214182DFF8E0040021C182D8
:10422000DFF8D80400210183DFF8D00400214183A6
:10423000DFF8C80400218182DFF8C0040021C161D9
:10424000DFF8B80400210162DFF8B0040021416208
:10425000DFF8AC04DFF8BC140160DFF8A404DFF879
:10426000B8144160DFF89804DFF8B0148160DFF81B
:1042700090044FF480618181DFF884044FF4806101
:10428000C181DFF87C0400210182DFF87404002181
:104290004182DFF86C040021C182DFF86404002150
:1042A0000183DFF85C0400214183DFF8540400211E
:1042B0008182DFF84C040021C161DFF84404002151
:1042C0000162DFF83C0400214162DFF83804DFF8C6
:1042D00050140160DFF82C04DFF848144160DFF867
:1042E0002404DFF844148160DFF818044FF480617F
:1042F0008181DFF810044FF48061C181DFF804048C
:1043000000210182DFF8FC0300214182DFF8F40381
:104310000021C182DFF8EC0300210183DFF8E40310
:1043200000214183DFF8DC0300218182DFF8D40320
:104330000021C161DFF8CC0300210162DFF8C40372
:1043400000214162704700B585B001210520FFF7CB
:1043500084FC01214FF48040FFF77FFC4FF4007094
:10436000ADF8000018208DF8030003208DF802003E
:1043700000A9DFF8B803FFF79FFC4FF48060ADF8A9
:10438000000004208DF8030000A9DFF8A003FFF768
:1043900093FC5FF4E13001900020ADF808000020AC
:1043A000ADF80A000020ADF80C000020ADF81000B8
:1043B0000C20ADF80E0001A9DFF84C0300F0E2FB81
:1043C000012240F22551D04800F05CFC0121CE488A
:1043D00000F04AFC4021CC4800F087FC0121052078
:1043E000FFF73BFC01215FF40030FFF745FC0420A0
:1043F000ADF8000018208DF8030003208DF80200AE
:1044000000A9CA48FFF758FC0820ADF800000420B6
:104410008DF8030000A9C548FFF74EFC00A9C3486A
:10442000FFF74AFC5FF4E13001900020ADF808008E
:104430000020ADF80A000020ADF80C000020ADF817
:1044400010000C20ADF80E0001A9B24800F09AFB54
:10445000012240F22551AF4800F014FC0121AD4883
:1044600000F002FC4021AB4800F03FFC0121082095
:10447000FFF7F3FB10208DF8030003208DF80200F6
:104480000420ADF8000000A9A948FFF715FC0121A0
:104490000920FFF7E2FB01215FF48020FFF7ECFB2E
:1044A0004FF48060ADF8000018208DF80300032061
:1044B0008DF8020000A99E48FFF7FEFB4FF4006054
:1044C000ADF8000004208DF8030000A99848FFF71C
:1044D000F3FB00A99648FFF7EFFB4FF4165001904D
:1044E0000020ADF808000020ADF80A000020ADF86B
:1044F0000C000020ADF810000C20ADF80E0001A952
:10450000874800F03FFB012240F22551844800F02B
:10451000B9FB0121824800F0A7FB4021804800F050
:10452000E4FB05B000BD80B525208DF8000000201B
:104530008DF8020001208DF8030000A8FFF791FD1F
:1045400026208DF8000001208DF8020001208DF852
:10455000030000A8FFF785FD27208DF8000002204A
:104560008DF8020001208DF8030000A8FFF779FD07
:1045700001BDF8B504000D00160000200700BFB211
:10458000B6B2B74226D2012080F31088A08AADF8D7
:104590000000002080F31088BDF80000A189884247
:1045A000F1D2208A6168BFB27A5D4254012080F363
:1045B0001088208A401C2082A18980B2884201D3C1
:1045C00000202082A08A401CA082002080F3108856
:1045D0007F1CD4E7012240F22771206800F052FBD3
:1045E000F1BD38B5040040F22551206800F083FB8E
:1045F00000281DD0206800F074FB0500E08AA16847
:104600004554E08A401CE082E18980B2884201D3AF
:104610000020E082608BE189884202D2608B401CDE
:104620006083606A002803D02800C0B2616A8847AE
:1046300040F22771206800F05EFB002823D0A08A9A
:1046400000280CD1002240F22771206800F01AFBEC
:10465000012240F22661206800F014FB3CE0608AF1
:104660006168415C89B2206800F037FB608A401CB9
:104670006082A18980B2884201D300206082A08A32
:10468000401EA08228E040F22661206800F033FB43
:10469000002821D0A08A00280BD1002240F22661F8
:1046A000206800F0EFFA206A002815D0206A8047C1
:1046B00012E0608A6168415C89B2206800F00DFBFD
:1046C000608A401C6082A18980B2884201D30020A8
:1046D0006082A08A401EA08231BD80B50748FFF7E6
:1046E00080FF01BD80B50648FFF77BFF01BD80B5A7
:1046F0000448FFF776FF01BD00000000781E00208F
:10470000A01E0020C81E002000380140AC0400207C
:10471000AC08002000440040AC0C0020AC1000208D
:1047200000480040AC140020AC18002000080140F4
:10473000000C014038B504000D002100C9B2002072
:10474000FFF740FD200032BDDFF8CC030068800495
:104750000BD4DFF8C8030068C00706D4DFF8C00335
:104760000068C00501D5012000E000207047DFF897
:10477000A803006880040BD5DFF8A0030068C00719
:1047800006D5DFF89C030068C00501D5012000E0D4
:1047900000207047DFF88003006880040BD5DFF845
:1047A0007C030068C00706D4DFF874030068C00506
:1047B00001D4012000E000207047DFF85C030068AE
:1047C00080040BD4DFF854030068C00706D5DFF877
:1047D00050030068C00501D5012000E000207047AB
:1047E000DFF83403006880040BD5DFF8300300687D
:1047F000C00706D5DFF828030068C00501D40120F2
:1048000000E000207047DFF818030068000401D4BE
:10481000012000E000207047DFF80803006800076F
:1048200001D4012000E000207047DFF8F4020068A6
:10483000400401D4012000E000207047DFF8E002CE
:104840000068800401D4012000E000207047DFF8F8
:10485000D0020068000601D4012000E0002070476B
:1048600080B500F07AF800F02EF801BDDFF8B8123C
:10487000C97ADFF8B4228854AB49C97A491CAA4ADC
:10488000D172C9B20A2902D3A7490022CA7270475D
:10489000A548807AA44AD27A904201D1002011E042
:1048A000A148807AA04A805C01009F48807A401C21
:1048B0009D4A9072C0B20A2802D39B48002282729D
:1048C0000800C0B2704780B501214FF49A70FFF71D
:1048D000C4F903208DF8020004208DF803004FF482
:1048E0000050ADF8000000A99148FFF7E5F901205C
:1048F000ADF8000000A98F48FFF7DEF94FF4807093
:10490000ADF8000000A98C48FFF7D6F94FF400403D
:10491000ADF8000000A98848FFF7CEF90820ADF8EF
:10492000000000A98548FFF7C7F94FF48040ADF8B3
:10493000000000A98048FFF7BFF94FF40050ADF820
:10494000000000A97C48FFF7B7F98020ADF800000F
:1049500000A97948FFF7B0F901BD734900228A72B6
:1049600071490022CA72704900220A7300210800AE
:10497000C0B20A281FD2C0B26C4911EB00116422E8
:104980000A81C0B2694911EB001102220A71C0B25A
:10499000664911EB001100228A72C0B2634911EB23
:1049A00000110022CA72C0B2604911EB001100224E
:1049B0000A73401CDCE75D4964220A875B490522D3
:1049C00081F83B2059496422A1F848205749052223
:1049D00081F84B2055496422A1F8582053490522FB
:1049E00081F85B2051496422A1F868204F490522D3
:1049F00081F86B204D49524A0A604C49514A0A617C
:104A00004A49514A0A624949504A0A634749504A49
:104A10000A6446494F4A0A6544494F4A0A6643496F
:104A20004E4A0A6741494E4AC1F880203F494D4AE3
:104A3000C1F89020704738B50400E4B23B4810EB51
:104A40000410050028688047002845D028790528EB
:104A500002D2052028715DE028790A2803D228793E
:104A6000401C287156E0A87A002809D10120A872BC
:104A7000E4B2032000FB04F0401CC0B2FFF7F6FED6
:104A80002889012846D3E888298988420FD2E888F6
:104A9000401CE880298980B288423BD1E4B20320DF
:104AA00000FB04F0C01CC0B2FFF7E0FE32E0E87A81
:104AB00001282FD3287B401C2873E97AC0B2884292
:104AC00028D300202873E4B2032000FB04F0401C2C
:104AD000C0B2FFF7CBFE1DE02879062802D30520DF
:104AE000287113E02879002803D02879401E287106
:104AF0000CE0A87A012809D10020A872E4B20320B2
:104B000000FB04F0801CC0B2FFF7B0FE0020E8807C
:104B10000020287331BD0000081001400808014042
:104B20000820014008140140F01E0020AC1C0020A9
:104B30000010014000080140002001400014014025
:104B4000494700086F4700089547000807480008D4
:104B5000194800082B4800083D4800084F48000845
:104B6000BB470008E147000810B500200400E4B28C
:104B70000A2C05D22000C0B2FFF75DFF641CF6E7E7
:104B800010BD00002DE9F04786B004000D0000269E
:104B900000275FF000085FF000095FF0000AA889B5
:104BA0000028A246208A06004CF6FF700640E888DE
:104BB00006432682A08906004EF6F3100640A88818
:104BC00029890843698908430643A681A08A06000B
:104BD0004FF6FF400640A8890643A68200A8FEF7CC
:104BE000BFFF2048824502D10398070001E00298E8
:104BF0000700A089000408D5192000FB07F02968E8
:104C00004900B0FBF1F0804607E0192000FB07F0F7
:104C100029688900B0FBF1F080466420B8FBF0F011
:104C2000000106003009642101FB10808146A08943
:104C3000000409D55FEAC90032306421B0FBF1F00D
:104C400010F00700064308E05FEA091032306421E3
:104C5000B0FBF1F010F00F000643268106B0BDE86E
:104C6000F087000000380140C9B2002904D08289D1
:104C700052F40052828104E082894DF6FF731A409B
:104C800082817047F0B4002300240025002640F6FE
:104C90006A1789B2B94206000F00FFB27F09FFB25E
:104CA0003B0089B211F01F073C000127A7403D00DF
:104CB000012B01D10C3604E0022B01D1103600E0AB
:104CC0001436D2B2002A03D037682F43376002E08F
:104CD0003768AF433760F0BC7047CA05D20D828099
:104CE00070478088C005C00D704789B28A0589B2B7
:104CF000CA430280704770B40200002300250024DC
:104D0000002040F66A1689B2B1420E00F6B276096A
:104D1000F6B2340089B211F01F063500012616FAEA
:104D200005F5012C02D19689354006E0022C02D10E
:104D3000168A354001E0968A354089B20E0AB6B22D
:104D40003300012616FA03F316883340002D04D0F1
:104D5000002B02D00126300001E000263000C0B256
:104D600070BC704700000000000000000000000060
:104D70000000000000000000000000000000000033
:104D80000000000000000000000000000000000023
:104D90000000000000000000000000000000000013
:104DA0000000000000000000000000000000000003
:104DB00000000000000000000000000000000000F3
:104DC00000000000000000000000000000000000E3
:104DD00000000000000000000000000000000000D3
:104DE00000000000000000000000000000000000C3
:104DF00000000000000000000000000000000000B3
:104E000000000000000000000000000000000000A2
:104E10000000000000000000000000000000000092
:104E20000000000000000000000000000000000082
:104E30000000000000000000000000000000000072
:104E40000000000000000000000000000000000062
:104E50000000000000000000000000000000000052
:104E60000000000000000000000000000000000042
:104E70000000000000000000000000000000000032
:104E80000000000000000000000000000000000022
:104E90000000000000000000000000000000000012
:104EA0000000000000000000000000000000000002
:104EB00000000000000000000000000000000000F2
:104EC00000000000000000000000000000000000E2
:104ED00000000000000000000000000000000000D2
:104EE00000000000000000000000000000000000C2
:104EF000001010101010000010000000006C484856
:104F00000000000000000000001414287C287C2809
:104F10005050000000103840403848701010000019
:104F2000002050200C700814080000000000001839
:104F30002020544834000000001010101000000021
:104F400000000000000808101010101010080800E1
:104F500000202010101010101020200000107C10D5
:104F600028280000000000000000101010FC1010A5
:104F700010000000000000000000001810302000A9
:104F800000000000007C00000000000000000000A5
:104F90000000003030000000000404080810102059
:104FA0002040000000384444444444443800000099
:104FB00000301010101010107C0000000038440465
:104FC000081020447C000000003844041804044405
:104FD00038000000000C141424447C040C00000071
:104FE000003C20203804044438000000001C20400D
:104FF0007844444438000000007C44040808081049
:105000001000000000384444384444443800000094
:1050100000384444443C04087000000000000030A4
:1050200030000030300000000000001818000018A8
:105030003020000000000C10608060100C000000A8
:10504000000000007C007C00000000000000C02088
:1050500018041820C00000000000182404081000E4
:10506000300000003844444C54544C404438000054
:105070000030102828287C44EC00000000F844444C
:1050800078444444F8000000003C44404040404420
:105090003800000000F0484444444448F000000058
:1050A00000FC445070504044FC000000007C20286C
:1050B0003828202070000000003C4440404C44440C
:1050C0003800000000EC44447C444444EC00000000
:1050D000007C1010101010107C000000003C08082C
:1050E000084848483000000000EC444850704844EC
:1050F000E400000000702020202024247C00000018
:1051000000EC6C6C54544444EC00000000EC64640B
:105110005454544CEC00000000384444444444448B
:10512000380000000078242424382020700000007B
:105130000038444444444444381C000000F84444CB
:1051400044784844E000000000344C4038040464D3
:105150005800000000FC90101010101038000000E3
:1051600000EC4444444444443800000000EC44440F
:10517000282828101000000000EC444454545454D3
:105180002800000000C4442810102844C400000077
:1051900000EC44282810101038000000007C44085F
:1051A000101020447C000000003820202020202007
:1051B000202038000040202020101008080800009F
:1051C00000380808080808080808380000101028E7
:1051D000440000000000000000000000000000008B
:1051E000000000FC001008000000000000000000AB
:1051F00000000038443C44443C00000000C04058DB
:1052000064444444F80000000000003C4440404432
:1052100038000000000C04344C4444443C000000BE
:1052200000000038447C40403C000000001C207C12
:10523000202020207C000000000000344C44444426
:105240003C04380000C0405864444444EC00000072
:1052500000100070101010107C000000001000788A
:10526000080808080808700000C0405C48705048F2
:10527000DC00000000301010101010107C00000046
:10528000000000E854545454FC000000000000D812
:1052900064444444EC0000000000003844444444AA
:1052A00038000000000000D8644444447840E00026
:1052B000000000344C4444443C040C000000006CEA
:1052C000302020207C0000000000003C44380444D2
:1052D000780000000000207C202020201C0000001E
:1052E000000000CC4444444C34000000000000ECBA
:1052F0004444282810000000000000EC445454549A
:1053000028000000000000CC48303048CC000000ED
:10531000000000EC44242818101078000000007CE5
:10532000481020447C0000000008101010102010CD
:1053300010100800001010101010101010100000B5
:1053400000201010101008101010200000000000A5
:105350000024580000000000A1A30000000000008D
:10536000000000000000000060009000900060005D
:105370000000A1B600000090009001200120024032
:10538000024001200120009000900000A1B7000021
:105390009000900048004800240024004800480085
:1053A000900090000000A3AC00000000000000008E
:1053B0000000000000001800180018003000000075
:1053C000A3BA000000003000300000000000000020
:1053D00030003000000000000000B0B204007FF098
:1053E000401084200400FFF008801080190007009E
:1053F00018C0E020B0D7040008407FE040404040A3
:1054000040407FC04040404040407FC04040B1CC21
:105410001080FBE02220FBE02220FBE00000FFF0F8
:1054200010003FC050409FC0B2D927C02440F7C0F1
:1054300020003EE06AA0AEE021003FF02540A92018
:105440005110B3A410401080110016001820FFF076
:1054500014001200110010801C701000B3CC1BE06F
:10546000E2202220FBE0200067F07080A880A3E00B
:10547000208020A02FF0B4C7188077F01120FD40C5
:10548000108017F0788048804FF078804880008046
:10549000B7AB204023E0FA40AA40AA40AB40AAC0E4
:1054A000BA40AA50245024502830B8BB02007FF0E4
:1054B0004010BFC000001F8010803FC024403FC08C
:1054C00024403FC0B8CB204023E0F880208060A07B
:1054D00077F0A880A0802080208020802080B9C222
:1054E0000060F7801540254025403540E5402540C7
:1054F00029202960B1D04000B9CA2100210029200B
:10550000FDF0224025407940488048807940422083
:105510000C10B9E3040002203FF02000200020001E
:10552000200020002000400040008000BAC601009A
:10553000450027E0890049203FF02000CFE04820C7
:1055400048204FE04820BAD7208021E0FD20A5A0C8
:105550005160FD0051F07C1051D07C1050507C20E7
:10556000BBA8088008A0FFF00880110011603180FE
:10557000530095101110111010F0BBC608807FE089
:105580000880FFF002003FC022403FC022403FC0E1
:1055900008807060BCCA1000FBF09000A020CFF023
:1055A000A08092A0D2A0A490889082808100BCFBB1
:1055B00000803FC020802480248024802480248098
:1055C0000A000A101210E1F0BDAD400020400FF0BB
:1055D00081005100110021002100C10041205FF035
:1055E0004000BEA13FC0204020403FC0220021001B
:1055F0002C8042404030980006000100BFD50400D6
:1056000002007FF0801011802060C0203FC00400A5
:1056100004000420FFF0C0B30880FFF00A807FE0A0
:1056200022401280FFF00B0012802240C2300200A4
:10563000C0EE02207FF00B0012802270DFA001007C
:105640000220FFF002000A000400C0FD10101F90AD
:10565000245027506950A950355022502210241050
:1056600028503020C1EA0100F7E09100AFF0C2807D
:10567000A4409A2097C0EA80910086C09830C1F774
:1056800001004FF0210082404FE0202025402540BE
:10569000C550455049505130C2A521002920254010
:1056A000FFE023407530A200AFE02480230026C035
:1056B0003820C3CF3FC001000200FFF00200060007
:1056C00000003FC029402940FFF00000C7EB012047
:1056D0004FF0210007E0E1002FF0242027E02C20EC
:1056E00037E024200460C8BB210021403D2047F062
:1056F0004900A98012402420D81002404920892066
:10570000C8CB0400040004000400040006000A00E2
:1057100009001080204040308020C8FD00407FE01C
:105720000000000000803FC00000000000000020DA
:10573000FFF00000CBCD0840448021000FE00100C5
:10574000EFE0210022802460282050008FF0CCEC74
:1057500000407FE004000400FFF0040004000600A5
:10576000090010802070C020CEA80280F24097F07F
:1057700094809C8097F09480F7F0848004A007F0D8
:105780000400CEF70020FFF009007FE04920492007
:10579000492051E0602040207FE04020CFC200201F
:1057A000FFF0040004000600050004C004400400EB
:1057B000040004000400D1CC200027F02490A49021
:1057C000B7F0A490249025502630541097F0041080
:1057D000D1EF200027C0F8802100222037F062A0FE
:1057E000A2A024A02920A2A06440D2A120C027000A
:1057F000F12024A0204037E0E5002FF021002920EF
:10580000AFE06820D3B07C2044407C804500FE207F
:1058100000407C8045107C20504094803100D4B6FC
:1058200000404FE020001FF00480E480248024909A
:105830002890207050008FF0D4C21FC0104010403C
:105840001FC0104010401FC0104010402040424078
:105850008180D5DF04203F4004800520FFF0040054
:105860001FC03040DFC010401FC01040D6AE040043
:10587000020002007FC00080010002000400080056
:105880003000580087F0D6DD1020122012201220A0
:105890005B2056A092A0122012202220222040201D
:1058A000D7F71200122027F025006900B1F021007F
:1058B000210021F0210021002100FFFFA1A3000011
:1058C00000000000000000000000000000000000D8
:1058D00000003C006600660066003C000000A3ACCF
:1058E00000000000000000000000000000000000B8
:1058F0000C001E001E000C00040008001000000038
:10590000B0B2020001007FFE4002820402000204E5
:10591000FFFE0420082018200640018002400C30C1
:105920003010B1CC0440FE8811FC7D0811F81F082E
:10593000F1F800087FFC040008101FF82810C810B8
:105940000FF00810B2D9101011F8111011F0FC046A
:1059500017BE14A41FBC3040D0441FFE10E01150ED
:10596000124E54442040B3A40800081008300840E8
:10597000088009000804FFFE0900090008800840AB
:105980000820091C0E080800B3CC08041DFEF10411
:1059900011041104FF0411FC380037FE5420502874
:1059A00091FC1020102417FE1000B4C708401C20E2
:1059B000F02811FC10001488FE50100415FE7E2003
:1059C000442845FC442044207C204420B7AB1008E8
:1059D00010FC14887E88548854C854A854A854884D
:1059E00054885C885488110A110A12061400B8BB46
:1059F000020001007FFE40229FF400001FF0101003
:105A00001FF000083FFC21083FF821083FF820085C
:105A1000B8CB1000100811FC1020FC2010203024FE
:105A20003BFE5420502090201020102010201020E9
:105A30001020B9C200087C3C07C00A1012901290D6
:105A400016901A903290D2901290129014A815EEDF
:105A500058242000B9CA1040104010401444FEFEE3
:105A60001108128810887C884488445044204420BF
:105A70007C50448E0304BAD7082008487FFC528823
:105A800090A828887EA8A8903E8428FE3E0428245A
:105A900029F43E0420142008BBA808200824FFFE97
:105AA0000820082008801088109830A050C09080EE
:105AB000118012821482107E1000BBC60440045074
:105AC0003FF804400444FFFE01101FF811101FF0BE
:105AD00011101FF01000046018186004BCCA000800
