:020000040800F2
:10000000B86100209D01000843080008150400089D
:100010003F08000887020008711200080000000075
:10002000000000000000000000000000450C000877
:100030003B03000800000000D1080008210D000863
:10004000B7010008B7010008B7010008B7010008B0
:10005000B7010008B7010008B7010008B7010008A0
:10006000B7010008B7010008B7010008B701000890
:10007000B7010008B7010008B7010008B701000880
:10008000B7010008B7010008B7010008B701000870
:10009000B7010008B7010008B7010008B701000860
:1000A000B7010008B7010008B7010008B701000850
:1000B000B7010008B7010008B7010008B701000840
:1000C000B7010008B7010008B7010008B701000830
:1000D000B7010008150E0008250E0008350E0008AF
:1000E000B7010008B7010008B7010008B701000810
:1000F000B7010008B7010008B7010008B701000800
:10010000B7010008B7010008B7010008B7010008EF
:10011000B7010008B7010008B7010008B7010008DF
:10012000B7010008B7010008B7010008B7010008CF
:10013000B7010008B7010008B7010008B7010008BF
:10014000B7010008B7010008B7010008B7010008AF
:10015000B7010008B7010008B70100085D0E0008EC
:10016000B7010008B7010008B7010008B70100088F
:10017000B7010008B7010008B7010008B70100087F
:10018000B7010008B7010008DFF80CD000F04AF80A
:1001900000480047551D0008B86100200648804708
:1001A00006480047FEE7FEE7FEE7FEE7FEE7FEE75C
:1001B000FEE7FEE7FEE7FEE7AD0D00088901000857
:1001C0002DE9F05F0546002092469B46884606468C
:1001D000814640241BE0284641464746224600F01F
:1001E00042F852465B46801A994110D31046194690
:1001F000224600F029F82D1A67EB01084F462246E7
:100200000120002100F020F817EB00094E41201ECC
:10021000A4F10104DFDC484631462A464346BDE8E6
:10022000F09F0000064C074D06E0E06840F0010337
:1002300094E8070098471034AC42F6D3FFF7A8FFC4
:10024000E81F000808200008202A04DB203A00FAF2
:1002500002F1002070479140C2F1200320FA03F31D
:10026000194390407047202A04DB203A21FA02F01B
:100270000021704721FA02F3D040C2F120029140E0
:1002800008431946704700BFFEE70000014609B960
:100290000B487047012901D10A48FAE7022901D128
:1002A0000948F6E7032901D10020F2E7042901D12A
:1002B0000020EEE7052901D10448EAE70020E8E73D
:1002C000180100204009002068110020901900202A
:1002D00008B54FF4E06000F0F1FA25208DF8000039
:1002E00000208DF8020001208DF80300684600F020
:1002F000A9FA26208DF8000001208DF802008DF863
:100300000300684600F09EFA27208DF800000220C6
:100310008DF8020001208DF80300684600F092FA83
:1003200047208DF8000005208DF8020001208DF88F
:100330000300684600F086FA08BD704770B50A46AB
:10034000002100238C4600BF3DE0012404FA01F3A4
:10035000146804EA030C9C4534D104684E0003255C
:10036000B540AC43046014794D00AC4005682C43A3
:1003700004601479012C02D01479022C16D18468FF
:100380004E000325B540AC43846054794D00AC4029
:1003900085682C438460446801258D40AC434460EB
:1003A000446895798D40ADB22C434460C4684E00DA
:1003B0000325B540AC43C460D4794D00AC40C5685A
:1003C0002C43C460491C1029BFD370BD70B50023F5
:1003D0009C464C07E40E02FA04F3CD1000F1200411
:1003E00054F825404D07EE0E0F25B540AC43CE1016
:1003F00000F1200545F82640CD1000F1200454F806
:10040000254044EA030CCD1000F1200444F825C037
:1004100070BD000008A100200AE00A5C114B9A8020
:1004200000BF104A128812F0400FFAD0421CD0B21E
:100430002A28F2D300BFFEE70D0A456E74657220CC
:10044000486172644661756C745F48616E646C6586
:10045000722C2053797374656D2048616C742E0D75
:100460000A0000000010014000B587B001210846D5
:1004700000F048FB0121102000F064FB0722092155
:10048000AB48FFF7A3FF07220A21A948FFF79EFF09
:1004900000208DF81A0001208DF81B0002208DF835
:1004A00018000002059002208DF8190005A9A04847
:1004B000FFF744FF02208DF818004002059005A9BF
:1004C0009B48FFF73BFF4FF4E13001900020ADF86F
:1004D0000800ADF80A00ADF80C00ADF810000C20D3
:1004E000ADF80E0001A9934800F026FD012240F26C
:1004F0002551904800F0FBFC01218E4800F0BFFC24
:1005000040218C4800F0B2FC0121084600F0FAFAC4
:100510000121480400F006FB072203218448FFF76D
:1005200055FF00208DF81A0001208DF81B000220D5
:100530008DF818008DF818000820059002208DF81D
:10054000190005A97A48FFF7F9FE4FF416500190FB
:100550000020ADF80800ADF80A00ADF80C00ADF8C9
:1005600010000420ADF80E0001A9734800F0E4FC6F
:10057000012240F22551704800F0B9FC01216E487B
:1005800000F07DFC40216C4800F070FC012102204D
:1005900000F0B8FA01208DF8180000208DF81A003C
:1005A0008DF81B0003208DF819000420059005A983
:1005B0006248FFF7C3FE0121022000F0A3FA0121E7
:1005C000880400F0AFFA07220A215C48FFF7FEFE1C
:1005D00007220B215948FFF7F9FE00208DF81A0079
:1005E00001208DF81B0002208DF8180040020590B4
:1005F00002208DF8190005A95048FFF79FFE022040
:100600008DF818008002059005A94C48FFF796FE6A
:100610004FF4165001900020ADF80800ADF80A0024
:10062000ADF80C00ADF810000C20ADF80E0001A9DB
:10063000434800F081FC012240F22551404800F07F
:1006400056FC01213E4800F01AFC40213C4800F0D5
:100650000DFC0121442000F055FA0121202000F07A
:1006600071FA08220E213748FFF7B0FE0822072151
:100670003548FFF7ABFE082211463248FFF7A6FEC9
:1006800008220F212F48FFF7A1FE00208DF81A0045
:1006900001208DF81B0002208DF818004003059002
:1006A00002208DF8190005A92648FFF747FE022011
:1006B0008DF818008020059005A92348FFF73EFE1D
:1006C00002208DF81800C001059005A91D48FFF70C
:1006D00035FE02208DF818008003059005A9194801
:1006E000FFF72CFE4FF4E13001900020ADF8080038
:1006F000ADF80A00ADF80C004FF44070ADF81000F2
:100700000C20ADF80E0001A9104800F015FC0122E4
:1007100040F225510D4800F0EAFB01210B4800F0A2
:10072000AEFB4021094800F0A1FB07B000BD00006E
:10073000000002400010014000440040000402405C
:100740000048004000180240000802400014014028
:100750000448006910F4807F01D101207047002017
:10076000FCE700000020024010B5FFF7F1FF20B1C8
:1007700000F006F808B1012010BD0020FCE70000E1
:100780000448006810F4005F01D101207047002088
:10079000FCE70000100802400448006910F4006FF4
:1007A00001D1012070470020FCE70000002002403A
:1007B0000448006810F0040F01D1012070470020A8
:1007C000FCE70000101C02400448006810F0080F0D
:1007D00001D1012070470020FCE70000101C0240FE
:1007E0000448006810F4006F01D101207047002018
:1007F000FCE70000101402400448006810F0800F6D
:1008000001D1012070470020FCE7000010180240D1
:100810000448006810F4004F01D101207047002007
:10082000FCE70000101C024010B5FFF791FF20B15B
:10083000FFF7A6FF08B1012010BD0020FCE700BFB4
:10084000FEE7704770B5002100230F22C47824B35F
:10085000174C246804F4E064C4F5E064C4F3072191
:10086000C1F10404E3B20A4144789C40E1B28478C7
:10087000144021430C07210E0E4C05786155047875
:1008800004F01F050124AC4005786D114FF0E026FF
:1008900006EB8505C5F8004109E0047804F01F0562
:1008A0000124AC40044D0678761145F8264070BD11
:1008B0000CED00E000E400E080E100E002490143CB
:1008C000024A1160704700000000FA050CED00E0DC
:1008D0007047000070B51D480468001D0568001DC4
:1008E000066823462A46314619A000F0C3FC25A01D
:1008F00000F0C0FC24A000F0BDFC33A13AA000F041
:10090000B9FC3EA13EA000F0B5FC42A144A000F01D
:10091000B1FC00230322012146A000F0ABFC53A050
:1009200000F0A8FC53A000F0A5FC58A000F0A2FC29
:100930005BA000F09FFC61A000F09CFC67A000F0B1
:1009400099FC11A000F096FC70BD0000107AFF1F0A
:100950000D0A435055203A2053544D33324634301B
:1009600037494754362C204C5146503137362C20CD
:10097000554944203D20253038582025303858200E
:10098000253038580A0D00002A2A2A2A2A2A2A2A1B
:100990002A2A2A2A2A2A2A2A2A2A2A2A2A2A2A2AB7
:1009A0002A2A2A2A2A2A2A2A2A2A2A2A2A2A2A2AA7
:1009B0002A2A2A2A2A2A2A2A2A2A2A2A2A2A2A2A97
:1009C0002A2A2A2A2A0A0D0056352D3130315FB0E5
:1009D000B4BCFCBCECB2E2BACD4C4544BFD8D6C6E0
:1009E000C0FDB3CC000000002A20C0FDB3CCC3FB87
:1009F000B3C62020203A2025730D0A00312E320084
:100A00002A20C0FDB3CCB0E6B1BE2020203A20257C
:100A1000730D0A00323031342D30322D323800005F
:100A20002A20B7A2B2BCC8D5C6DA2020203A202599
:100A3000730D0A002A20B9CCBCFEBFE2B0E6B1BEFD
:100A4000203A205625642E25642E256420285354F0
:100A50004D3332463478785F5374645065726970F0
:100A6000685F447269766572290D0A002A200D0AB2
:100A7000000000002A205151202020203A2031324D
:100A80003935373434363330200D0A002A20CDFA78
:100A9000CDFA20203A2061726D666C790D0A000053
:100AA0002A20456D61696C203A2061726D666C790F
:100AB0004071712E636F6D200D0A00002A20CCD486
:100AC000B1A6B5EA3A2061726D666C792E74616FD9
:100AD00062616F2E636F6D0D0A0000002A20436F64
:100AE00070797269676874207777772E61726D66A6
:100AF0006C792E636F6D20B0B2B8BBC0B3B5E7D7C9
:100B0000D30D0A0029B1064A12680243044B1A6049
:100B100004E0034A12688243014B1A6070470000E8
:100B20003038024029B1064A12680243044B1A6069
:100B300004E0034A12688243014B1A6070470000C8
:100B40004038024029B1064A12680243044B1A6039
:100B500004E0034A12688243014B1A6070470000A8
:100B600044380240F0B500210022002402258C46C2
:100B70000223304E366806F00C0121B1042905D05D
:100B8000082933D105E02C4E066032E02B4E06607A
:100B90002FE0284E361F3668C6F3805C254E361F80
:100BA000366806F03F03BCF1000F0AD0234EB6FBB7
:100BB000F3F6204F3F1F3F68C7F3881706FB07F483
:100BC00009E01D4EB6FBF3F61A4F3F1F3F68C7F30F
:100BD000881706FB07F4174E361F3668C6F3014622
:100BE000761C7500B4FBF5F6066002E0124E066056
:100BF00000BF00BF0F4E366806F0F0010909104E25
:100C0000725C0668D64046600A4E366806F4E051CB
:100C1000890A0B4E725C4668D6408660054E36687F
:100C200006F46041490B064E725C4668D640C660C9
:100C3000F0BD0000083802400024F40040787D0137
:100C40000E0000207047000000210020304A12688A
:100C500042F480322E4B1A6000BF2D4A126802F413
:100C60000030491C10B9B1F5A04FF6D1284A1268DE
:100C700012F4003F01D0012000E00020012845D1FE
:100C8000234A4032126842F08052214B40331A60AE
:100C9000204A126842F440421E4B1A601C4A083235
:100CA00012681B4B08331A601A46126842F400425D
:100CB0001A601A46126842F4A0521A60164A1B1FA4
:100CC0001A601A1F126842F080721B1F1A6000BF60
:100CD0000F4A126812F0007FFAD040F205720F4BF3
:100CE0001A600B4A0832126822F00302084B0833DC
:100CF0001A601A46126842F002021A6000BF044AE3
:100D00000832126802F00C02082AF8D1704700007D
:100D1000003802400070004019544007003C024077
:100D200010B500F001F810BD10B51B48006840B1C7
:100D300019480068401E1849086002D1012017496F
:100D40000870002408E004EB4401154A02EB81001E
:100D500000F075FF601CC4B2042CF4DB114800687D
:100D6000401C10490860084600686FF00041884246
:100D700002D100200B49086000F060FF0A480078AB
:100D8000401CC0B2084908700A2803DB0020087024
:100D900000F050FF10BD0000000000200400002003
:100DA000E8000020080000200C00002010B51548C5
:100DB000006840F47000134908601348006840F070
:100DC00001001149086000200F49083108600E48F1
:100DD00000680E4908400C4908600D48091D08606C
:100DE000081F006820F48020091F086000200649C1
:100DF0000C310860FFF728FF4FF00060014980398F
:100E0000086010BD88ED00E000380240FFFFF6FEEC
:100E10001030002410B5024800F001F910BD0000A8
:100E20001801002010B5024800F0F9F810BD0000CC
:100E30004009002010B5024800F0F1F810BD000094
:100E400068110020042001490880704718040240FE
:100E500004200149088070471A04024010B5024876
:100E600000F0DDF810BD00009019002001F40072C0
:100E7000B2F5007F00D100BFCA430280704721B1A4
:100E8000828942F40052828104E082894DF6FF7328
:100E90001A408281704730B50246002400239C46E8
:100EA0000020A1F510656A3D00D100BFC1F3421CCE
:100EB00001F01F03012505FA03F3BCF1010F02D174
:100EC00095892B4007E0BCF1020F02D1158A2B4017
:100ED00001E0958A2B400C12012505FA04F41588CF
:100EE0002C4013B10CB1012000E0002030BD70B5E2
:100EF00003460024A44600250020A1F510666A3EA2
:100F000000D100BF1846C1F3421401F01F0C0126A6
:100F100006FA0CF5012C01D10C3004E0022C01D1B1
:100F2000103000E014301AB106682E43066002E06B
:100F30000668AE43066070BD2DE9FF4705460E46C4
:100F40000024A14600BFA046B08900B100BF2C8A92
:100F500024F44054F08804432C82AC8941F20C60A4
:100F60008443B08831890843718908430443AC81C4
:100F7000AC8A24F44074B0890443AC826846FFF71D
:100F8000F1FD2048854202D01F48854202D1DDF89C
:100F90000C9001E0DDF80890A88910F4004F08D00B
:100FA00009EBC90000EB091031684900B0FBF1F70B
:100FB00007E009EBC90000EB091031688900B0FBBC
:100FC000F1F76420B7FBF0F004012009642101FB74
:100FD0001078A88910F4004F08D0322000EBC80028
:100FE000B0FBF1F000F00700044308E0322000EB12
:100FF00008106421B0FBF1F000F00F0004432C81D5
:10100000BDE8FF87001001400014014001468888B8
:10101000C0F308007047C1F308028280704710B522
:10102000044640F225512068FFF735FFE0B1206803
:10103000FFF7ECFFE28AA1688854E08A401C80B286
:10104000E082E189884201DB0020E082608BE18957
:10105000884202DA608B401C6083608B012803D1D8
:10106000606A08B1606A804740F227712068FFF724
:1010700012FF08B3A08A60B9002240F227712068ED
:10108000FFF735FF012240F226612068FFF72FFFAE
:1010900037E0638A6268D15C2068FFF7BCFF608A32
:1010A000401C80B26082A189884201DB00206082FE
:1010B000A08A401EA08224E040F226612068FFF74B
:1010C000EAFEF0B1A08A50B9002240F22661206801
:1010D000FFF70DFF206AA0B1206A804711E0638A04
:1010E0006268D15C2068FFF796FF608A401C80B27E
:1010F0006082A189884201DB00206082A08A401EB4
:10110000A08210BD2DE9F04104460E461746002589
:1011100027E00CE0012000F0CFF8B4F814800020A4
:1011200000F0CAF8A089404500DD01E000BFF1E70A
:1011300000BF705D228A61688854012000F0BCF80D
:10114000208A401C80B22082A189884201DB0020D5
:101150002082A08A401CA082002000F0ADF8681C0C
:1011600085B2BD42D5DB012240F227712068FFF72E
:10117000BEFEBDE8F08100002B482C4908602C48D9
:1011800048602C4888604FF480608881C8810020C6
:1011900008824882C882088348838882C8610862BE
:1011A00048622548254908602548486025488860E8
:1011B00001208881C002C881002008824882C8823C
:1011C000088348838882C861086248621E481F49B4
:1011D00008601F4848601F4888604FF4806088811D
:1011E000C881002008824882C88208834883888298
:1011F0001948C8611948086200204862184819490E
:10120000086019484860194888604FF480608881F8
:10121000C881002008824882C88208834883888267
:10122000C861086248627047001001401801002040
:1012300040010020400500200044004040090020FB
:101240000D000020680900200048004068110020BF
:101250009011002090150020450E0008510E000846
:101260000014014090190020B8190020B81D00207A
:1012700000BFFEE70FB4054B10B503A9044A02985E
:1012800000F01EF810BC5DF814FB0000431D0008C0
:101290003400002002E008C8121F08C1002AFAD159
:1012A00070477047002001E001C1121F002AFBD1E6
:1012B000704780F31088704780F3108870470000F3
:1012C0002DE9FF4F8DB005460F460026E9E12528A0
:1012D00079D100246D1CF74AA246A14601212B7842
:1012E000203B01FA03F0104202D004436D1CF6E7E4
:1012F00028782A2810D06FF02F022878A0F130012A
:10130000092915D80AEB8A0102EB410144F00204D5
:1013100000EB010A6D1CF0E757F804ABBAF1000FBF
:1013200003DA44F40054CAF1000A44F002046D1CCC
:1013300028782E2817D115F8010F44F004042A2824
:101340000ED06FF02F022878A0F1300109290AD8B9
:1013500009EB890102EB410100EB01096D1CF2E789
:1013600057F8049B6D1C28786C280FD006DC4C289D
:1013700017D068280DD06A2814D104E0742810D042
:101380007A280FD10DE044F400140AE044F48014EC
:1013900001E044F440146978814202D16D1C04F5E7
:1013A00080146D1C95F800C0BCF16E0F2AD012DCC1
:1013B000BCF1630F3CD007DCBCF1000F76D0BCF170
:1013C000580F19D1A7E018E0BCF1640F6FD0BCF141
:1013D000690F11D16BE0BCF1730F32D006DCBCF1A8
:1013E0006F0F71D0BCF1700F06D196E0BCF1750F94
:1013F0006BD0BCF1780F69D06046DDE90F129047E1
:10140000761C4DE1C4F30250022806D003280AD00E
:10141000042801CF0AD0066042E101CF4FEAE6710D
:10142000C0E900613CE101CF068039E1067037E197
:1014300001CF8DF8000000208DF80100EB4601205F
:1014400003E057F804BB4FF0FF3061074FF0000195
:1014500002D40DE008F10101884649450FDA8045C4
:10146000F8DB1BF808100029F4D108E008F10101AD
:1014700088468142FADB1BF808100029F6D1DDE925
:101480000F23AAEB08008146214600F03CF93044C6
:1014900000EB080604E0DDE90F121BF8010B904792
:1014A000B8F10108F7D221464846F4E0FDE00A21F0
:1014B000C4F302524FF0000B0891022A07D001CF6B
:1014C000C117032A09D00AE030E022E023E0FF1D23
:1014D00027F00707F7E8020105E000B2C117042A68
:1014E00001D140B2C117002906DA0023D0EB030076
:1014F00063EB01012D2202E0220504D52B228DF899
:101500002420012203E0E20701D02022F7E79046E1
:101510004EE00A210BE0102109E010214FF0000BF2
:1015200044F004044FF00809089103E008214FF04B
:10153000000B0891C4F30252022A04D001CF00210B
:10154000032A06D007E0FF1D27F00707F7E802018E
:1015500005E080B20021042A01D1C0B200214FF081
:101560000008220724D5BCF1700F29D0089B83F016
:10157000100353EA0B0309D150EA010206D03022CE
:101580008DF824208DF825C002229046089B83F018
:10159000080353EA0B030BD150EA010201D16207A1
:1015A00006D530228DF824204FF00108A9F1010959
:1015B000BCF1580F09D040A20B9208AA0A9211E080
:1015C00040228DF824200122DFE740A2F4E75B46A9
:1015D000089AFEF7F5FD0B9B9B5C0A9AA2F10102AB
:1015E0000A92137050EA0102F1D10A98ADEB0000A3
:1015F00000F1200B600702D524F4803401E04FF0A5
:101600000109D94502DDA9EB0B0000E0002000EB49
:101610000B0141440890AAEB01000B90E00306D4B3
:10162000DDE90F2321460B9800F06DF806444FF0DA
:1016300000090DF1240A07E0DDE90F121AF809008C
:101640009047761C09F10109C145F5DBE0030CD593
:10165000DDE90F2321460B9800F055F8064404E01D
:10166000DDE90F1230209047761C0899481E08903B
:101670000029F5DC08E00A980A990078491C0A91CB
:10168000DDE90F129047761CBBF10001ABF1010BB5
:10169000F1DC0B982146DDE90F2300F021F8064428
:1016A0006D1C287800287FF412AE11B03046BDE8DA
:1016B000F08F0000092801003031323334353637DD
:1016C000383961626364656600000000303132338E
:1016D000343536373839414243444546000000002E
:1016E0002DE9F0410446002517461E46880405D41E
:1016F00006E039462020B04705F10105641EF8D503
:101700002846BDE8F0812DE9F041044600259046C9
:101710001E46C80301D5302700E02027880405D5E0
:1017200006E041463846B04705F10105641EF8D58C
:101730002846BDE8F08100000146042901DB0020B5
:10174000704701EB4100084A02EB80004078012815
:1017500008D1002001EB4102034B03EB82025070E1
:101760000120EDE70020EBE7E800002070B505461A
:10177000304800EB05142068804700283ED02079CF
:10178000052802DA0520207152E020790A2803DAC0
:101790002079401C20714BE0A07A38B90120A0725A
:1017A00005EB4501491CC8B200F034FA2089002835
:1017B0003EDDE088218988420DDAE088401C80B255
:1017C000E0802189884233D105EB4501C91CC8B2AC
:1017D00000F020FA2CE0E07A002829DD207B401C74
:1017E000C0B22073E17A884222DB0020207305EB2F
:1017F0004501491CC8B200F00DFA19E0207905280E
:1018000002DD0520207110E0207918B12079401EFA
:1018100020710AE0A07A012807D10020A07205EB10
:101820004501891CC8B200F0F5F90020E080207362
:1018300070BD0000380000200B48807A0A4AD27A36
:10184000904201D1002070470748807A064A115C17
:101850001046807A401CC0B290720A2801DB00203A
:1018600090720846EFE70000D8000020704710B5DE
:1018700000F052F900F005F800F002F900F0C2F8AB
:1018800010BD10B500F054F800F002F810BD0000D3
:101890001CB501214FF4F270FFF734F900208DF8E8
:1018A00004008DF806008DF8070002208DF8050071
:1018B000C001009069461948FEF740FD4FF4005002
:1018C000009069461648FEF739FD4FF4006000901D
:1018D00069461248FEF732FD04200090694611481F
:1018E000FEF72CFD0820009069460E48FEF726FD05
:1018F0004FF40060009069460B48FEF71FFD802002
:10190000009069460948FEF719FD4FF40040009029
:1019100069460448FEF712FD1CBD0000002002408D
:1019200000080240001C024000140240001802405F
:101930000021284A9172D1721173002018E06421AD
:10194000254A02EB001211810221234A02EB001208
:1019500011710021204A02EB001291721E4A02EB23
:101960000012D1721C4A02EB00121173411CC8B262
:101970000A28E4DB642218490A87052281F83B2003
:101980006422A1F84820052281F84B206422A1F8A6
:101990005820052281F85B206422A1F868200522E6
:1019A00081F86B200D490C4A11600D4911610D49F8
:1019B00011620D4911630D4911640D4911650D49FD
:1019C00011660D4911670D49C2F880100C49C2F823
:1019D00090107047D8000020380000205107000800
:1019E0008107000899070008B1070008C907000827
:1019F000E1070008F9070008110800082908000895
:101A0000690700081CB501214FF49270FFF77AF8BE
:101A1000012000F095F8022000F092F8032000F079
:101A20008FF8042000F08CF801208DF804000020CD
:101A30008DF806008DF8070003208DF805004FF49F
:101A40008060009069460B48FEF778FC802000908B
:101A500069460948FEF772FC4FF4807000906946B1
:101A60000548FEF76BFC0420009069460348FEF72A
:101A700065FC1CBD0020024000140240000802402A
:101A800070B5002016E0002100EB40021E4B03EB76
:101A90008202516000EB400203EB8202916000EB96
:101AA000400203EB8202517000EB400203F8221067
:101AB000411CC8B20428E6DB144909684FF47A7364
:101AC000B1FBF3F2511EB1F1807F00D31BE0511E38
:101AD0004FF0E023596159170F23002907DA1C073B
:101AE000260E0B4C01F00F052D1F665503E01C0759
:101AF000250E084C655400BF00214FF0E02399618A
:101B00000721196100BF70BDE800002020000020FF
:101B100018ED00E000E400E010B5FFF72DFBFEF744
:101B2000A3FCFEF7D5FB10BD10B5002404E0204651
:101B3000FFF71CFE601CC4B20A2CF8DB10BD0000CD
:101B4000411EC8B220B94FF480610A4A118310E0E7
:101B5000012803D18021084A11800AE0022803D11C
:101B6000C101054A118004E0032802D10421034A7F
:101B700011807047002002401814024018080240EB
:101B8000411EC8B220B94FF480610A4A518310E067
:101B9000012803D18021084A11800AE0022803D1DC
:101BA000C101054A118004E0032802D10421034A3F
:101BB00011807047002002401A1402401A080240A7
:101BC000012806D11049496981F480610E4A5161AA
:101BD00019E0022806D10D49096881F080010B4AFD
:101BE000116010E0032806D10849096881F480716A
:101BF000064A116007E0042805D10549096881F00B
:101C00000401034A1160704700200240141402408E
:101C1000140802400649C97A054A50541146C97A47
:101C2000491CC9B2D1720A2901DB0021D172704767
:101C3000D800002010B5FFF777FF10BD704741684E
:101C400051B14168491E416006D1012141700178BE
:101C5000012901D1816841607047000070B50446D8
:101C60000D46042C06DB124A12A11DA0FFF702FB51
:101C700000BFFEE70120FFF71CFB04EB44002049F6
:101C800001EB8000456004EB440001EB80008560BF
:101C9000002004EB44011A4A02EB81014870012044
:101CA00004EB440102F821000020FFF702FB70BDA5
:101CB000C71F00082E2E5C2E2E5C557365725C6269
:101CC00073705F73746D3332663478785C737263EB
:101CD0005C6273705F74696D65722E630000000052
:101CE0004572726F723A2066696C652025732C20EC
:101CF00066756E6374696F6E20257328290D0A005E
:101D0000E80000202DE9F04105460E46174628461A
:101D1000FEF7BCFA04460CB9BDE8F081E06908B1F1
:101D2000E06980473A4631462046FFF7EBF900BFAD
:101D3000F2E713B50446012201A92046FFF7E2FFAE
:101D40001CBD70B504460D46E1B20020FFF7F1FF5F
:101D5000204670BDFFF78BFDFEF7BCFD3BA0FFF7F3
:101D600089FA42A0FFF786FA45A0FFF783FA49A057
:101D7000FFF780FA4CA0FFF77DFA4FF4FA710020CC
:101D8000FFF76CFF61E0FFF771FD0020FFF7D4FC67
:101D900010B10420FFF714FFFFF74EFD0446002C9E
:101DA00053D0182C4FD2DFE804F04E0C134E1A21FA
:101DB0004E282F4E364E4E3A4E4E3E4E4E424E4ED0
:101DC000464A0120FFF7DCFE3FA0FFF753FA3BE055
:101DD0000120FFF7B5FE42A0FFF74CFA34E00220E5
:101DE000FFF7CEFE44A0FFF745FA2DE00220FFF7F3
:101DF000A7FE47A0FFF73EFA26E00320FFF7C0FE4C
:101E000049A0FFF737FA1FE00320FFF799FE4CA027
:101E1000FFF730FA18E050A0FFF72CFA14E052A0B8
:101E2000FFF728FA10E054A0FFF724FA0CE056A0C0
:101E3000FFF720FA08E058A0FFF71CFA04E05AA0C8
:101E4000FFF718FA00E000BF00BF9CE74C454434A0
:101E5000D5FDD4DAC9C1CBB828C9C1CBB8C6B5C283
:101E6000CA203D2031487A290D0A0000B0B4CFC203
:101E70004B31BCFCB5E3C1C14C4544310D0A0000F7
:101E8000B0B4CFC24B32BCFCB5E3C1C14C45443207
:101E90000D0A0000B0B4CFC24B33BCFCB5E3C1C1E6
:101EA0004C4544330D0A0000B2D9D7F7B0B4BCFC9E
:101EB000BACDD2A1B8CBBBE1B4F2D3A1B0B4BCFCD3
:101EC000CAC2BCFE0D0A00004B31BCFCB0B4CFC28C
:101ED0002C204C454431B5E3C1C10D0A000000007F
:101EE0004B31BCFCB5AFC6F02C204C454431CFA8DB
:101EF000C3F00D0A000000004B32BCFCB0B4CFC2EE
:101F00002C204C454432B5E3C1C10D0A000000004D
:101F10004B32BCFCB5AFC6F02C204C454432CFA8A8
:101F2000C3F00D0A000000004B33BCFCB0B4CFC2BC
:101F30002C204C454433B5E3C1C10D0A000000001C
:101F40004B33BCFCB5AFC6F02C204C454433CFA876
:101F5000C3F00D0A00000000D2A1B8CBC9CFBCFC71
:101F6000B0B4CFC20D0A0000D2A1B8CBCFC2BCFC26
:101F7000B0B4CFC20D0A0000D2A1B8CBD7F3BCFCDD
:101F8000B0B4CFC20D0A0000D2A1B8CBD3D2BCFCF2
:101F9000B0B4CFC20D0A0000D2A1B8CB4F4BBCFCED
:101FA000B0B4CFC20D0A0000D2A1B8CB4F4BBCFCDD
:101FB000B5AFC6F00D0A00006273705F53746172B2
:101FC0007454696D6572006273705F5374617274EA
:101FD0004175746F54696D6572006273705F5374FC
:101FE0006F7054696D6572000820000800000020C1
:101FF000380000009412000840200008380000203B
:1020000080610000A4120008000000000000000031
:1020100000000000000000000000010203040102B3
:102020000304060708090000007A030A0000000004
:102030000000000001020304060708090000000078
:040000050800018965
:00000001FF
