:020000040800F2
:10000000389B0020E14100088D3F00088F3F000829
:10001000B53F0008B73F0008B93F000800000000E6
:10002000000000000000000000000000BB3F0008CE
:10003000BD3F000800000000BF3F0008FD38000879
:10004000ED420008F1420008F5420008F9420008BC
:10005000FD42000801430008054300080943000869
:100060000D43000811430008154300081943000818
:100070001D430008214300082543000829430008C8
:100080002D43000831430008354300083943000878
:100090003D43000841430008454300084943000828
:1000A0004D430008514300085543000859430008D8
:1000B0006F3900083D3200086543000869430008B5
:1000C0006D43000871430008754300087943000838
:1000D0007D4300081B260008252600082F2600085F
:1000E0008D43000891430008954300089943000898
:1000F0009D430008A1430008A5430008A943000848
:10010000AD430008B1430008B5430008B9430008F7
:10011000BD430008C1430008C5430008C9430008A7
:10012000CD430008D1430008D5430008D943000857
:100130002DE9F04FA5B0804615461E460FF2D85067
:10014000D0E90023CDE91223049104AF00207862A6
:1001500014AC6FF0004900E055440020ADF80200F7
:1001600012AB4FF0FF3229460DF1020001F035F8D5
:100170008246BAF1010F08DA2878B0F1010A6AEB79
:100180000A0A6FEA0A004FEAD07ABDF80200252871
:100190000CBFAAF101035346012B07DB2A4602A933
:1001A000404600F0F5FF002800F1EB80BDF80200AA
:1001B000252807D10020F86038617861B861F861BE
:1001C000386205E00028C7D1786ADCE040F0010021
:1001D00015F8011F2029F9D023290ED02B2904D08E
:1001E0002D2906D030290CD00FE040F0020080B25B
:1001F000EEE740F0040080B2EAE740F0080080B289
:10020000E6E740F0100080B2E2E72A290DD131681C
:100210000A1D32600968F962002904D54942F96271
:1002200040F0040080B26D1C11E00021F96209E089
:10023000F96A494505D001EB810302EB43013039EE
:10024000F9626D1C2A78A2F130010A29F0D32978CD
:100250002E291CBF4FF0FF31B9621CD115F8011FC8
:100260002A2906D131680A1D32600968B9626D1CFD
:1002700011E00021B96209E0B96A494505D001EBF6
:10028000810302EB43013039B9626D1C2A78A2F177
:1002900030010A29F0D3388629780FF2844000F023
:1002A000C3FF08B115F8010B8DF842009DF842001C
:1002B000682804D1287868280AD1622005E06C28D3
:1002C00004BF28786C2803D171208DF842006D1C82
:1002D00014A8B8602A781046253828D01C3800F0B9
:1002E0008B80001F022840F28780133800F0B08016
:1002F000093800F08180801E00F04A81401E00F025
:10030000F080401E022877D9001F00F0EA80401FCD
:1003100047D0401E00F09C80401E37D0C01E0CD03D
:10032000801E00F09580C01E00F0928051E1F868B8
:10033000411CF9602521015555E19DF842006C28CA
:10034000306814D0011D316000687860BA6A002AF4
:1003500003D500F085FF386145E1002100F09CFFE6
:1003600000281ABF7968401AB86A38613BE1011D5C
:100370003160026802A9404600F0D6F9002840F139
:1003800032814FF0FF3025B0BDE8F08F3068011D9D
:10039000316000680021CDE9020114A8786078215D
:1003A000F2E09DF84200622818D0682806D06A283A
:1003B0000BD06C2819D0712807D016E03068011DC9
:1003C0003160796A006801800DE13268101D30608B
:1003D000786AC1171268C2E9000104E13068011DA2
:1003E0003160796A00680170FDE03068011D31609C
:1003F000796A00680160F6E03068C01D20F00700EF
:100400003060034603F108003060D3E90001CDE914
:100410000201002904D5F868411CF9602D210DE086
:10042000388E810704D5F868411CF9602B2105E05E
:10043000C00704D5F868411CF96020210155F8680F
:1004400014A940187860114602A800F06DFBCAE0BC
:100450009DF842306C2B08BF306811D0712B08BF5B
:10046000306802D06A2B30680AD1C01D20F0070026
:10047000306084460CF108003060DCE9000103E0E4
:10048000011D316000680021CDE90201682B04BF25
:10049000DDE9020180B20BD0622B04BFDDE902016D
:1004A000C0B205D0742B18BF7A2B04D1DDE902014C
:1004B0000021CDE9020197F8300000075FD5DDE9A2
:1004C0000201002908BF002859D042F020007828F6
:1004D00055D1F86830210155401C411CF960025586
:1004E0004DE09DF8420062280CD0682810D06A28A0
:1004F0001AD06C2824D0712816D0742820D07A28DD
:100500000CD01DE03068011D316090F900001BE047
:100510003068011D3160B0F9000015E03068011D40
:1005200031600068002110E03068C01D20F0070035
:100530003060034603F108003060D3E9000104E0B5
:100540003068011D31600068C117CDE90201DDE9A5
:100550000201002904DAF868411CF9602D210DE040
:10056000388E810704D5F868411CF9602B2105E01D
:10057000C00704D5F868411CF96020210155F868CE
:1005800014A940187860114602A800F03AFA2AE04F
:100590009DF842006C2808D0F868411CF960316869
:1005A0000A1D3260096801551DE03068011D316087
:1005B0000068ADF804000020ADF806004FF0FF30F1
:1005C000B86201AA02A9404600F0AEF800280AD598
:1005D000D7E6F868411CF960252101551AB1F86881
:1005E000411CF96002556D1CF86AF968401AB96936
:1005F000401A3969401AF969401A7969401A396A0A
:10060000A0EB010A97F83000400712D420208DF8A3
:100610000000BAF1010F0CDBD346012300AA02A9A6
:10062000404600F0B5FD00287FF4ABAEBBF1010BF6
:10063000F3D1FB6814AA02A9404600F0A9FD0028E6
:100640007FF49FAE30208DF80000D7F818B0BBF1D2
:10065000010F0BDB012300AA02A9404600F098FD20
:1006600000287FF48EAEBBF1010BF3D13B697A68B1
:1006700002A9404600F08CFD00287FF482AE3020B5
:100680008DF80000D7F81CB0BBF1010F0BDB012384
:1006900000AA02A9404600F07BFD00287FF471AE5D
:1006A000BBF1010BF3D17B6938697968421802A963
:1006B000404600F06DFD00287FF463AE30208DF8D9
:1006C0000000D7F820B0BBF1010F0BDB012300AA1B
:1006D00002A9404600F05CFD00287FF452AEBBF159
:1006E000010BF3D197F8300040077FF536AD20209D
:1006F0008DF80000BAF1010FFFF62FAD012300AA1B
:1007000002A9404600F044FD00287FF43AAEBAF159
:10071000010AF3D121E50000000000000000000004
:10072000686A6C747A4C00002DE9F04F95B08346EE
:100730000F461446D7F830A0BAF1000F48BF6FF04B
:10074000004A00F0D5FD796B401801900FF6702239
:10075000D2E90001CDE9020197F83800400702D440
:100760000198412805D20DF1100940200190002583
:100770000AE000F0C3FD8146B9F1000FF7D14FF058
:10078000FF303BE1AAEB080ABAF1010FC0F2A980E1
:1007900002AA21880DF1010000F00EFE5FEA0008B8
:1007A00000F1BF80208818B9B8F1010800F1B980C4
:1007B000C245C0F296807869019908EB0002914227
:1007C00080F080807D634042396A401AB969401ADE
:1007D000796A401AF969401AB96A451A97F83800D7
:1007E000400710D420208DF80000012D0BDB2E4691
:1007F000012300AA3946584600F0CAFC002840F000
:100800009080761EF4D17B694A463946584600F0FE
:10081000BFFC002840F0858030208DF800003E6A43
:10082000012E09DB012300AA3946584600F0B0FC2E
:10083000002876D1761EF5D1BB69FA68394658464C
:1008400000F0A6FC00286CD130208DF800007E6AF4
:10085000012E09DB012300AA3946584600F098FC16
:1008600000285ED1761EF5D1FB69B869F968421897
:100870003946584600F08CFC002852D130208DF8C3
:100880000000BE6A012E09DB012300AA3946584642
:1008900000F07EFC002844D1761EF5D197F8380090
:1008A00040070DD520208DF80000012D08DB012325
:1008B00000AA3946584600F06BFC90BB6D1EF6D17D
:1008C00000257D6142460DF101017869484400F040
:1008D00081FD78694044786134F8020B00287FF488
:1008E00051AF786B7969401A396A401AB969401A70
:1008F000796A401AF969401AB96AA0EB010897F8B9
:100900003800400712D420208DF80000B8F1010F04
:100910000CDB4446012300AA3946584600F038FC57
:1009200010B14FF0FF3562E0641EF3D17B694A4697
:100930003946584600F02CFC0028F2D130208DF8C2
:1009400000003C6A012C09DB012300AA3946584605
:1009500000F01EFC0028E4D1641EF5D1BB69FA68E2
:100960003946584600F014FC0028DAD130208DF8C2
:1009700000007C6A012C09DB012300AA3946584695
:1009800000F006FC0028CCD1641EF5D1FB69B869E3
:10099000F96842183946584600F0FAFB0028C0D1E1
:1009A00030208DF80000BC6A012C09DB012300AA6D
:1009B0003946584600F0ECFB0028B2D1641EF5D150
:1009C00097F83800400710D520208DF80000B8F1C6
:1009D000010F0ADB012300AA3946584600F0D8FB74
:1009E00000289ED1B8F10108F4D17D617D6304A88F
:1009F00081451CBF484600F029FD284615B0BDE8DA
:100A0000F08F2DE9FA4B86B005462F696F2908BF94
:100A1000082605D041F02000782814BF0A261026A9
:100A20003C24D5E9000181468B469DF81820642AB4
:100A300018BF692A05D1002903DAD9F100096BEB47
:100A40004B0BBBF1000F08BFB9F1000F0CD1286BA5
:100A500050B9082E44D195F83800000740D53B2402
:100A6000302087F83B003BE0A4F101084446F01732
:100A7000CDE9046048465946DDE9042300F02AFD2B
:100A8000CDE90201CDE9009BDDE90223DDE90401A6
:100A9000A0FB029BDDE90001A0EB09003030C0B2F1
:100AA0003A2803D39DF818105139081808F80700A0
:100AB000DDE9029BBBF1000F08BFB9F1000F03D0C5
:100AC000E868E1198842CFD3082E09D195F838009B
:100AD000000705D5E05D302802D0641E3020E055C7
:100AE000C4F13C00A861E119E960296B884207DA8A
:100AF000081A2862288F4FF6EF710840288710E007
:100B000000290ED595F8381001F01401102908D1EC
:100B1000696B6A69891A2A6A891A0C1A012CA8BF9A
:100B20002C6208B0BDE8F08B2DE9F24F8EB005467F
:100B300004AFD5E90001CDE902019DF8380040F08D
:100B400020008DF8000061280BD0286B002848BFDA
:100B5000062005D404BF9DF80000672801D10120BC
:100B600028636968C1F30A5040F2FF7398421CD1B0
:100B7000080304BF2868002809D10320A8619DF854
:100B8000380061381A2837D30FF2486108E0032093
:100B9000A8619DF8380061381A282AD30FF22C6119
:100BA0000322E86800F016FCBBE1010017D12846DB
:100BB00000F007FD012812DB002400209DF8001042
:100BC000612920D1E968302201F8012B4A1CEA6032
:100BD0009DF83820612A0CBF782258220FE040F29D
:100BE000FE316A6861F31E526A60441A4FF0FF30AA
:100BF000E4E70FF2D451D3E70FF2D451D0E70A70F3
:100C00006969891C696110B90026B0467FE19DF8C9
:100C10000000612840F09780286B00284CBF2126F7
:100C2000461C36B2771CD5E900ABDDE90201002293
:100C3000002300F0E9FC3ABF8BF00040CDE902A0B0
:100C4000CDE902ABA4F104088DF810200DF11109D3
:100C5000012F33DBDDE902010022002300F0ECFC70
:100C60002CD21C2102A800F0FFFCDDE9020100F0FB
:100C700089FD0446FF1F012F09DB00F0AFFD02468E
:100C80000B46DDE9020100F0C1FDCDE9020109F2E8
:100C90000700072104E004F00F0200F8012D2411E1
:100CA000012C01DB491EF6D5491E5CBF002200F86D
:100CB000012DF9D500F20709012FCBDA0DF1110052
:100CC000A9EB00010DF11107B142B8BF0E4636B2D3
:100CD000002E31D43046884206DA04A941184978FA
:100CE000082928BF0F2100D2002104AA821800E0A1
:100CF000761E401E12F801398B42F9D00F2904D11B
:100D000004A941184A78521C4A70002803D504AF40
:100D1000761C08F1040836B2701E0DD4C1190A7889
:100D20003032D2B23A2A03D39DF838303A3B9A187F
:100D300001F80129401EF2D5286B002840F1E78018
:100D4000701E2863E3E0DDE902010022002300F0C9
:100D50005BFC05D2DDE9020181F00041CDE9020131
:100D600024B247F2975060436F4990FBF1F80FFAB5
:100D700088F8C8F107040027DFF8B091012C19DBCF
:100D8000DDE902ABE00707D5504659463A464B46E7
:100D900000F0FCFD82468B466410384649463A46D0
:100DA0004B4600F0F3FD07468946002CEAD1CDE919
:100DB00002AB21E064429246DFF874B114D0E00740
:100DC00007D5504659463A464B4600F0DFFD82466D
:100DD0008B466410384649463A464B4600F0D6FDED
:100DE00007468946002CEAD1DDE9020152465B46FE
:100DF00000F09EFECDE902019DF8000066280CBFC0
:100E000008F10A000620296B4618142EA8BF1326E5
:100E100030208DF810000DF11104464F012E33DB08
:100E2000DDE9020100F0C4FC04F1080104220A24F7
:100E3000B0FBF4F303EB830EA0EB4E00303001F86F
:100E4000010DB3FBF4F000EB8004A3EB440330335B
:100E500001F8013D521EEAD101F10804083E012EBD
:100E6000DCDBDDE9020100F0A3FC00F0C1FC02467E
:100E70000B46DDE9020100F0C9FC00223B4600F010
:100E800085FDCDE90201CBE70DF11100201A0DF12E
:100E900011079DF81110302906D1401EA8F1010854
:100EA00017F8011F3029F8D09DF80010662904BFFB
:100EB0000FFA88F808F1010103D065290CBF012160
:100EC00000212A6B8E1836B2B042B8BF064636B241
:100ED000002E1CD43146814204DAC85D352828BF73
:100EE000392000D23020CA19521E00E0761E491E59
:100EF00012F801398342F9D0392802D1C85D401C6B
:100F0000C855002903D57F1E761C08F101080FFA89
:100F100088F0009033B23A469DF83810284600F029
:100F20000BF80FB0BDE8F08FA08601000000244050
:100F30000000F03F84D797412DE9F04786B0064680
:100F40008A4690461C46BDF9385000F032FF406A90
:100F500090F80090376B012C02DA01240FF2782808
:100F60004AF02000662807D067287AD16FF0030185
:100F70008D427CDBBD427ADA6D1C66280AD096F879
:100F80003800000702D4BC42B8BF27462DB27F1BF1
:100F900048BF0027F068B1692DB2012D21DA4A1C43
:100FA00030230B54012F03DA96F83810090702D5C5
:100FB00002F80090521CB261EF42B8BF7D422DB2E0
:100FC00069427162EF19A742B8BF3C4624B2F4618E
:100FD00022464146B369181800F0FCF9381BB0628C
:100FE000BFE00818AC4216DA2246414600F0F2F99A
:100FF000B1696118B161281B7062012F03DA96F89C
:101000003800000705D5F06801F80090F069401C31
:10101000F061B762A5E02A46414600F0DBF9B0690D
:101020002818B061641B012F03DA96F838100907FD
:1010300004D5411CB161F16800F8019024B2A742C7
:10104000B8BF3C4624B2224605EB0801B069F368FC
:10105000C01800F0BFF9B0692018B061381B706289
:101060007FE0BAF1610F14D14FF0700A16E0BC4274
:1010700004DA96F83810090758BF27467F1E48BF84
:101080000027BAF1670F14BF4FF0450A4FF0650A09
:1010900004E0BAF1410F08BF4FF0500AB1694A1C91
:1010A000F06818F8013B0B54012F03DA96F838105A
:1010B000090702D502F80090521CB261012F10DB23
:1010C000641E24B2A742B8BF3C4624B22246414621
:1010D000B369181800F07EF9B0692018B061381BA8
:1010E0007062B069F16800EB010808F801AB002DEF
:1010F0005CBF2B2008F8010B03D52D2008F8010B4D
:101100006D42002402AF2DB2012D0EDB0A222946CA
:1011100000A800F067FE019807F8010B009D641C11
:101120002DB2012DF2DA022C06DA4AF020006528F1
:1011300004BF302008F8010B1CB9302008F8010B5F
:1011400009E0012C07DB641E02A8205C303008F89F
:10115000010B012CF7DAB069F1684018A8EB000028
:10116000F06196F8380000F0140010280DD1706975
:10117000B1690818716A0818F1690818B16A081885
:10118000716B8842BCBF081A306206B0BDE8F087B8
:10119000F8B504460D4616461F46002077B116F8EE
:1011A000011BA868A047A86030B1E86A401CE8624B
:1011B00000207F1EF3D1F2BD4FF0FF30F2BD0000E2
:1011C00000000000000000006E616E004E414E0005
:1011D000696E6600494E46003000F8B504460D467B
:1011E00016461F4600F006FE3B463246294620467C
:1011F00001B0BDE8F04000F015BE10B450F8041B7B
:1012000081B102681218001D50F8043BDC0744BF8E
:10121000A9F10104E31852F8044B43F8044B091FE9
:10122000F9D1EBE710BC70470278C9B28A421AB113
:101230001CBF10F8012FF9E718BF0020704750F8C5
:10124000041B61B150F8042BD30744BFA9F101037B
:101250009A18002342F8043B091FFAD1EFE77047C0
:1012600000F10103810704D010F8011B89B1810747
:10127000FAD10268B2F10131914311F0803F04BF0D
:1012800050F8042FF6E710F8011B11B110F8011BFC
:10129000FBE7C01A70470000C9B2830706D0521E90
:1012A00022D310F8013B9942F7D11FE0083A13D33B
:1012B00002F1040241EA012141EA014150F8043BF4
:1012C000121F21BF4B40A3F1013C2CEA030C1CF080
:1012D000803FF3D0C9B2001F083210F8013B521E04
:1012E00028BF91EA030FF8D818BF0120401E7047AD
:1012F00080B500F07FFD012002BD000070B50546FD
:1013000005F10F00C408E400012000F0E5FDA5424E
:101310002BD2082C04D2082402E0083000F096F802
:10132000244D286801000CD1291D0868B8B1026855
:10133000A24238BF011DF8D316E01368A34213D2AE
:10134000111D0A68002AF8D10068291D00E0111D4E
:101350000A68824203D01368A342F8D304E000F085
:101360000BFE0028D9D1002121B9012000F0F8FDA1
:10137000002070BD0E683068A0F10802A2423CBF98
:101380007068086007D3A2190A6073685360001B75
:101390000A6810603460086800281DBF4168002991
:1013A000001D00202860012000F0DAFD06F1080091
:1013B00070BD0000081B002070B504460D4616469F
:1013C00000F018FD324629462046BDE8704000F086
:1013D0001BBD000062B38B0708D0521E11F8013B01
:1013E00000F8013B00F024808B07F6D1830740F022
:1013F000208000BF103A07D330B4B1E83810103A5B
:10140000A0E83810F9D230BC530724BFB1E8081067
:10141000A0E8081044BF51F8043B40F8043BD20751
:1014200024BF31F8022B20F8022B44BF0B78037045
:101430007047083A07D3B1E80810083A40F8043B6F
:1014400040F804CBF7D25307E4E7000000B9704737
:1014500010B5A0F108042068082837D310F0070061
:1014600034D1012000F038FD1948416809B18C429F
:1014700003D26160446017E019464B680BB1A34288
:10148000FAD30A6853189C421BD3A34204D12368A1
:101490009A180A600C4607E04A681AB123681B19BB
:1014A0009A420ED362604C60616851B12268131990
:1014B0008B4206D1002303600868801820604868CA
:1014C00060600120BDE8104000F04ABD10BD000082
:1014D000081B00201B4213D1094236D12AB1844691
:1014E000B0FBF2F002FB10C2704700F059BDFCD314
:1014F0000022002370470B000200002100207047EB
:10150000904271EB030CF6D370B5B1FA81F4B3FAE3
:1015100083F52C1BA340C4F1200532FA05F63343B2
:10152000A2405FF00046E64002E05B085FEA32025C
:10153000841A71EB030524BF204629467641F4D373
:1015400002000B003000002170BD012ACFD970B518
:10155000140C20D0B1FA81F4B2FA82F5C4F120045F
:101560006419B4F12006D6D3B2405FF00044F440D1
:10157000002502E052085FEA3303C61A71EB020E3F
:1015800024BF3046714664416D41F3D302000B0025
:101590002000290070BD0C46B1FBF2F102FB1145A1
:1015A0002D0445EA1045B5FBF2F402FB145580B258
:1015B00040EA0545B5FBF2F002FB105240EA044058
:1015C00070BD30B4416801F00042012143681B0343
:1015D0001B0B436004BF0368002B0ED003684468F4
:1015E000DD0F45EA440444605B000360491EE302EA
:1015F000F4D543681B031B0B436043681A434260E6
:10160000084630BC704700004FF4001C1CEB410F33
:1016100094BF1CEB430F09E041EA030C50EA4C0C69
:1016200052EA0C0C03D2994208BF9042704714BF93
:101630008B428242704700004FF4001C1CEB410FAC
:1016400094BF1CEB430F09E041EA030C50EA4C0C39
:1016500052EA0C0C03D28B4208BF8242704714BF7F
:10166000994290427047000070B504460D4660688C
:10167000C0F30A5040F2FF72904207D16068000345
:1016800004BF2068002818D0022070BD010004D1DA
:101690002046FFF796FF012867DA012D0FDB40F2A5
:1016A000FF71091A8D420AD36068002847BF0020E5
:1016B0002F4900202F49C4E90001012070BD41429B
:1016C000A942616806DA2C4A1140401941EA0050EB
:1016D000606053E001F0004162681203120B42F4B3
:1016E00080126260401E451905F13500352803D38C
:1016F00061600020206070BD002215F11F0F05DA27
:10170000203522686068206000206060684213D045
:10171000521E9241D243C0F1200325689D4055EAF4
:10172000D2722568C540666806FA03F32B4323602E
:10173000636823FA00F06060606808436060B2F19B
:10174000004F03D80BD12078C00708D52068401C73
:101750002060206818B96068401C60600EE0606816
:10176000884204BF20680028F8D1002070BD000026
:101770000000F0FF0000F07FFFFF0F804FF0FF3010
:1017800070BD0000F446400D40EAC120490006D279
:1017900000F014F8004248BF6FF00040604700F0CE
:1017A0000DF84FF0004188428CBF08464042604728
:1017B000400D40EAC120490080F00D8040F000401B
:1017C000490DA1F58061491C05D4D1F11F0154BF19
:1017D000C840C01770474FF000007047010040F14B
:1017E0000980F446404200F005F851F0004160479E
:1017F000010000BF09D0B0FA80F18840C91CC1F5D2
:101800008461090501EBD0214005704770B44FF0A9
:10181000004591EA030F44BF6B4000F0C3BB00BF1B
:10182000841A71EB030604D26E40001BB1411219F9
:1018300073414FF4001C1CEB410F34BF7CEB43069B
:1018400084E00C0DA4EB1356362E7DDC012E43DC18
:1018500045EAC32343EA525312BFD20292025B0805
:10186000240545EAC12141EA5051D2EBC0209941FB
:1018700025D407D1B0FA80F610FA06F164D0002022
:10188000203608E0B1FA81F6B140C6F1200220FA14
:1018900002F21143B0404FEAF474B4EB465434F012
:1018A00001064FEA74040AD8D6F50016760D04F046
:1018B0000044F04061FA06F25040F1404840C00A4E
:1018C00040EA415021F0004128BF5FEA500550F145
:1018D000000044EBD12137E045EAC323DB0A45EAA7
:1018E000C121C90AB6F120050EDD42EA0242120CFE
:1018F000C5F1200603FA06F6EB4042EA06056D4202
:10190000984161F100010DE062FA06F5F2405540A0
:1019100063FA06FC82EA0C02F3405A406D429041A1
:1019200061EB030111F4801F05D1641E620502D032
:101930006D004041494121F48011430875F1004395
:1019400050F1000041EB045170BC70471CEB410F9B
:1019500015D223F0004352EA43060BD04FEA4C0C59
:10196000BCEB410F04D80C0D661E342EB7DDEBE73F
:10197000801A994150EA410608BF0021E4E708BFF8
:101980001CEB430F28BF6FF00001DDE7B0B581EA23
:10199000030C0CF0004C40F2FF7515EA11541DBF0A
:1019A00015EA1357AC42AF4239E0E41923EA455334
:1019B00043F48013C90241F0004141EA505EC7027E
:1019C0001100A7FB020200284FF00000EEFB0120EF
:1019D0004FF00001E3FB072118BF42F0010240185D
:1019E00000214941E3FB0E01A4F580640F0302D2FC
:1019F00052004041494154F101046CDD470872F145
:101A0000004250F1000051EB0451A1F580115CBF80
:101A100041EA0C01B0BD4CEA05510020B0BD05EA19
:101A20001357AC4214BFAF4241E050EA410E1CBF15
:101A300052EA430E02E061460020B0BD24423C441D
:101A40001BD15FEA070EF6D0090302BF0146002052
:101A5000AEF1140EB1FA81F7AEEB070401FA07FEFE
:101A60000C37C7F1200100FA07F7C8404EEA000E14
:101A700023EA455343F48013A2E733F00043B3FA5B
:101A800083F704BFB2FA82FE77440B3FE41BB7F141
:101A9000200E2FBF02FA0EF3BB40C7F1200E22FA30
:101AA0000EFE38BF43EA0E03BA40641C82E750EAD8
:101AB000410E14BF52EA430E6FF000014FF40017BD
:101AC00017EB430F8ABF194617EB410FB5E74CEAF6
:101AD00005510020B0BDD4F10104B4F120070FDAA4
:101AE000C4F12007520828BF42F0010210FA07F59E
:101AF00001FA07F7E1BF2A43E0403843E1400FE035
:101B0000352C98DCC7F1200452EA400220FA07F293
:101B100018BF42F0010231FA07F0A1400A43002148
:101B200072F1004250F1000051EB0C01B0BD000019
:101B3000F0B540F2FF7581EA030C0CF0004C15EA99
:101B400011541DBF15EA1357AC42AF42E5E0BC414A
:101B5000C1F31301C3F31303801A994143F48013B3
:101B600004D2641E4000494180185941C90241EA2B
:101B70005051B1FBF3F603FB1611A2FB0675D7EB30
:101B8000C020A94102D2761E80185941C90241EAFB
:101B90005051B1FBF3FE03FB1E11A2FB0E75D7EBF8
:101BA000C020A94103D2AEF1010E8018594189022B
:101BB00041EA9051760546EA8E2EB1FBF3F603FB1F
:101BC0001611A2FB0675D7EB8020A94102D2761E22
:101BD00080185941C90241EA50514EEA060EB1FB44
:101BE000F3F603FB1611A2FB0675D7EBC020A94143
:101BF00002D2761E80185941C90241EA5051B1FB08
:101C0000F3F703FB1711A2FB0735D3EBC020A94163
:101C100067F100070CBF004247F0010766F3D527C4
:101C20004FEA1E31B80814F5806412DDBD0775F166
:101C3000004250EB0E5051EB045111F5801F5CBF78
:101C400041EA0C01F0BD4CF07F6141F0E041002021
:101C5000F0BDBD076D0840EA0E5041F48011D4F18B
:101C60000104B4F120060ADAC4F120060200E040C3
:101C700001FA06F3E1401843B24015430EE0342C5C
:101C800013DCC6F1200445EA40056D0820FA06F28F
:101C9000154321FA06F0A1400D43002175F10042E1
:101CA00050F1000051EB0C01F0BD00205FEA0C0187
:101CB000F0BDCFB992185B41B3FA83F704BFB2FA13
:101CC00082F6BF190B3FB7F120062FBF02FA06F3C9
:101CD000BB40C7F1200622FA06F638BF3343BA40AC
:101CE0001CB1E419641E33E77F4231F00041B1FAC0
:101CF00081F404BFB0FA80F6A4190B3CB4F12006BD
:101D00002FBF00FA06F1A140C4F1200620FA06F622
:101D100038BF3143A0403C1B1AE7AC421ABF05EA6A
:101D20001357AF4212E050EA41061CBF52EA430685
:101D3000BFE750EA4107304661461CBF41EA055102
:101D4000F0BD52EA430C08BFC143F0BD00204FF480
:101D5000001616EB410F98BF16EB430F08BF16EBAA
:101D6000410F24BFC14305E016EB430F0CBF614692
:101D70004CEA0551F0BD000080B5134800F07CF935
:101D80000FF24801016041608160C1600161416101
:101D900081610FF23C0242628162C1620163416370
:101DA0000FF2300282630FF23402C26301644164B5
:101DB00001BD10B5044800F05FF90446206808B979
:101DC000FFF7DAFF204610BD0000002000000000F1
:101DD0002E00000066616C7365000000747275650A
:101DE0000000000091FBF2F303FB1211C0E9003187
:101DF0007047000080B5DFF80C0000F03DF9806905
:101E000002BD00005019002030B438B90FF2440070
:101E1000D0E90045C2E90045002001E00170012041
:101E200030BC704730B439B90FF23000D0E900450A
:101E3000C3E9004500200BE012B96FF0010007E094
:101E400008B10A7802800978481E8041C043C00F5B
:101E500030BC7047000000000000000000000000DF
:101E60000000000010B5434C2068A0B3201D00F016
:101E700005F904F1080000F001F904F10C0000F08C
:101E8000FDF804F1100000F0F9F804F1140000F07E
:101E9000F5F804F1180000F0F1F804F11C0000F06E
:101EA000EDF804F1200000F0E9F804F1240000F05E
:101EB000E7F804F1280000F0E3F804F12C0000F04A
:101EC000DFF804F1300000F0DBF804F13400BDE885
:101ED000104000F0D5B810BD38B50446254D28682F
:101EE00090BB281D00F0C9F805F1080000F0C5F806
:101EF00005F10C0000F0C1F805F1100000F0BDF88C
:101F000005F1140000F0B9F805F1180000F0B5F87B
:101F100005F11C0000F0B1F805F1200000F0ADF86B
:101F200005F1240000F0ABF805F1280000F0A7F857
:101F300005F12C0000F0A3F805F1300000F09FF847
:101F400005F1340000F09BF801202860052C06D232
:101F500005EB84002430BDE8324000F092B831BD7A
:101F6000052805D2034901EB8000243000F08AB82F
:101F7000704700000C1A00200649086808B10020CC
:101F80007047054808600549C908C900091A016079
:101F9000704700BF281B0020389B0020389F00207E
:101FA00070470000841A71EB030603D2001BB14195
:101FB000121973414FF4001C1CEB410F34BF7CEB32
:101FC000430443E00C0DA4EB1356352E50DC45EAD8
:101FD000C323DB0A45EAC121C912B6F120050DDD94
:101FE00063FA05F6EB4086EA0305124218BF45F096
:101FF0000105C01851F100010CD213E062FA06F598
:10200000F2405540F3415A40B340F3405A408018E3
:10201000594107D349085FEA30005FEA350528BF18
:1020200045F0010501F58011420875F1004250F1BB
:10203000000041EB045170BC4FF4001C1CEB410F3D
:1020400038BF70470020090D090570471CEB410F90
:1020500010D252EA43060BD0BCEB410F05D80C0D51
:10206000AB43661E342EB5DD02E0AB438018594108
:1020700070BC704770BC70477047704770477047BE
:10208000704770477047000080B500F044F800F0DA
:10209000FAF800F0E8F901BD0100C9B2002902D147
:1020A000DFF8980516E0C9B2012902D1DFF89005E2
:1020B00010E0C9B2022902D1DFF888050AE0C9B2EE
:1020C000032901D1002005E0C9B2042901D1002073
:1020D00000E000207047F8B504000D001600200055
:1020E000C0B2FFF7D9FF0700002F0AD0F869002817
:1020F00001D0F8698047320092B22900380000F020
:10210000D8F9F1BD13B50400012201A92000C0B225
:10211000FFF7E1FF13BDDFF82405DFF82C150160A0
:10212000DFF81805DFF824154160DFF81005DFF847
:1021300020158160DFF804054FF480618181DFF8AC
:10214000FC044FF48061C181DFF8F00400210182BA
:10215000DFF8E80400214182DFF8E0040021C182B9
:10216000DFF8D80400210183DFF8D0040021418387
:10217000DFF8C80400218182DFF8C0040021C161BA
:10218000DFF8B80400210162DFF8B00400214162E9
:10219000DFF8AC04DFF8BC140160DFF8A404DFF85A
:1021A000B8144160DFF89804DFF8B0148160DFF8FC
:1021B00090044FF480618181DFF884044FF48061E2
:1021C000C181DFF87C0400210182DFF87404002162
:1021D0004182DFF86C040021C182DFF86404002131
:1021E0000183DFF85C0400214183DFF854040021FF
:1021F0008182DFF84C040021C161DFF84404002132
:102200000162DFF83C0400214162DFF83804DFF8A6
:1022100050140160DFF82C04DFF848144160DFF847
:102220002404DFF844148160DFF818044FF480615F
:102230008181DFF810044FF48061C181DFF804046C
:1022400000210182DFF8FC0300214182DFF8F40362
:102250000021C182DFF8EC0300210183DFF8E403F1
:1022600000214183DFF8DC0300218182DFF8D40301
:102270000021C161DFF8CC0300210162DFF8C40353
:1022800000214162704700B585B00121052000F0B2
:1022900069FA01214FF4804000F064FA4FF40070B5
:1022A000ADF8000018208DF8030003208DF802001F
:1022B00000A9DFF8B80300F081FA4FF48060ADF8B0
:1022C000000004208DF8030000A9DFF8A00300F04F
:1022D00075FA5FF4E13001900020ADF808000020AD
:1022E000ADF80A000020ADF80C000020ADF8100099
:1022F0000C20ADF80E0001A9DFF84C0300F0FAFA4B
:10230000012240F22551D04800F074FB0121CE4853
:1023100000F062FB4021CC4800F09FFB012105202A
:1023200000F020FA01215FF4003000F02AFA0420C6
:10233000ADF8000018208DF8030003208DF802008E
:1023400000A9CA4800F03AFA0820ADF800000420BD
:102350008DF8030000A9C54800F030FA00A9C34871
:1023600000F02CFA5FF4E13001900020ADF8080095
:102370000020ADF80A000020ADF80C000020ADF8F8
:1023800010000C20ADF80E0001A9B24800F0B2FA1E
:10239000012240F22551AF4800F02CFB0121AD484D
:1023A00000F01AFB4021AB4800F057FB0121082048
:1023B00000F0D8F910208DF8030003208DF80200FA
:1023C0000420ADF8000000A9A94800F0F7F90121A8
:1023D000092000F0C7F901215FF4802000F0D1F955
:1023E0004FF48060ADF8000018208DF80300032042
:1023F0008DF8020000A99E4800F0E0F94FF400605B
:10240000ADF8000004208DF8030000A9984800F002
:10241000D5F900A9964800F0D1F94FF41650019073
:102420000020ADF808000020ADF80A000020ADF84B
:102430000C000020ADF810000C20ADF80E0001A932
:10244000874800F057FA012240F22551844800F0F5
:10245000D1FA0121824800F0BFFA4021804800F003
:10246000FCFA05B000BD80B525208DF800000020E5
:102470008DF8020001208DF8030000A800F02FFB6A
:1024800026208DF8000001208DF8020001208DF833
:10249000030000A800F023FB27208DF80000022095
:1024A0008DF8020001208DF8030000A800F017FB52
:1024B00001BDF8B504000D00160000200700BFB2F2
:1024C000B6B2B74226D2012080F31088A08AADF8B8
:1024D0000000002080F31088BDF80000A189884228
:1024E000F1D2208A6168BFB27A5D4254012080F344
:1024F0001088208A401C2082A18980B2884201D3A2
:1025000000202082A08A401CA082002080F3108836
:102510007F1CD4E7012240F22771206800F06AFA9C
:10252000F1BD38B5040040F22551206800F09BFA57
:1025300000281DD0206800F08CFA0500E08AA16810
:102540004554E08A401CE082E18980B2884201D390
:102550000020E082608BE189884202D2608B401CBF
:102560006083606A002803D02800C0B2616A88478F
:1025700040F22771206800F076FA002823D0A08A64
:1025800000280CD1002240F22771206800F032FAB6
:10259000012240F22661206800F02CFA3CE0608ABB
:1025A0006168415C89B2206800F04FFA608A401C83
:1025B0006082A18980B2884201D300206082A08A13
:1025C000401EA08228E040F22661206800F04BFA0D
:1025D000002821D0A08A00280BD1002240F22661D9
:1025E000206800F007FA206A002815D0206A80478A
:1025F00012E0608A6168415C89B2206800F025FAC7
:10260000608A401C6082A18980B2884201D3002088
:102610006082A08A401EA08231BD80B50748FFF7C6
:1026200080FF01BD80B50648FFF77BFF01BD80B587
:102630000448FFF776FF01BD00000000741A002077
:102640009C1A0020C41A002000380140A800002075
:10265000A804002000440040A8080020A80C002086
:1026600000480040A8100020A814002000080140E5
:10267000000C014038B504000D002100C9B2002053
:10268000FFF740FD200032BD30B4002100220023BE
:102690000024434D2D6815F00C0529000D00002D78
:1026A00004D0042D05D0082D06D026E03D4D056050
:1026B00025E03C4D056022E0394D2D6815F470157C
:1026C0002A00374D2D6815F480352B00920C921C92
:1026D000002B04D1344D05FB02F505600CE0304DB4
:1026E0002D68AD0304D5304D05FB02F5056003E010
:1026F0002C4D05FB02F5056001E02A4D0560284DD3
:102700002D6815F0F00529000909284D4D5D2C00B4
:102710000568E5404560224D2D6815F4E065290007
:10272000090A224D4D5D2C004568E54085601C4D31
:102730002D6815F460552900C90A1C4D4D5D2C000B
:102740004568E540C560164D2D6815F440452900E3
:10275000890B174D4D5D2C00C568B5FBF4F505617F
:1027600030BC7047C9B2002905D0124A1268024332
:10277000104B1A6004E00F4A126882430D4B1A6036
:102780007047C9B2002905D00B4A126802430A4BB0
:102790001A6004E0084A12688243074B1A607047C7
:1027A0000410024000127A0000093D009000002051
:1027B000A0000020181002401C100240F0B50027B5
:1027C0000022002300240025002691F803C01CF0FD
:1027D0000F0C674691F803C05FEACC6C03D591F803
:1027E00002C05CEA070791F800C05FEA0C6C3AD0BF
:1027F000D0F800C065465FF0000C6346082B31D26C
:102800005FF0010C1CFA03FC6446B1F800C014EA46
:102810000C0C6246A24223D15FEA830C64465FF04F
:102820000F0C1CFA04FC6646B54317FA04FC5CEA7C
:10283000050591F803C0BCF1280F06D15FF0010C2B
:102840001CFA03FCC0F814C00AE091F803C0BCF104
:10285000480F05D15FF0010C1CFA03FCC0F810C052
:102860005B1CCBE70560B1F800C04FF4807EF445F7
:102870003FD3D0F804C065465FF0000C6346082BD8
:1028800036D25FF0010C13F1080E1CFA0EFC644600
:10289000B1F800C014EA0C0C6246A24226D15FEAED
:1028A000830C64465FF00F0C1CFA04FC6646B543CB
:1028B00017FA04FC5CEA050591F803C0BCF1280F87
:1028C00007D15FF0010C13F1080E1CFA0EFCC0F8E2
:1028D00014C091F803C0BCF1480F07D15FF0010CA0
:1028E00013F1080E1CFA0EFCC0F810C05B1CC6E702
:1028F0004560F0BD2DE9F04786B004000D000026CC
:1029000000275FF000085FF000095FF0000AA88967
:102910000028A246208A06004CF6FF700640E88890
:1029200006432682A08906004EF6F3100640A888CA
:1029300029890843698908430643A681A08A0600BD
:102940004FF6FF400640A8890643A68200A8FFF77D
:102950009BFE2048824502D10398070001E00298BF
:102960000700A089000408D5192000FB07F029689A
:102970004900B0FBF1F0804607E0192000FB07F0AA
:1029800029688900B0FBF1F080466420B8FBF0F0C4
:10299000000106003009642101FB10808146A089F6
:1029A000000409D55FEAC90032306421B0FBF1F0C0
:1029B00010F00700064308E05FEA09103230642196
:1029C000B0FBF1F010F00F000643268106B0BDE821
:1029D000F087000000380140C9B2002904D0828984
:1029E00052F40052828104E082894DF6FF731A404E
:1029F00082817047F0B4002300240025002640F6B1
:102A00006A1789B2B94206000F00FFB27F09FFB210
:102A10003B0089B211F01F073C000127A7403D0091
:102A2000012B01D10C3604E0022B01D1103600E05D
:102A30001436D2B2002A03D037682F43376002E041
:102A40003768AF433760F0BC7047CA05D20D82804B
:102A500070478088C005C00D704789B28A0589B269
:102A6000CA430280704770B402000023002500248E
:102A7000002040F66A1689B2B1420E00F6B276091D
:102A8000F6B2340089B211F01F063500012616FA9D
:102A900005F5012C02D19689354006E0022C02D1C1
:102AA000168A354001E0968A354089B20E0AB6B2E0
:102AB0003300012616FA03F316883340002D04D0A4
:102AC000002B02D00126300001E000263000C0B209
:102AD00070BC70471C4901431C4A11607047F0B438
:102AE000002300210F22C478002C20D0174C24682A
:102AF00014F4E064D4F5E064240A2300D3F1040460
:102B00002100DA4044788C40230084781440234329
:102B10001B0104780E4D6355047864110D4D012698
:102B2000077817F01F07BE4045F8246009E00478D5
:102B30006411094D0126077817F01F07BE4045F8BC
:102B40002460F0BC704700000000FA050CED00E0C6
:102B500000E400E000E100E080E100E0DFF8CC0309
:102B6000006880040BD4DFF8C8030068C00706D4EF
:102B7000DFF8C0030068C00501D5012000E0002097
:102B80007047DFF8A803006880040BD5DFF8A003C6
:102B90000068C00706D5DFF89C030068C00501D5B2
:102BA000012000E000207047DFF880030068800407
:102BB0000BD5DFF87C030068C00706D4DFF8740388
:102BC0000068C00501D4012000E000207047DFF854
:102BD0005C03006880040BD4DFF854030068C0076E
:102BE00006D5DFF850030068C00501D5012000E0DC
:102BF00000207047DFF83403006880040BD5DFF84D
:102C000030030068C00706D5DFF828030068C00558
:102C100001D4012000E000207047DFF818030068AD
:102C2000000401D4012000E000207047DFF8080311
:102C30000068000701D4012000E000207047DFF8A1
:102C4000F4020068400401D4012000E00020704735
:102C5000DFF8E0020068800401D4012000E00020D9
:102C60007047DFF8D0020068000601D4012000E0C0
:102C70000020704780B500F07AF800F02EF801BD12
:102C8000DFF8B812C97ADFF8B4228854AB49C97AA0
:102C9000491CAA4AD172C9B20A2902D3A749002203
:102CA000CA727047A548807AA44AD27A904201D16C
:102CB000002011E0A148807AA04A805C01009F4872
:102CC000807A401C9D4A9072C0B20A2802D39B4869
:102CD000002282720800C0B2704780B501214FF413
:102CE0009A70FFF73FFD03208DF8020004208DF855
:102CF00003004FF40050ADF8000000A99148FFF721
:102D00005DFD0120ADF8000000A98F48FFF756FDDA
:102D10004FF48070ADF8000000A98C48FFF74EFD1D
:102D20004FF40040ADF8000000A98848FFF746FDC9
:102D30000820ADF8000000A98548FFF73FFD4FF4DB
:102D40008040ADF8000000A98048FFF737FD4FF440
:102D50000050ADF8000000A97C48FFF72FFD80204F
:102D6000ADF8000000A97948FFF728FD01BD7349BF
:102D700000228A7271490022CA72704900220A73C5
:102D800000210800C0B20A281FD2C0B26C4911EB62
:102D9000001164220A81C0B2694911EB00110222BC
:102DA0000A71C0B2664911EB001100228A72C0B2EA
:102DB000634911EB00110022CA72C0B2604911EBE5
:102DC000001100220A73401CDCE75D4964220A8777
:102DD0005B49052281F83B2059496422A1F848202B
:102DE0005749052281F84B2055496422A1F8582003
:102DF0005349052281F85B2051496422A1F86820DB
:102E00004F49052281F86B204D49524A0A604C49CE
:102E1000514A0A614A49514A0A624949504A0A6379
:102E20004749504A0A6446494F4A0A6544494F4A4D
:102E30000A6643494E4A0A6741494E4AC1F8802012
:102E40003F494D4AC1F89020704738B50400E4B2BC
:102E50003B4810EB0410050028688047002845D047
:102E60002879052802D2052028715DE028790A28F2
:102E700003D22879401C287156E0A87A002809D18D
:102E80000120A872E4B2032000FB04F0401CC0B291
:102E9000FFF7F6FE2889012846D3E8882989884269
:102EA0000FD2E888401CE880298980B288423BD153
:102EB000E4B2032000FB04F0C01CC0B2FFF7E0FE48
:102EC00032E0E87A01282FD3287B401C2873E97A66
:102ED000C0B2884228D300202873E4B2032000FB4C
:102EE00004F0401CC0B2FFF7CBFE1DE02879062895
:102EF00002D30520287113E02879002803D028790F
:102F0000401E28710CE0A87A012809D10020A8727F
:102F1000E4B2032000FB04F0801CC0B2FFF7B0FE57
:102F20000020E8800020287331BD00000810014017
:102F3000080801400820014008140140EC1A002054
:102F4000A8180020001001400008014000200140A6
:102F5000001401405D2B0008832B0008A92B0008FA
:102F60001B2C00082D2C00083F2C0008512C0008B9
:102F7000632C0008CF2B0008F52B000810B50020AB
:102F80000400E4B20A2C05D22000C0B2FFF75DFFB6
:102F9000641CF6E710BD000010B588B001210220C6
:102FA000FFF7EFFB01210820FFF7DCFB03208DF882
:102FB000060004208DF807000120ADF8040001A9E7
:102FC000DFF8B003FFF7FAFB1D208DF800000020AA
:102FD0008DF8010001208DF8020001208DF803001A
:102FE00000A8FFF77CFD40F2CF2004004FF6FF70F1
:102FF000ADF81800ADF814400020ADF81A0000201C
:10300000ADF8160000208DF81C0005A9DFF8680354
:1030100000F0BEF90820ADF808000220ADF80A0063
:103020000120ADF80C000020ADF80E000020ADF836
:10303000100002A9DFF8400300F0F4F90121DFF8E5
:10304000380300F03FFA01220821DFF82C0300F0DA
:1030500047FA01220121DFF8200300F041FADFF8EE
:103060001C0300210180DFF8140300218170DFF8C8
:103070000C030121017208B010BD80B50021DFF8FA
:10308000F80200F01FFA00220821BB4800F028FADD
:1030900001BD38B50400B9488078002805D0022861
:1030A00052D026D303285FD0C7E040F2BD20A4B29F
:1030B00084420ED340F24C40A4B2844209D2AF48BD
:1030C00001218170AE4800210170AE4800210170DD
:1030D0000EE0AD480078002803D1AB480121017013
:1030E00006E0A9480078012802D1A7480221017012
:1030F000A3E0A4B2B4F59D7F08D34FF41670A4B238
:10310000844203D29D48022181701CE0A4B2972C16
:1031100016D3A4B2FA2C13D29848C0790A2806D341
:10312000964840798038C0B2FFF7AAFD04E0934882
:10313000C079401C9149C87190480021817002E01B
:103140008E480021817078E0A4B20B2C08D3A4B281
:10315000642C05D28948032181708C4804806CE07E
:1031600086480021817096E788480088201805006D
:1031700083480078C0B2400881490870ADB25D2D27
:1031800002D3ADB2842D0FD3ADB2CE2D08D3ADB2E4
:10319000F52D05D27A48007880387949087003E027
:1031A00076480021817076E776480078401C7549A2
:1031B000087074480078082807D170487049097869
:1031C000C1706F480021017034E06E48007810280B
:1031D00007D16A486A49097801716948002101707C
:1031E00028E068480078182807D1644864490978BD
:1031F00041716348002101701CE06248007820287A
:1032000018D15E485E49097881715C4840795B4914
:103210008979081880B2FF2808D158484079803849
:10322000C0B2FFF72DFD55480021C1715348002160
:10323000817002E051480221817031BD30B589B002
:1032400001214D4800F07FF9002828D001214A488B
:1032500000F092F949484089022820D24748408925
:10326000401C4649488180B2022818D10820ADF898
:1032700018000220ADF81A000120ADF81C00002053
:10328000ADF81E000020ADF8200006A93A4800F075
:10329000C9F83A480121017238480021817008219B
:1032A000354800F050F9002862D00821324800F07B
:1032B00063F93248002141812F4800F042F90400AF
:1032C0002E48007A002816D10820ADF80C00022004
:1032D000ADF80E000120ADF810000020ADF812008E
:1032E0000020ADF8140003A9234800F09BF8234800
:1032F0000121017215E00820ADF800000020ADF8B2
:1033000002000120ADF804000020ADF80600002006
:10331000ADF8080000A9184800F084F8174800210B
:10332000017216480088A4B2844204D3134800886E
:10333000201A05000BE011480088A4B2844206D28E
:103340004FF6FF700D490988401A201805000B48F8
:103350008078002806D109480088002802D1074853
:10336000048005E005480480280080B2FFF791FE44
:1033700009B030BD000C014000040040FC1A0020E0
:103380002E1B00202F1B0020301B00202C1B002098
:10339000002203881A00DFF85432984212D0DFF876
:1033A000D83298420ED0B0F1804F0BD0DFF84032C7
:1033B000984207D0DFF83C32984203D0DFF8383229
:1033C000984204D14FF68F731A404B881A43DFF8A6
:1033D000A032984208D0DFF89C32984204D04FF6D1
:1033E000FF431A40CB881A4302808B8883850B8861
:1033F0000385DFF8F83198420FD0DFF87C3298422D
:103400000BD0DFF86433984207D0DFF8603398427E
:1034100003D0DFF85C33984201D10B7A0386012395
:103420008382704738B504000D00DFF8C001844284
:1034300012D0DFF8440284420ED0B4F1804F0BD09A
:10344000DFF8AC01844207D0DFF8A801844203D042
:10345000DFF8A401844200D1FFE7288800280AD1C0
:103460002B89AA886988200000F08AF8E988200062
:1034700000F041F825E0288804280AD12B89AA8881
:103480006988200000F0BAF8E988200000F03CF8D4
:1034900017E0288808280AD12B89AA886988200083
:1034A00000F0ECF8E988200000F038F809E02B89FA
:1034B000AA886988200000F01DF9E988200000F042
:1034C00036F831BDC9B2002904D0028852F0010299
:1034D000028004E002884FF6FE731A4002807047B3
:1034E000D2B2002A03D083890B43838102E083890F
:1034F0008B4383817047028B4FF6F3731A4002832C
:10350000028B0A4302837047028B4FF2FF331A404B
:103510000283028B52EA012202837047828B4FF6AC
:10352000F3731A408283828B0A4382837047828BB3
:103530004FF2FF331A408283828B52EA0122828348
:103540007047808F704730B40200002000230024B1
:10355000158A0D402B0095890D402C009BB2002B45
:1035600005D0A4B2002C02D00125280001E00025DE
:103570002800C0B230BC704789B2CA43028270478B
:10358000F0B400250024068C4FF6FE773E400684FA
:10359000068B3500068C34004FF60C76354052EA27
:1035A00003163543114EB0420ED0334EB0420BD00D
:1035B000B0F1804F08D00E4EB04205D00D4EB04253
:1035C00002D00D4EB04206D14FF6FD76344051F098
:1035D0000106344305E04FF6F576344051F001061C
:1035E000344305830484F0BC70470000002C014084
:1035F0000004004000080040000C0040F0B4002629
:1036000000240025078C4FF6EF7C1CEA070707848F
:10361000078B3E00078C3C000F013D0040F6FF4742
:103620003E4056EA033656EA0226534FB8420ED0C1
:10363000114FB8420BD0B0F1804F08D04F4FB84275
:1036400005D04F4FB84202D04E4FB84206D14FF688
:10365000DF773C4055F010073C4305E04FF65F77BD
:103660003C4051F010073C4306830484F0BC704793
:10367000001000400014004000340140F0B4002667
:1036800000240025078C4FF6FF6C1CEA070707840F
:10369000878B3E00078C3C000F023D004FF60C77F5
:1036A0003E4052EA03173E43334FB8420ED0314FEB
:1036B000B8420BD0B0F1804F08D0304FB84205D09F
:1036C0002F4FB84202D02F4FB84207D14FF6FF57C5
:1036D0003C404FF480772F433C4306E04FF2FF57C6
:1036E0003C404FF480770F433C4386830484F0BC16
:1036F00070470000F0B4002600240025078C4EF629
:10370000FF7C1CEA07070784878B3E00078C3C0080
:103710000F033D0040F6FF473E4056EA022656EAB8
:103720000336154FB8420ED0124FB8420BD0B0F14D
:10373000804F08D0114FB84205D0114FB84202D087
:10374000104FB84206D14DF6FF773C4055F48057F4
:103750003C4305E047F6FF573C4051F480573C435B
:1037600086830484F0BC704700400140004401405F
:103770000048014000340140002C0140000400409A
:1037800000080040000C004040B2002809D540B2BB
:1037900010F00F02DFF88432D2180B0102F8043C5B
:1037A00004E040B2DFF878220B018354704710B573
:1037B0000400B4F1807F01D3012013E02002000A4D
:1037C000401EDFF8601208600F215FF0FF30FFF746
:1037D000DBFFDFF8540200210160DFF8500207210F
:1037E0000160002010BD10B500200400E4B2042CDC
:1037F00021D2E4B20C20DFF8381200FB04100021C3
:103800004160E4B20C20DFF8281200FB0410002114
:103810008160E4B20C20DFF8181200FB04100021D4
:103820004170E4B20C20DFF8081200FB0410002104
:103830000170641CDAE7DFF8FC0100684FF47A716C
:10384000B0FBF1F0FFF7B3FF00F05CF810BD10B56E
:10385000DFF8E401006800280CD0DFF8DC01006824
:10386000401EDFF8D4110860002803D1DFF8CC0136
:103870000121017000200400E4B2042C09D2E4B25A
:103880000C20DFF8AC1100FB041000F027F8641CDA
:10389000F2E7DFF8AC010068401CDFF8A411086013
:1038A000DFF89C0100687FF00041884203D1DFF817
:1038B00090010021016000F0E3F8DFF88801007852
:1038C000401CDFF880110870C0B20A2805D3DFF869
:1038D00074010021017000F0CFF810BD416800298B
:1038E0000BD04168491E4160002906D10121417079
:1038F0000178012901D181684160704780B5FFF7E7
:10390000A6FF01BD7FB501210120FEF73AFF49481E
:103910000068400806004C48B6FBF0F005004FF682
:10392000FF7004002000ADF80800ADF8045000203E
:10393000ADF80A000020ADF8060001A95FF0804054
:10394000FFF726FD01215FF08040FFF7BBFD1C2043
:103950008DF8000004208DF8010000208DF8020091
:1039600001208DF8030000A8FFF7B9F87FBD80B5EE
:1039700002215FF08040FFF7E6FD00280DD0022114
:103980005FF08040FFF7F8FD002202215FF08040E9
:10399000FFF7A6FD2D480068804704215FF08040B6
:1039A000FFF7D1FD00280DD004215FF08040FFF724
:1039B000E3FD002204215FF08040FFF791FD2448E1
:1039C0000068804708215FF08040FFF7BCFD0028B9
:1039D0000DD008215FF08040FFF7CEFD00220821C6
:1039E0005FF08040FFF77CFD1A4800688047102197
:1039F0005FF08040FFF7A7FD00280DD010215FF099
:103A00008040FFF7B9FD002210215FF08040FFF7F2
:103A100067FD11480068804701BD000018ED00E017
:103A200000E400E014E000E018E000E010E000E056
:103A3000441A0020A4000020101B0020311B00208D
:103A4000141B0020321B002040420F00181B0020D6
:103A50001C1B0020201B0020241B002080B54FF4DD
:103A60004070FFF737F8FEF70FFBFFF703F9FFF79A
:103A7000BAFE00F007F801BD80B5FFF77FFA01BD7F
:103A80007047704780B501218020FEF76BFE012052
:103A900000F02FF8022000F02CF8032000F029F8A5
:103AA000042000F026F803208DF8020010208DF885
:103AB00003004FF40060ADF8000000A91D48FEF7B8
:103AC0007DFE8020ADF8000000A91A48FEF776FEC2
:103AD0004FF48070ADF8000000A91648FEF76EFEA6
:103AE0004FF40070ADF8000000A91248FEF766FE22
:103AF00001BD401EC0B2002804D10F494FF400623E
:103B00000A6015E0C0B2012803D10B4980220A6087
:103B10000EE0C0B2022804D107494FF480720A6057
:103B200006E0C0B2032803D103494FF400720A60D3
:103B300070470000001C0140101C014010B582B00D
:103B4000FFF78CFF00F0B1F86C4800F025F96C48E5
:103B500000F022F96B4800F01FF9FFF71DFAFFF79C
:103B600090FFFFF79FF80400E4B2002CF7D0E4B216
:103B7000200001282AD004282ED0872846D0882863
:103B800068D089284AD08C2858D08D2852D09528C2
:103B900040D0962846D0982854D0992846D09C28C2
:103BA0005CD0C0282AD0C22860D0C3282AD0C4281C
:103BB00020D0C52816D0C72818D0CA285ED0D22851
:103BC00058D0DA284ED0DE2840D05BE0FFF7E4F989
:103BD0004D4800F0E1F8C2E7FFF74FFA4B4800F01C
:103BE000DBF8BCE74A4800F0D7F8B8E7494800F0EE
:103BF000D3F8B4E7484800F0CFF8B0E7474800F002
:103C0000CBF8ACE7464800F0C7F8A8E7454800F015
:103C1000C3F8A4E7444800F0BFF8A0E7434800F029
:103C2000BBF89CE7424800F0B7F898E7414800F03D
:103C3000B3F894E7404800F0AFF890E73F4800F051
:103C4000ABF88CE73E4800F0A7F888E73D4800F065
:103C5000A3F884E73C4800F09FF880E73B4800F079
:103C60009BF87CE73A4800F097F878E7394800F08D
:103C700093F874E7384800F08FF870E7374800F0A1
:103C80008BF86CE7E4B2802C0ED3354800F084F852
:103C9000344880790090334843793248027931487A
:103CA000C178314800F078F859E780B52F4800F026
:103CB00073F82F492F4800F06FF80FA12E4800F03D
:103CC0006BF82E492E4800F067F8012306220321E5
:103CD0002C4800F061F82C4800F05EF82B4800F00A
:103CE0005BF82B4800F058F82A4800F055F81F48B8
:103CF00000F052F801BD0000312E300038400008BD
:103D000058400008784000087C41000890410008B5
:103D1000F0410008FC410008084200085042000839
:103D20001442000820420008584200082C420008B3
:103D300060420008684200087042000878420008AB
:103D4000804200088842000890420008984200081B
:103D5000A0420008A8420008B0420008B84200088B
:103D6000B4400008FC1A0020CC400008143F0008B2
:103D7000E4400008A4410008B841000838420008A7
:103D8000CC410008543F0008C0420008FC40000835
:103D900098400008EC3F00080EB400B582B003A9BB
:103DA000009100AB02460121034878440A30FCF739
:103DB000BFF906BC5DF810FBA103000080B54E48BA
:103DC000006850F001004C4908604C4800684C49BC
:103DD00008404A490860484800684A49084046493E
:103DE00008604548006830F4802043490860434833
:103DF000006830F4FE004149086043485FF41F0149
:103E0000016000F005F841485FF00061016001BD0C
:103E100080B500F001F801BD82B0002001900020C3
:103E200000903548006850F48030334908603248CB
:103E3000006810F4003000900198401C0190009838
:103E4000002803D10198B0F5A06FF0D12A4800688E
:103E5000800302D50120009001E00020009000982E
:103E6000012847D12A48006850F01000284908600E
:103E700027480068800880002549086024480068B9
:103E800050F00200224908601C481C490968016082
:103E90001A481A49096801601848006850F480609F
:103EA000164908601548006830F47C101349086012
:103EB0001248006850F4E810104908600E48006885
:103EC00050F080700C4908600B4800688001FBD5F9
:103ED0000A480068800880000849086007480068B0
:103EE00050F00200054908600448006810F00C001A
:103EF0000828F9D102B070470010024004100240B7
:103F00000000FFF8FFFFF6FE0810024008ED00E099
:103F1000002002402A2A2A2A2A2A2A2A2A2A2A2A47
:103F20002A2A2A2A2A2A2A2A2A2A2A2A2A2A2A2AF1
:103F30002A2A2A2A2A2A2A2A2A2A2A2A2A2A2A2AE1
:103F40002A2A2A2A2A2A2A2A2A2A2A2A2A2A2A2AD1
:103F50002A0A0D002A20B9CCBCFEBFE2B0E6B1BEF1
:103F6000203A205625642E25642E2564202853549B
:103F70004D3332463130785F5374645065726970E6
:103F8000685F447269766572290D0A0070470849B6
:103F900009684FF480725140054A11600021080001
:103FA00042F2107180B28842F1D2401CF8E7000062
:103FB0000C080140FEE7FEE7FEE7704770477047D8
:103FC00010B5084979441C31074C7C441A34A1428D
:103FD00006D0081D0A68511888470146A142F8D149
:103FE00010BD00BF30000000500000002A20436FC9
:103FF00070797269676874207777772E61726D6661
:104000006C792E636F6D20B0B2B8BBC0B3B5E7D783
:10401000D30D0A002BD2FFFF8C1A0000A80000204D
:1040200000000000D7D1FFFFA8000000B00300008F
:104030000000002000000000C7EBB2D9D7F7BAECAF
:10404000CDE2D2A3BFD8C6F7A3ACB9DBB2ECBCFCBF
:10405000D6B50D0A0000000020D6F7B0E54B31BC04
:10406000FC203D20BFAACABCBDE2C2EBBAECCDE247
:10407000D0C5BAC50D0A000020D6F7B0E54B32BC5A
:10408000FC203D20CDA3D6B9BDE2C2EBBAECCDE217
:10409000D0C5BAC50D0A00002A20456D61696C20A3
:1040A0003A2061726D666C794071712E636F6D207C
:1040B0000D0A0000495220CEDEB7A8CAB6B1F0B54D
:1040C000C4D2A3BFD8B0B4BCFC0D0A00253032580E
:1040D0002025303258202530325820253032580DD6
:1040E0000A00000056342D3132385FBAECCDE2D2EE
:1040F000A3BFD8C6F7C0FDB3CC0000002A205151A1
:10410000202020203A2031323935373434363330CC
:10411000200D0A0000F009F8002801D0FFF750FF39
:104120000020FFF70BFD00F002F80120704700F0BF
:1041300001B800000746FDF795FE384600F002F88A
:10414000FBE7000080B5C046C046024A11001820B7
:10415000ABBEFBE72600020038B504460D462846F4
:1041600000F006F8A84218BF0024204632BD000027
:104170000149FEF77FBA00BF500000204B3120BF3D
:10418000AACABCBAECCDE2BDE2C2EB0D0A00000047
:104190004B3120CDA3D6B9BAECCDE2BDE2C2EB0DD6
:1041A0000A0000002A20C0FDB3CCC3FBB3C6202008
:1041B000203A2025730D0A002A20C0FDB3CCB0E6BA
:1041C000B1BE2020203A2025730D0A002A20B7A274
:1041D000B2BCC8D5C6DA2020203A2025730D0A00CB
:1041E0000148804701480047BD3D0008454200089E
:1041F000495220506F7765720D0A00004952204DD8
:10420000656E750D0A000000495220546573740DE7
:104210000A00000049522052657475726E0D0A0042
:104220004952204C6566740D0A0000004952205224
:10423000696768740D0A0000323031352D30382D31
:1042400033300000C046C046C046C046FFF762FF9C
:104250004952202B0D0A00004952204F6B0D0A00D5
:10426000495220300D0A00004952202D0D0A00004D
:10427000495220430D0A0000495220310D0A000026
:10428000495220320D0A0000495220330D0A000025
:10429000495220340D0A0000495220350D0A000011
:1042A000495220360D0A0000495220370D0A0000FD
:1042B000495220380D0A0000495220390D0A0000E9
:1042C0002A200A0D00000000FFF760BEFFF75FBE66
:1042D000FFF770BEFFF76FBEFFF76EBEFFF76DBE54
:1042E000FFF76CBEFFF76BBEFFF708BBFFF7FEBF23
:1042F000FFF7FEBFFFF7FEBFFFF7FEBFFFF7FEBFF2
:10430000FFF7FEBFFFF7FEBFFFF7FEBFFFF7FEBFE1
:10431000FFF7FEBFFFF7FEBFFFF7FEBFFFF7FEBFD1
:10432000FFF7FEBFFFF7FEBFFFF7FEBFFFF7FEBFC1
:10433000FFF7FEBFFFF7FEBFFFF7FEBFFFF7FEBFB1
:10434000FFF7FEBFFFF7FEBFFFF7FEBFFFF7FEBFA1
:10435000FFF7FEBFFFF7FEBFFFF7FEBFFFF707BB8C
:10436000FEF76CBFFFF7FEBFFFF7FEBFFFF7FEBF14
:10437000FFF7FEBFFFF7FEBFFFF7FEBFFFF7FEBF71
:10438000FEF74BB9FEF74EB9FEF751B9FFF7FEBF86
:10439000FFF7FEBFFFF7FEBFFFF7FEBFFFF7FEBF51
:1043A000FFF7FEBFFFF7FEBFFFF7FEBFFFF7FEBF41
:1043B000FFF7FEBFFFF7FEBFFFF7FEBFFFF7FEBF31
:1043C000FFF7FEBFFFF7FEBFFFF7FEBFFFF7FEBF21
:1043D000FFF7FEBFFFF7FEBFFFF7FEBF00000000C4
:1043E00000000000000000000000000000000000CD
:1043F0000000000000000000FFFFFFFFFFFFFFFFC5
:1044000000000000000000000000000000000000AC
:10441000000000000000000000000000000000009C
:1044200000000000FFFFFFFFFFFF0000020401018A
:10443000BC1900200C1A0020BC190020BC19002057
:10444000BC1900208D000020740000200000000036
:10445000000000000000000000000000000000005C
:10446000000000000000000000000000000000004C
:1044700001020304010203040607080902040608F6
:0444800000A24A0448
:040000050800424568
:00000001FF
