:020000040800F2
:10000000B899002045010008D5090008CD03000873
:10001000D10900082F02000899180008000000000C
:10002000000000000000000000000000050D0008B6
:10003000B702000800000000610A0008D90D00089E
:100040005F0100085F0100085F0100085F01000810
:100050005F0100085F0100085F0100085F01000800
:100060005F0100085F0100085F0100085F010008F0
:100070005F0100085F0100085F0100085F010008E0
:100080005F0100085F0100085F0100085F010008D0
:100090005F0100085F0100085F0100085F010008C0
:1000A0005F0100085F0100085F0100085F010008B0
:1000B000E5100008811100085F0100085F010008D9
:1000C0005F0100085F0100085F0100085F01000890
:1000D0005F010008AD140008BD140008CD1400082D
:1000E0005F0100085F0100085F0100085F01000870
:1000F0005F0100085F0100085F0100085F01000860
:100100005F0100085F0100085F0100085F0100084F
:100110005F0100085F0100085F0100085F0100083F
:100120005F0100085F0100085F0100085F0100082F
:10013000DFF80CD000F04AF800480047C121000861
:10014000B89900200648804706480047FEE7FEE7CA
:10015000FEE7FEE7FEE7FEE7FEE7FEE7FEE7FEE777
:10016000650E0008310100082DE9F05F054600200A
:1001700092469B4688460646814640241BE0284618
:1001800041464746224600F042F852465B46801AF6
:10019000994110D310461946224600F029F82D1A2D
:1001A00067EB01084F4622460120002100F020F8AD
:1001B00017EB00094E41201EA4F10104DFDC484684
:1001C00031462A464346BDE8F09F0000064C074DE5
:1001D00006E0E06840F0010394E807009847103417
:1001E000AC42F6D3FFF7A8FFB0240008D0240008E3
:1001F000202A04DB203A00FA02F1002070479140E7
:10020000C2F1200320FA03F3194390407047202ADB
:1002100004DB203A21FA02F00021704721FA02F3B0
:10022000D040C2F12002914008431946704700BFF8
:10023000FEE70000014609B909487047012901D1CC
:100240000848FAE7022901D10748F6E7032901D156
:100250000020F2E7042901D10020EEE70020ECE7BE
:10026000340100205C0900208411002008B52520FD
:100270008DF8000000208DF8020001208DF80300A9
:10028000684600F0A9FB26208DF8000001208DF8BB
:1002900002008DF80300684600F09EFB27208DF8D1
:1002A000000002208DF8020001208DF8030068464E
:1002B00000F092FB08BD70472DE9F0410246002591
:1002C0000026002000230024002791F803C00CF032
:1002D0000F0591F803C01CF0100F03D091F802C075
:1002E0004CEA0505B1F800C01CF0FF0F31D01468CE
:1002F00000202BE04FF0010C0CFA00F3B1F800C025
:100300000CEA03069E4220D183004FF00F0C0CFA3A
:1003100003F7BC4305FA03FC4CEA040491F803C05C
:10032000BCF1280F06D14FF0010C0CFA00FCC2F80A
:1003300014C00AE091F803C0BCF1480F05D14FF09A
:10034000010C0CFA00FCC2F810C0401C0828D1D3E4
:100350001460B1F800C0BCF1FF0F34DD5468002018
:100360002EE000F1080C4FF0010808FA0CF3B1F888
:1003700000C00CEA03069E4221D183004FF00F0C0F
:100380000CFA03F7BC4305FA03FC4CEA040491F8A9
:1003900003C0BCF1280F05D100F1080C08FA0CF8D5
:1003A000C2F8148091F803C0BCF1480F07D100F1E6
:1003B000080C4FF0010808FA0CF8C2F81080401C35
:1003C0000828CED35460BDE8F08100000EE0084953
:1003D000096881F48071064A1160002001E0411C27
:1003E00088B242F210718842F9DB00BFEFE70000EB
:1003F0000C08014070B5044600BF6148807830B1F8
:10040000012823D0022847D003281ED153E0B4F599
:100410002F7F0CDD40F24C40844208DA012058491D
:100420008870002057490870574908700DE05748F8
:10043000007818B901205549087006E05348007843
:10044000012802D102205149087096E0B4F59D7F41
:1004500006DBB4F5167F03DA0220494988701AE0FA
:10046000962C15DDFA2C13DA4548C0790A2806DBEC
:10047000434949798031C8B201F056FE04E0404852
:10048000C079401C3E49C87100203D49887002E097
:1004900000203B49887070E00A2C07DD642C05DAE7
:1004A0000320374988703A48048003E0002034492B
:1004B0008870A2E761E036480088204485B2314860
:1004C000007840102F4908705C2D01DD842D0DDB74
:1004D000CD2D07DDF52D05DA2A4800788030294931
:1004E000087003E000202649887086E726480078D7
:1004F000401C2549087008460078082807D1214883
:1005000000781F49C87000201E49087031E01E485D
:100510000078102807D11B48017819480171002084
:100520001849087025E018480078182807D11548A0
:1005300001781348417100201249087019E01248EF
:100540000078202815D10F4801780D488171417934
:1005500080790844FF2808D1094949798031C8B217
:1005600001F0E2FD00200649C871002004498870AE
:1005700003E002200249887000BF00BF70BD000088
:10058000AC190020220000202300002024000020BD
:100590002000002010B588B00121022000F028FBC7
:1005A0000121082000F034FB03208DF81E000420F8
:1005B0008DF81F000120ADF81C0007A92548FFF7A2
:1005C0007BFE1D208DF8180000208DF819000120F9
:1005D0008DF81A008DF81B0006A800F0FDF940F216
:1005E000CF244FF6FF70ADF81000ADF80C4000209E
:1005F000ADF81200ADF80E008DF8140003A91648EE
:1006000000F002FF0820ADF800000220ADF8020063
:100610000120ADF804000020ADF80600ADF8080098
:1006200069460D4800F066FE01210B4800F041FECE
:1006300001220821084800F0B3FE012211460648B5
:1006400000F0AEFE00200549088088700120087285
:1006500008B010BD000C014000040040AC1900209F
:1006600010B50021044800F024FE002208210248B1
:1006700000F096FE10BD00000004004000B585B0FB
:100680000121052000F0C4FA0121880300F0C0FA1E
:100690004FF40070ADF8100018208DF813000320FF
:1006A0008DF8120004A96648FFF706FE4FF480603B
:1006B000ADF8100004208DF8130004A96048FFF77E
:1006C000FBFD4FF4E13000900020ADF80400ADF8E0
:1006D0000600ADF80800ADF80C000C20ADF80A00DB
:1006E0006946584800F05EFF012240F22551554806
:1006F00000F033FF0121534800F0F9FE402151483A
:1007000000F0ECFE0121052000F082FA01214804EE
:1007100000F06EFA0420ADF8100018208DF81300D8
:1007200003208DF8120004A94548FFF7C5FD0820F5
:10073000ADF8100004208DF8130004A94048FFF71D
:10074000BBFD04A93E48FFF7B7FD4FF4E130009030
:100750000020ADF80400ADF80600ADF80800ADF8D3
:100760000C000C20ADF80A006946374800F01AFF6B
:10077000012240F22551344800F0EFFE01213248B9
:1007800000F0B5FE4021304800F0A8FE012108200D
:1007900000F03EFA10208DF8130003208DF81200AF
:1007A0000420ADF8100004A92848FFF785FD0121B9
:1007B000092000F02DFA0121880400F019FA4FF405
:1007C0008060ADF8100018208DF8130003208DF81C
:1007D000120004A91D48FFF76FFD4FF40060ADF84B
:1007E000100004208DF8130004A91848FFF764FDD9
:1007F00004A91648FFF760FD4FF416500090002042
:10080000ADF80400ADF80600ADF80800ADF80C0036
:100810000C20ADF80A0069460D4800F0C3FE012225
:1008200040F225510A4800F098FE0121084800F0E6
:100830005EFE4021064800F051FE05B000BD0000FC
:10084000000801400038014000440040000C014015
:10085000004800400948806810F4005F0BD1084848
:10086000006810F0010F06D10648806810F4807F00
:1008700001D0012070470020FCE70000001001407B
:1008800008080140002001400948806810F4005F1A
:100890000BD00848006810F0010F06D006488068A9
:1008A00010F4807F01D1012070470020FCE7000098
:1008B00000100140080801400020014009488068FC
:1008C00010F4005F0BD00848006810F0010F06D04C
:1008D0000648806810F4807F01D001207047002016
:1008E000FCE7000000100140080801400020014022
:1008F0000948806810F4005F0BD00848006810F0C9
:10090000010F06D10648806810F4807F01D10120D4
:1009100070470020FCE7000000100140080801407B
:10092000002001400448806810F4004F01D10120EC
:1009300070470020FCE700000020014004480068E8
:1009400010F0080F01D1012070470020FCE70000E3
:10095000081401400448806810F4804F01D1012040
:1009600070470020FCE70000002001400448806838
:1009700010F4005F01D1012070470020FCE7000067
:10098000002001400448806810F0800F01D1012050
:1009900070470020FCE70000002001400948806803
:1009A00010F4005F0BD10848006810F0010F06D06A
:1009B0000648806810F4807F01D001207047002035
:1009C000FCE7000000100140080801400020014041
:1009D00000BFFEE77047000070B5002100230F2222
:1009E000C4780CB3164C246804F4E064C4F5E064E5
:1009F000210AC1F10403CA40447804FA03F184785F
:100A00001440214309010F4C0678A155047804F0E5
:100A10001F050124AC4005786D114FF0E02606EB70
:100A20008505C5F8004109E0047804F01F0501249C
:100A3000AC40054D0678761145F8264070BD0000A3
:100A40000CED00E000E400E080E100E00249014339
:100A5000024A1160704700000000FA050CED00E04A
:100A60007047000010B512A000F018FF20A126A0CA
:100A700000F014FF29A12AA000F010FF2DA130A042
:100A800000F00CFF01230622032132A000F006FF34
:100A90003EA000F003FF3FA000F000FF43A000F0E5
:100AA000FDFE49A000F0FAFE01A000F0F7FE10BD27
:100AB0002A2A2A2A2A2A2A2A2A2A2A2A2A2A2A2A96
:100AC0002A2A2A2A2A2A2A2A2A2A2A2A2A2A2A2A86
:100AD0002A2A2A2A2A2A2A2A2A2A2A2A2A2A2A2A76
:100AE0002A2A2A2A2A2A2A2A2A2A2A2A2A0A0D00CD
:100AF00056342D3132385FBAECCDE2D2A3BFD8C61E
:100B0000F7C0FDB3CC0000002A20C0FDB3CCC3FB6E
:100B1000B3C62020203A2025730D0A00312E300064
:100B20002A20C0FDB3CCB0E6B1BE2020203A20255B
:100B3000730D0A00323031352D30382D333000003E
:100B40002A20B7A2B2BCC8D5C6DA2020203A202578
:100B5000730D0A002A20B9CCBCFEBFE2B0E6B1BEDC
:100B6000203A205625642E25642E256420285354CF
:100B70004D3332463130785F53746450657269701A
:100B8000685F447269766572290D0A002A200A0D91
:100B9000000000002A205151202020203A2031322C
:100BA0003935373434363330200D0A002A20456D6C
:100BB00061696C203A2061726D666C794071712EAA
:100BC000636F6D200D0A00002A20436F70797269EF
:100BD000676874207777772E61726D666C792E6303
:100BE0006F6D20B0B2B8BBC0B3B5E7D7D30D0A0064
:100BF00029B1064AD2690243044BDA6104E0034A90
:100C0000D2698243014BDA61704700000010024054
:100C100029B1064A92690243044B9A6104E0034AEF
:100C200092698243014B9A617047000000100240B4
:100C300030B500210022002400232D4D6D6805F001
:100C40000C0121B1042905D0082923D105E0294D43
:100C5000056022E0274D05601FE0254D6D6805F415
:100C60007012234D6D6805F48034022505EB924225
:100C70001CB9214D554305600BE01D4D6D6815F401
:100C8000003F03D01C4D5543056002E0194D55430C
:100C9000056002E0174D056000BF00BF144D6D6890
:100CA00005F0F0010909154D6B5C0568DD404560F4
:100CB0000F4D6D6805F4E061090A104D6B5C4568E5
:100CC000DD4085600A4D6D6805F46051C90A0B4D21
:100CD0006B5C4568DD40C560054D6D6805F44041BD
:100CE000890B074D6B5CC568B5FBF3F5056130BD3D
:100CF0000010024000127A0000093D00250000208B
:100D000035000020704710B500F002F810BD00005B
:100D1000002100202E4A126842F480322C4B1A60C7
:100D200000BF2B4A126802F40030491C10B9B1F51B
:100D3000A06FF6D1264A126812F4003F01D00120BC
:100D400000E00020012842D1224A126842F010023D
:100D5000204B1A601A46126822F003021A601A46E3
:100D6000126842F002021A60194A5268184B5A601F
:100D70001A4652685A601A46526842F480625A60B3
:100D80001A46526822F47C125A601A46526842F49B
:100D9000E8125A601A46126842F080721A6000BF68
:100DA0000B4A126812F0007FFAD0094A526822F00A
:100DB0000302074B5A601A46526842F002025A6018
:100DC00000BF034A526802F00C02082AF9D17047AA
:100DD000001002400020024010B500F001F810BDE4
:100DE00010B51B48006840B119480068401E1849FA
:100DF000086002D1012017490870002408E004EBC4
:100E00004401154A02EB810001F0A3F9601CC4B251
:100E1000042CF4DB11480068401C104908600846A7
:100E200000686FF00041884202D100200B49086041
:100E300001F08EF90A480078401CC0B208490870D9
:100E40000A2803DB0020087001F07EF910BD0000C5
:100E50000000002004000020040100200800002001
:100E60000C00002010B51348006840F00100114943
:100E7000086008464068104908400E494860084626
:100E800000680E4908400B4908600846006820F4D5
:100E9000802008600846406820F4FE0048604FF457
:100EA0001F008860FFF72FFF4FF0006004490860C3
:100EB00010BD0000001002400000FFF8FFFFF6FE2A
:100EC00008ED00E0F0B50C46154600220021068C26
:100ED0004FF6FE773E400684028B018C4FF60C766F
:100EE00032401E0545EA16463243114EB0420ED03E
:100EF000104EB0420BD0B0F1804F08D00E4EB04231
:100F000005D00E4EB04202D00D4EB04206D14FF683
:100F1000FD76314044F00106314305E04FF6F576A9
:100F2000314044F00106314302830184F0BD0000EA
:100F3000002C014000340140000400400008004043
:100F4000000C0040F0B50C4615460022002100269A
:100F5000078C4FF6EF7C07EA0C070784028B018CA5
:100F600027053E0C40F6FF473A401F0742EA17426A
:100F70002F0642EA1742114FB8420ED0104FB84226
:100F80000BD0B0F1804F08D00E4FB84205D00E4FB5
:100F9000B84202D00D4FB84206D14FF6DF77394044
:100FA00046F01007394305E04FF65F77394044F0CB
:100FB0001007394302830184F0BD0000002C01407A
:100FC000003401400004004000080040000C0040D4
:100FD000F0B50C461546002200210026078C4FF67E
:100FE000FF6C07EA0C070784828B018C27063E0CF6
:100FF0004FF60C773A401F0545EA17473A43114F21
:10100000B8420ED0104FB8420BD0B0F1804F08D08C
:101010000E4FB84205D00E4FB84202D00D4FB84225
:1010200006D14FF6FF57394046F48077394305E043
:101030004FF2FF57394044F480773943828301846B
:10104000F0BD0000002C01400034014000040040CD
:1010500000080040000C0040F0B50C461546002288
:1010600000210026078C4EF6FF7C07EA0C07078458
:10107000828B018C27073E0C40F6FF473A402F0633
:1010800042EA17421F0742EA1742114FB8420ED0F8
:10109000104FB8420BD0B0F1804F08D00E4FB8427D
:1010A00005D00E4FB84202D00D4FB84206D14DF6D2
:1010B000FF77394046F48057394305E047F6FF573C
:1010C000394044F48057394382830184F0BD0000E5
:1010D000002C0140003401400004004000080040A2
:1010E000000C004010B50221480700F0F1F858B19B
:1010F0000221480700F0DAF800220221480700F038
:101100004FF91B48006880470421080700F0E0F809
:1011100058B10421080700F0C9F80022042108078B
:1011200000F03EF91348006880470821C80600F027
:10113000CFF858B10821C80600F0B8F800220821FD
:10114000C80600F02DF90C48006880471021880679
:1011500000F0BEF858B11021880600F0A7F8002270
:101160001021880600F01CF904480068804710BD73
:101170001000002014000020180000201C00002097
:101180003EB50121474800F0A3F830B3012145489E
:1011900000F08CF84448408902281EDA4248408911
:1011A000401C80B240494881022816D10820ADF881
:1011B00000000220ADF802000120ADF8040000207C
:1011C000ADF80600ADF808006946364800F092F820
:1011D000012035490872002088700821314800F04C
:1011E00077F800285BD008212E4800F05FF8002037
:1011F0002D4948812B4800F068F804462A48007AB7
:10120000A8B90820ADF800000220ADF802000120C6
:10121000ADF804000020ADF80600ADF808006946FE
:10122000204800F067F801201F49087215E00820E7
:10123000ADF800000020ADF802000120ADF8040078
:101240000020ADF80600ADF808006946154800F02A
:1012500051F800201449087200BF13480088A042CA
:1012600004DC11480088201A85B20AE00E48008884
:10127000A04206DD0C4800884FF6FF71081A204492
:1012800085B20948807828B90748008810B906480F
:1012900004803EBD044804802846FFF7ABF800BF39
:1012A000F7E7000000040040AC190020CA430282A6
:1012B000704721B1028842F00102028004E00288F6
:1012C0004FF6FE731A40028070470146888F7047C0
:1012D00030B50246002000230024158A05EA0103E8
:1012E000958905EA010413B10CB1012000E000204A
:1012F00030BD000070B505460C46244885420ED02E
:10130000234885420BD0B5F1804F08D02148854253
:1013100005D02148854202D02048854200D100E016
:1013200000BF208850B92389A28861882846FFF72A
:10133000C9FDE188284600F03FF825E02088042810
:101340000AD12389A28861882846FFF7FBFDE1883E
:10135000284600F03AF817E0208808280AD12389A7
:10136000A28861882846FFF733FEE188284600F00E
:1013700037F809E02389A28861882846FFF76CFEC8
:10138000E188284600F035F870BD0000002C0140CF
:10139000003401400004004000080040000C004000
:1013A00010B51AB183890B43838104E08389CC4350
:1013B000A4B22340838110BD028B4FF6F3731A4011
:1013C0000283028B0A4302837047028B4FF2FF3382
:1013D0001A400283028B0B0642EA134202837047D3
:1013E000828B4FF6F3731A408283828B0A43828387
:1013F0007047828B4FF2FF331A408283828B0B0639
:1014000042EA134282837047002202881D4B9842B1
:101410000ED01D4B98420BD0B0F1804F08D01B4B23
:10142000984205D01A4B984202D01A4B984204D1E8
:101430004FF68F731A404B881A43174B984207D0C8
:10144000164B984204D04FF6FF431A40CB881A43FC
:1014500002808B8883850B8803850A4B98420BD0CA
:10146000094B984208D00E4B984205D00D4B98423C
:1014700002D00D4B984201D10B7A0386012383825F
:1014800070470000002C014000340140000400407F
:1014900000080040000C0040001000400014004014
:1014A00000400140004401400048014010B502489E
:1014B00000F0EDF810BD00003401002010B5024826
:1014C00000F0E5F810BD00005C09002010B50248EE
:1014D00000F0DDF810BD00008411002001F400725E
:1014E000B2F5007F00D100BFCA430280704721B12E
:1014F000828942F40052828104E082894DF6FF73B2
:101500001A408281704770B50246002400230025EE
:101510000020A1F510666A3E00D100BFC1F342155C
:1015200001F01F03012606FA03F3012D02D196896B
:10153000334006E0022D02D1168A334001E0968A3C
:1015400033400C12012606FA04F41688344013B115
:101550000CB1012000E0002070BDF0B5034600246E
:10156000002600250020A1F510676A3F00D100BFCA
:101570001846C1F3421401F01F06012707FA06F5C9
:10158000012C01D10C3004E0022C01D1103000E01C
:1015900014301AB107682F43076002E00768AF43B1
:1015A0000760F0BD2DE9F04786B005460E460024E1
:1015B000A24600BFA1460027B08900B100BF2F4658
:1015C0002C8A4CF6FF700440F08804432C82AC89CE
:1015D0004EF6F3100440B0883189084371890843FE
:1015E0000443AC81AC8A4FF6FF400440B089044309
:1015F000AC8201A8FFF71CFB1F48874202D1DDF82F
:1016000010A001E0DDF80CA0A88910F4004F08D06C
:101610000AEBCA0000EB0A1031684900B0FBF1F890
:1016200007E00AEBCA0000EB0A1031688900B0FB42
:10163000F1F86420B8FBF0F004012009642101FBFB
:101640001089A88910F4004F08D0322000EBC9009F
:10165000B0FBF1F000F00700044308E0322000EB9B
:1016600009106421B0FBF1F000F00F0004432C815D
:1016700006B0BDE8F08700000038014001468888C8
:10168000C0F308007047C1F308028280704770B54C
:10169000044640F225512068FFF735FFE0B120688D
:1016A000FFF7ECFFC5B2E18AA0684554E08A401C10
:1016B00080B2E082E189884201DB0020E082608B19
:1016C000E189884202DA608B401C6083606A10B155
:1016D0002846616A884700BF40F227712068FFF7FB
:1016E00012FF08B3A08A60B9002240F22771206877
:1016F000FFF733FF012240F226612068FFF72DFF3C
:1017000037E0638A6268D15C2068FFF7BCFF608ABB
:10171000401C80B26082A189884201DB0020608287
:10172000A08A401EA08224E040F226612068FFF7D4
:10173000EAFEF0B1A08A50B9002240F2266120688A
:10174000FFF70BFF206AA0B1206A804711E0638A8F
:101750006268D15C2068FFF796FF608A401C80B207
:101760006082A189884201DB00206082A08A401E3D
:10177000A08270BD2DE9F04104460E4617460025B3
:1017800027E00CE0012000F0A8F8B4F81480002055
:1017900000F0A3F8A089404500DD01E000BFF1E7BB
:1017A00000BF705D228A61688854012000F095F8BE
:1017B000208A401C80B22082A189884201DB00205F
:1017C0002082A08A401CA082002000F086F8681CBD
:1017D00085B2BD42D5DB012240F227712068FFF7B8
:1017E000BCFEBDE8F08100001F4820490860204889
:1017F0004860204888604FF480608881C88100205C
:1018000008824882C882088348838882C861086247
:1018100048621948194908601948486019488860A1
:101820004FF480608881C881002008824882C88285
:10183000088348838882C861086248621248134955
:10184000086013484860134888604FF480608881BE
:10185000C881002008824882C88208834883888221
:10186000C8610862486270470038014034010020B6
:101870005C0100205C050020004400405C09002061
:1018800084090020840D00200048004084110020BD
:10189000AC110020AC15002000BFFEE70FB4054BD3
:1018A00010B503A9044A029800F01AF810BC5DF8BC
:1018B00014FB0000AD2100085000002002E008C821
:1018C000121F08C1002AFAD170477047002001E0BA
:1018D00001C1121F002AFBD1704780F310887047A6
:1018E0002DE9FF4F8DB005460F460026E9E125287A
:1018F00079D100246D1CF74AA246A14601212B781C
:10190000203B01FA03F0104202D004436D1CF6E7BD
:1019100028782A2810D06FF02F022878A0F1300103
:10192000092915D80AEB8A0102EB410144F00204AF
:1019300000EB010A6D1CF0E757F804ABBAF1000F99
:1019400003DA44F40054CAF1000A44F002046D1CA6
:1019500028782E2817D115F8010F44F004042A28FE
:101960000ED06FF02F022878A0F1300109290AD893
:1019700009EB890102EB410100EB01096D1CF2E763
:1019800057F8049B6D1C28786C280FD006DC4C2877
:1019900017D068280DD06A2814D104E0742810D01C
:1019A0007A280FD10DE044F400140AE044F48014C6
:1019B00001E044F440146978814202D16D1C04F5C1
:1019C00080146D1C95F800C0BCF16E0F2AD012DC9B
:1019D000BCF1630F3CD007DCBCF1000F76D0BCF14A
:1019E000580F19D1A7E018E0BCF1640F6FD0BCF11B
:1019F000690F11D16BE0BCF1730F32D006DCBCF182
:101A00006F0F71D0BCF1700F06D196E0BCF1750F6D
:101A10006BD0BCF1780F69D06046DDE90F129047BA
:101A2000761C4DE1C4F30250022806D003280AD0E8
:101A3000042801CF0AD0066042E101CF4FEAE671E7
:101A4000C0E900613CE101CF068039E1067037E171
:101A500001CF8DF8000000208DF80100EB46012039
:101A600003E057F804BB4FF0FF3061074FF000016F
:101A700002D40DE008F10101884649450FDA80459E
:101A8000F8DB1BF808100029F4D108E008F1010187
:101A900088468142FADB1BF808100029F6D1DDE9FF
:101AA0000F23AAEB08008146214600F03CF93044A0
:101AB00000EB080604E0DDE90F121BF8010B90476C
:101AC000B8F10108F7D221464846F4E0FDE00A21CA
:101AD000C4F302524FF0000B0891022A07D001CF45
:101AE000C117032A09D00AE030E022E023E0FF1DFD
:101AF00027F00707F7E8020105E000B2C117042A42
:101B000001D140B2C117002906DA0023D0EB03004F
:101B100063EB01012D2202E0220504D52B228DF872
:101B20002420012203E0E20701D02022F7E79046BB
:101B30004EE00A210BE0102109E010214FF0000BCC
:101B400044F004044FF00809089103E008214FF025
:101B5000000B0891C4F30252022A04D001CF0021E5
:101B6000032A06D007E0FF1D27F00707F7E8020168
:101B700005E080B20021042A01D1C0B200214FF05B
:101B80000008220724D5BCF1700F29D0089B83F0F0
:101B9000100353EA0B0309D150EA010206D03022A8
:101BA0008DF824208DF825C002229046089B83F0F2
:101BB000080353EA0B030BD150EA010201D162077B
:101BC00006D530228DF824204FF00108A9F1010933
:101BD000BCF1580F09D040A20B9208AA0A9211E05A
:101BE00040228DF824200122DFE740A2F4E75B4683
:101BF000089AFEF7B9FA0B9B9B5C0A9AA2F10102C4
:101C00000A92137050EA0102F1D10A98ADEB00007C
:101C100000F1200B600702D524F4803401E04FF07E
:101C20000109D94502DDA9EB0B0000E0002000EB23
:101C30000B0141440890AAEB01000B90E00306D48D
:101C4000DDE90F2321460B9800F06DF806444FF0B4
:101C500000090DF1240A07E0DDE90F121AF8090066
:101C60009047761C09F10109C145F5DBE0030CD56D
:101C7000DDE90F2321460B9800F055F8064404E0F7
:101C8000DDE90F1230209047761C0899481E089015
:101C90000029F5DC08E00A980A990078491C0A91A5
:101CA000DDE90F129047761CBBF10001ABF1010B8F
:101CB000F1DC0B982146DDE90F2300F021F8064402
:101CC0006D1C287800287FF412AE11B03046BDE8B4
:101CD000F08F0000092801003031323334353637B7
:101CE0003839616263646566000000003031323368
:101CF0003435363738394142434445460000000008
:101D00002DE9F0410446002517461E46880405D4F7
:101D100006E039462020B04705F10105641EF8D5DC
:101D20002846BDE8F0812DE9F041044600259046A3
:101D30001E46C80301D5302700E02027880405D5BA
:101D400006E041463846B04705F10105641EF8D566
:101D50002846BDE8F081000070B50546304800EB2C
:101D600005142068804700283ED02079052802DA33
:101D70000520207152E020790A2803DA2079401CDE
:101D800020714BE0A07A38B90120A07205EB450123
:101D9000491CC8B200F0C8F9208900283EDDE0885F
:101DA000218988420DDAE088401C80B2E0802189D8
:101DB000884233D105EB4501C91CC8B200F0B4F923
:101DC0002CE0E07A002829DD207B401CC0B2207383
:101DD000E17A884222DB0020207305EB4501491C93
:101DE000C8B200F0A1F919E02079052802DD05202C
:101DF000207110E0207918B12079401E20710AE08E
:101E0000A07A012807D10020A07205EB4501891CAA
:101E1000C8B200F089F90020E080207370BD000096
:101E2000540000200B48807A0A4AD27A904201D1AD
:101E3000002070470748807A064A115C1046807A75
:101E4000401CC0B290720A2801DB00209072084644
:101E5000EFE70000F4000020704710B54FF4407029
:101E6000FEF7F4FD00F04CF900F038F800F0F8F857
:101E700010BD00007FB501210846FEF7B9FE1548E8
:101E8000006846081448B6FBF0F085B24FF6FF74C0
:101E9000ADF80840ADF804500020ADF80A00ADF8E8
:101EA000060001A94FF08040FFF7AEFA0121880734
:101EB000FFF7FFF91C208DF8000004208DF80100C9
:101EC00000208DF8020001208DF803006846FEF71F
:101ED00083FD7FBD3C00002040420F0010B500F0A4
:101EE00055F800F001F810BD08B501214FF49A70C3
:101EF000FEF78EFE03208DF8020004208DF803000B
:101F0000C002ADF8000069461C48FEF7D5F9012073
:101F1000ADF8000069461A48FEF7CEF94FF480701C
:101F2000ADF8000069461748FEF7C6F94FF40040C7
:101F3000ADF8000069461348FEF7BEF90820ADF879
:101F4000000069461048FEF7B7F94FF48040ADF83D
:101F5000000069460B48FEF7AFF94FF40050ADF8AA
:101F6000000069460748FEF7A7F98020ADF8000099
:101F700069460448FEF7A0F908BD000000100140C2
:101F80000008014000200140001401400021284ABF
:101F90009172D1721173002018E06421254A02EB7E
:101FA000001211810221234A02EB0012117100215B
:101FB000204A02EB001291721E4A02EB0012D1720B
:101FC0001C4A02EB00121173411CC8B20A28E4DB60
:101FD000642218490A87052281F83B206422A1F86F
:101FE0004820052281F84B206422A1F858200522C0
:101FF00081F85B206422A1F86820052281F86B201B
:102000000D490C4A11600D4911610D4911620D49CC
:1020100011630D4911640D4911650D4911660D4992
:1020200011670D49C2F880100C49C2F89010704732
:10203000F40000205400002055080008BD080008E6
:10204000F1080008250900083D09000855090008A5
:102050006D090008850900089D0900088908000825
:1020600070B5002416E0002004EB4401204A02EB86
:102070008101486004EB440102EB8101886004EBBC
:10208000440102EB8101487004EB440102F8210095
:10209000601CC4B2042CE6DB164800684FF47A7268
:1020A000B0FBF2F1B1F1807F00D31DE021F07F4061
:1020B000401E4FF0E022506150170F22002807DA2F
:1020C00013071E0E0C4B00F00F052D1F5E5503E08D
:1020D00013071D0E094B1D5400BF00204FF0E022D6
:1020E00090610720106100BFFFF7C4FE70BD0000C3
:1020F000040100203C00002018ED00E000E400E0B6
:1021000010B5FFF771FBFEF7B9FAFEF7AFF810BD97
:1021100010B5002404E02046FFF71EFE601CC4B288
:102120000A2CF8DB10BD00000649C97A054A505454
:102130001146C97A491CC9B2D1720A2901DB0021B2
:10214000D1727047F400002010B5FFF7E1FF10BD19
:102150007047416851B14168491E416006D1012173
:1021600041700178012901D18168416070472DE9F2
:10217000F04105460E4617462846FEF75BF8044632
:102180000CB9BDE8F081E06908B1E06980473A46E2
:1021900031462046FFF7EEFA00BFF2E713B50446DA
:1021A000012201A92046FFF7E2FF1CBD70B50446DD
:1021B0000D46E1B20020FFF7F1FF204670BD0000A0
:1021C00008B5FFF74AFEFEF74DFC5CA0FFF766FB83
:1021D00062A0FFF763FB69A0FFF760FBFEF7DAF987
:1021E000ABE0FFF739FEFFF71DFE0446002CF7D0E9
:1021F00020469C2C7CD01CDC8C2867D00CDC8728EB
:102200004CD004DC012829D0042868D12CE088288F
:102210006AD08928F9D149E096284BD004DC8D2872
:1022200050D0952878D13DE0982853D0992873D183
:1022300044E0C72822D008DCA0F1C00006286BD2F9
:10224000DFE800F0246A5E282018CA2860D0D2286F
:102250005AD0DA2850D0DE285ED141E0FEF79AF954
:102260004EA0FFF71BFB67E0FEF7FAF950A0FFF75F
:1022700015FB61E053A0FFF711FB5DE054A0FFF7F1
:102280000DFB59E055A0FFF709FB55E056A0FFF7FD
:1022900005FB51E056A0FFF701FB4DE057A0FFF70B
:1022A000FDFA49E058A0FFF7F9FA45E058A0FFF71A
:1022B000F5FA41E059A0FFF7F1FA3DE059A0FFF728
:1022C000EDFA39E059A0FFF7E9FA35E059A0FFF738
:1022D000E5FA31E059A0FFF7E1FA2DE008E01BE054
:1022E00058A0FFF7DBFA27E058A0FFF7D7FA23E062
:1022F00058A0FFF7D3FA1FE058A0FFF7CFFA1BE072
:1023000058A0FFF7CBFA17E058A0FFF7C7FA13E081
:1023100058A0FFF7C3FA0FE0802C0CDB57A0FFF7A3
:10232000BDFA5C48807900905A4843790279C178B7
:1023300059A0FFF7B3FA00BF00BF52E7C7EBB2D90D
:10234000D7F7BAECCDE2D2A3BFD8C6F7A3ACB9DBBE
:10235000B2ECBCFCD6B50D0A0000000020D6F7B0E8
:10236000E54B31BCFC203D20BFAACABCBDE2C2EB9C
:10237000BAECCDE2D0C5BAC50D0A000020D6F7B040
:10238000E54B32BCFC203D20CDA3D6B9BDE2C2EB6B
:10239000BAECCDE2D0C5BAC50D0A00004B3120BF62
:1023A000AACABCBAECCDE2BDE2C2EB0D0A00000045
:1023B0004B3120CDA3D6B9BAECCDE2BDE2C2EB0DD4
:1023C0000A000000495220506F7765720D0A000024
:1023D0004952204D656E750D0A0000004952205487
:1023E0006573740D0A0000004952202B0D0A00008D
:1023F00049522052657475726E0D0A004952204C84
:102400006566740D0A0000004952204F6B0D0A00EA
:1024100049522052696768740D0A00004952203001
:102420000D0A00004952202D0D0A00004952204398
:102430000D0A0000495220310D0A00004952203295
:102440000D0A0000495220330D0A00004952203481
:102450000D0A0000495220350D0A0000495220366D
:102460000D0A0000495220370D0A00004952203859
:102470000D0A0000495220390D0A0000495220CEB1
:10248000DEB7A8CAB6B1F0B5C4D2A3BFD8B0B4BC49
:10249000FC0D0A00AC1900202530325820253032BE
:1024A00058202530325820253032580D0A000000BF
:1024B000D02400080000002054000000BC180008D0
:1024C000242500085400002064990000CC1800085E
:1024D00000000000000000000000000000000000FC
:1024E00000000000000000000000000000000000EC
:1024F00000000000000000000001020304010203CC
:1025000004060708090204060800000000A24A04A5
:102510000000000000000000010203040607080993
:0425200000000000B7
:0400000508000131BD
:00000001FF
