:020000040800F2
:10000000F0260020CD0100086D0600086F060008EC
:1000100073060008770600087B0600080000000051
:100020000000000000000000000000007F06000843
:1000300081060008000000001B2900088506000852
:10004000E7010008E7010008E7010008E7010008F0
:10005000E7010008E7010008E7010008E7010008E0
:10006000E7010008E7010008E7010008E7010008D0
:10007000E7010008E7010008E7010008E7010008C0
:10008000E7010008E7010008E7010008E7010008B0
:10009000E7010008E7010008E7010008E7010008A0
:1000A000E7010008E7010008E7010008E701000890
:1000B0008D060008E7010008E7010008E7010008D5
:1000C000E7010008E7010008E7010008E701000870
:1000D000E7010008AF420008E7010008E701000857
:1000E000E7010008E7010008E7010008E701000850
:1000F000E7010008E7010008E7010008E701000840
:10010000E7010008E7010008E7010008E70100082F
:10011000E7010008E7010008E7010008E70100081F
:10012000E7010008E7010008E7010008E70100080F
:1001300000F002F800F03AF80AA090E8000C8244BF
:100140008344AAF10107DA4501D100F02FF8AFF29C
:10015000090EBAE80F0013F0010F18BFFB1A43F0A5
:1001600001031847E454000004550000103A24BF6E
:1001700078C878C1FAD8520724BF30C830C144BF0C
:1001800004680C607047000000230024002500264E
:10019000103A28BF78C1FBD8520728BF30C148BFEA
:1001A0000B6070471FB51FBD10B510BD04F0EDFB0F
:1001B0001146FFF7F7FF00F044FA04F00BFC03B41C
:1001C000FFF7F2FF03BC04F00FFC00000948804772
:1001D00009480047FEE7FEE7FEE7FEE7FEE7FEE729
:1001E000FEE7FEE7FEE7FEE704480549054A064B41
:1001F00070470000E902000831010008F0200020EB
:10020000F0260020F0220020F02200200CB5002073
:10021000019000906B48006840F4803069490860A4
:1002200000BF6848006800F4003000900198401C4E
:100230000190009818B90198B0F5A06FF1D161480C
:10024000006810F4003F02D00120009001E000207F
:1002500000900098012842D15B48006840F01000EF
:10026000594908600846006820F003000860084605
:10027000006840F0020008605248406851494860F8
:100280000846406848600846406840F4806048601E
:100290000846406820F47C1048600846406840F4F6
:1002A000E81048600846006840F08070086000BFB1
:1002B0004448006810F0007FFAD04248406820F0BF
:1002C0000300404948600846406840F0020048602A
:1002D00000BF3C48406800F00C000828F9D10CBD74
:1002E00010B5FFF793FF10BD10B53648006840F019
:1002F00001003449086008464068344908403149E3
:10030000486008460068324908402E49086008469F
:10031000006820F4802008600846406820F4FE0051
:1003200048604FF41F008860FFF7DAFF4FF000606D
:100330002849086010BD10B5002100200022214B83
:100340005B6803F00C0121B1042906D0082928D1EB
:1003500007E0214B214C236027E01F4B1F4C2360FB
:1003600023E0184B5B6803F47010164B5B6803F4D2
:100370008032022303EB904022B9194B4343174CC0
:1003800023600DE00F4B5B6813F4003F04D0144B67
:100390004343124C236003E00F4B43430F4C236055
:1003A00003E00D4B0D4C236000BF00BF054B5B68A5
:1003B000C3F303130B4CE15C084B1B68CB40074CA9
:1003C000236010BD00100240002002400000FFF832
:1003D000FFFFF6FE08ED00E000127A0000000020AA
:1003E00000093D000400002070B586B001A800F0AF
:1003F00058FF4FF47A710298B0FBF1F42146481E81
:10040000B0F1807F00D31BE0481E4FF0E022506126
:1004100050170F22002807DA13071E0E7B4B00F03F
:100420000F052D1F5E5503E013071D0E784B1D545D
:1004300000BF00204FF0E02290610720106100BF54
:1004400006B070BD0EB5684601F000FC41F2707058
:10045000ADF804000B20ADF800000020ADF8060058
:10046000ADF8020069464FF0804001F0C3F8012169
:10047000880701F0E1FE01221146900701F031FCEE
:100480000121880701F012FC0EBD08B54FF6FF7080
:10049000ADF8000004208DF8030069465D4800F0C7
:1004A000B7FC69465C4800F0B3FC69465B4800F065
:1004B000AFFC69465A4800F0ABFC6946594800F069
:1004C000A7FC00F09BFC08BD08B500214FF00060C0
:1004D00000F02AF91C208DF8000000208DF80100A2
:1004E0008DF8020001208DF80300684600F0E9F85D
:1004F00008BD70B5002400F0D7FD4FF4803000F047
:10050000F3FD00F030FE0546012D31D1002000F052
:1005100070FE002000F07FFEA80200F073FE0220B3
:1005200000F038F9102000F049F94FF4E0112804E8
:1005300000F042FE012000F04BFE00BF06E0392033
:1005400000F0F5FD00B103E0601C84B2142CF6DB72
:1005500000BF022000F03FFE002406E000F044FE51
:10056000082800D103E0601C84B2142CF6DB00BF25
:1005700001217C2000F002FF0121084600F00BFF62
:100580000121022000F007FF012144F2010000F0E8
:10059000F5FE01214FF4602000F0FDFE01218803EB
:1005A00000F0F9FE0121C80200F0F5FE01214FF034
:1005B000C05000F0F0FE0121480200F0DFFE0121F2
:1005C000084600F0CEFE70BD10B5FFF792FFFFF7B2
:1005D0007BFFFFF75AFFFFF735FFFFF705FF01210C
:1005E000084600F0CBFE01210F4800F0E0FC03F0CC
:1005F000CDFC10BD7047704770477047704710B50D
:10060000044800F0A5FB03F0C5FC10BD18ED00E0A8
:1006100000E400E000080140000C0140001001402F
:1006200000140140001801400002300000BFFFF735
:10063000CBFF03F0CDFE03E04FF47A7003F0C4FB70
:10064000FAE710B502F0FAFC0F23074A0021AFF2D7
:10065000230003F093F802F08EFD002010BD00E0AF
:10066000401E0028FCD170470C050020704700BFD9
:10067000FEE700BFFEE700BFFEE700BFFEE77047F2
:100680007047704710B502F0EEF810BD10B50121AB
:10069000880701F0D4FD58B10121880701F0E0FD81
:1006A00002F01AF9044604F012F9204602F018F993
:1006B00002F0E6FC10BD000031490143314A1160EF
:1006C000704770B5002100230F22C4780CB32D4C65
:1006D000246804F4E064C4F5E064210AC1F1040371
:1006E000CA40447804FA03F1847814402143090194
:1006F000254C0678A155047804F01F050124AC4070
:1007000005786D114FF0E02606EB8505C5F8004130
:1007100009E0047804F01F050124AC401B4D067865
:10072000761145F8264070BD194A0A400243154B20
:100730001B1F1A60704739B1124A121D126802431A
:10074000104B1B1D1A6006E00E4A121D12688243F0
:100750000C4B1B1D1A607047042808D14FF0E02194
:10076000096941F004014FF0E022116107E04FF008
:10077000E021096921F004014FF0E0221161704786
:100780000000FA050CED00E000E400E080E100E08C
:1007900080FFFF1F01460020FE4A106800F038006D
:1007A000084310607047FB49096821F00801F94AC5
:1007B000116011460968014311607047F5490968E5
:1007C00021F01001F34A11601146096801431160DC
:1007D0007047F148EF494860F04848607047EE487C
:1007E000EC494860ED4848607047EA48006940F0CD
:1007F0008000E84908617047E648006940F08000E1
:10080000E449086170470420E249C96811F0010F0A
:1008100001D001200EE0DF49C96811F0040F01D0BA
:10082000022007E0DB49C96811F0100F01D0032056
:1008300000E00420704700B502460423FFF7E3FF01
:10084000034603E0FFF7DFFF0346521E012B01D1F1
:10085000002AF7D102B90523184600BD30B5044679
:1008600004254FF43020FFF7E6FF0546042D17D18D
:10087000C848006940F00200C64908610846446162
:10088000006940F0400008614FF43020FFF7D3FFCB
:100890000546C048006941F6FD710840BD49086140
:1008A000284630BD10B504244FF43020FFF7C3FFB5
:1008B0000446042C16D1B748006940F00400B5493D
:1008C00008610846006940F0400008614FF430209C
:1008D000FFF7B1FF0446AF48006941F6FB710840DD
:1008E000AC490861204610BD00B502460423FFF75D
:1008F0008AFF034603E0FFF786FF0346521E012BE3
:1009000001D1002AF7D102B90523184600BD10B560
:1009100004244FF43020FFF7E7FF0446042C16D1DF
:100920009C48006940F004009A4908610846006943
:1009300040F0400008614FF43020FFF7D5FF044637
:100940009448006941F6FB710840924908612046CD
:1009500010BD00208F49C96911F0020F01D001209C
:1009600000E00020704730B5A5250424FFF7F1FF13
:1009700000B100254FF43020FFF75DFF0446042C42
:100980003AD1854883498860844888600846006970
:1009900040F0200008610846006940F0400008610E
:1009A0004FF43020FFF747FF0446042C1BD1794851
:1009B000006941F6DF710840764908610846006920
:1009C00040F01000086176480580E002FFF733FF31
:1009D0000446052C10D06F48006941F6EF710840BD
:1009E0006C49086108E0052C06D06A48006941F6A8
:1009F000EF71084067490861204630BD78B506466A
:100A00000C46042500200090E802FFF714FF05467D
:100A1000042D24D15F48006940F001005D49086160
:100A20003480E802FFF707FF0546042D10D1B01C03
:100A30000090200C00990880E802FFF7FCFE0546B4
:100A40005448006941F6FE7108405249086106E0C9
:100A50005048006941F6FE7108404E490861284639
:100A600078BD70B504460D460426F002FFF7E3FE9C
:100A70000646042E11D14748006940F0010045495F
:100A800008612580F002FFF7D6FE0646414800695E
:100A900041F6FE7108403F490861304670BD70B5AF
:100AA00005460E460424E002FFF7C5FE0446042C6A
:100AB00017D1394837498860384888600846006946
:100AC00040F0100008612E80E002FFF7B4FE0446FB
:100AD000052C06D02F48006941F6EF7108402D49DA
:100AE0000861204670BD2DE9F04304464FF6FF76BD
:100AF0003746B046B1460425E443E6B2C4F30727BF
:100B0000C4F307484FEA1469E802FFF794FE05466C
:100B1000042D49D120481F49886020488860084634
:100B2000006940F010000861FF2E06D01C48083014
:100B30000680E802FFF77FFE0546042D08D1FF2F4F
:100B400006D017480A300780E802FFF774FE054612
:100B5000042D0AD1B8F1FF0F07D011480C30A0F8CE
:100B60000080E802FFF767FE0546042D0AD1B9F1BF
:100B7000FF0F07D00A480E30A0F80090E802FFF7F8
:100B80005AFE0546052D0FD00248006941F6EF7167
:100B9000084007E00020024023016745AB89EFCD04
:100BA00000F8FF1F664908612846BDE8F08330B5AC
:100BB000054604244FF43020FFF73DFE0446042C84
:100BC00041D160485E4988605F4888600846006996
:100BD00040F0200008610846006940F040000861CC
:100BE0004FF43020FFF727FE0446042C22D154484E
:100BF000006941F6DF710840514908610846006903
:100C000040F0100008611DB100205049088002E04A
:100C1000A5204E4908804FF43020FFF70CFE044613
:100C2000052C10D04648006941F6EF710840444950
:100C3000086108E0052C06D04148006941F6DF71E3
:100C400008403F490861204630BDF0B505460E46D4
:100C5000174604243B483A4988603B488860E002D4
:100C6000FFF7E9FD0446042C19D13548006940F02E
:100C700010003349086147F0F800304328433349F6
:100C8000891C0880E002FFF7D6FD0446052C06D03B
:100C90002B48006941F6EF71084029490861204658
:100CA000F0BD2748C069800870472548006A704732
:100CB00000202349096811F0200F01D0012000E035
:100CC0000020704729B11E4A126902431C4B1A6169
:100CD00004E01B4A12698243194B1A6170470146AE
:100CE0000020012908D1164AD26912F0010F01D063
:100CF000012008E0002006E0114AD2680A4201D033
:100D0000012000E0002070470D49C86070470420B2
:100D10000B49C96811F0010F01D001200EE008490C
:100D2000C96811F0040F01D0022007E00449C96826
:100D300011F0100F01D0032000E0042070470000E4
:100D40000020024023016745AB89EFCD00F8FF1F6B
:100D500010B50446CA48844208D10121042000F09D
:100D600027FB0021042000F023FB46E0C548844215
:100D700008D10121082000F01BFB0021082000F011
:100D800017FB3AE0C048844208D10121102000F04E
:100D90000FFB0021102000F00BFB2EE0BB4884422B
:100DA00008D10121202000F003FB0021202000F0C9
:100DB000FFFA22E0B648844208D10121402000F029
:100DC000F7FA0021402000F0F3FA16E0B14884421F
:100DD00008D10121802000F0EBFA0021802000F0F2
:100DE000E7FA0AE0AC48844207D10121801500F0FF
:100DF000DFFA0021A01500F0DBFA10BD10B50121CB
:100E0000084600F0D5FA0021012000F0D1FA10BD0B
:100E10002DE9F04102460025002600200023002491
:100E2000002791F803C00CF00F0591F803C01CF0E7
:100E3000100F03D091F802C04CEA050591F800C0EC
:100E4000BCF1000F31D0146800202BE04FF0010CF2
:100E50000CFA00F3B1F800C00CEA03069E4220D160
:100E600083004FF00F0C0CFA03F7BC4305FA03FCA8
:100E70004CEA040491F803C0BCF1280F06D14FF0EE
:100E8000010C0CFA00FCC2F814C00AE091F803C08F
:100E9000BCF1480F05D14FF0010C0CFA00FCC2F870
:100EA00010C0401C0828D1D31460B1F800C0BCF1B8
:100EB000FF0F34DD546800202EE000F1080C4FF0E5
:100EC000010808FA0CF3B1F800C00CEA03069E42D0
:100ED00021D183004FF00F0C0CFA03F7BC4305FA45
:100EE00003FC4CEA040491F803C0BCF1280F05D1BF
:100EF00000F1080C08FA0CF8C2F8148091F803C04D
:100F0000BCF1480F07D100F1080C4FF0010808FAB6
:100F10000CF8C2F81080401C0828CED35460BDE8FD
:100F2000F0814FF6FF710180022181700421C170B0
:100F300070470246002093680B4201D0012000E078
:100F4000002070470146886880B270470246002042
:100F5000D3680B4201D0012000E000207047014619
:100F6000C86880B2704701617047416170470AB13B
:100F7000016100E041617047C16070474FF4803209
:100F80000A43826181618261826982697047024697
:100F90000020424B18684FF68073184040EA021058
:100FA00008433E4B186070473D49C8617047F0B533
:100FB0000A46002300240021002500F00046B6F177
:100FC000004F02D1354EF16901E0344E7168C0F333
:100FD000034583B200F44016B6F5401F08D121F056
:100FE00070612E4E766826F070662C4F7E6012E09F
:100FF00000F48016B6F5801F06D1032606FA05F424
:10100000A14341F0706106E0460D360103FA06F691
:10101000B14341F0706122B1460D360103FA06F684
:10102000314300F00046B6F1004F02D11B4EF16192
:1010300001E01A4E7160F0BD30B500228B071C0F25
:101040000F2303FA04F2154B08338C1053F82430A5
:101050009343124C08348D1044F8253023468C10ED
:1010600053F824308C07240F00FA04F423430B4C6C
:1010700008348D1044F8253030BD0A4908607047A7
:1010800000080140000C0140001001400014014024
:1010900000180140001C01400020014000000140F8
:1010A00000002042DC002042DD48006840F00100E2
:1010B000DB49086008464068DA490840D84948607A
:1010C00008460068D8490840D549086008460068C5
:1010D00020F4802008600846406820F4FE00486044
:1010E0004FF41F0088607047CD49096821F48031B2
:1010F000CB4A11601146096821F480211160B0F5D6
:10110000803F03D0B0F5802F0ED106E0C4490968B6
:1011100041F48031C24A116007E0C149096841F4D5
:10112000A021BF4A116000E000BF00BF704710B5AA
:1011300001460022002300204A11012A02D1B84CA6
:10114000236806E0022A02D1B54C236A01E0B44CC0
:10115000636A01F01F02012494401C4201D0012067
:1011600000E0002010BD38B50020009000240025CC
:1011700000BF3120FFF7DBFF05460098401C0090C0
:101180000098B0F5A06F01D0002DF2D03120FFF70C
:10119000CEFF08B1012400E00024204638BD0146FE
:1011A00000209F4A106820F0F80040EAC10010605B
:1011B00070479E490860704702460020984B586867
:1011C00020F47C1042EA01031843954B58607047A5
:1011D00096490866704701460020914A506820F001
:1011E00003000843506070478D48406800F00C00D1
:1011F0007047014600208A4A506820F0F0000843FA
:101200005060704701460020854A506820F4E06035
:1012100008435060704701460020814A506820F41E
:10122000605040EAC1005060704729B17C4A527A50
:1012300002437B4B5A7204E0794A527A8243784BDC
:101240005A7270477A490860704701460020744A14
:10125000506820F440400843506070470021754AB0
:1012600011706F4A82F82010012802D0042808D19A
:1012700003E001216F4A117004E005216D4A1170ED
:1012800000E000BF00BF70476B49086070476449C9
:10129000096A0143624A116270476749443908602C
:1012A000704730B500210022002400235C4D6D689A
:1012B00005F00C0121B1042905D0082923D105E04E
:1012C0005E4D056022E05D4D05601FE0544D6D6888
:1012D00005F47012524D6D6805F48034022505EB5B
:1012E00092421CB9564D554305600BE04C4D6D685C
:1012F00015F4003F03D0524D5543056002E04F4DB9
:101300005543056002E04D4D056000BF00BF444DF0
:101310006D6805F0F00109094A4D6B5C0568DD4018
:1013200045603F4D6D6805F4E061090A454D6B5C11
:101330004568DD4085603A4D6D6805F46051C90A25
:10134000404D6B5C4568DD40C560354D6D6805F40A
:101350004041890B3C4D6B5CC568B5FBF3F50561FD
:1013600030BD29B12E4A526902432D4B5A6104E027
:101370002B4A526982432A4B5A61704729B1284A45
:1013800092690243264B9A6104E0254A926982439E
:10139000234B9A61704729B1214AD2690243204BFD
:1013A000DA6104E01E4AD26982431D4BDA6170475C
:1013B00029B11B4AD2680243194BDA6004E0184A8B
:1013C000D2688243164BDA60704729B1144A126919
:1013D0000243134B1A6104E0114A12698243104B15
:1013E0001A61704714494039086070470F49C86452
:1013F00070470B49C87170470948406A40F08070D7
:1014000007494862704701460020054A92680A422F
:1014100001D0012000E00020704701498872704728
:10142000001002400000FFF8FFFFF6FE00004242FD
:10143000D8004242201002408004424200127A004A
:1014400000093D00140000202400002010B50446CF
:10145000FE48844208D10121C014FFF7A9FF0021F2
:10146000E014FFF7A5FFC4E0B4F1804F08D10121DB
:101470000846FFF7AAFF00210120FFF7A6FFB8E00A
:10148000F348844208D101210220FFF79EFF00218A
:101490000220FFF79AFFACE0EE48844208D1012118
:1014A0000420FFF792FF00210420FFF78EFFA0E049
:1014B000E948844208D101210820FFF786FF002176
:1014C0000820FFF782FF94E0E448844208D101211C
:1014D0001020FFF77AFF00211020FFF776FF88E049
:1014E000DF48844208D101212020FFF76EFF002150
:1014F0002020FFF76AFF7CE0DA48844208D101210E
:101500004014FFF755FF00216014FFF751FF70E012
:10151000D548844209D10121C804FFF749FF0021C1
:101520004FF40020FFF744FF63E0D048844209D124
:1015300001210805FFF73CFF00214FF48010FFF761
:1015400037FF56E0CA48844209D101214805FFF718
:101550002FFF00214FF40010FFF72AFF49E0C54894
:10156000844208D101214020FFF72FFF00214020B5
:10157000FFF72BFF3DE0C048844208D101218020C5
:10158000FFF723FF00218020FFF71FFF31E0BB485A
:10159000844208D101218015FFF717FF0021A01513
:1015A000FFF713FF25E0B648844209D10121080462
:1015B000FFF7FEFE00214FF48030FFF7F9FE18E040
:1015C000B048844209D101214804FFF7F1FE00210F
:1015D0004FF40030FFF7ECFE0BE0AB48844208D13B
:1015E00001218804FFF7E4FE00214FF48020FFF77B
:1015F000DFFE10BD00220288944B98420ED0994B1A
:1016000098420BD0B0F1804F08D0914B984205D052
:10161000904B984202D0904B984204D14FF68F7372
:101620001A404B881A438D4B984207D08C4B9842F6
:1016300004D04FF6FF431A40CB881A4302808B88B0
:1016400083850B880385814B98420BD0854B98424C
:1016500008D08B4B984205D08A4B984202D08A4BD7
:10166000984201D10B7A038601238382704770B5BB
:10167000002400220023058C4FF6FE7635400584B9
:10168000028C8388048B4FF68F752C40B51E2C403E
:101690000D882C43751E2A400D892A434D882A4304
:1016A0006A4DA8420BD06F4DA84208D0744DA84295
:1016B00005D0744DA84202D0734DA84213D14FF605
:1016C000F7752A404D892A434FF6FB752A408D88CD
:1016D0002A434FF6FF652B404FF6FF552B408D896F
:1016E0002B43CD892B4383800483CD888586028458
:1016F00070BD70B5002400220023058C4FF6EF76F4
:1017000035400584028C8388048B48F6FF752C4095
:101710004FF6FF452C400D884FF6FF7606EA05256B
:101720002C434FF6DF752A400D8906EA05152A433A
:101730004D8806EA05152A43444DA84202D0494D7A
:10174000A8421DD14FF67F752A404D894FF6FF768E
:1017500006EA05152A434FF6BF752A408D8806EA2A
:1017600005152A434FF6FF352B404FF2FF752B40EE
:101770008D8906EA85052B43CD8906EA85052B432D
:1017800083800483CD880587028470BD70B50024F2
:1017900000220023058C4FF6FF6635400584028C3D
:1017A0008388848B4FF68F752C404FF6FC752C4048
:1017B0000D882C434FF6FF552A400D894FF6FF76D2
:1017C00006EA05252A434D8806EA05252A431F4DCA
:1017D000A84202D0234DA8421DD14FF2FF752A40E6
:1017E0004D894FF6FF7606EA05252A434FF6FF3569
:1017F0002A408D8806EA05252A434EF6FF752B40C0
:101800004DF6FF752B408D8906EA05152B43CD89D2
:1018100006EA05152B4383808483CD88858702845F
:1018200070BD70B5002200230024058C4EF6FF76B3
:1018300035400584038C8488828B48F6FF752A40E6
:101840004FF6FF452A400D8820E00000002C0140A3
:101850000004004000080040000C00400010004060
:101860000014004000340140004C01400050014091
:101870000054014000180040001C004000200040BF
:101880000040014000440140004801404FF6FF760F
:1018900006EA05252A434DF6FF752B400D8906EA19
:1018A00005352B434D8806EA05352B43FA4DA842F2
:1018B00002D0FA4DA84208D14BF6FF752C408D8915
:1018C0004FF6FF7606EA85152C4384808283CD8807
:1018D000A0F84050038470BD828B4FF2FF331A4052
:1018E0008283828B4FF6FF7303EA01231A438283BC
:1018F0007047F0B50C461546002200210026078CE3
:101900004EF6FF7C07EA0C070784828B018C4FF6AA
:10191000FF7707EA043640F6FF473A404FF6FF7775
:1019200007EA05273A434FF6FF7707EA03373A43BA
:10193000D94FB8420ED0D94FB8420BD0B0F1804F3A
:1019400008D0D74FB84205D0D64FB84202D0D64FB4
:10195000B84206D14DF6FF77394046F480573943F7
:1019600005E047F6FF57394044F4805739438283F6
:101970000184F0BD828B4FF6F3731A408283828B11
:101980000A4382837047F0B50C46154600220021B9
:101990000026078C4FF6FF6C07EA0C070784828B42
:1019A000018C4FF6FF7707EA04264FF60C773A4092
:1019B0004FF6FF7707EA03172F433A43B64FB84273
:1019C0000ED0B64FB8420BD0B0F1804F08D0B44F14
:1019D000B84205D0B34FB84202D0B34FB84206D197
:1019E0004FF6FF57394046F48077394305E04FF210
:1019F000FF57394044F48077394382830184F0BD36
:101A0000028B4FF2FF331A400283028B4FF6FF73B3
:101A100003EA01231A4302837047F0B50C461546CA
:101A2000002200210026078C4FF6EF7C07EA0C0706
:101A30000784028B018C4FF6FF7707EA041640F605
:101A4000FF473A404FF6FF7707EA03373A434FF62E
:101A5000FF7707EA05273A438F4FB8420ED08F4FE2
:101A6000B8420BD0B0F1804F08D08D4FB84205D0AE
:101A70008C4FB84202D08C4FB84206D14FF6DF7778
:101A8000394046F01007394305E04FF65F7739409B
:101A900044F01007394302830184F0BD028B4FF6F6
:101AA000F3731A400283028B0A4302837047F0B536
:101AB0000C46154600220021068C4FF6FE773E406C
:101AC0000684028B018C4FF60C7632407E1C06EAAF
:101AD00003162E433243704EB0420ED06F4EB042CA
:101AE0000BD0B0F1804F08D06D4EB04205D06D4E96
:101AF000B04202D06C4EB04206D14FF6FD76314076
:101B000044F00106314305E04FF6F576314044F0EC
:101B10000106314302830184F0BD70B505460C46D1
:101B20005D4885420ED05D4885420BD0B5F1804FAF
:101B300008D05B48854205D05A48854202D05A48B1
:101B4000854200D100E000BF208850B92389A288D7
:101B500061882846FFF7ABFFE1882846FFF79EFF24
:101B600025E0208804280AD12389A2886188284694
:101B7000FFF753FFE1882846FFF742FF17E0208870
:101B800008280AD12389A28861882846FFF7FBFE2E
:101B9000E1882846FFF7EEFE09E02389A2886188E4
:101BA0002846FFF7A6FEE1882846FFF795FE70BDA0
:101BB0002DE9F04105460C4600260127608808B94A
:101BC000022600E00026A088012801D1022700E0BB
:101BD00001272088A0B92389A28861882846FFF7B9
:101BE00066FFE1882846FFF759FF23893A463146C8
:101BF0002846FFF712FFE1882846FFF701FF13E0B0
:101C00002389A28861882846FFF707FFE1882846D4
:101C1000FFF7F6FE23893A4631462846FFF747FF8D
:101C2000E1882846FFF73AFFBDE8F0810A884B8833
:101C30001A438B881A43CB881A430B891A434B8962
:101C40001A438B891A43A0F8442070474FF6FF715E
:101C5000818000210180C180418001727047002194
:101C6000018041808180C180018141818181C18168
:101C70007047002101804180012181800021C180C5
:101C8000018170470021018041808180C1800181F4
:101C90004181818170470000002C014000340140E7
:101CA0000004004000080040000C004021B1028800
:101CB00042F00102028004E002884FF6FE731A40EF
:101CC0000280704731B1B0F8442042F40042A0F8DD
:101CD000442005E0B0F84420C2F30E02A0F84420EE
:101CE00070471AB183890B43838102E083898B4358
:101CF000838170478182704741EA0203A0F848302F
:101D000070471AB183890B43838102E083898B4337
:101D10008381704701894FF6F87211400181704745
:101D20000A46002101894FF68F7319401143018142
:101D3000704730B504460D4629462046FFF7F0FFB0
:101D4000208940F00700208130BD2DE9F041044694
:101D50000D4616461F46602D06D13B4601223146F0
:101D60002046FFF75AFE05E03B4601223146204659
:101D7000FFF79DFE29462046FFF7D2FF208940F05D
:101D800007002081BDE8F08130B50C4600210189B3
:101D9000C9B24FF6FF7505EA0325154325432943CC
:101DA000018130BD2DE9F04105460E4617469846A3
:101DB000002443463A4631462846FFF7E5FF2C8982
:101DC0004FF6F870044044F007044FF68F7004405B
:101DD00044F070042C81BDE8F081F0B504460D4656
:101DE00016461F463B46324629462046FFF7CCFFA3
:101DF000208940F480402081F0BD018582827047B7
:101E00000A46002101884FF68F7319401143018063
:101E10007047F0B50C4615461E46002100220023EF
:101E20000189028B038C4FF6F877394021434FF636
:101E3000FC473A4040F201173A434FF6DD773B400A
:101E40004FF6FF7707EA06172F433B4301810283D2
:101E50000384F0BD0A460021018B4FF68F731940B1
:101E60001143018370470A460021018B48F6FF7336
:101E700019404FF6FF7303EA0223194301837047A9
:101E80000A460021818B4FF68F73194011438183DD
:101E900070470A460021818B48F6FF7319404FF6C0
:101EA000FF7303EA022319438183704721B102883B
:101EB00042F08002028004E002884FF67F731A40ED
:101EC0000280704721B1828842F00402828004E0DF
:101ED00082884FF6FB731A408280704721B1828856
:101EE00042F00802828004E082884FF6F7731A40BD
:101EF0008280704721B1828842F00102828004E032
:101F000082884FF6FE731A40828070470A4600218D
:101F1000018B4FF6F77319401143018370470A464E
:101F20000021018B4FF2FF7319404FF6FF7303EA54
:101F300002231943018370470A460021818B4FF623
:101F4000F77319401143818370470A460021818B42
:101F50004FF2FF7319404FF6FF7303EA0223194350
:101F6000818370470A460021018B4FF6FB731940AD
:101F70001143018370470A460021018B4FF6FF335E
:101F800019404FF6FF7303EA022319430183704798
:101F90000A460021818B4FF6FB7319401143818360
:101FA00070470A460021818B4FF6FF3319404FF6E8
:101FB000FF7303EA02231943818370470A46002115
:101FC000018B4FF67F7319401143018370470A4616
:101FD0000021018BC1F30E014FF6FF7303EA0223C8
:101FE0001943018370470A460021818B4FF67F73A6
:101FF00019401143818370470A460021818BC1F348
:102000000E014FF6FF7303EA0223194381837047E1
:102010000A460021018C4FF6FD73194011430184DB
:1020200070470A460021018C4FF6F773194011439F
:10203000018470470A460021018C4FF6DF73194076
:102040004FF6FF7303EA02131943018470470A46EF
:102050000021018C4FF67F7319404FF6FF7303EA9E
:1020600002131943018470470A460021018C4FF680
:10207000FF5319404FF6FF7303EA0223194301840B
:1020800070470A460021018C4FF2FF7319404FF64A
:10209000FF7303EA02231943018470470A460021B3
:1020A000018C4DF6FF7319404FF6FF7303EA0233BC
:1020B00019430184704730B5002301248C40A3B23A
:1020C000048C9C430484048C02FA01F5ADB22C43C9
:1020D000048430BD30B5002304248C40A3B2048CAA
:1020E0009C430484048C02FA01F5ADB22C430484B1
:1020F00030BD70B503460020002418461830012575
:102100008D40ACB21D8CA5431D8409B1082909D1AD
:1021100000EB6100056825F0700505600568154352
:1021200005600EE00D1FC5F34E052844056825F433
:10213000E045056005684FF6FF7606EA022635435E
:10214000056070BD21B1028842F00202028004E005
:1021500002884FF6FD731A400280704721B1028851
:1021600042F00402028004E002884FF6FB731A403A
:102170000280704721B1828842F08002828004E0B0
:1021800082884FF67F731A408280704702884FF62C
:10219000F7731A40028002880A43028070478288DF
:1021A0004FF68F731A40828082880A43828070477C
:1021B00002894FF6F8731A40028102890A430281AC
:1021C000704702894FF67F731A40028102890A43E1
:1021D000028170478184704781857047818670478E
:1021E0000187704781877047A0F8401070470288C8
:1021F0004FF6FF431A40028002880A43028070476C
:102200000146888E70470146088F70470146888FC7
:1022100070470146B1F8400070470146888C70470E
:102220000146088D704702460020138A0B4201D0F8
:10223000012000E000207047CA430282704730B599
:102240000246002000230024158A05EA010395892F
:1022500005EA010413B10CB1012000E0002030BDFB
:10226000CA4302827047000010B50446FB4884420E
:1022700009D101218803FFF79BF800214FF480402A
:10228000FFF796F832E0F648844209D1012148046C
:10229000FFF79BF800214FF40030FFF796F825E098
:1022A000F048844209D101218804FFF78EF800210B
:1022B0004FF48020FFF789F818E0EB48844209D1F9
:1022C0000121C804FFF781F800214FF40020FFF737
:1022D0007CF80BE0E548844208D101210805FFF7AE
:1022E00074F800214FF48010FFF76FF810BD2DE94E
:1022F000F04786B005460E460024A24600BFA14620
:102300000027B08900B100BF2F462C8A4CF6FF7021
:102310000440F08804432C82AC894EF6F31004404C
:10232000B08831890843718908430443AC81AC8A81
:102330004FF6FF400440B0890443AC8201A8FEF789
:10234000B0FFC648874202D1DDF810A001E0DDF8F9
:102350000CA0A88910F4004F08D00AEBCA0000EBCB
:102360000A1031684900B0FBF1F807E00AEBCA0037
:1023700000EB0A1031688900B0FBF1F86420B8FB6B
:10238000F0F004012009642101FB1089A88910F4F0
:10239000004F08D0322000EBC900B0FBF1F000F094
:1023A0000700044308E0322000EB09106421B0FB71
:1023B000F1F000F00F0004432C8106B0BDE8F08777
:1023C0004FF41651016000218180C18001810C21F0
:1023D000418100218181704710B502460020108A9A
:1023E0004FF2FF0318400B884C8823438C8823430B
:1023F000CC8823431843108210BD00210180418006
:102400008180C180704721B1828942F4005282816B
:1024100004E082894DF6FF731A4082817047F0B55F
:1024200003460024002600250020A1F510676A3F1E
:1024300000D100BF1846C1F3421401F01F06012766
:1024400007FA06F5012C01D10C3004E0022C01D171
:10245000103000E014301AB107682F43076002E023
:102460000768AF430760F0BD1AB1838A0B438382CC
:1024700002E0838A8B4383827047028A4FF6F073AF
:102480001A400282028A0A430282704782894FF20E
:10249000FF731A40828182890A438281704721B189
:1024A000828942F00202828104E082894FF6FD7344
:1024B0001A4082817047028A4FF6DF731A40028207
:1024C000028A0A430282704721B1028A42F48042A2
:1024D000028204E0028A4BF6FF731A4002827047C0
:1024E000C1F308028280704701468888C0F3080063
:1024F0007047818941F0010181817047028BD2B21E
:102500000283028B42EA012202837047028B02F4AB
:102510007F420283028B0A430283704721B1828A81
:1025200042F02002828204E0828A4FF6DF731A4072
:102530008282704721B1828A42F01002828204E0D6
:10254000828A4FF6EF731A408282704721B1828AE5
:1025500042F00802828204E0828A4FF6F7731A4042
:102560008282704721B1828942F40042828103E075
:102570008289C2F30E028281704721B1828A42F4BD
:102580000062828204E0828A4FF2FF731A408282E4
:102590007047828A4FF6FB731A408282828A0A430E
:1025A0008282704721B1828A42F00202828204E074
:1025B000828A4FF6FD731A408282704702460020DD
:1025C000B1F5007F00D100BF13880B4201D001207C
:1025D00000E00020704701F40072B2F5007F00D1E6
:1025E00000BFCA430280704770B502460024002332
:1025F00000250020A1F510666A3E00D100BFC1F39E
:10260000421501F01F03012606FA03F3012D02D142
:102610009689334006E0022D02D1168A334001E04C
:10262000968A33400C12012606FA04F416883440C8
:1026300013B10CB1012000E0002070BD10B50022E4
:102640000023A1F510646A3C00D100BF0A120124E6
:102650009440A3B2DC43048010BD00000038014068
:102660000044004000480040004C00400050004042
:10267000174818481848194819481A481A481B4852
:102680001B481C481C481D481D481E481E481F4822
:102690001F482048204821482148224822482348F2
:1026A00023482448244825482548264826482748C2
:1026B000274828482848294829482A482A482B4892
:1026C0002B482C482C482D482D4800BF704700004F
:1026D000F8490008FC490008004A0008024A0008BE
:1026E000044A0008064A0008084A00080A4A000886
:1026F0000C4A00080E4A0008104A0008124A000856
:10270000144A0008164A0008184A00081A4A000825
:102710001C4A00081E4A0008204A0008224A0008F5
:10272000244A0008264A0008284A00082A4A0008C5
:102730002C4A00082E4A0008304A0008324A000895
:10274000344A0008364A0008384A00083A4A000865
:102750003C4A00083E4A0008404A0008424A000835
:10276000444A0008464A0008484A00084A4A000805
:102770004C4A00084E4A0008504A0008524A0008D5
:10278000544A00087047704710B50446204601F0CF
:1027900005FB10BD10B50446204601F000FB10BD3E
:1027A00010B501F0FDFA10BD10B501F0FDFA10BD35
:1027B00070B5044610464FF080750560051F284629
:1027C0002C606FF00106051F28462E604FF0123670
:1027D000051F28462E604FF00336051F28462E6041
:1027E0004FF00236051F28462E607610051F28463A
:1027F0002E60051F284629604FF01136051F284618
:102800002E604FF01036051F28462E604FF0093617
:10281000051F28462E604FF00836051F28462E60FB
:102820004FF00736051F28462E604FF00636051F6D
:1028300028462E604FF00536051F28462E604FF0C3
:102840000436051F28462E6070BD10B501F0ADFAA4
:1028500010BD10B50446204601F0A8FA10BD10B511
:1028600001F0A5FA10BD10B500F036F80446144882
:102870000078401C12490870204600F031F800F042
:10288000F8FC00F0FDFB10BD10B500F01DF84FF492
:102890007A71B0FBF1F4601E4FF0E0214861FF2037
:1028A000084908704FF0E020006940F005004FF043
:1028B000E02108610846006940F00200086110BD8F
:1028C0003D00002023ED00E000B585B06846FEF72E
:1028D000E8FC019805B000BDEFF3108072B67047B8
:1028E00080F3108870471D484FF0FF0101700020F1
:1028F00080F309881A48012101701A484FF080516D
:10290000016062B6FEE717484FF0805101607047E2
:1029100014484FF080510160704772B6EFF30980A0
:1029200028B1203880E8F00F0F490968086000B529
:102930000E4880475DF804EB0D480E490A78027096
:1029400009480D490A680260106890E8F00F2030CD
:1029500080F309884EF0040E62B6704722ED00E065
:102960004A00002004ED00E0500000204B28000841
:102970003F000020400000205800002002460020B8
:1029800005E011F8013B02F8013B431CD8B20B787B
:10299000002BF6D1137070472DE9F04105460E4625
:1029A00014460027F8480078002804DD1120207024
:1029B0000020BDE8F0812878012808D0022807D03F
:1029C000032802D0042804D100E000BF00BF00BFEC
:1029D00003E0012020700020EBE700BFFFF77CFF41
:1029E000074605F113013046FFF7C8FF8046384619
:1029F000FFF776FF002020704046DAE7014600200E
:102A000002E0491C421CD0B20A78002AF9D1704772
:102A10002DE9F04105460F4614464FF00008DA480C
:102A20000078002803DD12202070BDE8F0812878AE
:102A3000012808D0022807D0032802D0042804D196
:102A400000E000BF00BF00BF02E001202070ECE703
:102A500000BFFFF741FF80463846FFF7CFFF06462D
:102A60000F2E05DD4046FFF73BFF0B202070DCE713
:102A7000394605F11300FFF781FF4046FFF730FFAD
:102A80000020207000BFD0E7F0B5024612F82E4FAC
:102A900095785678A2F12E020B4618680FE000F1E7
:102AA0000B073F5DB74300F10B0C0CF80470674651
:102AB0003F5D17B9877AAF4387721B1D18680028DE
:102AC000EDD1F0BDB149B24A1278885CB149095CD8
:102AD000AE4A515C01EBC001AF4A1170704710B5AE
:102AE0000024FFF7F9FE0446A7480078F0B9AB4888
:102AF0000078D8B9FFF7E6FFA7480078A849097819
:102B0000884213D0A748A449097850F82100A64963
:102B1000086008460068406B401C09684863A34889
:102B20000068401CA1490860FFF7EDFE2046FFF752
:102B3000D7FE10BD70B5014600249D4D2D68EC6197
:102B40009B4C246821620B4618681BE0984C246853
:102B500094F82E5000F10B04645D954D2D6895F8A6
:102B60002F502C43924D2D6895F82E6000F10B05E7
:102B7000AC55847A8E4D2D6895F830502C43847274
:102B80001B1D18680028E1D1894C246894F82E2078
:102B9000804CA45C864D2D6895F82F50AC437D4D3C
:102BA000AC542C46A45C44B9814C246894F8305051
:102BB000774C2478AC43764D2C7070BD2DE9FF4FD7
:102BC00083B080460D461646109F00200190286075
:102BD000C146D9F8004015E02078012804D0042827
:102BE00004D0052801D102E007E000BF00BF0120AA
:102BF0003870002007B0BDE8F08F00BF09F104096C
:102C0000D9F80040002CE7D15F480078002803DDA8
:102C1000022038700020EDE760480078002803DDCE
:102C20000D2038700020E5E7FFF756FE01900020E8
:102C3000029082468346C146D9F8004028E02078B9
:102C4000012804D0042814D0052811D112E06068AE
:102C500058B1606801C60020606010C50120029074
:102C60000AF101001FFA80FA01E04BF0020B0AE0C2
:102C700000BF00BF0198FFF733FE0020286001204D
:102C800038705046B6E700BF09F10409D9F8004092
:102C9000002CD4D10298012808D100202860019886
:102CA000FFF71EFE002038705046A3E7404800683A
:102CB00090F82A004BF0800108433D49096881F8EB
:102CC0002A0000203A49096881F82B003849069803
:102CD000096808854046FFF72DFF0198FFF700FEC1
:102CE000FFF7FDFEFFF7F8FD01903148006890F80E
:102CF0002B0020B101281BD0022818D100E000BF12
:102D00002B480068C4693CB110C5002028600AF156
:102D100001001FFA80FA09E001202549096881F8BD
:102D20002B00414622480068FFF7AEFE06E000BFD8
:102D300041461F480068FFF7A7FE00BF00BF1C48C0
:102D4000006890F82B0020B101283DD002283AD12C
:102D500034E02078012806D0022805D0042809D0C4
:102D6000052806D107E000BF11480068406A01C687
:102D700020E000BF00BF0198FFF7B2FD00202860EF
:102D800001203870504635E73D000020564A0008C3
:102D90004100002042000020400000203E000020B2
:102DA0003F000020780A0020580000202800002062
:102DB0005000002000BF002038700AE0002001C64B
:102DC0000E20387005E000BF002001C60A203870D0
:102DD00000BF00BF0020FE49096881F82A00FC49B5
:102DE000096881F82B00FA490968C861F84909683F
:102DF0000862F749096848620198FFF771FD50467B
:102E0000F8E67CB5002514E06946284600F00FFF7F
:102E1000064666B9EF4850F8254044B1012C06D06B
:102E2000D4E9020100EB8100206401986064681C11
:102E3000C5B23F2DE8DD7CBD002402E0C82000F0D3
:102E4000C3FFE54800780028F8D0E4480068642112
:102E5000B0FBF1F0E14908600846006828B900209D
:102E6000DF490870FF2000F024FF00BFFFF734FDAA
:102E70000446DC480068DC4908600020D949086045
:102E80002046FFF72DFDD8480068D4490968B0FBFB
:102E9000F1F0C0F16400D2490870FFF785FCFFF73C
:102EA000B0FF642000F090FFE0E700B587B003209A
:102EB00000218022CD4BCDE90132CDE903104FF640
:102EC000FE703E23CA4A0090AFF2930000F0AEFCC1
:102ED00006AAC8A13E2000F018FE07B000BD0024DD
:102EE00000BFFFF7F9FC0446BE480068401CBD491E
:102EF00008602046FFF7F4FCFFF752FCF1E700B54D
:102F000087B0032000218022BE4BCDE90132CDE9FC
:102F100003104FF6FF703F23BB4A0090AFF2410011
:102F200000F084FC06AAB9A13F2000F0EEFD07B036
:102F300000BD04E0002200F8012B4A1E91B20029D6
:102F4000F8DC704730B54FF4B471B448FFF7F1FFC7
:102F5000B24B03F1240500240AE0002018705D60E4
:102F60003F20D8740021197524332435601C84B2A5
:102F7000092CF2DB0020187058603F20D874002123
:102F80001975A648A649086030BD30B54FF4F26106
:102F9000A448FFF7CEFF4FF480718E48FFF7C9FFBA
:102FA000A04B03F1580500240AE05D613F2083F83F
:102FB000480000214920C15458335835601CC4B220
:102FC000152CF2D3002058613F2083F848000021DF
:102FD0004920C154002094490860924893490860F0
:102FE00030BD0022924B1A709249002004E000226A
:102FF00001F8012B421CD0B20828F8DB00228E4BCE
:103000001A708E4B1A708E4B1A60714B1A60704793
:1030100000208C4908608C4908708C4908708C49E4
:1030200008708C4908708C4908606E4908606E49C8
:1030300008606A49086068490870704710B5FFF772
:10304000A1FBFFF7E5FFFFF7CCFFFFF79EFFFFF7C0
:1030500079FFFFF754FFFFF728FFFFF794FBFFF717
:1030600007FB10BD7B480078012808D1764800781E
:10307000FF2804D274480078401C734908707047D8
:1030800010B5002473480078012830D1FFF724FCE4
:1030900004466D480078002804DD6B480078401E27
:1030A0006949087068480078F0B968480078D8B96C
:1030B000FFF708FD614800785F490978884213D01E
:1030C00044485E49097850F821005D490860084687
:1030D0000068406B401C096848635F480068401CFA
:1030E0005D490860FFF714FC2046FFF7F9FB10BDAF
:1030F00010B5002457480078012811D1FFF7ECFBE8
:1031000004465148007840B950480078FF2804D25E
:103110004E480078401C4D4908702046FFF7E0FB00
:1031200010BD10B500244B480078012822D1FFF7CC
:10313000D3FB044645480078002818DD4348007852
:10314000401E424908700846007860B93E48007841
:1031500028B92046FFF7C4FBFFF7C1FC0AE0204670
:10316000FFF7BEFB06E02046FFF7BAFB02E0204671
:10317000FFF7B6FB10BD10B53648007890B9FFF7E1
:10318000A1FC2E4800782C49087012482B49097878
:1031900050F821002A490860084600680C49086078
:1031A000FFF7A1FB10BD10B50024022000F00CFEBB
:1031B000FFF792FB044600200A4908602046FFF70B
:1031C0008FFB642000F000FEFFF786FB044645E01D
:1031D00050000020780A00203C000020340000202D
:1031E000300000204C00002038000020780600202D
:1031F0007408002075432F4F532D494920537461A3
:103200007400000078080020740A002075432F4FD6
:10321000532D49492049646C6500000010050020C9
:103220002C000020780B00205C00002054000020BF
:1032300041000020420000203F000020400000200C
:1032400058000020640000203D0000203E000020C7
:103250004B0000204A00002028000020D6480068CB
:10326000D64908600120D64908702046FFF738FB90
:1032700010BD70B50026FFF7F2FAFFF72DFB0646EA
:10328000D0480068401CCF4908603046FFF728FB53
:10329000CD480078012858D1CC48007820B10128C9
:1032A00004D0022809D103E001250BE0002509E044
:1032B00001250120C549087004E001250020C3490B
:1032C000087000BF00BF05B970BDC148046838E090
:1032D000FFF702FB0646208D78B3208D401E0004C8
:1032E000000C208529D194F82A0010F0370F09D05E
:1032F00014F82A0F20F03700207001206070A4F12C
:103300002A0402E0002084F82B0094F82A0010F030
:10331000080F12D104F12E04A078AE49097840EAD2
:103320000100AC4908702078AB49085C617840EA3C
:10333000010014F82E19A84A505464693046FFF76A
:10334000CFFA94F82C003F28C2D100BFBCE74FF45D
:103350008F707047704710B590F82E2001F10B0365
:103360009B5C90F82F40A34301F10B04A354234628
:103370009B5C23B98B7A90F83040A3438B7210BDCD
:103380002DE9F04F05460F4690469946A87A934995
:103390000E5C05F10B00805D11F800B00BEBC60070
:1033A00000F0FF0A8E4850F82A40002004F124045F
:1033B000A0802760A07920EA0800A07184F8079017
:1033C000A079A4F1240410F0080F0DD194F8300076
:1033D0008049097808437F4908707F48805D94F8E8
:1033E0002F1008437C49885529462046FFF7B3FF34
:1033F000206A20B12046216AFFF746FBE56150466E
:10340000BDE8F08F10B5774A1268D061754A12682E
:1034100092F82E3000F10B02D25C724B1B6893F8CD
:103420002F301A436F4B1B6893F82E4000F10B03AB
:103430001A55827A6B4B1B6893F830301A438272AC
:10344000684A126892F82E10634A525C654B1B68FA
:1034500093F82F309A43604B5A541A46525C42B943
:10346000604A126892F830305A4A12789A43594B9F
:103470001A7010BD0023837200F10B01002204E0DA
:10348000002301F8013B531CDAB2082AF8DB70472D
:1034900005E011F8013B00F8013B531E9AB2002AE7
:1034A000F7DC70472DE9F84F05460E46174698465B
:1034B000DDE90BABDDF8289000200090FFF70CFA57
:1034C000009049480468002C71D054F8140F464904
:1034D00008600098FFF704FA44F8146C2576002081
:1034E000A075E075A08244F810AC44F8089C44F83C
:1034F0000C7C24F804BC24F8028C6077E810A076D9
:1035000005F007006076A17E012088402077617E6B
:1035100001208840E0760020A060E0602061206209
:10352000A0626062E06220633F2084F83400A4F16E
:1035300014044FF000014FF0490001552046FFF7F9
:1035400088F92046FFF720F9FFF7C6F900902448D4
:1035500040F825401E48006860610020A0611C48BA
:10356000006810B11A48006884611948046004F1C9
:103570002E04A0781749097840EA0100154908701F
:1035800020781549085C617840EA010014F82E198A
:10359000114A50541548007800F101001349087091
:1035A0000098FFF79DF90020BDE8F88FFFE700982D
:1035B000FFF796F94220F7E74C0000203400002086
:1035C0003C000020640000204A0000206000002031
:1035D0005C0000204100002042000020564A000804
:1035E000780A002050000020540000204B000020EA
:1035F0002DE9F34F85B0884600200190FFF76CF964
:103600000190FE4850F8280030B10198FFF768F9A2
:10361000282007B0BDE8F08F0598FF2804D1F848AE
:10362000006890F82C000590F449059851F8205056
:1036300025B90198FFF754F92920EAE7012D04D1B3
:103640000198FFF74DF94320E3E74FEAE80708F058
:10365000070003900120B84000F0FF090121039802
:10366000814001F0FF0A0021E44A059842F8201049
:10367000104640F8285095F82E6095F830000290DA
:1036800095F82FB0DF48805D10EA0B0F1AD0DD48A7
:10369000805D20EA0B00DB4988550846805D28B92B
:1036A000D948007802998843D7490870D6480078ED
:1036B00040EA0900D4490870D248C05D40EA0A00D7
:1036C000D049C855EC69D4B104F10B00805D20EA03
:1036D0000B0004F10B0188550846805D18B9A07AEB
:1036E00002998843A072A07A40EA0900A07204F10E
:1036F0000B00C05D40EA0A0004F10B01C855286ABE
:1037000030B3286A0490049804681FE004F10B00A9
:10371000805D20EA0B0004F10B0188550846805DAE
:1037200018B9A07A02998843A072A07A40EA0900E9
:10373000A07204F10B00C05D40EA0A0004F10B0125
:10374000C8550498001D049004980468002CDDD12D
:1037500085F82C8085F82E70039885F82D0085F863
:10376000309085F82FA00198FFF7BAF8A7480078A5
:10377000012801D1FFF7B3F900204AE72DE9FE4FF8
:1037800006460F4690461C464FF00009FFF7A4F886
:1037900081469F480078002805DD4846FFF7A0F8DD
:1037A0003C20BDE8FE8F954850F8240060BB012006
:1037B000924941F824004846FFF792F80023424618
:1037C00039463046FEF7F4FF824600200090019013
:1037D00003460246514602902046FFF763FE054627
:1037E00035B98A48007801280CD1FFF778F909E04B
:1037F000FFF772F881460020804941F824004846CE
:10380000FFF76EF82846CCE74846FFF769F828200E
:10381000C7E712F0010F08D012F0020F05D002E046
:10382000491E002308C00029FAD170472DE9F04F46
:1038300085B081468A4693461C46DDE90F78129D85
:1038400000200390FFF748F80390714800780028A3
:1038500006DD0398FFF744F83C2005B0BDE8F08F83
:10386000664850F8240088BB0120644941F82400D0
:103870000398FFF735F82A4641463846FFF7C9FF57
:103880002B465A4651464846FEF792FF049011983F
:10389000CDE9008002953A4620460E9B0499FFF739
:1038A00001FE064636B95948007801280CD1FFF7C9
:1038B00016F909E0FFF710F8039000204F4941F88E
:1038C00024000398FFF70CF83046C6E7FFE703989B
:1038D000FFF706F82820C0E770B5054600264C48DB
:1038E0000078002801DD402070BD3F2D01D13E2031
:1038F000FAE7FEF7F1FF0646FF2D03D140480068C6
:1039000090F82C503D4850F8254024B93046FEF739
:10391000E7FF4320E8E7012C04D13046FEF7E0FF43
:103920003D20E1E714F82E0F3649085C61788843A2
:103930002178344A505414F82E091146085C30B9E5
:1039400094F830103048007888432F490870E069B7
:1039500018B12046E169FFF7FEFC206A18B1204645
:10396000216AFFF791F80020208584F82A0084F866
:103970002B0028480078FF2804D226480078401CF5
:10398000244908703046FEF7ABFFFFF7E3FCFEF773
:10399000A3FF06461F480078002804DD1D48007874
:1039A000401E1C4908702046FEF7F4FE1A480078B5
:1039B000401E194908700020104941F82500A069EF
:1039C00030B900206169886114496069086005E0C8
:1039D000D4E905014861D4E9051088611048006800
:1039E00060610F4804603F2084F8480000214920AE
:1039F00001553046FEF774FF044813E0780A0020B2
:103A00005000002042000020410000204A00002019
:103A10003D0000203E0000204B0000205C00002004
:103A2000540000200078012801D1FFF758F8002049
:103A30005AE72DE9F041044600273F2C02D13E20F1
:103A4000BDE8F081FF2C0BD1FEF746FF0746D848B2
:103A5000006890F831603846FEF742FF3046EFE7E5
:103A6000FEF73AFF0746D34850F8245025B93846A8
:103A7000FEF736FF4320E3E7012D04D13846FEF779
:103A80002FFF3D20DCE73F2085F831003846FEF768
:103A900027FF0020D4E72DE9F04706460F461446DD
:103AA0004FF00008C4480078002804DD1120207081
:103AB0000020BDE8F087FEF70FFF8046FF2E03D100
:103AC000BB48006890F82C60BA4850F8265035B9C9
:103AD0004046FEF705FF432020700020E9E7012D56
:103AE00006D14046FEF7FCFE432020700020E0E7B0
:103AF00005F148013846FEF741FF81464046FEF792
:103B0000EFFE002020704846D3E72DE9F047064637
:103B1000884614464FF00009A7480078002803DDC6
:103B200012202070BDE8F087FEF7D6FE8146FF2EFA
:103B300003D19F48006890F82C609E4850F82650AA
:103B40002DB94846FEF7CCFE43202070EAE7012D50
:103B500005D14846FEF7C4FE43202070E2E7404608
:103B6000FEF74CFF07460F2F05DD4846FEF7B8FE6F
:103B700041202070D6E7414605F14800FEF7FEFEE1
:103B80004846FEF7ADFE0020207000BFCAE770B5C2
:103B900005460026FEF7A0FE0646864850F825405A
:103BA00024B93046FEF79CFE462070BD012C04D19E
:103BB0003046FEF795FE4320F7E794F82A0010F010
:103BC000080F2FD014F82A0F20F00800207014F8E6
:103BD0002A0910BB208DE0B904F12E04A0787749A2
:103BE000097840EA01007549087020787449085C3A
:103BF000617840EA010014F82E19714A5054304699
:103C0000FEF76EFE6F480078012809D1FEF767FFC6
:103C100006E03046FEF764FE02E03046FEF760FE46
:103C20000020C2E73046FEF75BFE4420BDE72DE9E9
:103C3000F04707460D464FF0000A002028606860F4
:103C4000FEF74AFE8246FF2F03D15948006890F8DC
:103C50002C70584850F827402CB95046FEF740FECB
:103C60004320BDE8F087012C04D15046FEF738FE12
:103C70004320F6E7207C10F0010F04D15046FEF7F8
:103C80002FFE4520EDE70026D4F80C90D4F80880EC
:103C90005046FEF725FE00E0761C58F8041B00296C
:103CA000FAD0B0002860A9EB060080006860002010
:103CB000D7E72DE9F04105464FF00008FEF70CFE6E
:103CC0008046FF2D05D13A48006890F82C50012617
:103CD00008E03748006890F82C00A84201D101267E
:103CE00000E00026334850F825402CB94046FEF746
:103CF000F7FD4820BDE8F081012C04D14046FEF7D5
:103D0000EFFD4320F6E794F82E702D48C05D94F83F
:103D10002F1088432A49C8550846C05D30B994F829
:103D200030102648007888432449087094F82A0007
:103D300040F0080084F82A004046FEF7D1FD012E2D
:103D400001D1FEF7CCFE0020D4E72DE9F041054675
:103D50000E460027FEF7C0FD0746FF2D03D114488D
:103D6000006890F82C50134850F825402CB938467C
:103D7000FEF7B6FD2920BDE8F081012C04D13846BC
:103D8000FEF7AEFD4320F6E7582221463046FFF706
:103D90007FFB3846FEF7A4FD0020ECE77047704734
:103DA00010B500F0FBFA10BD7047704770477047C0
:103DB00050000020780A00203D0000204100002033
:103DC000420000204A00002070B5054600266948E0
:103DD0000078002800DD70BD002D23DDFEF77CFD9E
:103DE00006466548006890F82E406448005D6249C8
:103DF000096891F82F108843604908550846005D0E
:103E000040B95D48006890F830105D4800788843FC
:103E10005B4908705848006805853046FEF760FD2C
:103E2000FEF75DFE00BFD6E72DE9F047074688465E
:103E300091461D464F480078002802DD5520BDE818
:103E4000F0874FF47A7068434FF47A71B0FBF1F168
:103E50004FF461607843C8EB081200EB82004844DD
:103E600000EB4002C2EBC01001EBC004260CA4B270
:103E70002046FFF7A9FF09E04FF40040FFF7A4FF39
:103E80004FF40040FFF7A0FF701E86B2002EF3DC57
:103E90000020D4E770B5054600263F2D01DB2A201F
:103EA00070BDFEF719FD0646364850F8254024B986
:103EB0003046FEF715FD4320F2E7012C04D13046D1
:103EC000FEF70EFD4320EBE7208D20B93046FEF7CC
:103ED00007FD5020E4E70020208594F82A0010F028
:103EE000370F09D014F82A0F20F037002070012076
:103EF0006070A4F12A0402E0002084F82B0094F8FA
:103F00002A0010F0080F18D104F12E04A0781C49E3
:103F1000097840EA01001A49087020781749085CBE
:103F2000617840EA010014F82E19144A50543046C2
:103F3000FEF7D6FCFEF7D3FD02E03046FEF7D0FCDC
:103F40000020ADE770B50025FEF7C6FC05460E481B
:103F500004682846FEF7C4FC204670BD70B50446D0
:103F60000025FEF7B9FC0546074804602846FEF721
:103F7000B7FC70BD3D000020500000204200002032
:103F800041000020780A00206400002010B5FCF7F2
:103F900036FB10BD00B589B00020F5490880F54911
:103FA0000880F5490880F5490880F54908804FF4F4
:103FB0000070ADF8200003208DF8220018208DF845
:103FC000230008A9EF48FCF723FF4FF48060ADF809
:103FD000200004208DF8230008A9EA48FCF718FF08
:103FE00025208DF81C0000208DF81D0001208DF883
:103FF0001E008DF81F0007A8FCF763FB03A8FEF75F
:10400000DFF94FF4E13003900020ADF81000ADF877
:104010001200ADF81400ADF818000C20ADF8160031
:1040200003A9D948FEF763F90020ADF80400ADF804
:1040300006004FF40070ADF808000020ADF80A004B
:1040400001A9D148FEF7C8F9012240F22551CE4816
:10405000FEF7E5F90121CC48FEF7D5F909B000BD1E
:1040600070B5FEF739FC0546C1480088C14909888A
:10407000401A04B2002C02DA04F57A7004B2284621
:10408000FEF72EFCA0B270BD70B5FEF725FC05460C
:10409000B9480088B9490988401A04B2002C02DAEC
:1040A00004F1640004B22846FEF71AFCA0B270BD09
:1040B00070B504460125FEF70FFC0646FFF7D0FF5A
:1040C00040F2E731884201DB002518E0A848B0F94A
:1040D00000100088401C00B2A54A1080AB48445430
:1040E0001046B0F90000B0F57A7F02DB00201146DF
:1040F0000880012240F22771A348FEF790F930466C
:10410000FEF7EEFB284670BD70B5FEF7E5FB0546F1
:10411000FFF7BAFF28B92846FEF7E2FB4FF0FF3061
:1041200070BD9648B0F900100088401C00B2934A58
:1041300010809748445C1046B0F90000642802DB08
:104140000020114608802846FEF7CAFB2046E7E714
:104150002DE9F04104460D460127002608E014F839
:10416000010BFFF7A5FF08B9002703E0701C86B21A
:10417000AE42F4DB00BF3846BDE8F0812DE9F041E6
:1041800006460F464FF00108002520E0705D04113F
:10419000092C05DC04F13001C8B2FFF789FF04E007
:1041A00004F13701C8B2FFF783FF705D00F00F0420
:1041B000092C05DC04F13001C8B2FFF779FF04E0F7
:1041C00004F13701C8B2FFF773FF681C85B2BD4226
:1041D000DCDB4046BDE8F0817CB504460D46012697
:1041E000082D07D1E0B28DF8000001216846FFF7E5
:1041F000C5FF1EE0102D0AD1200A8DF80000E0B2A4
:104200008DF8010002216846FFF7B8FF11E0202D6C
:104210000FD1200E8DF80000200C8DF80100200A2F
:104220008DF80200E0B28DF8030004216846FFF724
:10423000A5FF30467CBD70B50446012506E014F8A4
:10424000010BFFF735FF08B9002502E020780028B0
:10425000F5D100BF284670BD70B5002520E0FFF7FE
:1042600053FF44B2202C0BDB7F2C09DA4448B0F911
:1042700000200088401C00B2414B188045488454FF
:104280003F48B0F90000B0F5957F01DA0D2C07D159
:10429000002040493A4AB2F900208854012503E041
:1042A000FFF7F2FE0028DAD100BF284670BD70B5D6
:1042B000FEF712FB054638480078401C3649087066
:1042C0002846FEF70DFB40F225512F48FEF78CF9EA
:1042D000F0B12D48FEF708F9C4B2FFF7D5FE632808
:1042E00011DA2548B0F900100088401C00B2224ABB
:1042F0001080274844541046B0F90000642802DBBF
:1043000000201146088040F225511F48FEF796F91B
:1043100040F227711C48FEF767F928B3FFF7A0FEAB
:1043200000281BDD40F227711748FEF787F9114876
:10433000B0F900200088401C00B20E4B18801348D2
:10434000815C1148FEF7CCF80A48B0F90000B0F5DE
:104350007A7F09DB00200749088005E0002240F24F
:1043600027710948FEF75BF8FEF78AFE70BD000072
:104370006A000020680000206E0000206C00002011
:1043800070000020000801400038014008130020A0
:10439000F0160020541700203D0000200748007848
:1043A000401C06490870084600781E2801DB0020E2
:1043B00008707047014800787047000072000020C4
:1043C00005E0FFF749FF41F28830FFF7FDFCF8E711
:1043D00010B51448FFF72FFF1248FFF72CFF1148C4
:1043E0005430FFF728FF0F48A430FFF724FF0D4893
:1043F000F830FFF720FF0C48FFF71DFF0948FFF7D3
:104400001AFF09485430FFF716FF1123074A00210D
:104410000748FFF7B3F91223064A00210648FFF7C1
:10442000ADF910BD584B0008A44C00087C1C0020BE
:10443000C14300087C2000204D49000870B50546A6
:104440000C460A2D77D2DFE805F00527496B8CAAC8
:10445000CAE8F3F254B94FF48051FE48FCF785FDE9
:104460004FF48041FB48FCF780FD14E0012C08D19B
:104470002103F848FCF777FDA103F648FCF775FD2A
:1044800009E04FF48051F348FCF76FFD4FF4804191
:10449000F048FCF768FD21E154B94FF40041ED48C4
:1044A000FCF763FD4FF40071EB48FCF75EFD14E090
:1044B000012C08D1E103E748FCF755FDA103E648CC
:1044C000FCF753FD09E04FF40041E248FCF74DFDD5
:1044D0004FF40071E048FCF746FDFFE054B94FF49B
:1044E0008061DD48FCF741FD4FF48051DA48FCF76C
:1044F0003CFD14E0012C08D1A102D748FCF733FDA4
:104500002103D548FCF731FD09E04FF48061D24822
:10451000FCF72BFD4FF48051CF48FCF724FDDDE084
:1045200054B94FF40041CC48FCF71FFD1021C94895
:10453000FCF71BFD14E0D0E0012C08D1E103C648D4
:10454000FCF711FD1021C348FCF70FFD08E04FF404
:104550000041C148FCF709FD1021BE48FCF703FDEE
:10456000BCE044B92021BB48FCF7FFFC8021B948DE
:10457000FCF7FBFC12E0012C08D12021B548FCF728
:10458000F2FC8021B348FCF7F0FC07E02021B148A1
:10459000FCF7EBFC8021AF48FCF7E5FC9EE04CB952
:1045A0004FF40061AB48FCF7E0FC0221A948FCF79E
:1045B000DCFC13E0012C08D1E102A648FCF7D5FC95
:1045C0000221A448FCF7CFFC08E04FF40061A148A9
:1045D000FCF7C9FC02219F48FCF7C7FC7EE044B908
:1045E00001219C48FCF7C1FC40219B48FCF7BDFC25
:1045F00012E0012C08D101219648FCF7B6FC4021BD
:104600009548FCF7B0FC07E001219248FCF7ABFCB1
:1046100040219148FCF7A9FC60E054B920218E4864
:10462000FCF7A3FC08218C48FCF79FFC14E032E067
:1046300013E0012C08D120218748FCF796FC0821C3
:104640008548FCF790FC07E020218348FCF78BFCB1
:1046500008218148FCF789FC40E044B904217E48E8
:10466000FCF783FC01217C48FCF77FFC12E0012C65
:1046700008D104217848FCF778FC01217648FCF742
:1046800072FC07E004217448FCF76DFC01217248BC
:10469000FCF76BFC22E054B94FF400416F48FCF783
:1046A00064FC4FF400516D48FCF75FFC14E0012CF2
:1046B00008D1E1036948FCF758FC61036748FCF73F
:1046C00052FC09E04FF400416448FCF74CFC4FF405
:1046D00000516248FCF749FC00E000BF00BF70BD1C
:1046E00010B5044600212046FFF7A8FE10BD70B5A6
:1046F00004460D4629462046FFF7A0FE70BD08B5CA
:1047000001210420FCF73AFE49F6FF70ADF80000E5
:1047100003208DF8020010208DF8030069464E48F2
:10472000FCF776FB01210820FCF728FE4FF6FB4042
:10473000ADF8000003208DF8020010208DF8030072
:1047400069464448FCF764FB01211020FCF716FE83
:104750004FF46040ADF8000003208DF802001020F7
:104760008DF8030069463D48FCF752FB4FF40051B9
:104770003A48FCF7FAFB4FF480413848FCF7F5FB68
:104780004FF400413548FCF7F0FB01213148FCF7BC
:10479000ECFB02212F48FCF7E8FB08212D48FCF731
:1047A000E4FB10212B48FCF7E0FB20212948FCF713
:1047B000DCFB40212748FCF7D8FB80212548FCF78B
:1047C000D4FB4FF480612348FCF7CFFB4FF400612A
:1047D0002048FCF7CAFB4FF480511E48FCF7C5FB8C
:1047E0004FF400511B48FCF7C0FB4FF480411948BF
:1047F000FCF7BBFB4FF400411648FCF7B6FB012168
:104800001548FCF7B2FB02211348FCF7AEFB04216C
:104810001148FCF7AAFB08210F48FCF7A6FB102162
:104820000D48FCF7A2FB20210B48FCF79EFB402122
:104830000948FCF79AFB80210748FCF796FB4FF4E8
:1048400080710548FCF791FB4FF400710248FCF7BA
:104850008CFB05E0000C0140000801400010014005
:104860004FF480612648FCF780FB4FF40061244838
:10487000FCF77BFB4FF480512148FCF776FB4FF4AB
:1048800000411F48FCF771FB08BD10B5FFF737FF6B
:1048900010BD10B50246002900DC10BD002007E065
:1048A000884200D106E0135C164C2354431CD8B256
:1048B0000A28F5DB00BF00BFEFE7002004E000217D
:1048C000104A1154411CC8B20A28F8DB704710B5D1
:1048D0000D480078FFF704FF0B480078401C0A4998
:1048E0000870084600780A2801DB00200870054897
:1048F000054A1278815C04480078FFF7F8FE10BD85
:10490000000801408020002073000020F7B50A2035
:10491000FFF75AFAFFF74EFD0646002410E0BDF8F7
:104920000000604385B2BDF80010029A5019FFF7ED
:10493000B0FF06EB86014800FFF746FA601CC4B2E0
:10494000BDF80200A042EADC0020FEBDFFF79DFF9B
:1049500014E00A20FFF738FAFFF72CFD04460D207B
:1049600094FBF0F100FB1140C4B204EB4400044995
:1049700001EB800393E80700FFF7C8FFE9E70000B9
:1049800074000020704770477047754600F028F8A3
:10499000AE4605006946534620F00700854618B02C
:1049A00020B5FBF721FCBDE820404FF000064FF09A
:1049B00000074FF000084FF0000B21F00701AC4654
:1049C000ACE8C009ACE8C009ACE8C009ACE8C00973
:1049D0008D4670470446AFF300802046FBF7EFFB9F
:1049E000004870478C20002001491820ABBEFEE72C
:1049F00026000200704700000100000078563412C3
:104A00000A001000010024006801000000000000FE
:104A10000000050010003F0001000000050010002C
:104A20000000000000000400000004000000080076
:104A300000000400010001000100800001001600D8
:104A40001000010080000100010040005800E80350
:104A500001001E01320E00000100020001000300EF
:104A60000100020001000400010002000100030037
:104A70000100020001000500010002000100030026
:104A80000100020001000400010002000100030017
:104A90000100020001000600010002000100030005
:104AA00001000200010004000100020001000300F7
:104AB00001000200010005000100020001000300E6
:104AC00001000200010004000100020001000300D7
:104AD00001000200010007000100020001000300C4
:104AE00001000200010004000100020001000300B7
:104AF00001000200010005000100020001000300A6
:104B00000100020001000400010002000100030096
:104B10000100020001000600010002000100030084
:104B20000100020001000400010002000100030076
:104B30000100020001000500010002000100030065
:104B40000100020001000400010002000100030056
:104B500001000200010000002A2A2A2A2A2A2A2A01
:104B60002A2A2A2A2A2A2A2A2A2A2A2A2A2A2A2AA5
:104B70002A2A2A2A2A2A2A2A2A2A2A2A2A2A2A2A95
:104B80002A2A2A2A2A2A2A2A2A2A2A2A2A2A2A2A85
:104B90002A2A2A2A2A2A2A2A2A2A2A2A2A2A2A2A75
:104BA0002A2A2A2A2A2A0D0A000000002A2A20205E
:104BB000202020205374616E646172642073746DD0
:104BC00033322F75636F73322050726F6A6563746E
:104BD00009202020202020202020202020202020EC
:104BE00020202020202020202020202020202020C5
:104BF00020202020202A2A0D0A0000002A2A202016
:104C000020202020417574686F7220203A202020D7
:104C1000202020207A7A68657265202020202020BC
:104C20002020202020202020202020202020202084
:104C30002020202020202020202020202020202074
:104C400020202020202020202A2A0D0A00000000F9
:104C50002A2A20202020202056657273696F6E203A
:104C60003A20202020202020506F7461746F6573DB
:104C700020312E302E3020202020202020202020E7
:104C80002020202020202020202020202020202024
:104C90002020202020202020202020202A2A0D0A29
:104CA000000000002A2A20202020202054696D6561
:104CB000202020203A202020202020203230313493
:104CC0002E30362E32392020202020202020202077
:104CD00020202020202020202020202020202020D4
:104CE00020202020202020202020202020202020C4
:104CF0002A2A0D0A000000002F2A2A2A2A2A2A2AF4
:104D00002A2A2A2A2A2A2A2A2A2A2A2A2A2A2A2A03
:104D10002A2A2A2A2A2A2A2A2A2A2A2A2A2A2A2AF3
:104D20002A2A2A2A2A2A2A2A2A2A2A2A2A2A2A2AE3
:104D30002A2A2A2A2A2A2A2A2A2A2A2A2A2A2A2AD3
:104D40002A2A2A2A2A2A0D0A00010000000000004F
:104D50000000000001000000000000000000000151
:104D60000000000000000000000001000000000042
:104D70000000000000010000000000000000000032
:104D80000100000000000000000000010000000021
:104D90000000000000000100000000000000000012
:104DA00000010000000000000000000001020000FF
:104DB00000000000000000000200000000000000F1
:104DC00000000002000000000000000000000200DF
:104DD00000000000000000000002000000000000D1
:104DE00000000000020000000000000000000002BF
:104DF00000000000000000000000020000000000B1
:104E000000000000000200000000000000000000A0
:104E1000020100000000000000000001010000008D
:104E2000000000000001010100000000000000017E
:104E3000010101000000000000010101010100006A
:104E40000000000101010101010000000001010159
:104E50000101010100000001010101010101010046
:104E60000001010101010101010100010101010134
:104E70000101010101020000000000000000000229
:104E8000020000000000000000020202000000001A
:104E90000000000202020200000000000002020204
:104EA00002020000000000020202020202000000F2
:104EB00000020202020202020000000202020202DA
:104EC00002020200000202020202020202020002C8
:104ED00002020202020202020202020202020202B2
:104EE00002020201010101010101010101000000B2
:104EF00000000000000000020202020202020202A0
:104F00000201010101010101010101000000000095
:104F1000000000000002020202020202020202017C
:104F20000101010101010101010000000000000078
:104F3000000000020202020202020202020101015A
:104F4000010101010101010000000000000000005A
:104F50000001000100010001000100020002000246
:104F60000002000200000100010001000100010038
:104F70000200020002000200020100010001000123
:104F80000001000200020002000200020000010015
:104F90000100010001000100020002000200020005
:104FA00002010001000100010001000200020002F4
:104FB00000020002000001000100010001000100E8
:104FC00002000200020002000200010001000100D4
:104FD00001000100020002000200020002010001C3
:104FE00000010001000100020002000200020002B4
:104FF00000000100010001000100010002000200A8
:105000000200020002010001000100010001000293
:105010000002000200020002000001000100010085
:105020000100010002000200020002000201000172
:105030000001000100010002000200020002000263
:105040000002020202020202020202010101010147
:105050000101010101000000000000000000000249
:105060000202020202020202020101010101010127
:105070000101010000000000000000000002020227
:105080000202020202020201010101010101010109
:105090000100000000000000000000020202020205
:1050A00002020202020101010101010101010100EC
:1050B00000000000000000000000010101010101EA
:1050C00001010101000101010101010101010100D2
:1050D00001010101010101010101000101010101C1
:1050E00001010101010001010101010101010101B1
:1050F00000010101010101010101010001010101A2
:105100000101010101010001010101010101010190
:105110000100010101010101010101010000020280
:105120000202020202020202000202020202020261
:105130000202020002020202020202020202000253
:105140000202020202020202020002020202020241
:105150000202020200020202020202020202020033
:105160000202020202020202020200020202020221
:105170000202020202000202020202020202020211
:105180000001010101010101010101000101010111
:105190000101010101000001010101010101010002
:1051A00000000101010101010100000000010101F5
:1051B00001010100000000000101010101000000E7
:1051C00000000001010101000000000000000101D9
:1051D00001000000000000000001010000000000CC
:1051E00000000000010000000000000000000002BC
:1051F0000202020202020202020002020202020291
:105200000202020000020202020202020200000088
:105210000202020202020200000000020202020276
:105220000200000000000202020202000000000072
:105230000002020202000000000000000202020060
:10524000000000000000000202000000000000005A
:10525000000002000000000000000000000100004B
:10526000000000000000000001000000000000003D
:10527000000000010000000000000000000001002C
:10528000000000000000000000010000000000001D
:10529000000000000100000000000000000000010C
:1052A00000000000000000000000010000000000FD
:1052B00000000000000100000000000000000000ED
:1052C00001010000000000000000000001000000DB
:1052D00000000000000000010000000000000000CD
:1052E00000000100000000000000000000010000BC
:1052F00000000000000000000100000000000000AD
:10530000000000010000000000000000000001009B
:10531000000000000000000000010000000000008C
:10532000000000000101000000000000000000007B
:10533000010000000000000000000001000000006B
:10534000000000000000010000000000000000005C
:10535000000100000000000000000000010000004B
:10536000000000000000000100000000000000003C
:10537000000001000000000000000000000100002B
:10538000000000000000000001010000000000001B
:10539000000000000100000000000000000000010B
:1053A00000000000000000000000010000000000FC
:1053B00000000000000100000000000000000000EC
:1053C00001000000000000000000000100000000DB
:1053D00000000000000001000000000000000000CC
:1053E00000010000000000000000000001010000BA
:1053F00000000000000000000100000000000000AC
:10540000000000010000000000000000000001009A
:10541000000000000000000000010000000000008B
:10542000000000000100000000000000000000017A
:10543000000000000000000000000100000000006B
:10544000000000000001000000000000000000005B
:105450000101000000000000000000000100000049
:10546000000000000000000100000000000000003B
:10547000000001000000000000000000000100002A
:10548000000000000000000001000000000000001B
:10549000000000010000000000000000000001000A
:1054A00000000000000000000001000000000000FB
:1054B00000000000010100000000000000000000EA
:1054C00001000000000000000000000100000000DA
:1054D00000000000000001000000000000000000CB
:1054E00000010000000000000000000001000000BA
:1054F00000000000000000010000000000000000AB
:105500000000010000000000000000000001000099
:105510000000000000000000010100000000000089
:105520000000000001000000000000000000000179
:10553000000000000000000000000100000000006A
:10554000000000000001000000000000000000005A
:105550000100000000000000000000010000000049
:10556000000000000000010000000000000000003A
:105570000001000000000000000000000101000028
:10558000000000000000000001000000000000001A
:105590000000000100000000000000000000010009
:1055A00000000000000000000001000000000000FA
:1055B00000000000010000000000000000000001E9
:1055C00000000000000000000000010000000000DA
:1055D00000000000000100000000000000000000CA
:1055E00001010000000000000000000001000000B8
:1055F00000000000000000010000000000000000AA
:105600000000010000000000000000000001000098
:105610000000000000000000010000000000000089
:105620000000000100000000000000000000010078
:105630000000000000000000000100000000000069
:105640000000000001000000685600080000002073
:10565000100100006C0100087857000810010020BC
:10566000E02500008801000800A24A0400000000B4
:105670000000000001020304060708090000000002
:1056800001020304010203040607080902040608D4
:10569000000000000000000000000000000000000A
:1056A00000000000000000000000000000000000FA
:1056B00000000000000000000000000000000000EA
:1056C00000000000000000000000000000000000DA
:1056D0000000000000000000000000000A000A00B6
:1056E000F4010000494D00080A000A00F40100001E
:1056F000AD4D00080A000A00F4010000114E000838
:105700000A000A00F4010000754E00080A000C00AF
:10571000F4010000D94E00080A000C00F40100005A
:10572000514F00080A000C00F4010000C94F0008A6
:105730000A000C00F4010000415000080A000A00B1
:10574000F4010000B95000080A000A00F40100004A
:105750001D5100080A000B00F401000081510008EF
:105760000A000B00F4010000EF5100080A00640079
:08577000640000005D52000816
:0400000508000131BD
:00000001FF
