:020000040800F2
:10000000E8370020C90100085D5900085F59000861
:1000100063590008675900086B5900080000000088
:100020000000000000000000000000006F59000800
:1000300071590008000000005F560008755900085B
:10004000E3010008E3010008E3010008E301000800
:10005000E3010008E3010008E3010008E3010008F0
:10006000E3010008E3010008E3010008E3010008E0
:10007000E3010008E3010008E3010008E3010008D0
:10008000E3010008E3010008E3010008A7590008A4
:10009000AF590008E3010008E3010008E30100088C
:1000A000E3010008E3010008E3010008E3010008A0
:1000B0007D590008E3010008E3010008E30100089E
:1000C000E3010008E3010008E3010008E301000880
:1000D000E3010008BB3C0008E3010008E30100085D
:1000E000E3010008E3010008B759000800F002F836
:1000F00000F05AF80AA090E8000C82448344AAF168
:100100000107DA4501D100F04FF8AFF2090EBAE865
:100110000F0013F0010F18BFFB1A43F0010318473B
:10012000607C0000807C00000A444FF0000C10F856
:10013000013B13F0070408BF10F8014B1D1108BF65
:1001400010F8015B641E05D010F8016B641E01F805
:10015000016BF9D113F0080F1EBF10F8014BAD1C55
:100160000C1B09D16D1E58BF01F801CBFAD505E073
:1001700014F8016B01F8016B6D1EF9D59142D6D3CD
:10018000704700000023002400250026103A28BFF5
:1001900078C1FBD8520728BF30C148BF0B607047F9
:1001A0001FB51FBD10B510BD06F041FF1146FFF78A
:1001B000F7FF05F0BEFB06F05FFF03B4FFF7F2FFA9
:1001C00003BC06F063FF0000094880470948004768
:1001D000FEE7FEE7FEE7FEE7FEE7FEE7FEE7FEE7F7
:1001E000FEE7FEE704480549054A064B7047000054
:1001F000A15A0008ED000008E8310020E83700208F
:10020000E8330020E833002031490143314A1160CE
:10021000704770B5002100230F22C4780CB32D4C19
:10022000246804F4E064C4F5E064210AC1F1040325
:10023000CA40447804FA03F1847814402143090148
:10024000254C0678A155047804F01F050124AC4024
:1002500005786D114FF0E02606EB8505C5F80041E5
:1002600009E0047804F01F050124AC401B4D06781A
:10027000761145F8264070BD194A0A400243154BD5
:100280001B1F1A60704739B1124A121D12680243CF
:10029000104B1B1D1A6006E00E4A121D12688243A5
:1002A0000C4B1B1D1A607047042808D14FF0E02149
:1002B000096941F004014FF0E022116107E04FF0BD
:1002C000E021096921F004014FF0E022116170473B
:1002D0000000FA050CED00E000E400E080E100E041
:1002E00080FFFF1F002044490860091D0860091DA8
:1002F0000860091D086041483F4914310860704793
:1003000000213D498279002A3AD00A4612680368E2
:100310009A430B461A600A1D126803689A430B1D24
:100320001A60027911440A6803681A430A60324A63
:100330000832126803689A432F4B08331A601A1D5B
:10034000126803689A432C4B0C331A604279102AC6
:100350000ED11A1F126803681A43274B08331A601C
:100360001A1D126803681A43234B0C331A600DE000
:100370002149427911440A6803681A430A6005E07A
:10038000027911440A6803689A430A6070470021A1
:10039000016001710C214171002181717047164982
:1003A000103109680143144A103211607047014648
:1003B0000020114A143212680A4201D0012000E0E4
:1003C000002070470C491431086070470146002036
:1003D0000022094B1B6803EA0102074B14331B6818
:1003E0000B4202D00AB1012000E000207047024910
:1003F000143108607047000000040140FFFF0F0047
:1004000001460020FE4A106800F0380008431060E2
:100410007047FB49096821F00801F94A116011464B
:100420000968014311607047F549096821F010011E
:10043000F34A116011460968014311607047F148A1
:10044000EF494860F04848607047EE48EC49486022
:10045000ED4848607047EA48006940F08000E8498C
:1004600008617047E648006940F08000E44908618F
:1004700070470420E249C96811F0010F01D0012042
:100480000EE0DF49C96811F0040F01D0022007E037
:10049000DB49C96811F0100F01D0032000E00420EF
:1004A000704700B502460423FFF7E3FF034603E06D
:1004B000FFF7DFFF0346521E012B01D1002AF7D1BF
:1004C00002B90523184600BD30B5044604254FF493
:1004D0003020FFF7E6FF0546042D17D1C848006914
:1004E00040F00200C649086108464461006940F0D6
:1004F000400008614FF43020FFF7D3FF0546C048A5
:10050000006941F6FD710840BD490861284630BDCB
:1005100010B504244FF43020FFF7C3FF0446042C29
:1005200016D1B748006940F00400B5490861084693
:10053000006940F0400008614FF43020FFF7B1FF40
:100540000446AF48006941F6FB710840AC490861B8
:10055000204610BD00B502460423FFF78AFF03467C
:1005600003E0FFF786FF0346521E012B01D1002A4C
:10057000F7D102B90523184600BD10B504244FF485
:100580003020FFF7E7FF0446042C16D19C48006991
:1005900040F004009A4908610846006940F04000B4
:1005A00008614FF43020FFF7D5FF044694480069F6
:1005B00041F6FB71084092490861204610BD0020B9
:1005C0008F49C96911F0020F01D0012000E000201D
:1005D000704730B5A5250424FFF7F1FF00B10025D1
:1005E0004FF43020FFF75DFF0446042C3AD18548D4
:1005F00083498860844888600846006940F020008C
:1006000008610846006940F0400008614FF430205E
:10061000FFF747FF0446042C1BD17948006941F6D7
:10062000DF710840764908610846006940F0100013
:10063000086176480580E002FFF733FF0446052C89
:1006400010D06F48006941F6EF7108406C490861AD
:1006500008E0052C06D06A48006941F6EF710840B1
:1006600067490861204630BD78B506460C4604252A
:1006700000200090E802FFF714FF0546042D24D166
:100680005F48006940F001005D4908613480E8027C
:10069000FFF707FF0546042D10D1B01C0090200C79
:1006A00000990880E802FFF7FCFE054654480069FF
:1006B00041F6FE7108405249086106E05048006961
:1006C00041F6FE7108404E490861284678BD70B574
:1006D00004460D460426F002FFF7E3FE0646042E0C
:1006E00011D14748006940F0010045490861258063
:1006F000F002FFF7D6FE06464148006941F6FE715A
:1007000008403F490861304670BD70B505460E4649
:100710000424E002FFF7C5FE0446042C17D1394833
:1007200037498860384888600846006940F0100002
:1007300008612E80E002FFF7B4FE0446052C06D0C7
:100740002F48006941F6EF7108402D4908612046A5
:1007500070BD2DE9F04304464FF6FF763746B046AC
:10076000B1460425E443E6B2C4F30727C4F30748BF
:100770004FEA1469E802FFF794FE0546042D49D1BB
:1007800020481F498860204888600846006940F07A
:1007900010000861FF2E06D01C4808300680E802D1
:1007A000FFF77FFE0546042D08D1FF2F06D017481E
:1007B0000A300780E802FFF774FE0546042D0AD1CF
:1007C000B8F1FF0F07D011480C30A0F80080E80204
:1007D000FFF767FE0546042D0AD1B9F1FF0F07D0D8
:1007E0000A480E30A0F80090E802FFF75AFE0546CE
:1007F000052D0FD00248006941F6EF71084007E06F
:100800000020024023016745AB89EFCD00F8FF1FB0
:10081000664908612846BDE8F08330B505460424E2
:100820004FF43020FFF73DFE0446042C41D16048D0
:100830005E4988605F4888600846006940F0200093
:1008400008610846006940F0400008614FF430201C
:10085000FFF727FE0446042C22D15448006941F6D4
:10086000DF710840514908610846006940F01000F6
:1008700008611DB100205049088002E0A5204E49C2
:1008800008804FF43020FFF70CFE0446052C10D0F2
:100890004648006941F6EF7108404449086108E0A4
:1008A000052C06D04148006941F6DF7108403F49F8
:1008B0000861204630BDF0B505460E4617460424B3
:1008C0003B483A4988603B488860E002FFF7E9FD11
:1008D0000446042C19D13548006940F01000334912
:1008E000086147F0F800304328433349891C0880E9
:1008F000E002FFF7D6FD0446052C06D02B48006920
:1009000041F6EF710840294908612046F0BD2748AB
:10091000C069800870472548006A70470020234955
:10092000096811F0200F01D0012000E0002070477D
:1009300029B11E4A126902431C4B1A6104E01B4A8A
:1009400012698243194B1A61704701460020012940
:1009500008D1164AD26912F0010F01D0012008E037
:10096000002006E0114AD2680A4201D0012000E0CE
:10097000002070470D49C860704704200B49C968C2
:1009800011F0010F01D001200EE00849C96811F0F3
:10099000040F01D0022007E00449C96811F0100FCC
:1009A00001D0032000E00420704700000020024036
:1009B00023016745AB89EFCD00F8FF1F10B5044652
:1009C000CA48844208D10121042000F027FB0021FD
:1009D000042000F023FB46E0C548844208D10121F1
:1009E000082000F01BFB0021082000F017FB3AE074
:1009F000C048844208D10121102000F00FFB0021E3
:100A0000102000F00BFB2EE0BB48844208D10121EE
:100A1000202000F003FB0021202000F0FFFA22E05C
:100A2000B648844208D10121402000F0F7FA0021A5
:100A3000402000F0F3FA16E0B148844208D10121C9
:100A4000802000F0EBFA0021802000F0E7FA0AE0B5
:100A5000AC48844207D10121801500F0DFFA002163
:100A6000A01500F0DBFA10BD10B50121084600F01A
:100A7000D5FA0021012000F0D1FA10BD2DE9F04196
:100A8000024600250026002000230024002791F8BC
:100A900003C00CF00F0591F803C01CF0100F03D039
:100AA00091F802C04CEA050591F800C0BCF1000FB6
:100AB00031D0146800202BE04FF0010C0CFA00F349
:100AC000B1F800C00CEA03069E4220D183004FF02B
:100AD0000F0C0CFA03F7BC4305FA03FC4CEA0404C0
:100AE00091F803C0BCF1280F06D14FF0010C0CFAAD
:100AF00000FCC2F814C00AE091F803C0BCF1480F32
:100B000005D14FF0010C0CFA00FCC2F810C0401CDB
:100B10000828D1D31460B1F800C0BCF1FF0F34DD58
:100B2000546800202EE000F1080C4FF0010808FA8C
:100B30000CF3B1F800C00CEA03069E4221D18300F9
:100B40004FF00F0C0CFA03F7BC4305FA03FC4CEA18
:100B5000040491F803C0BCF1280F05D100F1080C82
:100B600008FA0CF8C2F8148091F803C0BCF1480FE1
:100B700007D100F1080C4FF0010808FA0CF8C2F890
:100B80001080401C0828CED35460BDE8F0814FF699
:100B9000FF710180022181700421C17070470246FB
:100BA000002093680B4201D0012000E00020704734
:100BB0000146886880B2704702460020D3680B4225
:100BC00001D0012000E0002070470146C86880B2D3
:100BD000704701617047416170470AB1016100E0EF
:100BE00041617047C16070474FF480320A438261AF
:100BF0008161826182698269704702460020424BAE
:100C000018684FF68073184040EA021008433E4BC4
:100C1000186070473D49C8617047F0B50A46002327
:100C200000240021002500F00046B6F1004F02D15B
:100C3000354EF16901E0344E7168C0F3034583B26B
:100C400000F44016B6F5401F08D121F070612E4E19
:100C5000766826F070662C4F7E6012E000F48016F5
:100C6000B6F5801F06D1032606FA05F4A14341F02C
:100C7000706106E0460D360103FA06F6B14341F015
:100C8000706122B1460D360103FA06F6314300F0D9
:100C90000046B6F1004F02D11B4EF16101E01A4E41
:100CA0007160F0BD30B500228B071C0F0F2303FAD3
:100CB00004F2154B08338C1053F824309343124C34
:100CC00008348D1044F8253023468C1053F8243016
:100CD0008C07240F00FA04F423430B4C08348D10C6
:100CE00044F8253030BD0A490860704700080140CB
:100CF000000C0140001001400014014000180140A8
:100D0000001C014000200140000001400000204282
:100D1000DC002042DD48006840F00100DB4908604B
:100D200008464068DA490840D849486008460068E3
:100D3000D8490840D54908600846006820F480205A
:100D400008600846406820F4FE0048604FF41F0029
:100D500088607047CD49096821F48031CB4A116021
:100D60001146096821F480211160B0F5803F03D05D
:100D7000B0F5802F0ED106E0C449096841F48031F6
:100D8000C24A116007E0C149096841F4A021BF4A85
:100D9000116000E000BF00BF704710B5014600229F
:100DA000002300204A11012A02D1B84C236806E032
:100DB000022A02D1B54C236A01E0B44C636A01F007
:100DC0001F02012494401C4201D0012000E00020B9
:100DD00010BD38B5002000900024002500BF312050
:100DE000FFF7DBFF05460098401C00900098B0F527
:100DF000A06F01D0002DF2D03120FFF7CEFF08B157
:100E0000012400E00024204638BD014600209F4A0E
:100E1000106820F0F80040EAC100106070479E4959
:100E20000860704702460020984B586820F47C10F8
:100E300042EA01031843954B58607047964908668B
:100E4000704701460020914A506820F00300084393
:100E5000506070478D48406800F00C0070470146B4
:100E600000208A4A506820F0F00008435060704724
:100E700001460020854A506820F4E0600843506035
:100E8000704701460020814A506820F4605040EAD3
:100E9000C1005060704729B17C4A527A02437B4BB3
:100EA0005A7204E0794A527A8243784B5A727047F8
:100EB0007A490860704701460020744A506820F45F
:100EC00040400843506070470021754A11706F4AD6
:100ED00082F82010012802D0042808D103E0012163
:100EE0006F4A117004E005216D4A117000E000BFE7
:100EF00000BF70476B49086070476449096A014345
:100F0000624A11627047674944390860704730B5DA
:100F100000210022002400235C4D6D6805F00C01C7
:100F200021B1042905D0082923D105E05E4D0560D3
:100F300022E05D4D05601FE0544D6D6805F47012B0
:100F4000524D6D6805F48034022505EB92421CB9C0
:100F5000564D554305600BE04C4D6D6815F4003F50
:100F600003D0524D5543056002E04F4D5543056097
:100F700002E04D4D056000BF00BF444D6D6805F0B7
:100F8000F00109094A4D6B5C0568DD4045603F4D45
:100F90006D6805F4E061090A454D6B5C4568DD400C
:100FA00085603A4D6D6805F46051C90A404D6B5C2F
:100FB0004568DD40C560354D6D6805F44041890BDD
:100FC0003C4D6B5CC568B5FBF3F5056130BD29B1DF
:100FD0002E4A526902432D4B5A6104E02B4A526952
:100FE00082432A4B5A61704729B1284A92690243C9
:100FF000264B9A6104E0254A92698243234B9A6109
:10100000704729B1214AD2690243204BDA6104E0DA
:101010001E4AD26982431D4BDA61704729B11B4ACF
:10102000D2680243194BDA6004E0184AD26882435E
:10103000164BDA60704729B1144A12690243134B08
:101040001A6104E0114A12698243104B1A61704719
:1010500014494039086070470F49C86470470B490C
:10106000C87170470948406A40F08070074948627B
:10107000704701460020054A92680A4201D00120CB
:1010800000E000207047014988727047001002405C
:101090000000FFF8FFFFF6FE00004242D800424287
:1010A000201002408004424200127A0000093D00F4
:1010B000000000201000002010B50446FE488442C5
:1010C00008D10121C014FFF7A9FF0021E014FFF7A8
:1010D000A5FFC4E0B4F1804F08D101210846FFF715
:1010E000AAFF00210120FFF7A6FFB8E0F3488442E1
:1010F00008D101210220FFF79EFF00210220FFF707
:101100009AFFACE0EE48844208D101210420FFF7A9
:1011100092FF00210420FFF78EFFA0E0E9488442FF
:1011200008D101210820FFF786FF00210820FFF7E2
:1011300082FF94E0E448844208D101211020FFF7A7
:101140007AFF00211020FFF776FF88E0DF48844215
:1011500008D101212020FFF76EFF00212020FFF79A
:101160006AFF7CE0DA48844208D101214014FFF78D
:1011700055FF00216014FFF751FF70E0D54884420D
:1011800009D10121C804FFF749FF00214FF40020D5
:10119000FFF744FF63E0D048844209D101210805EC
:1011A000FFF73CFF00214FF48010FFF737FF56E0B8
:1011B000CA48844209D101214805FFF72FFF0021C9
:1011C0004FF40010FFF72AFF49E0C548844208D1D8
:1011D00001214020FFF72FFF00214020FFF72BFFC8
:1011E0003DE0C048844208D101218020FFF723FF61
:1011F00000218020FFF71FFF31E0BB48844208D167
:1012000001218015FFF717FF0021A015FFF713FF3D
:1012100025E0B648844209D101210804FFF7FEFE0B
:1012200000214FF48030FFF7F9FE18E0B048844207
:1012300009D101214804FFF7F1FE00214FF40030ED
:10124000FFF7ECFE0BE0AB48844208D10121880493
:10125000FFF7E4FE00214FF48020FFF7DFFE10BD12
:1012600000220288944B98420ED0994B98420BD0A2
:10127000B0F1804F08D0914B984205D0904B9842E6
:1012800002D0904B984204D14FF68F731A404B888E
:101290001A438D4B984207D08C4B984204D04FF69E
:1012A000FF431A40CB881A4302808B8883850B88C2
:1012B0000385814B98420BD0854B984208D08B4BCD
:1012C000984205D08A4B984202D08A4B984201D16D
:1012D0000B7A038601238382704770B500240022B5
:1012E0000023058C4FF6FE7635400584028C8388FA
:1012F000048B4FF68F752C40B51E2C400D882C4367
:10130000751E2A400D892A434D882A436A4DA842FA
:101310000BD06F4DA84208D0744DA84205D0744D33
:10132000A84202D0734DA84213D14FF6F7752A4058
:101330004D892A434FF6FB752A408D882A434FF684
:10134000FF652B404FF6FF552B408D892B43CD89F0
:101350002B4383800483CD888586028470BD70B55D
:10136000002400220023058C4FF6EF7635400584DB
:10137000028C8388048B48F6FF752C404FF6FF459E
:101380002C400D884FF6FF7606EA05252C434FF6D4
:10139000DF752A400D8906EA05152A434D8806EABD
:1013A00005152A43444DA84202D0494DA8421DD1FB
:1013B0004FF67F752A404D894FF6FF7606EA0515F0
:1013C0002A434FF6BF752A408D8806EA05152A4341
:1013D0004FF6FF352B404FF2FF752B408D8906EA03
:1013E00085052B43CD8906EA85052B43838004833D
:1013F000CD880587028470BD70B5002400220023CB
:10140000058C4FF6FF6635400584028C8388848BFB
:101410004FF68F752C404FF6FC752C400D882C43F1
:101420004FF6FF552A400D894FF6FF7606EA05254F
:101430002A434D8806EA05252A431F4DA84202D0BB
:10144000234DA8421DD14FF2FF752A404D894FF61A
:10145000FF7606EA05252A434FF6FF352A408D8898
:1014600006EA05252A434EF6FF752B404DF6FF751B
:101470002B408D8906EA05152B43CD8906EA051513
:101480002B4383808483CD888587028470BD70B5AB
:10149000002200230024058C4EF6FF76354005849B
:1014A000038C8488828B48F6FF752A404FF6FF45EF
:1014B0002A400D8820E00000002C0140000400407C
:1014C00000080040000C00400010004000140040E4
:1014D00000340140004C01400050014000540140E4
:1014E00000180040001C0040002000400040014067
:1014F00000440140004801404FF6FF7606EA05250A
:101500002A434DF6FF752B400D8906EA05352B431E
:101510004D8806EA05352B43FA4DA84202D0FA4D14
:10152000A84208D14BF6FF752C408D894FF6FF7607
:1015300006EA85152C4384808283CD88A0F840502C
:10154000038470BD828B4FF2FF331A408283828BFB
:101550004FF6FF7303EA01231A4382837047F0B505
:101560000C461546002200210026078C4EF6FF7C13
:1015700007EA0C070784828B018C4FF6FF7707EA96
:10158000043640F6FF473A404FF6FF7707EA052753
:101590003A434FF6FF7707EA03373A43D94FB84249
:1015A0000ED0D94FB8420BD0B0F1804F08D0D74FF2
:1015B000B84205D0D64FB84202D0D64FB84206D175
:1015C0004DF6FF77394046F48057394305E047F63A
:1015D000FF57394044F48057394382830184F0BD7A
:1015E000828B4FF6F3731A408283828B0A43828385
:1015F0007047F0B50C461546002200210026078CE6
:101600004FF6FF6C07EA0C070784828B018C4FF6BC
:10161000FF7707EA04264FF60C773A404FF6FF773C
:1016200007EA03172F433A43B64FB8420ED0B64FDE
:10163000B8420BD0B0F1804F08D0B44FB84205D0BB
:10164000B34FB84202D0B34FB84206D14FF6FF575E
:10165000394046F48077394305E04FF2FF5739406F
:1016600044F48077394382830184F0BD028B4FF2CA
:10167000FF331A400283028B4FF6FF7303EA012304
:101680001A4302837047F0B50C461546002200212C
:101690000026078C4FF6EF7C07EA0C070784028BC5
:1016A000018C4FF6FF7707EA041640F6FF473A40F1
:1016B0004FF6FF7707EA03373A434FF6FF7707EA1B
:1016C00005273A438F4FB8420ED08F4FB8420BD008
:1016D000B0F1804F08D08D4FB84205D08C4FB84242
:1016E00002D08C4FB84206D14FF6DF77394046F032
:1016F0001007394305E04FF65F77394044F0100793
:10170000394302830184F0BD028B4FF6F3731A4014
:101710000283028B0A4302837047F0B50C461546DC
:1017200000220021068C4FF6FE773E400684028B95
:10173000018C4FF60C7632407E1C06EA03162E43CF
:101740003243704EB0420ED06F4EB0420BD0B0F16B
:10175000804F08D06D4EB04205D06D4EB04202D0E1
:101760006C4EB04206D14FF6FD76314044F0010692
:10177000314305E04FF6F576314044F00106314340
:1017800002830184F0BD70B505460C465D48854274
:101790000ED05D4885420BD0B5F1804F08D05B4834
:1017A000854205D05A48854202D05A48854200D128
:1017B00000E000BF208850B92389A28861882846AC
:1017C000FFF7ABFFE1882846FFF79EFF25E0208862
:1017D00004280AD12389A28861882846FFF753FF8D
:1017E000E1882846FFF742FF17E0208808280AD141
:1017F0002389A28861882846FFF7FBFEE1882846F6
:10180000FFF7EEFE09E02389A28861882846FFF7EA
:10181000A6FEE1882846FFF795FE70BD2DE9F04150
:1018200005460C4600260127608808B9022600E01C
:101830000026A088012801D1022700E00127208886
:10184000A0B92389A28861882846FFF766FFE1884E
:101850002846FFF759FF23893A4631462846FFF7C5
:1018600012FFE1882846FFF701FF13E02389A288D1
:1018700061882846FFF707FFE1882846FFF7F6FE54
:1018800023893A4631462846FFF747FFE188284634
:10189000FFF73AFFBDE8F0810A884B881A438B882E
:1018A0001A43CB881A430B891A434B891A438B89F5
:1018B0001A43A0F8442070474FF6FF718180002141
:1018C0000180C18041800172704700210180418008
:1018D0008180C180018141818181C1817047002166
:1018E00001804180012181800021C18001817047F8
:1018F0000021018041808180C180018141818181FD
:1019000070470000002C01400034014000040040FA
:1019100000080040000C004021B1028842F00102A2
:10192000028004E002884FF6FE731A40028070477E
:1019300031B1B0F8442042F40042A0F8442005E060
:10194000B0F84420C2F30E02A0F8442070471AB148
:1019500083890B43838102E083898B4383817047B2
:101960008182704741EA0203A0F8483070471AB1FB
:1019700083890B43838102E083898B438381704792
:1019800001894FF6F8721140018170470A46002123
:1019900001894FF68F73194011430181704730B5AB
:1019A00004460D4629462046FFF7F0FF208940F007
:1019B0000700208130BD2DE9F04104460D46164652
:1019C0001F46602D06D13B46012231462046FFF7D7
:1019D0005AFE05E03B46012231462046FFF79DFEB8
:1019E00029462046FFF7D2FF208940F007002081DA
:1019F000BDE8F08130B50C4600210189C9B24FF62F
:101A0000FF7505EA0325154325432943018130BDB0
:101A10002DE9F04105460E461746984600244346F8
:101A20003A4631462846FFF7E5FF2C894FF6F87015
:101A3000044044F007044FF68F70044044F07004F3
:101A40002C81BDE8F081F0B504460D4616461F46D0
:101A50003B46324629462046FFF7CCFF208940F41A
:101A600080402081F0BD0185828270470A460021B6
:101A700001884FF68F731940114301807047F0B50C
:101A80000C4615461E460021002200230189028BC8
:101A9000038C4FF6F877394021434FF6FC473A4024
:101AA00040F201173A434FF6DD773B404FF6FF77A0
:101AB00007EA06172F433B43018102830384F0BDED
:101AC0000A460021018B4FF68F73194011430183A1
:101AD00070470A460021018B48F6FF7319404FF604
:101AE000FF7303EA02231943018370470A4600216A
:101AF000818B4FF68F7319401143818370470A46DB
:101B00000021818B48F6FF7319404FF6FF7303EAFB
:101B1000022319438183704721B1028842F0800279
:101B2000028004E002884FF67F731A4002807047FB
:101B300021B1828842F00402828004E082884FF65C
:101B4000FB731A408280704721B1828842F00802FC
:101B5000828004E082884FF6F7731A4082807047D3
:101B600021B1828842F00102828004E082884FF62F
:101B7000FE731A40828070470A460021018B4FF69F
:101B8000F77319401143018370470A460021018B06
:101B90004FF2FF7319404FF6FF7303EA0223194314
:101BA000018370470A460021818B4FF6F773194075
:101BB0001143818370470A460021818B4FF2FF73E6
:101BC00019404FF6FF7303EA0223194381837047DC
:101BD0000A460021018B4FF6FB7319401143018324
:101BE00070470A460021018B4FF6FF3319404FF62C
:101BF000FF7303EA02231943018370470A46002159
:101C0000818B4FF6FB7319401143818370470A465D
:101C10000021818B4FF6FF3319404FF6FF7303EA23
:101C200002231943818370470A460021018B4FF636
:101C30007F7319401143018370470A460021018BCD
:101C4000C1F30E014FF6FF7303EA02231943018328
:101C500070470A460021818B4FF67F73194011436C
:101C6000818370470A460021818BC1F30E014FF634
:101C7000FF7303EA02231943818370470A46002158
:101C8000018C4FF6FD7319401143018470470A46D9
:101C90000021018C4FF6F7731940114301847047FE
:101CA0000A460021018C4FF6DF7319404FF6FF738F
:101CB00003EA02131943018470470A460021018C8C
:101CC0004FF67F7319404FF6FF7303EA021319436F
:101CD000018470470A460021018C4FF6FF531940DA
:101CE0004FF6FF7303EA02231943018470470A4643
:101CF0000021018C4FF2FF7319404FF6FF7303EA86
:101D000002231943018470470A460021018C4DF6D5
:101D1000FF7319404FF6FF7303EA0233194301843E
:101D2000704730B5002301248C40A3B2048C9C433F
:101D30000484048C02FA01F5ADB22C43048430BD56
:101D400030B5002304248C40A3B2048C9C4304844B
:101D5000048C02FA01F5ADB22C43048430BD70B599
:101D60000346002000241846183001258D40ACB2EF
:101D70001D8CA5431D8409B1082909D100EB610020
:101D8000056825F0700505600568154305600EE0DF
:101D90000D1FC5F34E052844056825F4E045056090
:101DA00005684FF6FF7606EA02263543056070BDEA
:101DB00021B1028842F00202028004E002884FF65C
:101DC000FD731A400280704721B1028842F004027C
:101DD000028004E002884FF6FB731A4002807047CD
:101DE00021B1828842F08002828004E082884FF62E
:101DF0007F731A408280704702884FF6F7731A404B
:101E0000028002880A430280704782884FF68F73EF
:101E10001A40828082880A438280704702894FF686
:101E2000F8731A40028102890A43028170470289CD
:101E30004FF67F731A40028102890A43028170477C
:101E4000818470478185704781867047018770471C
:101E500081877047A0F84010704702884FF6FF4313
:101E60001A40028002880A43028070470146888E29
:101E700070470146088F70470146888F70470146BA
:101E8000B1F8400070470146888C70470146088DC4
:101E9000704702460020138A0B4201D0012000E067
:101EA00000207047CA430282704730B502460020C6
:101EB00000230024158A05EA0103958905EA010437
:101EC00013B10CB1012000E0002030BDCA430282F2
:101ED0007047000010B50446FB48844209D1012137
:101EE0008803FFF79BF800214FF48040FFF796F836
:101EF00032E0F648844209D101214804FFF79BF8FB
:101F000000214FF40030FFF796F825E0F0488442B6
:101F100009D101218804FFF78EF800214FF48020B9
:101F2000FFF789F818E0EB48844209D10121C80481
:101F3000FFF781F800214FF40020FFF77CF80BE059
:101F4000E548844208D101210805FFF774F8002113
:101F50004FF48010FFF76FF810BD2DE9F04786B001
:101F600005460E460024A24600BFA1460027B089C0
:101F700000B100BF2F462C8A4CF6FF700440F08859
:101F800004432C82AC894EF6F3100440B0883189AA
:101F90000843718908430443AC81AC8A4FF6FF4083
:101FA0000440B0890443AC8201A8FEF7B0FFC648E4
:101FB000874202D1DDF810A001E0DDF80CA0A8896D
:101FC00010F4004F08D00AEBCA0000EB0A10316889
:101FD0004900B0FBF1F807E00AEBCA0000EB0A1079
:101FE00031688900B0FBF1F86420B8FBF0F004011F
:101FF0002009642101FB1089A88910F4004F08D042
:10200000322000EBC900B0FBF1F000F00700044300
:1020100008E0322000EB09106421B0FBF1F000F081
:102020000F0004432C8106B0BDE8F0874FF4165131
:10203000016000218180C18001810C21418100214A
:102040008181704710B502460020108A4FF2FF03CD
:1020500018400B884C8823438C882343CC88234327
:102060001843108210BD0021018041808180C18011
:10207000704721B1828942F40052828104E0828952
:102080004DF6FF731A4082817047F0B50346002475
:10209000002600250020A1F510676A3F00D100BF8F
:1020A0001846C1F3421401F01F06012707FA06F58E
:1020B000012C01D10C3004E0022C01D1103000E0E1
:1020C00014301AB107682F43076002E00768AF4376
:1020D0000760F0BD1AB1838A0B43838202E0838AD2
:1020E0008B4383827047028A4FF6F0731A40028254
:1020F000028A0A430282704782894FF2FF731A40B4
:10210000828182890A438281704721B1828942F0AB
:102110000202828104E082894FF6FD731A408281B7
:102120007047028A4FF6DF731A400282028A0A431E
:102130000282704721B1028A42F48042028204E0A6
:10214000028A4BF6FF731A4002827047C1F30802FD
:102150008280704701468888C0F3080070478189F3
:1021600041F0010181817047028BD2B20283028B60
:1021700042EA012202837047028B02F47F4202830B
:10218000028B0A430283704721B1828A42F0200207
:10219000828204E0828A4FF6DF731A40828270479F
:1021A00021B1828A42F01002828204E0828A4FF6D4
:1021B000EF731A408282704721B1828A42F008028E
:1021C000828204E0828A4FF6F7731A408282704757
:1021D00021B1828942F40042828103E08289C2F304
:1021E0000E028281704721B1828A42F400628282AB
:1021F00004E0828A4FF2FF731A4082827047828A1B
:102200004FF6FB731A408282828A0A4382827047A9
:1022100021B1828A42F00202828204E0828A4FF671
:10222000FD731A408282704702460020B1F5007F9C
:1022300000D100BF13880B4201D0012000E0002034
:10224000704701F40072B2F5007F00D100BFCA43AD
:102250000280704770B5024600240023002500204C
:10226000A1F510666A3E00D100BFC1F3421501F02E
:102270001F03012606FA03F3012D02D1968933408C
:1022800006E0022D02D1168A334001E0968A3340DF
:102290000C12012606FA04F41688344013B10CB16E
:1022A000012000E0002070BD10B500220023A1F540
:1022B00010646A3C00D100BF0A1201249440A3B20A
:1022C000DC43048010BD00000038014000440040A1
:1022D00000480040004C00400050004010B504464B
:1022E0002CB90120FE4909680882002010BDFD4973
:1022F000096808688047FA4800680A30F6E710B5B0
:10230000F7480068C078F8494978884213DCF448F7
:102310000068807878B9F2480068808858B9F04839
:102320000068C078EE4909688872EE490968486813
:102330008047002010BD0220FCE710B504462CB9F0
:102340000120E74909680882002010BDE5490968B5
:1023500088688047E24800680C30F6E710B5E04B2B
:102360001B68D978DE4B1B685879E04B1B689A696B
:1023700090470446DA480068807AE8B13CB9D8480A
:102380000068007918B9D6480068807808B1022042
:1023900010BD8CB9D3490968C8688047D048006827
:1023A0004079CF490968C872CD480068C078CC49E7
:1023B000096808730020EBE70220E9E710B504463E
:1023C0002CB90220C64909680882002010BD0020EF
:1023D000C7490880C2480068007810F07F0F23D1F9
:1023E000BF490968487A10F0200F06D0C049097823
:1023F00041F00201BE4A117005E0BD49097801F0C3
:10240000FD01BB4A117010F0400F06D0B8490978A1
:1024100041F00101B64A117005E0B549097801F0B3
:10242000FE01B34A117036E0AD480068007800F054
:102430007F00012801D1AE48C8E7A94800680078AC
:1024400000F07F00022824D1A54A1268517901F0DA
:102450000F0011F0800F0DD0A64A52F8202002F094
:102460003002102A14D1A24A127842F00102A04B85
:102470001A700DE09F4A52F8202002F44052B2F543
:10248000805F05D19A4A127842F00102984B1A7087
:1024900001E000209AE79349096808698047944859
:1024A00094E72DE9F0478E480068007800F07F0837
:1024B000B8F1000F0AD18A480068407A00F0DF00C6
:1024C0008749096848720020BDE8F087B8F1020F1B
:1024D0007ED183480068408818B981480068007937
:1024E00008B10220F0E7DFF800927D4800684779E4
:1024F00027F080052C467A480068407910F0800F5C
:1025000005D07C4850F8240000F0300604E07948FB
:1025100050F8240000F4405699F80000A84204D96D
:102520001EB16F480068807A08B90220CCE717F026
:10253000800F0ED06F4850F8240000F030001028B3
:102540003FD1E0B200F0B9FFE0B2302100F061FE0F
:1025500037E0684850F8240000F44050B0F5805F40
:102560002FD1C4B9644A92F82C10E0B201F02CF8D3
:10257000604951F824104BF68F7201EA020080F492
:10258000805080F4005040F4004141F08001594AED
:1025900042F8241015E0E0B200F079FF554951F8F7
:1025A00024104BF68F7201EA020080F4805080F410
:1025B000005040F4004141F080014E4A42F824109E
:1025C00000BF484909684869804700207CE7FFE769
:1025D00000BF022078E72DE9F041414800684679C4
:1025E00026F080073C463E480068407910F0800F96
:1025F00005D0404850F8240000F0300504E03D4884
:1026000050F8240000F4405537480078A04208D91B
:1026100033480068408820B91DB131480068807A8D
:1026200010B90220BDE8F08116F0800F10D03149BA
:1026300051F8241048F6BF7201EA020080F0100041
:1026400040F4004141F080012A4A42F8241010E091
:10265000284951F824104BF68F7201EA020080F4E9
:10266000805040F4004141F08001224A42F8241099
:1026700000BF1C490968886980470020D2E710B56F
:1026800017480068407A40F02000154909684872F0
:1026900014490968C8698047002010BD10B502467A
:1026A0000F480068438A32B98888C01A0C4C2468E5
:1026B0002082002010BD08681844FBE72DE9F04196
:1026C0000748006800F110042688A06838B336B3C4
:1026D000A588B54200D93546A8B2A16888470DE063
:1026E0001C00002028000020C00100202000002045
:1026F00016000020005C0040C4010020074620882E
:10270000401B2080608828446080002000F02EFF5D
:102710008046AAB24146384600F01CFD00BF208822
:1027200050B14FF44050F74908800021084600F0AE
:1027300029FF3020F44908802088A188884204DBE2
:102740000320F2490968087218E02088002804DD97
:102750000520EE490968087210E0208870B906204B
:10276000EA49096808720021E948006880B2801CC3
:10277000E84A42F810103020E3490880BDE8F081B3
:102780002DE9F047E148006800F110052E88DF4888
:102790000068077AD6B9042F18D1DF4800780128DD
:1027A0000FD10021DA48006880B2801CD94A42F873
:1027B00010103020D449088000BF0020D64908708E
:1027C00003E007271020D049088027E0AC88A64204
:1027D00001D8042000E002200746B44200D9344664
:1027E000A0B2A96888478046002000F0AFFE81466D
:1027F000A2B24946404600F093FCA1B2002000F08E
:10280000C1FE2888001B288068882044688030200A
:10281000BD4908800002BB49088000BFBB49096868
:102820000F72BDE8F08770B50226B848006844789A
:10283000B6480068007810F07F0F4AD1092C03D108
:10284000FFF75DFD064665E0052C14D1AF48006832
:10285000C0787F280BDCAD480068807838B9AB4879
:102860000068808818B9A9480068807A08B10825EE
:102870006BE000264EE0032C14D1A4480068C07819
:1028800001280DD1A1480068808848B99F48006898
:10289000407A10F0200F03D0FFF7F1FE064639E032
:1028A000022637E0012C35D198480068C07801280D
:1028B0000DD196480068808848B994480068407AED
:1028C00010F0200F03D0FFF7ECFD064622E00226B1
:1028D00020E08E480068007800F07F00012805D1D4
:1028E0000B2C17D1FFF73AFD064613E08748006826
:1028F000007800F07F0002280BD1012C03D1FFF7F4
:10290000D0FD064606E0032C04D1FFF764FE064620
:1029100000E002264EB1E0B2804A12685169884751
:102920000646032E01D109250FE00EB108250CE063
:10293000062500217648006880B2801C754A42F85E
:10294000101030207049088000BF704909680D726E
:1029500070BD2DE9F84F6D48006845780027BA46EC
:10296000062D1AD169480068007810F07F0F13D146
:10297000664909688878012803D168490968CF69E0
:102980000AE0022803D1654909680F6A04E00328B8
:1029900002D1624909684F6A97E0002D65D15B4812
:1029A00000684088002860D158480068C088022824
:1029B0005BD1564800680079002856D1534800681A
:1029C000007810F07F0F06D150480068808810B959
:1029D000AFF2176779E04D480068007800F07F009B
:1029E000012811D14949096848794C4909688A691F
:1029F00000219047002868D144480068807A002868
:102A000063D0AFF2476760E040480068007800F0AC
:102A10007F00022859D13D480068407900F00F0638
:102A20003A480068407900F07009384800684079F9
:102A300010F0800F06D03648503850F8260000F0CD
:102A4000300805E03248503850F8260000F440586D
:102A500033480078B04238D9B9F1000F35D1B8F118
:102A6000000F32D0AFF2AB672FE0082D08D1274816
:102A70000068007810F07F0F27D1AFF29F7724E035
:102A80000A2D22D121480068007800F07F0001283B
:102A90001BD11E480068807AB8B11C480068408885
:102AA00098B91A480068007978B918480068C08851
:102AB00001280AD1154909684879184909688A69BD
:102AC0000021904708B9AFF28D7757B10F480068E1
:102AD000A0F812A00D48006887610020B8470024C4
:102AE00020E00A4A126850780C4A12681169884737
:102AF0000446032C16D10920044909680872BDE870
:102B0000F88F00002C0000202E0000201C00002068
:102B1000505C0040006000401400002020000020B5
:102B2000C0010020A4480068008AA0F57F41FF3959
:102B300004D10920A04909680872E0E7022C03D0FB
:102B40009D480068008A20B908209B4909680872DE
:102B5000D5E799480068007810F0800F3CD096487F
:102B60000068C088009094480068008A00998842F4
:102B700004D9914900980968088223E08E480068CA
:102B8000008A8D490968C98888421BDA8A4800682A
:102B9000008A8A49096891F82C10884203DA0020DB
:102BA000874908700EE084480068008A83490968F4
:102BB00091F82C1090FBF1F201FB120010B90120EA
:102BC0007F4908707D48006890F82C107A480068AA
:102BD0008182FFF7D5FD06E0032077490968087276
:102BE00000037849088000BF89E710B5764890F85F
:102BF0002C10002000F0E8FC6F480068007A0828DC
:102C000005D140026F4908801020704908806A4849
:102C10000068007A092801D1012010BD0020FCE7DE
:102C200038B501246A48006880B2001D694931F84E
:102C3000100080B201EB400000905F480068007A0D
:102C4000092832D0009800785B490968087000981C
:102C5000401C009000980078574909684870009817
:102C6000401C0090009800EB44000090009931F85F
:102C7000020B009100F046FE4F4909684880009819
:102C800000EB44000090009931F8020B009100F035
:102C900039FE494909688880009800EB440000909B
:102CA0000098008844490968C880012042490968A1
:102CB000087241480068C08810B9FFF7B4FD01E010
:102CC000FFF747FEFFF791FF38BD30B50146424B95
:102CD0001A78002012E0C3B23D4C503C54F8233027
:102CE00048F68F74234048F280042343C4B2234340
:102CF000C4B2374D503D45F82430401C9042EAD3D1
:102D000041F08003324C241F236030BD10B52A48A7
:102D10000068047A022C01D0042C05D1FFF730FDA5
:102D200025480068047A1CE0062C19D12248006866
:102D3000407805280ED120480068007810F07F0FF9
:102D400008D11D490968C878FFF7BFFF2349096802
:102D5000086A80471949096888688047082400E0A4
:102D60000824154909680C72FFF73FFF10BD10B524
:102D700011480068047A022C01D0042C01D10824E7
:102D800012E0032C01D0052C05D1FFF797FC0A486F
:102D90000068047A08E0072C05D108490968C8686A
:102DA0008047082400E00824034909680C72FFF7F3
:102DB0001CFF10BD704700001C00002020000020F8
:102DC000140000202C000020C40100202E00002050
:102DD000505C004000600040C0010020280000203E
:102DE00010B50848084908600220096808720748B9
:102DF00007490860074808490860054909680868E4
:102E0000804710BD580200201C000020C401002093
:102E100020000020F40100202800002008B5002038
:102E2000009015E1B748008800F00F00B64908701F
:102E30000846007800287DD1B4480068B44908806D
:102E40000846008800F03000B2490880B048008889
:102E500000F44050AE490880AC4909684BF6BF7297
:102E600001EA020080F4005080F0200040F40041AC
:102E700041F08001A54A1160A248008810F0100FAF
:102E800032D11046006848F60F71084011460860BC
:102E9000FFF73CFF9D4909684BF6BF7201EA02004B
:102EA0009B49098811F4805F01D080F480509849D3
:102EB000098811F4005F01D080F400509549098819
:102EC00011F0100F01D080F010009249098811F024
:102ED000200F01D080F0200081B241F4004141F088
:102EE00080018A4A116008BD8848006880B200905D
:102EF000BDF8000010F4006F36D084480068C0F3BD
:102F00000E0048F68F71084080490860FFF788FE80
:102F10007E4909684BF6BF7201EA02007C490988C4
:102F200011F4805F01D080F480507949098811F450
:102F3000005F00E052E001D080F40050754909883C
:102F400011F0100F01D080F010007249098811F0C3
:102F5000200F01D080F0200081B241F4004141F007
:102F600080016A4A1160BEE7BDF8000010F4004F0E
:102F70006ED066480068C0F30E0048F68F710840B6
:102F800062490860FFF7F3FE604909684BF6BF72BB
:102F900001EA02005E49098811F4805F01D080F4E3
:102FA00080505B49098811F4005F01D080F4005023
:102FB0005849098811F0100F01D080F010005549D0
:102FC000098811F0200F01D080F0200081B241F477
:102FD000004141F080014D4A116084E74A48007881
:102FE0004A4951F8200080B20090BDF8000010F46A
:102FF000004F14D04448007851F82000C0F30E0070
:1030000048F68F71084040490978404A42F821004B
:103010003D490978491E404A52F821008047BDF8D1
:10302000000010F0800F13D037480078374951F86E
:10303000200048F60F71084033490978334A42F8B6
:10304000210031490978491E344A52F8210080474D
:103050002E484430006880B22A49088010F4004F9E
:103060007FF4E0AE00BF3EE710B5002440E047F635
:10307000FF702649443108602248008800F00F00A4
:103080002149087008460078204951F8200084B290
:1030900014F4004F15D01C48007851F82000C0F3FC
:1030A0000E0048F68F71084017490978174A42F810
:1030B000210015490978491E174A52F82100804716
:1030C00016E014F0800F13D00F4800780F4951F824
:1030D000200048F60F7108400B4909780B4A42F866
:1030E000210009490978491E0C4A52F821008047FD
:1030F00006484430006880B20249088010F4004F4E
:10310000B5D110BD3001002018000020005C004047
:103110002C0000202E000020980100207C010020BF
:10312000F0B5144604F1010C4FEA6C07DFF848C013
:103130000CEB41033D460AE00678401C90F800C0C5
:1031400046EA0C2223F8022B9B1C401C6D1E002D0E
:10315000F2D1F0BDF0B5561C7510074E06EB4104D8
:103160002B4605E034F8047B20F8017B401C5B1EF5
:10317000002BF7D1F0BD000000600040F949086065
:103180007047F848006880B27047F649091D08602A
:103190007047F448001D006880B27047F14808305D
:1031A000006880B27047EF490C3108607047ED4805
:1031B0000C30006880B270474FF6F8710140E94A60
:1031C000103211607047E7481030006880B27047D5
:1031D000E44A403A42F8201070470146E14840383E
:1031E00050F8210080B27047DE4A403A52F8202061
:1031F00048F68F131A400A43DA4B403B43F820202D
:1032000070470146D748403850F8210000F4C060AC
:10321000704710B5D34B403B53F8203048F6BF748D
:1032200003EA040211F0100F01D082F0100211F035
:10323000200F01D082F0200242F4004343F08003CB
:10324000C84C403C44F8203010BD10B5C54B403B45
:1032500053F820304BF68F7403EA040211F4805FB8
:1032600001D082F4805211F4005F01D082F4005248
:1032700042F4004343F08003BA4C403C44F8203011
:1032800010BD10B502460B461046FFF7A6FF0446D8
:10329000012B06D124F48050B249403941F8220074
:1032A00007E0022B05D124F01000AE49403941F867
:1032B000220010BD0146AB48403850F8210000F014
:1032C000300070470146A748403850F8210000F40C
:1032D00040507047A34A403A52F8202048F6BF7346
:1032E00002EA030181F0100181F0200141F4004263
:1032F00042F080029B4B403B43F820207047994AA4
:10330000403A52F820204BF68F7302EA030181F411
:10331000805181F4005141F4004242F08002914B0F
:10332000403B43F8202070478E49403951F8201027
:1033300041F4807148F68F72114048F280021143C7
:10334000884A403A42F8201070478649403951F87F
:10335000201048F68F62114048F280021143814AE2
:10336000403A42F8201070477E49403951F8201009
:1033700048F68F62114048F280021143794A403A80
:1033800042F8201070477749403951F8201041F435
:10339000807148F68F72114048F280021143714AE1
:1033A000403A42F8201070476E49403951F82010D9
:1033B00041F4807148F68F72114048F28002114347
:1033C000684A403A42F8201070476649403951F83F
:1033D000201048F68F62114048F280021143614A82
:1033E000403A42F82010704701465E48403850F895
:1033F000210000F03000102801D10120704700208A
:10340000FCE701465748403850F8210000F440508E
:10341000B0F5805F01D1012070470020FCE75149E1
:10342000403951F82010C1F30E0148F68F72114057
:103430004C4A403A42F8201070474A49403951F806
:10344000201048F60F721140464A403A42F82010C8
:1034500070474449403951F8201048F68F721140A6
:103460004CF2800211433F4A403A42F82010704724
:103470003C49403951F8201048F68F72114048F20B
:10348000C0021143374A403A42F82010704735498C
:10349000403951F8201011F4804F0DD03149403996
:1034A00051F8201048F68F7211404CF280021143FF
:1034B0002C4A403A42F8201070472A49403951F8C6
:1034C000201011F0400F0DD02649403951F820103E
:1034D00048F68F72114048F2C0021143214A403A27
:1034E00042F8201070471F4A403A52F8202048F610
:1034F0008F731A4048F280031A430A43194B403B2A
:1035000043F82020704701461648403850F8210003
:1035100000F00F00704710B54A105300114A1032E6
:10352000126892B202EBC0020F4C44F8123010BD88
:1035300010B54A1053000B4A1032126892B202EBD7
:10354000C002121D084C44F8123010BD0146054857
:103550001030006880B200EBC100034A32F810005E
:1035600080B27047405C0040006000400146E8487F
:10357000006880B200EBC100001DE64A32F810007E
:1035800080B27047E24A126892B202EBC002921C0B
:10359000E04B43F81210704702463E290BDD4811FC
:1035A00011F01F0F01D1431E98B24FF4004343EABC
:1035B0008023136007E0481011F0010F01D0431C75
:1035C00098B283021360704710B50246D048006875
:1035D00080B200EBC200801DCE4C04EB40033E29BC
:1035E0000BDD481111F01F0F01D1441EA0B24FF4A2
:1035F000004444EA80241C6007E0481011F0010FE9
:1036000001D0441CA0B284021C6010BD0146C04819
:10361000006880B200EBC100801CBE4A32F8100086
:10362000C0F3090070470146B948006880B200EB5A
:10363000C100801DB74A32F81000C0F3090070477E
:1036400030B54B105C00B24B1B689BB203EBC00360
:10365000B04D45F8134053105C00AD4B1B689BB256
:1036600003EBC0031B1D45F8134030BD10B54A10D5
:103670005300A74A126892B202EBC002A54C44F86C
:10368000123010BD10B54A105300A14A126892B210
:1036900002EBC002121D9F4C44F8123010BD0146CF
:1036A0009B48006880B200EBC1009A4A32F81000D3
:1036B00080B2704701469648006880B200EBC100B6
:1036C000001D944A32F8100080B2704730B50B46A6
:1036D000012B1FD18E49096889B201EBC001891CF9
:1036E0008C4D05EB41043E2A0BDD511112F01F0FEA
:1036F00001D14D1EA9B24FF4004545EA8125256050
:1037000007E0511012F0010F01D04D1CA9B28D023B
:1037100025600AE0022B08D17D49096889B201EBD6
:10372000C001891C7B4C44F81120012B1FD1784922
:10373000096889B201EBC001891D764D05EB410492
:103740003E2A0BDD511112F01F0F01D14D1EA9B2FF
:103750004FF4004545EA8125256007E0511012F03D
:10376000010F01D04D1CA9B28D0225600AE0022B89
:1037700008D16749096889B201EBC001891D654C10
:1037800044F8112030BD30B5034601291FD16048EF
:10379000006880B200EBC300801C5E4D05EB400466
:1037A0003E2A0BDD501112F01F0F01D1451EA8B2A9
:1037B0004FF4004545EA8025256007E0501012F0DF
:1037C000010F01D0451CA8B2850225600AE002293C
:1037D00008D14F48006880B200EBC300801C4D4CFC
:1037E00044F8102030BD30B5034601291FD14848A8
:1037F000006880B200EBC300801D464D05EB40041D
:103800003E2A0BDD501112F01F0F01D1451EA8B248
:103810004FF4004545EA8025256007E0501012F07E
:10382000010F01D0451CA8B2850225600AE00229DB
:1038300008D13748006880B200EBC300801D354CCA
:1038400044F8102030BD01463148006880B200EBDA
:10385000C100801C2F4A32F81000C0F309007047E5
:1038600001462B48006880B200EBC100801D294A48
:1038700032F81000C0F30900704701462448006880
:1038800080B200EBC100801D224A32F8100010F413
:103890007C4F01D0012070471D48006880B200EBCA
:1038A000C100801C1B4A32F810008005800D01D039
:1038B0000220F0E70020EEE701290ED1144A503A29
:1038C00052F8202048F68F731A4048F2C0031A437A
:1038D0000F4B503B43F820200FE002290DD10C4A3A
:1038E000503A52F8202048F68F731A404CF2800369
:1038F0001A43074B503B43F820207047024641EAE9
:10390000022070470146CAB20B1243EA02207047F8
:10391000505C00400060004000201D4908604FF4EA
:103920003F401C490880084600881949091F086063
:10393000002070472DE9F04104460E46154604F07C
:103940007F00FFF703FE0746AAB239463046FFF76D
:10395000E7FBA9B204F07F00FFF714FE0020BDE8EA
:10396000F0812DE9F04104460E46002504F07F0069
:10397000FFF759FE054604F07F00FFF7F7FD074605
:103980002A4639463046FFF7E5FB2846BDE8F08178
:10399000445C00402600002010B501F09FFF10BDE0
:1039A00000B589B00020F5490880F5490880F5493F
:1039B0000880F5490880F54908804FF40070ADF89B
:1039C000200003208DF8220018208DF8230008A97C
:1039D000EF48FDF753F84FF48060ADF82000042065
:1039E0008DF8230008A9EA48FDF748F825208DF84E
:1039F0001C0000208DF81D0001208DF81E008DF8A0
:103A00001F0007A8FCF705FC03A8FEF70FFB4FF407
:103A1000E13003900020ADF81000ADF81200ADF8D1
:103A20001400ADF818000C20ADF8160003A9D94811
:103A3000FEF793FA0020ADF80400ADF806004FF44D
:103A40000070ADF808000020ADF80A0001A9D148C7
:103A5000FEF7F8FA012240F22551CE48FEF715FB99
:103A60000121CC48FEF705FB09B000BD70B501F09F
:103A7000D5FD0546C1480088C1490988401A04B2ED
:103A8000002C02DA04F57A7004B2284601F0CAFD6F
:103A9000A0B270BD70B501F0C1FD0546B9480088FF
:103AA000B9490988401A04B2002C02DA04F1640012
:103AB00004B2284601F0B6FDA0B270BD70B5044650
:103AC000012501F0ABFD0646FFF7D0FF40F2E731DC
:103AD000884201DB002518E0A848B0F900100088F2
:103AE000401C00B2A54A1080AB4844541046B0F9BF
:103AF0000000B0F57A7F02DB002011460880012229
:103B000040F22771A348FEF7C0FA304601F08AFD63
:103B1000284670BD70B501F081FD0546FFF7BAFF7C
:103B200028B9284601F07EFD4FF0FF3070BD964861
:103B3000B0F900100088401C00B2934A10809748EA
:103B4000445C1046B0F90000642802DB00201146F6
:103B50000880284601F066FD2046E7E72DE9F041A0
:103B600004460D460127002608E014F8010BFFF774
:103B7000A5FF08B9002703E0701C86B2AE42F4DB53
:103B800000BF3846BDE8F0812DE9F04106460F46FA
:103B90004FF00108002520E0705D0411092C05DCC0
:103BA00004F13001C8B2FFF789FF04E004F13701E6
:103BB000C8B2FFF783FF705D00F00F04092C05DC2D
:103BC00004F13001C8B2FFF779FF04E004F13701D6
:103BD000C8B2FFF773FF681C85B2BD42DCDB40460C
:103BE000BDE8F0817CB504460D460126082D07D1BD
:103BF000E0B28DF8000001216846FFF7C5FF1EE026
:103C0000102D0AD1200A8DF80000E0B28DF80100D5
:103C100002216846FFF7B8FF11E0202D0FD1200EDA
:103C20008DF80000200C8DF80100200A8DF80200AC
:103C3000E0B28DF8030004216846FFF7A5FF304687
:103C40007CBD70B50446012506E014F8010BFFF7B2
:103C500035FF08B9002502E020780028F5D100BF23
:103C6000284670BD70B5002520E0FFF753FF44B231
:103C7000202C0BDB7F2C09DA4448B0F900200088A7
:103C8000401C00B2414B1880454884543F48B0F96D
:103C90000000B0F5957F01DA0D2C07D100204049D6
:103CA0003A4AB2F900208854012503E0FFF7F2FEFA
:103CB0000028DAD100BF284670BD70B501F0AEFC17
:103CC000054638480078401C36490870284601F0FF
:103CD000A9FC40F225512F48FEF7BCFAF0B12D485F
:103CE000FEF738FAC4B2FFF7D5FE632811DA25488B
:103CF000B0F900100088401C00B2224A108027480A
:103D000044541046B0F90000642802DB002011463C
:103D1000088040F225511F48FEF7C6FA40F227718D
:103D20001C48FEF797FA28B3FFF7A0FE00281BDD1A
:103D300040F227711748FEF7B7FA1148B0F9002092
:103D40000088401C00B20E4B18801348815C11485B
:103D5000FEF7FCF90A48B0F90000B0F57A7F09DBFC
:103D600000200749088005E0002240F22771094839
:103D7000FEF78BF900F0CEFC70BD00003200002091
:103D800030000020360000203400002038000020E1
:103D90000008014000380140740200205C06002049
:103DA000C00600205100002000B585B06846FDF730
:103DB000AEF8019805B000BD7047704710B50446D5
:103DC000204601F035FB10BD10B50446204601F039
:103DD00030FB10BD10B501F02DFB10BD10B501F08A
:103DE0002AFB10BD70B5044610464FF08075056083
:103DF000051F28462C606FF00106051F28462E601F
:103E00004FF01236051F28462E604FF00336051F6F
:103E100028462E604FF00236051F28462E60761089
:103E2000051F28462E60051F284629604FF01136D1
:103E3000051F28462E604FF01036051F28462E60BD
:103E40004FF00936051F28462E604FF00836051F33
:103E500028462E604FF00736051F28462E604FF08B
:103E60000636051F28462E604FF00536051F2846EA
:103E70002E604FF00436051F28462E6070BD10B529
:103E800001F0DAFA10BD10B50446204601F0D5FA6B
:103E900010BD10B501F0D2FA10BD10B501F0BEFB97
:103EA000044614480078401C12490870204601F06E
:103EB000B9FB00F028FD00F02DFC10BD10B5FFF798
:103EC00073FF4FF47A71B0FBF1F4601E4FF0E02104
:103ED0004861FF20084908704FF0E020006940F079
:103EE00005004FF0E02108610846006940F002003B
:103EF000086110BD5100002023ED00E0174818486C
:103F00001848194819481A481A481B481B481C48A1
:103F10001C481D481D481E481E481F481F48204871
:103F20002048214821482248224823482348244841
:103F30002448254825482648264827482748284811
:103F40002848294829482A482A482B482B482C48E1
:103F50002C482D482D4800BF704700009C70000879
:103F6000A0700008A4700008A6700008A8700008DF
:103F7000AA700008AC700008AE700008B0700008AD
:103F8000B2700008B4700008B6700008B87000087D
:103F9000BA700008BC700008BE700008C07000084D
:103FA000C2700008C4700008C6700008C87000081D
:103FB000CA700008CC700008CE700008D0700008ED
:103FC000D2700008D4700008D6700008D8700008BD
:103FD000DA700008DC700008DE700008E07000088D
:103FE000E2700008E4700008E6700008E87000085D
:103FF000EA700008EC700008EE700008F07000082D
:10400000F2700008F4700008F6700008F8700008FC
:104010000246002005E011F8013B02F8013B431C79
:10402000D8B20B78002BF6D1137070472DE9F04110
:1040300005460E4614460027F8480078002804DD9F
:10404000112020700020BDE8F0812878012808D0D8
:10405000022807D0032802D0042804D100E000BFC2
:1040600000BF00BF03E0012020700020EBE700BF8D
:1040700001F0D4FA074605F113013046FFF7C8FFF7
:104080008046384601F0CEFA002020704046DAE73C
:104090000146002002E0491C421CD0B20A78002AE6
:1040A000F9D170472DE9F04105460F4614464FF00F
:1040B0000008DA480078002803DD12202070BDE8EF
:1040C000F0812878012808D0022807D0032802D0E0
:1040D000042804D100E000BF00BF00BF02E00120BF
:1040E0002070ECE700BF01F099FA80463846FFF7F0
:1040F000CFFF06460F2E05DD404601F093FA0B2058
:104100002070DCE7394605F11300FFF781FF4046D8
:1041100001F088FA0020207000BFD0E7F0B5024619
:1041200012F82E4F95785678A2F12E020B46186899
:104130000FE000F10B073F5DB74300F10B0C0CF8EB
:10414000047067463F5D17B9877AAF4387721B1DBE
:1041500018680028EDD1F0BDB149B24A1278885CE8
:10416000B149095CAE4A515C01EBC001AF4A117024
:10417000704710B5002401F051FA0446A7480078B2
:10418000F0B9AB480078D8B9FFF7E6FFA748007848
:10419000A8490978884213D0A748A449097850F85B
:1041A0002100A649086008460068406B401C096869
:1041B0004863A3480068401CA149086001F045FA23
:1041C000204601F02FFA10BD70B5014600249D4D28
:1041D0002D68EC619B4C246821620B4618681BE03B
:1041E000984C246894F82E5000F10B04645D954DB2
:1041F0002D6895F82F502C43924D2D6895F82E6020
:1042000000F10B05AC55847A8E4D2D6895F8305031
:104210002C4384721B1D18680028E1D1894C246846
:1042200094F82E20804CA45C864D2D6895F82F5074
:10423000AC437D4DAC542C46A45C44B9814C2468FD
:1042400094F83050774C2478AC43764D2C7070BD88
:104250002DE9FF4F83B080460D461646109F002083
:1042600001902860C146D9F8004015E02078012867
:1042700004D0042804D0052801D102E007E000BFE3
:1042800000BF01203870002007B0BDE8F08F00BFEC
:1042900009F10409D9F80040002CE7D15F48007803
:1042A000002803DD022038700020EDE76048007828
:1042B000002803DD0D2038700020E5E701F0AEF99D
:1042C00001900020029082468346C146D9F8004002
:1042D00028E02078012804D0042814D0052811D122
:1042E00012E0606858B1606801C60020606010C5C7
:1042F000012002900AF101001FFA80FA01E04BF060
:10430000020B0AE000BF00BF019801F08BF900200A
:104310002860012038705046B6E700BF09F1040953
:10432000D9F80040002CD4D10298012808D10020EF
:104330002860019801F076F9002038705046A3E714
:104340004048006890F82A004BF0800108433D493E
:10435000096881F82A0000203A49096881F82B0091
:1043600038490698096808854046FFF72DFF0198EF
:1043700001F058F9FFF7FDFE01F050F901903148C6
:10438000006890F82B0020B101281BD0022818D11A
:1043900000E000BF2B480068C4693CB110C5002094
:1043A00028600AF101001FFA80FA09E0012025497E
:1043B000096881F82B00414622480068FFF7AEFEED
:1043C00006E000BF41461F480068FFF7A7FE00BF98
:1043D00000BF1C48006890F82B0020B101283DD098
:1043E00002283AD134E02078012806D0022805D0EE
:1043F000042809D0052806D107E000BF114800684D
:10440000406A01C620E000BF00BF019801F00AF930
:104410000020286001203870504635E75100002008
:10442000FA700008550000205600002054000020BB
:104430005200002053000020540D00206C0000208A
:104440003C0000206400002000BF002038700AE01B
:10445000002001C60E20387005E000BF002001C614
:104460000A20387000BF00BF0020FE49096881F8AB
:104470002A00FC49096881F82B00FA490968C861DB
:10448000F84909680862F74909684862019801F02B
:10449000C9F85046F8E67CB5002514E06946284680
:1044A00000F00FFF064666B9EF4850F8254044B1CA
:1044B000012C06D0D4E9020100EB810020640198B0
:1044C0006064681CC5B23F2DE8DD7CBD002402E0BD
:1044D000C82000F0C1FFE54800780028F8D0E44883
:1044E00000686421B0FBF1F0E1490860084600680B
:1044F00028B90020DF490870FF2000F024FF00BF2A
:1045000001F08CF80446DC480068DC4908600020B3
:10451000D9490860204601F085F8D8480068D44998
:104520000968B0FBF1F0C0F16400D2490870FFF7F0
:1045300055FCFFF7B0FF642000F08EFFE0E700B508
:1045400087B0032000218022CD4BCDE90132CDE997
:1045500003104FF6FE703E23CA4A0090AFF293005C
:1045600000F0AEFC06AAC8A13E2000F018FE07B07D
:1045700000BD002400BF01F051F80446BE480068A9
:10458000401CBD490860204601F04CF8FFF722FCB2
:10459000F1E700B587B0032000218022BE4BCDE9B2
:1045A0000132CDE903104FF6FF703F23BB4A009064
:1045B000AFF2410000F084FC06AAB9A13F2000F050
:1045C000EEFD07B000BD04E0002200F8012B4A1EFA
:1045D00091B20029F8DC704730B54FF4B471B4489B
:1045E000FFF7F1FFB24B03F1240500240AE000209D
:1045F00018705D603F20D87400211975243324356C
:10460000601C84B2092CF2DB0020187058603F2037
:10461000D87400211975A648A649086030BD30B588
:104620004FF4F261A448FFF7CEFF4FF480718E483B
:10463000FFF7C9FFA04B03F1580500240AE05D61B4
:104640003F2083F8480000214920C1545833583591
:10465000601CC4B2152CF2D3002058613F2083F8AF
:10466000480000214920C154002094490860924824
:104670009349086030BD0022924B1A709249002085
:1046800004E0002201F8012B421CD0B20828F8DB1C
:1046900000228E4B1A708E4B1A708E4B1A60714B23
:1046A0001A60704700208C4908608C4908708C495A
:1046B00008708C4908708C4908708C4908606E49F4
:1046C00008606E4908606A49086068490870704768
:1046D00010B5FFF771FBFFF7E5FFFFF7CCFFFFF722
:1046E0009EFFFFF779FFFFF754FFFFF728FFFFF763
:1046F00064FBFFF703FC10BD7B480078012808D15C
:1047000076480078FF2804D274480078401C73492A
:104710000870704710B5002473480078012830D124
:1047200000F07CFF04466D480078002804DD6B48EB
:104730000078401E6949087068480078F0B96848F8
:104740000078D8B9FFF708FD614800785F4909781B
:10475000884213D044485E49097850F821005D49E9
:10476000086008460068406B401C096848635F4861
:104770000068401C5D49086000F06CFF204600F0B6
:1047800051FF10BD10B5002457480078012811D101
:1047900000F044FF04465148007840B95048007882
:1047A000FF2804D24E480078401C4D49087020462E
:1047B00000F038FF10BD10B500244B4800780128E8
:1047C00022D100F02BFF044645480078002818DD70
:1047D00043480078401E424908700846007860B996
:1047E0003E48007828B9204600F01CFFFFF7C1FCC6
:1047F0000AE0204600F016FF06E0204600F012FF17
:1048000002E0204600F00EFF10BD10B536480078DB
:1048100090B9FFF7A1FC2E4800782C490870124887
:104820002B49097850F821002A4908600846006899
:104830000C49086000F0F9FE10BD10B500240220FC
:1048400000F00AFE00F0EAFE044600200A49086073
:10485000204600F0E7FE642000F0FEFD00F0DEFEE2
:10486000044645E064000020540D00205000002064
:104870004800002044000020600000204C00002080
:1048800054090020500B002075432F4F532D4949E8
:104890002053746174000000540B0020500D002060
:1048A00075432F4F532D49492049646C6500000022
:1048B000EC07002040000020540E00207000002073
:1048C0006800002055000020560000205300002002
:1048D000540000206C0000207800002051000020CF
:1048E000520000205F0000205E0000203C000020FD
:1048F000D6480068D64908600120D649087020468D
:1049000000F090FE10BD70B50026FFF7C2FA00F06F
:1049100085FE0646D0480068401CCF4908603046F6
:1049200000F080FECD480078012858D1CC480078AE
:1049300020B1012804D0022809D103E001250BE0B1
:10494000002509E001250120C549087004E0012582
:104950000020C349087000BF00BF05B970BDC14841
:10496000046838E000F05AFE0646208D78B3208DAA
:10497000401E0004000C208529D194F82A0010F074
:10498000370F09D014F82A0F20F0370020700120CB
:104990006070A4F12A0402E0002084F82B0094F84F
:1049A0002A0010F0080F12D104F12E04A078AE49AD
:1049B000097840EA0100AC4908702078AB49085CEE
:1049C000617840EA010014F82E19A84A505464692D
:1049D000304600F027FE94F82C003F28C2D100BFDB
:1049E000BCE74FF48F707047704710B590F82E20D9
:1049F00001F10B039B5C90F82F40A34301F10B04E2
:104A0000A35423469B5C23B98B7A90F83040A34390
:104A10008B7210BD2DE9F04F05460F469046994622
:104A2000A87A93490E5C05F10B00805D11F800B087
:104A30000BEBC60000F0FF0A8E4850F82A40002019
:104A400004F12404A0802760A07920EA0800A07166
:104A500084F80790A079A4F1240410F0080F0DD178
:104A600094F830008049097808437F4908707F48EE
:104A7000805D94F82F1008437C49885529462046CC
:104A8000FFF7B3FF206A20B12046216AFFF746FBFB
:104A9000E5615046BDE8F08F10B5774A1268D061E5
:104AA000754A126892F82E3000F10B02D25C724BFC
:104AB0001B6893F82F301A436F4B1B6893F82E40F6
:104AC00000F10B031A55827A6B4B1B6893F8303058
:104AD0001A438272684A126892F82E10634A525C36
:104AE000654B1B6893F82F309A43604B5A541A4613
:104AF000525C42B9604A126892F830305A4A1278D1
:104B00009A43594B1A7010BD0023837200F10B01B8
:104B1000002204E0002301F8013B531CDAB2082A0A
:104B2000F8DB704705E011F8013B00F8013B531E2C
:104B30009AB2002AF7DC70472DE9F84F05460E4679
:104B400017469846DDE90BABDDF828900020009071
:104B500000F064FD009049480468002C71D054F8BE
:104B6000140F46490860009800F05CFD44F8146C8E
:104B700025760020A075E075A08244F810AC44F8BA
:104B8000089C44F80C7C24F804BC24F8028C607760
:104B9000E810A07605F007006076A17E012088402D
:104BA0002077617E01208840E0760020A060E060F0
:104BB00020612062A0626062E06220633F2084F88E
:104BC0003400A4F114044FF000014FF049000155E6
:104BD0002046FFF758F92046FFF7F0F800F01EFDD9
:104BE0000090244840F825401E480068606100207D
:104BF000A0611C48006810B11A4800688461194817
:104C0000046004F12E04A0781749097840EA0100F5
:104C10001549087020781549085C617840EA010060
:104C200014F82E19114A50541548007800F101006B
:104C300013490870009800F0F5FC0020BDE8F88FDB
:104C4000FFE7009800F0EEFC4220F7E7600000204C
:104C50004800002050000020780000205E00002066
:104C60007400002070000020550000205600002035
:104C7000FA700008540D0020640000206800002035
:104C80005F0000202DE9F34F85B088460020019099
:104C900000F0C4FC0190FE4850F8280030B10198A3
:104CA00000F0C0FC282007B0BDE8F08F0598FF2871
:104CB00004D1F848006890F82C000590F449059854
:104CC00051F8205025B9019800F0ACFC2920EAE702
:104CD000012D04D1019800F0A5FC4320E3E74FEA41
:104CE000E80708F0070003900120B84000F0FF0932
:104CF00001210398814001F0FF0A0021E44A059850
:104D000042F82010104640F8285095F82E6095F88B
:104D10003000029095F82FB0DF48805D10EA0B0F4D
:104D20001AD0DD48805D20EA0B00DB498855084633
:104D3000805D28B9D948007802998843D74908701E
:104D4000D648007840EA0900D4490870D248C05DCE
:104D500040EA0A00D049C855EC69D4B104F10B000F
:104D6000805D20EA0B0004F10B0188550846805D48
:104D700018B9A07A02998843A072A07A40EA090083
:104D8000A07204F10B00C05D40EA0A0004F10B01BF
:104D9000C855286A30B3286A0490049804681FE054
:104DA00004F10B00805D20EA0B0004F10B01885533
:104DB0000846805D18B9A07A02998843A072A07A4B
:104DC00040EA0900A07204F10B00C05D40EA0A004D
:104DD00004F10B01C8550498001D04900498046860
:104DE000002CDDD185F82C8085F82E70039885F88D
:104DF0002D0085F8309085F82FA0019800F012FC66
:104E0000A7480078012801D1FFF7B3F900204AE74D
:104E10002DE9FE4F06460F4690461C464FF000090E
:104E200000F0FCFB81469F480078002805DD4846DD
:104E300000F0F8FB3C20BDE8FE8F954850F82400B8
:104E400060BB0120924941F82400484600F0EAFB8B
:104E50000023424639463046FEF7C4FF8246002012
:104E60000090019003460246514602902046FFF70B
:104E700063FE054635B98A48007801280CD1FFF752
:104E800078F909E000F0CAFB81460020804941F82A
:104E90002400484600F0C6FB2846CCE7484600F010
:104EA000C1FB2820C7E712F0010F08D012F0020F53
:104EB00005D002E0491E002308C00029FAD170473E
:104EC0002DE9F04F85B081468A4693461C46DDE9C0
:104ED0000F78129D0020039000F0A0FB0390714812
:104EE0000078002806DD039800F09CFB3C2005B00C
:104EF000BDE8F08F664850F8240088BB0120644963
:104F000041F82400039800F08DFB2A4641463846BC
:104F1000FFF7C9FF2B465A4651464846FEF762FF47
:104F200004901198CDE9008002953A4620460E9BE8
:104F30000499FFF701FE064636B959480078012862
:104F40000CD1FFF716F909E000F068FB0390002090
:104F50004F4941F82400039800F064FB3046C6E74F
:104F6000FFE7039800F05EFB2820C0E770B5054618
:104F700000264C480078002801DD402070BD3F2D00
:104F800001D13E20FAE700F049FB0646FF2D03D190
:104F90004048006890F82C503D4850F8254024B90E
:104FA000304600F03FFB4320E8E7012C04D13046B7
:104FB00000F038FB3D20E1E714F82E0F3649085C7D
:104FC000617888432178344A505414F82E091146E8
:104FD000085C30B994F830103048007888432F4985
:104FE0000870E06918B12046E169FFF7FEFC206A0D
:104FF00018B12046216AFFF791F80020208584F837
:105000002A0084F82B0028480078FF2804D226487C
:105010000078401C24490870304600F003FBFFF77D
:10502000E3FC00F0FBFA06461F480078002804DD88
:105030001D480078401E1C4908702046FEF7C4FE3B
:105040001A480078401E194908700020104941F89C
:105050002500A06930B90020616988611449606940
:10506000086005E0D4E905014861D4E905108861CC
:105070001048006860610F4804603F2084F84800D1
:10508000002149200155304600F0CCFA044813E0D5
:10509000540D002064000020560000205500002020
:1050A0005E00002051000020520000205F00002020
:1050B00070000020680000200078012801D1FFF76F
:1050C00058F800205AE72DE9F041044600273F2C0C
:1050D00002D13E20BDE8F081FF2C0BD100F09EFAFA
:1050E0000746D748006890F83160384600F09AFAD1
:1050F0003046EFE700F092FA0746D24850F82450C5
:1051000025B9384600F08EFA4320E3E7012D04D19B
:10511000384600F087FA3D20DCE73F2085F8310073
:10512000384600F07FFA0020D4E72DE9F047064624
:105130000F4614464FF00008C3480078002804DDED
:10514000112020700020BDE8F08700F067FA80464B
:10515000FF2E03D1BA48006890F82C60B94850F887
:10516000265035B9404600F05DFA432020700020FB
:10517000E9E7012D06D1404600F054FA43202070A3
:105180000020E0E705F148013846FEF741FF81467F
:10519000404600F047FA002020704846D3E72DE94A
:1051A000F0470646884614464FF00009A6480078A6
:1051B000002803DD12202070BDE8F08700F02EFAF1
:1051C0008146FF2E03D19E48006890F82C609D48D0
:1051D00050F826502DB9484600F024FA432020709C
:1051E000EAE7012D05D1484600F01CFA4320207063
:1051F000E2E74046FEF74CFF07460F2F05DD484625
:1052000000F010FA41202070D6E7414605F1480031
:10521000FEF7FEFE484600F005FA0020207000BFB1
:10522000CAE770B50546002600F0F8F9064685483D
:1052300050F8254024B9304600F0F4F9462070BDFE
:10524000012C04D1304600F0EDF94320F7E794F843
:105250002A0010F0080F2FD014F82A0F20F00800B1
:10526000207014F82A0910BB208DE0B904F12E0437
:10527000A0787649097840EA0100744908702078DE
:105280007349085C617840EA010014F82E19704AED
:105290005054304600F0C6F96E480078012809D114
:1052A000FEF767FF06E0304600F0BCF902E030464A
:1052B00000F0B8F90020C2E7304600F0B3F944200E
:1052C000BDE72DE9F04707460D464FF0000A0020E4
:1052D0002860686000F0A2F98246FF2F03D1584889
:1052E000006890F82C70574850F827402CB9504669
:1052F00000F098F94320BDE8F087012C04D1504616
:1053000000F090F94320F6E7207C10F0010F04D163
:10531000504600F087F94520EDE70026D4F80C90C0
:10532000D4F80880504600F07DF900E0761C58F86B
:10533000041B0029FAD0B0002860A9EB0600800009
:1053400068600020D7E72DE9F04105464FF00008DE
:1053500000F064F98046FF2D05D13948006890F8C7
:105360002C50012608E03648006890F82C00A8422E
:1053700001D1012600E00026324850F825402CB922
:10538000404600F04FF94820BDE8F081012C04D1DF
:10539000404600F047F94320F6E794F82E702C4879
:1053A000C05D94F82F1088432949C8550846C05D50
:1053B00030B994F8301025480078884323490870A4
:1053C00094F82A0040F0080084F82A00404600F0D3
:1053D00029F9012E01D1FEF7CCFE0020D4E72DE9FA
:1053E000F04105460E46002700F018F90746FF2D4C
:1053F00003D11348006890F82C50124850F825400B
:105400002CB9384600F00EF92920BDE8F081012CB6
:1054100004D1384600F006F94320F6E75822214629
:105420003046FFF77FFB384600F0FCF80020ECE741
:10543000704770477047704770477047704700006B
:1054400064000020540D0020510000205500002071
:10545000560000205E00002070B505460026694811
:105460000078002800DD70BD002D23DD00F0D6F8A7
:1054700006466548006890F82E406448005D624921
:10548000096891F82F108843604908550846005D67
:1054900040B95D48006890F830105D480078884356
:1054A0005B490870584800680585304600F0BAF836
:1054B000FEF75FFE00BFD6E72DE9F04707468846B6
:1054C00091461D464F480078002802DD5520BDE872
:1054D000F0874FF47A7068434FF47A71B0FBF1F1C2
:1054E0004FF461607843C8EB081200EB8200484437
:1054F00000EB4002C2EBC01001EBC004260CA4B2CA
:105500002046FFF7A9FF09E04FF40040FFF7A4FF92
:105510004FF40040FFF7A0FF701E86B2002EF3DCB0
:105520000020D4E770B5054600263F2D01DB2A2078
:1055300070BD00F073F80646364850F8254024B98F
:10554000304600F06FF84320F2E7012C04D13046DA
:1055500000F068F84320EBE7208D20B9304600F0DA
:1055600061F85020E4E70020208594F82A0010F02C
:10557000370F09D014F82A0F20F0370020700120CF
:105580006070A4F12A0402E0002084F82B0094F853
:105590002A0010F0080F18D104F12E04A0781C493D
:1055A000097840EA01001A49087020781749085C18
:1055B000617840EA010014F82E19144A505430461C
:1055C00000F030F8FEF7D5FD02E0304600F02AF892
:1055D0000020ADE770B5002500F020F805460E4824
:1055E0000468284600F01EF8204670BD70B50446D9
:1055F000002500F013F8054607480460284600F02F
:1056000011F870BD510000206400002056000020F9
:1056100055000020540D002078000020EFF310808A
:1056200072B6704780F3108870471D484FF0FF0135
:105630000170002080F309881A48012101701A487E
:105640004FF08051016062B6FEE717484FF080517D
:105650000160704714484FF080510160704772B686
:10566000EFF3098028B1203880E8F00F0F4909686E
:10567000086000B50E4880475DF804EB0D480E4900
:105680000A78027009480D490A680260106890E8BB
:10569000F00F203080F309884EF0040E62B6704798
:1056A00022ED00E05E00002004ED00E06400002038
:1056B0007F3E000853000020540000206C000020B2
:1056C00070B586B001A8FBF722FC4FF47A710298FE
:1056D000B0FBF1F42146B1F1807F00D31DE021F051
:1056E0007F40401E4FF0E022506150170F220028EB
:1056F00007DA13071E0E7D4B00F00F052D1F5E55B8
:1057000003E013071D0E7A4B1D5400BF00204FF01D
:10571000E02290610720106100BF06B070BD0EB599
:105720006846FCF7C9F841F27070ADF804000B2030
:10573000ADF800000020ADF80600ADF802006946A3
:105740004FF08040FBF78CFD01218807FCF7AAFB96
:10575000012211469007FCF7FAF801218807FCF7AF
:10576000DBF80EBD08B54FF6FF70ADF80000042061
:105770008DF8030069465F48FBF780F969465E488B
:10578000FBF77CF969465D48FBF778F969465C48A8
:10579000FBF774F969465B48FBF770F9FBF764F9AE
:1057A00008BD08B500214FF00060FAF765FD1C2028
:1057B0008DF8000000208DF801008DF80200012016
:1057C0008DF803006846FAF724FD08BD70B5002483
:1057D000FBF7A0FA4FF48030FBF7BCFAFBF7F9FABD
:1057E0000546012D31D10020FBF739FB0020FBF7E6
:1057F00048FBA802FBF73CFB0220FAF701FE102051
:10580000FAF712FE4FF4E0112804FBF70BFB01201E
:10581000FBF714FB00BF06E03920FBF7BEFA00B12E
:1058200003E0601C84B2142CF6DB00BF0220FBF7FF
:1058300008FB002406E0FBF70DFB082800D103E07D
:10584000601C84B2142CF6DB00BF01217C20FBF726
:10585000CBFB01210846FBF7D4FB01210220FBF71B
:10586000D0FB012144F20100FBF7BEFB01214FF404
:105870006020FBF7C6FB01218803FBF7C2FB012177
:10588000C802FBF7BEFB01214FF0C050FBF7B9FB8C
:1058900001214802FBF7A8FB01210846FBF797FB13
:1058A00070BD10B500F0FCF8FFF790FFFFF779FF2F
:1058B000FFF758FFFFF733FFFFF702FF012108460C
:1058C000FBF792FB01211048FBF7A7F9FEF764F8FC
:1058D00010BD7047704770477047704710B5054856
:1058E000FBF76CF8FEF75CF810BD000018ED00E067
:1058F00000E400E000080140000C014000100140FD
:1059000000140140001801400002300005E0FEF7DD
:10591000A9F941F28830FFF79FFDF8E700BFFFF7D4
:10592000C0FF00F03DF903E04FF47A70FFF794FDFB
:10593000FAE710B5FEF7CCFE0F23074A0021AFF2BD
:105940002300FFF765FAFEF760FF002010BD00E0BE
:10595000401E0028FCD17047E0190020704700BFAE
:10596000FEE700BFFEE700BFFEE700BFFEE77047AF
:105970007047704710B5FEF790FA10BD10B50121C1
:105980008807FCF792FA58B101218807FCF79EFAC4
:10599000FFF744FE044600F08CFB2046FFF742FE72
:1059A000FEF7B8FE10BD10B500F0E1FB10BD10B55C
:1059B00000F0D9FB10BD10B54FF48020FAF717FDA9
:1059C00010BD00000CB50020019000906B480068ED
:1059D00040F480306949086000BF6848006800F4FE
:1059E000003000900198401C0190009818B901986F
:1059F000B0F5A06FF1D16148006810F4003F02D00B
:105A00000120009001E0002000900098012842D180
:105A10005B48006840F0100059490860084600687B
:105A200020F0030008600846006840F002000860AB
:105A300052484068514948600846406848600846F6
:105A4000406840F4806048600846406820F47C105C
:105A500048600846406840F4E8104860084600681E
:105A600040F08070086000BF4448006810F0007F7C
:105A7000FAD04248406820F0030040494860084698
:105A8000406840F00200486000BF3C48406800F0B9
:105A90000C000828F9D10CBD10B5FFF793FF10BD1D
:105AA00010B53648006840F00100344908600846E7
:105AB0004068344908403149486008460068324926
:105AC00008402E4908600846006820F480200860DD
:105AD0000846406820F4FE0048604FF41F008860CC
